{
	"data": {
		"bytecode": {
			"linkReferences": {},
			"object": "608080604052346071573315605e575f8054336001600160a01b0319821681178355916001600160a01b03909116907f8be0079c531659141344cd1fd0a4f28419497f9722a3daafe3b4186f6b6457e09080a36122d690816100768239f35b631e4fbdf760e01b5f525f60045260245ffd5b5f80fdfe60806040526004361015610011575f80fd5b5f3560e01c806327e7a2b7146116005780632b0d6076146115ae57806335ebd1c61461153b57806352e30497146115115780635300f7d414610c875780636ef19c9d14610ca4578063715018a6146114ad578063775a25e314611490578063857eab221461142a57806387a61cbd146110ee57806388f3528e14610ffc57806389adacf214610f055780638da5cb5b14610ee05780638f72fc7714610d705780639c3f1e9014610cdc578063a54247ae14610ca4578063a8a6d53814610c87578063bc4998b114610c4a578063c618a1e414610c2d578063c67bbc2414610c2d578063c767a14114610bde578063cc2a717b14610b9d578063cdb3cd2514610b2d578063d1f5d212146104c0578063d25285f514610340578063d3284d8e146102b2578063d7f23b611461027a578063e0f2bdd314610238578063e35b5e1d146101e35763f2fde38b14610163575f80fd5b346101df5760203660031901126101df576001600160a01b036101846116ba565b61018c61227a565b1680156101cc576001600160a01b035f548282198216175f55167f8be0079c531659141344cd1fd0a4f28419497f9722a3daafe3b4186f6b6457e05f80a3005b631e4fbdf760e01b5f525f60045260245ffd5b5f80fd5b346101df5760403660031901126101df576102366101ff611a61565b335f52600660205261021760ff60405f205416611b8a565b6004355f52600860205260405f209060ff801983541691151516179055565b005b346101df5760403660031901126101df57335f52600660205261026160ff60405f205416611b8a565b6004355f526008602052602435600d60405f2001555f80f35b346101df5760203660031901126101df576004356002548110156101df576102a3602091611b5a565b90549060031b1c604051908152f35b346101df5760203660031901126101df576001600160a01b036102d36116ba565b165f52600960205260405f2080546102ea8161224e565b916102f86040519384611784565b81835260208301905f5260205f205f915b838310610322576040518061031e8782611afb565b0390f35b600f602060019261033285611897565b815201920192019190610309565b346101df5760203660031901126101df576001600160a01b036103616116ba565b165f52600a60205260405f208054906103798261224e565b916103876040519384611784565b8083526020830180925f5260205f205f915b83831061045457848660405191829160208301906020845251809152604083019060408160051b85010192915f905b8282106103d757505050500390f35b919360019193955060208091603f1989820301855287519060808061043e610408855160a0865260a08601906119b8565b6001600160a01b038787015116878601526001600160a01b03604087015116604086015260608601518582036060870152611940565b93015191015296019201920185949391926103c8565b6013602060019260405161046781611768565b61047086611897565b81526001600160a01b03600f87015416838201526001600160a01b0360108701541660408201526104a3601187016117a6565b606082015260128601546080820152815201920192019190610399565b346101df5760803660031901126101df576104d96116d0565b604435906001600160a01b0382168092036101df576064359167ffffffffffffffff83116101df57366023840112156101df5782600401359167ffffffffffffffff83116101df5736602484860101116101df576001600160a01b0390335f52600660205261054e60ff60405f205416611b8a565b1690815f52600a60205260405f20916004355f5260086020525f602060408220956105846040519761057f89611768565b611897565b875281870193845260408701948552806024604051996105ad85601f19601f860116018c611784565b828b5201838a013787010152606084019485526080840192428452805468010000000000000000811015610946576105ea916001820181556116e6565b949094610b1a575161060b81511515869060ff801983541691151516179055565b602081015160018601556001600160a01b036040820151166001600160a01b036002870191166001600160a01b03198254161790556060810151600386015560048501608082015180519067ffffffffffffffff821161094657610679826106738554611713565b85611cd0565b602090601f8311600114610ab7576106a892915f9183610aac575b50508160011b915f199060031b1c19161790565b90555b6001600160a01b0360a0820151166001600160a01b036005870191166001600160a01b03198254161790556006850160c082015190815180519067ffffffffffffffff821161094657610702826106738554611713565b602090601f8311600114610a495761073092915f91836109db5750508160011b915f199060031b1c19161790565b90555b60078601602082015180519067ffffffffffffffff82116109465761075c826106738554611713565b602090601f83116001146109e65761078a92915f91836109db5750508160011b915f199060031b1c19161790565b90555b60088601604082015180519067ffffffffffffffff8211610946576107b6826106738554611713565b602090601f83116001146109655793610140936107f9846001600160a01b039a9997956080958c9a975f9261095a5750508160011b915f199060031b1c19161790565b90555b606081015160098b01550151600a89015560e0810151600b890155836101008201511684600c8a0191168519825416179055610120810151600d8901550151600e870155511682600f86019116831982541617905551166001600160a01b036010840191166001600160a01b031982541617905560118201925192835167ffffffffffffffff81116109465761089c816108968454611713565b84611cd0565b6020601f82116001146108e15790806108cd92601296975f926108d65750508160011b915f199060031b1c19161790565b90555b51910155005b015190508780610694565b601f19821695835f52815f20965f5b81811061092e5750916012969791846001959410610916575b505050811b0190556108d0565b01515f1960f88460031b161c19169055868080610909565b838301518955600190980197602093840193016108f0565b634e487b7160e01b5f52604160045260245ffd5b015190508f80610694565b90601f19831691845f52815f20925f5b8181106109c35750846080946001600160a01b039b9a989461014098948d9b98600195106109ab575b505050811b0190556107fc565b01515f1960f88460031b161c191690558e808061099e565b92936020600181928786015181550195019301610975565b015190508b80610694565b90601f19831691845f52815f20925f5b818110610a315750908460019594939210610a19575b505050811b01905561078d565b01515f1960f88460031b161c191690558a8080610a0c565b929360206001819287860151815501950193016109f6565b90601f19831691845f52815f20925f5b818110610a945750908460019594939210610a7c575b505050811b019055610733565b01515f1960f88460031b161c191690558a8080610a6f565b92936020600181928786015181550195019301610a59565b015190508a80610694565b90601f19831691845f52815f20925f5b818110610b025750908460019594939210610aea575b505050811b0190556106ab565b01515f1960f88460031b161c19169055898080610add565b92936020600181928786015181550195019301610ac7565b634e487b7160e01b5f525f60045260245ffd5b346101df5760403660031901126101df57610b466116ba565b60405160208101916bffffffffffffffffffffffff199060601b168252602435603482015260348152610b7a605482611784565b5190205f5260086020526020610b9260405f20611897565b511515604051908152f35b346101df5760203660031901126101df576004356001548110156101df576001600160a01b03610bce602092611b72565b90549060031b1c16604051908152f35b346101df575f3660031901126101df57335f526006602052610c0660ff60405f205416611b8a565b60045460018101809111610c1957600455005b634e487b7160e01b5f52601160045260245ffd5b346101df575f3660031901126101df576020600354604051908152f35b346101df5760203660031901126101df576001600160a01b03610c6b6116ba565b165f526006602052602060ff60405f2054166040519015158152f35b346101df575f3660031901126101df576020600454604051908152f35b346101df5760203660031901126101df576001600160a01b03610cc56116ba565b165f526005602052602060405f2054604051908152f35b346101df5760203660031901126101df576004355f52600860205260405f2060ff81541661031e6001830154926001600160a01b03600282015416906003810154610d29600483016117a6565b6001600160a01b03600584015416610d4360068501611846565b90600b850154926001600160a01b03600c8701541694600e600d880154970154976040519b8c9b8c611a89565b346101df5760403660031901126101df57602435600435610d908261224e565b91610d9e6040519384611784565b808352601f19610dad8261224e565b015f5b818110610e5b5750505f198201918211610c195780820291808304821490151715610c1957610ddf9082611be9565b6002549081811115610e535750905b805b828110610e05576040518061031e8682611afb565b610e0e81611b5a565b90549060031b1c5f52600860205260405f209082810391818311610c1957600192610e3b610e4c92611897565b610e458289612266565b5286612266565b5001610df0565b905090610dee565b602090604051610e6a8161174b565b5f81525f838201525f60408201525f6060820152606060808201525f60a0820152604051610e9781611768565b60608152606084820152606060408201525f60608201525f608082015260c08201525f60e08201525f6101008201525f6101208201525f61014082015282828801015201610db0565b346101df575f3660031901126101df5760206001600160a01b035f5416604051908152f35b346101df575f3660031901126101df57600154610f218161224e565b90610f2f6040519283611784565b808252610f3b8161224e565b602083019190601f19013683375f5b60ff81169082821015610fad5760ff916001600160a01b03610f6b83611b72565b90549060031b1c1690815f5260066020528360405f205416610f9b575b50501660ff8114610c1957600101610f4a565b610fa59087612266565b528580610f88565b50505090604051918291602083019060208452518091526040830191905f5b818110610fda575050500390f35b82516001600160a01b0316845285945060209384019390920191600101610fcc565b346101df5760403660031901126101df5760243560043567ffffffffffffffff82116101df57610160826004019260031990360301126101df57335f52600660205261104e60ff60405f205416611b8a565b805f5260086020526110638260405f20611e34565b600254815f5260076020528060405f205568010000000000000000811015610946576110988160016110ae9301600255611b5a565b819391549060031b91821b915f19901b19161790565b9055325f52600960205260405f20805468010000000000000000811015610946576110de91600182018155611a70565b919091610b1a5761023691611e34565b346101df5760203660031901126101df57600435335f52600660205261111a60ff60405f205416611b8a565b805f5260086020526001600160a01b0361010061113960405f20611897565b0151165f52600960205260405f20905f5b8254811015611331578160206111696111638487611a70565b50611897565b015114611179575b60010161114a565b61118c6111868285611a70565b90611c5a565b82545f198101908111610c19576111a39084611a70565b506111ae8285611a70565b919091610b1a578082036111f8575b505082549081156111e4576001915f19016111db6111868287611a70565b84559050611171565b634e487b7160e01b5f52603160045260245ffd5b600e8161121660ff83945416859060ff801983541691151516179055565b600181015460018501556001600160a01b036002820154166001600160a01b036002860191166001600160a01b0319825416179055600381015460038501556112656004820160048601611d13565b6001600160a01b036005820154166001600160a01b036005860191166001600160a01b031982541617905560068401600682018082036112ed575b5050600b810154600b8501556001600160a01b03600c820154166001600160a01b03600c860191166001600160a01b0319825416179055600d810154600d850155015491015583806111bd565b6112f691611d13565b6113066007820160078601611d13565b6113166008820160088601611d13565b60098101546009850155600a810154600a85015587806112a0565b50805f5260086020525f600e6040822082815582600182015582600282015582600382015561136260048201611c0c565b82600582015561137460068201611c0c565b61138060078201611c0c565b61138c60088201611c0c565b82600982015582600a82015582600b82015582600c82015582600d82015501555f52600760205260405f20546002545f198101908111610c19576113cf90611b5a565b90549060031b1c6113e261109883611b5a565b90556113ed81611b5a565b90549060031b1c5f52600760205260405f205560025480156111e4575f190161141581611b5a565b8154905f199060031b1b191690556002555f80f35b346101df5760403660031901126101df576004356001600160a01b0361144e6116d0565b335f52600660205261146660ff60405f205416611b8a565b61147283600354611be9565b600355165f52600560205261148c60405f20918254611be9565b9055005b346101df575f3660031901126101df576020600254604051908152f35b346101df575f3660031901126101df576114c561227a565b5f805473ffffffffffffffffffffffffffffffffffffffff19811682556001600160a01b03167f8be0079c531659141344cd1fd0a4f28419497f9722a3daafe3b4186f6b6457e08280a3005b346101df5760203660031901126101df576004355f526007602052602060405f2054604051908152f35b346101df5760403660031901126101df576115546116ba565b6001600160a01b0360243591165f52600960205260405f209081548110156101df5761157f91611a70565b5060ff81541661031e6001830154926001600160a01b03600282015416906003810154610d29600483016117a6565b346101df5760403660031901126101df576102366115ca6116ba565b6001600160a01b036115da611a61565b916115e361227a565b165f52600660205260405f209060ff801983541691151516179055565b346101df5760403660031901126101df576116196116ba565b6001600160a01b0360243591165f52600a60205260405f2080548210156101df5761169891611647916116e6565b5061165181611897565b906116b06001600160a01b03600f830154166001600160a01b03601084015416926012611680601183016117a6565b9101549360405196879660a0885260a08801906119b8565b92602087015260408601528482036060860152611940565b9060808301520390f35b600435906001600160a01b03821682036101df57565b602435906001600160a01b03821682036101df57565b80548210156116ff575f52601360205f20910201905f90565b634e487b7160e01b5f52603260045260245ffd5b90600182811c92168015611741575b602083101461172d57565b634e487b7160e01b5f52602260045260245ffd5b91607f1691611722565b610160810190811067ffffffffffffffff82111761094657604052565b60a0810190811067ffffffffffffffff82111761094657604052565b90601f8019910116810190811067ffffffffffffffff82111761094657604052565b9060405191825f8254926117b984611713565b808452936001811690811561182457506001146117e0575b506117de92500383611784565b565b90505f9291925260205f20905f915b8183106118085750509060206117de928201015f6117d1565b60209193508060019154838589010152019101909184926117ef565b9050602092506117de94915060ff191682840152151560051b8201015f6117d1565b9060405161185381611768565b608060048294611862816117a6565b8452611870600182016117a6565b6020850152611881600282016117a6565b6040850152600381015460608501520154910152565b906040516118a48161174b565b610140600e829460ff81541615158452600181015460208501526001600160a01b036002820154166040850152600381015460608501526118e7600482016117a6565b60808501526001600160a01b0360058201541660a085015261190b60068201611846565b60c0850152600b81015460e08501526001600160a01b03600c82015416610100850152600d8101546101208501520154910152565b805180835260209291819084018484015e5f828201840152601f01601f1916010190565b906080806119a5611993611981865160a0875260a0870190611940565b60208701518682036020880152611940565b60408601518582036040870152611940565b9360608101516060850152015191015290565b90815115158152602082015160208201526001600160a01b0360408301511660408201526060820151606082015261014080611a2d611a0860808601516101606080870152610160860190611940565b6001600160a01b0360a08701511660a086015260c086015185820360c0870152611964565b9360e081015160e08501526001600160a01b0361010082015116610100850152610120810151610120850152015191015290565b6024359081151582036101df57565b80548210156116ff575f52600f60205f20910201905f90565b979b9a9996916101409995611ae4956001600160a01b03809996611ad09460208e84981515815201521660408c015260608b015261016060808b01526101608a0190611940565b921660a088015286820360c0880152611964565b9760e0850152166101008301526101208201520152565b602081016020825282518091526040820191602060408360051b8301019401925f915b838310611b2d57505050505090565b9091929394602080611b4b600193603f1986820301875289516119b8565b97019301930191939290611b1e565b6002548110156116ff5760025f5260205f2001905f90565b6001548110156116ff5760015f5260205f2001905f90565b15611b9157565b60405162461bcd60e51b815260206004820152602a60248201527f61646472657373206973206e6f7420616c6c6f7761626c6520746f206163636560448201526973732073746f7261676560b01b6064820152608490fd5b91908201809211610c1957565b818110611c01575050565b5f8155600101611bf6565b611c168154611713565b9081611c20575050565b81601f5f9311600114611c31575055565b81835260208320611c4d91601f0160051c810190600101611bf6565b8082528160208120915555565b90610b1a57600e815f809355826001820155826002820155826003820155611c8460048201611c0c565b826005820155611c9660068201611c0c565b611ca260078201611c0c565b611cae60088201611c0c565b82600982015582600a82015582600b82015582600c82015582600d8201550155565b9190601f8111611cdf57505050565b6117de925f5260205f20906020601f840160051c83019310611d09575b601f0160051c0190611bf6565b9091508190611cfc565b919091828114611de857611d278354611713565b67ffffffffffffffff811161094657611d44816108968454611713565b5f93601f8211600114611d8257611d7392939482915f92611d775750508160011b915f199060031b1c19161790565b9055565b015490505f80610694565b601f198216905f5260205f2094835f5260205f20915f5b818110611dd057509583600195969710611db8575b505050811b019055565b01545f1960f88460031b161c191690555f8080611dae565b9192600180602092868b015481550194019201611d99565b509050565b356001600160a01b03811681036101df5790565b903590601e19813603018212156101df570180359067ffffffffffffffff82116101df576020019181360383136101df57565b90803580151581036101df57825490151560ff1660ff199190911617825560208101356001830155611e6860408201611ded565b6001600160a01b036002840191166001600160a01b03198254161790556060810135600383015560048201611ea06080830183611e01565b9067ffffffffffffffff821161094657611ebe826106738554611713565b5f90601f83116001146121ea57611eeb92915f91836120a95750508160011b915f199060031b1c19161790565b90555b611efa60a08201611ded565b6001600160a01b036005840191166001600160a01b03198254161790556006820160c0820135609e19833603018112156101df57820190611f3b8280611e01565b9067ffffffffffffffff821161094657611f59826106738554611713565b5f90601f831160011461218657611f8692915f91836120a95750508160011b915f199060031b1c19161790565b90555b60078301611f9a6020830183611e01565b9067ffffffffffffffff821161094657611fb8826106738554611713565b5f90601f831160011461212257611fe592915f91836120a95750508160011b915f199060031b1c19161790565b90555b60088301611ff96040830183611e01565b9067ffffffffffffffff821161094657612017826106738554611713565b5f90601f83116001146120b4579261204f836080946101409794600e99975f926120a95750508160011b915f199060031b1c19161790565b90555b606081013560098701550135600a85015560e0810135600b85015561207a6101008201611ded565b6001600160a01b03600c860191166001600160a01b0319825416179055610120810135600d8501550135910155565b013590505f80610694565b601f19831691845f5260205f20925f5b81811061210a5750936101409693600e98969360019383608098106120f1575b505050811b019055612052565b01355f19600384901b60f8161c191690555f80806120e4565b919360206001819287870135815501950192016120c4565b601f19831691845f5260205f20925f5b81811061216e5750908460019594939210612155575b505050811b019055611fe8565b01355f19600384901b60f8161c191690555f8080612148565b91936020600181928787013581550195019201612132565b601f19831691845f5260205f20925f5b8181106121d257509084600195949392106121b9575b505050811b019055611f89565b01355f19600384901b60f8161c191690555f80806121ac565b91936020600181928787013581550195019201612196565b601f19831691845f5260205f20925f5b818110612236575090846001959493921061221d575b505050811b019055611eee565b01355f19600384901b60f8161c191690555f8080612210565b919360206001819287870135815501950192016121fa565b67ffffffffffffffff81116109465760051b60200190565b80518210156116ff5760209160051b010190565b6001600160a01b035f5416330361228d57565b63118cdaa760e01b5f523360045260245ffdfea26469706673582212201c8b086c17ee72f8db42688038fefbaec9ecab5a1bf4f9c5dbd689080d60cfe864736f6c634300081c0033",
			"opcodes": "PUSH1 0x80 DUP1 PUSH1 0x40 MSTORE CALLVALUE PUSH1 0x71 JUMPI CALLER ISZERO PUSH1 0x5E JUMPI PUSH0 DUP1 SLOAD CALLER PUSH1 0x1 PUSH1 0x1 PUSH1 0xA0 SHL SUB NOT DUP3 AND DUP2 OR DUP4 SSTORE SWAP2 PUSH1 0x1 PUSH1 0x1 PUSH1 0xA0 SHL SUB SWAP1 SWAP2 AND SWAP1 PUSH32 0x8BE0079C531659141344CD1FD0A4F28419497F9722A3DAAFE3B4186F6B6457E0 SWAP1 DUP1 LOG3 PUSH2 0x22D6 SWAP1 DUP2 PUSH2 0x76 DUP3 CODECOPY RETURN JUMPDEST PUSH4 0x1E4FBDF7 PUSH1 0xE0 SHL PUSH0 MSTORE PUSH0 PUSH1 0x4 MSTORE PUSH1 0x24 PUSH0 REVERT JUMPDEST PUSH0 DUP1 REVERT INVALID PUSH1 0x80 PUSH1 0x40 MSTORE PUSH1 0x4 CALLDATASIZE LT ISZERO PUSH2 0x11 JUMPI PUSH0 DUP1 REVERT JUMPDEST PUSH0 CALLDATALOAD PUSH1 0xE0 SHR DUP1 PUSH4 0x27E7A2B7 EQ PUSH2 0x1600 JUMPI DUP1 PUSH4 0x2B0D6076 EQ PUSH2 0x15AE JUMPI DUP1 PUSH4 0x35EBD1C6 EQ PUSH2 0x153B JUMPI DUP1 PUSH4 0x52E30497 EQ PUSH2 0x1511 JUMPI DUP1 PUSH4 0x5300F7D4 EQ PUSH2 0xC87 JUMPI DUP1 PUSH4 0x6EF19C9D EQ PUSH2 0xCA4 JUMPI DUP1 PUSH4 0x715018A6 EQ PUSH2 0x14AD JUMPI DUP1 PUSH4 0x775A25E3 EQ PUSH2 0x1490 JUMPI DUP1 PUSH4 0x857EAB22 EQ PUSH2 0x142A JUMPI DUP1 PUSH4 0x87A61CBD EQ PUSH2 0x10EE JUMPI DUP1 PUSH4 0x88F3528E EQ PUSH2 0xFFC JUMPI DUP1 PUSH4 0x89ADACF2 EQ PUSH2 0xF05 JUMPI DUP1 PUSH4 0x8DA5CB5B EQ PUSH2 0xEE0 JUMPI DUP1 PUSH4 0x8F72FC77 EQ PUSH2 0xD70 JUMPI DUP1 PUSH4 0x9C3F1E90 EQ PUSH2 0xCDC JUMPI DUP1 PUSH4 0xA54247AE EQ PUSH2 0xCA4 JUMPI DUP1 PUSH4 0xA8A6D538 EQ PUSH2 0xC87 JUMPI DUP1 PUSH4 0xBC4998B1 EQ PUSH2 0xC4A JUMPI DUP1 PUSH4 0xC618A1E4 EQ PUSH2 0xC2D JUMPI DUP1 PUSH4 0xC67BBC24 EQ PUSH2 0xC2D JUMPI DUP1 PUSH4 0xC767A141 EQ PUSH2 0xBDE JUMPI DUP1 PUSH4 0xCC2A717B EQ PUSH2 0xB9D JUMPI DUP1 PUSH4 0xCDB3CD25 EQ PUSH2 0xB2D JUMPI DUP1 PUSH4 0xD1F5D212 EQ PUSH2 0x4C0 JUMPI DUP1 PUSH4 0xD25285F5 EQ PUSH2 0x340 JUMPI DUP1 PUSH4 0xD3284D8E EQ PUSH2 0x2B2 JUMPI DUP1 PUSH4 0xD7F23B61 EQ PUSH2 0x27A JUMPI DUP1 PUSH4 0xE0F2BDD3 EQ PUSH2 0x238 JUMPI DUP1 PUSH4 0xE35B5E1D EQ PUSH2 0x1E3 JUMPI PUSH4 0xF2FDE38B EQ PUSH2 0x163 JUMPI PUSH0 DUP1 REVERT JUMPDEST CALLVALUE PUSH2 0x1DF JUMPI PUSH1 0x20 CALLDATASIZE PUSH1 0x3 NOT ADD SLT PUSH2 0x1DF JUMPI PUSH1 0x1 PUSH1 0x1 PUSH1 0xA0 SHL SUB PUSH2 0x184 PUSH2 0x16BA JUMP JUMPDEST PUSH2 0x18C PUSH2 0x227A JUMP JUMPDEST AND DUP1 ISZERO PUSH2 0x1CC JUMPI PUSH1 0x1 PUSH1 0x1 PUSH1 0xA0 SHL SUB PUSH0 SLOAD DUP3 DUP3 NOT DUP3 AND OR PUSH0 SSTORE AND PUSH32 0x8BE0079C531659141344CD1FD0A4F28419497F9722A3DAAFE3B4186F6B6457E0 PUSH0 DUP1 LOG3 STOP JUMPDEST PUSH4 0x1E4FBDF7 PUSH1 0xE0 SHL PUSH0 MSTORE PUSH0 PUSH1 0x4 MSTORE PUSH1 0x24 PUSH0 REVERT JUMPDEST PUSH0 DUP1 REVERT JUMPDEST CALLVALUE PUSH2 0x1DF JUMPI PUSH1 0x40 CALLDATASIZE PUSH1 0x3 NOT ADD SLT PUSH2 0x1DF JUMPI PUSH2 0x236 PUSH2 0x1FF PUSH2 0x1A61 JUMP JUMPDEST CALLER PUSH0 MSTORE PUSH1 0x6 PUSH1 0x20 MSTORE PUSH2 0x217 PUSH1 0xFF PUSH1 0x40 PUSH0 KECCAK256 SLOAD AND PUSH2 0x1B8A JUMP JUMPDEST PUSH1 0x4 CALLDATALOAD PUSH0 MSTORE PUSH1 0x8 PUSH1 0x20 MSTORE PUSH1 0x40 PUSH0 KECCAK256 SWAP1 PUSH1 0xFF DUP1 NOT DUP4 SLOAD AND SWAP2 ISZERO ISZERO AND OR SWAP1 SSTORE JUMP JUMPDEST STOP JUMPDEST CALLVALUE PUSH2 0x1DF JUMPI PUSH1 0x40 CALLDATASIZE PUSH1 0x3 NOT ADD SLT PUSH2 0x1DF JUMPI CALLER PUSH0 MSTORE PUSH1 0x6 PUSH1 0x20 MSTORE PUSH2 0x261 PUSH1 0xFF PUSH1 0x40 PUSH0 KECCAK256 SLOAD AND PUSH2 0x1B8A JUMP JUMPDEST PUSH1 0x4 CALLDATALOAD PUSH0 MSTORE PUSH1 0x8 PUSH1 0x20 MSTORE PUSH1 0x24 CALLDATALOAD PUSH1 0xD PUSH1 0x40 PUSH0 KECCAK256 ADD SSTORE PUSH0 DUP1 RETURN JUMPDEST CALLVALUE PUSH2 0x1DF JUMPI PUSH1 0x20 CALLDATASIZE PUSH1 0x3 NOT ADD SLT PUSH2 0x1DF JUMPI PUSH1 0x4 CALLDATALOAD PUSH1 0x2 SLOAD DUP2 LT ISZERO PUSH2 0x1DF JUMPI PUSH2 0x2A3 PUSH1 0x20 SWAP2 PUSH2 0x1B5A JUMP JUMPDEST SWAP1 SLOAD SWAP1 PUSH1 0x3 SHL SHR PUSH1 0x40 MLOAD SWAP1 DUP2 MSTORE RETURN JUMPDEST CALLVALUE PUSH2 0x1DF JUMPI PUSH1 0x20 CALLDATASIZE PUSH1 0x3 NOT ADD SLT PUSH2 0x1DF JUMPI PUSH1 0x1 PUSH1 0x1 PUSH1 0xA0 SHL SUB PUSH2 0x2D3 PUSH2 0x16BA JUMP JUMPDEST AND PUSH0 MSTORE PUSH1 0x9 PUSH1 0x20 MSTORE PUSH1 0x40 PUSH0 KECCAK256 DUP1 SLOAD PUSH2 0x2EA DUP2 PUSH2 0x224E JUMP JUMPDEST SWAP2 PUSH2 0x2F8 PUSH1 0x40 MLOAD SWAP4 DUP5 PUSH2 0x1784 JUMP JUMPDEST DUP2 DUP4 MSTORE PUSH1 0x20 DUP4 ADD SWAP1 PUSH0 MSTORE PUSH1 0x20 PUSH0 KECCAK256 PUSH0 SWAP2 JUMPDEST DUP4 DUP4 LT PUSH2 0x322 JUMPI PUSH1 0x40 MLOAD DUP1 PUSH2 0x31E DUP8 DUP3 PUSH2 0x1AFB JUMP JUMPDEST SUB SWAP1 RETURN JUMPDEST PUSH1 0xF PUSH1 0x20 PUSH1 0x1 SWAP3 PUSH2 0x332 DUP6 PUSH2 0x1897 JUMP JUMPDEST DUP2 MSTORE ADD SWAP3 ADD SWAP3 ADD SWAP2 SWAP1 PUSH2 0x309 JUMP JUMPDEST CALLVALUE PUSH2 0x1DF JUMPI PUSH1 0x20 CALLDATASIZE PUSH1 0x3 NOT ADD SLT PUSH2 0x1DF JUMPI PUSH1 0x1 PUSH1 0x1 PUSH1 0xA0 SHL SUB PUSH2 0x361 PUSH2 0x16BA JUMP JUMPDEST AND PUSH0 MSTORE PUSH1 0xA PUSH1 0x20 MSTORE PUSH1 0x40 PUSH0 KECCAK256 DUP1 SLOAD SWAP1 PUSH2 0x379 DUP3 PUSH2 0x224E JUMP JUMPDEST SWAP2 PUSH2 0x387 PUSH1 0x40 MLOAD SWAP4 DUP5 PUSH2 0x1784 JUMP JUMPDEST DUP1 DUP4 MSTORE PUSH1 0x20 DUP4 ADD DUP1 SWAP3 PUSH0 MSTORE PUSH1 0x20 PUSH0 KECCAK256 PUSH0 SWAP2 JUMPDEST DUP4 DUP4 LT PUSH2 0x454 JUMPI DUP5 DUP7 PUSH1 0x40 MLOAD SWAP2 DUP3 SWAP2 PUSH1 0x20 DUP4 ADD SWAP1 PUSH1 0x20 DUP5 MSTORE MLOAD DUP1 SWAP2 MSTORE PUSH1 0x40 DUP4 ADD SWAP1 PUSH1 0x40 DUP2 PUSH1 0x5 SHL DUP6 ADD ADD SWAP3 SWAP2 PUSH0 SWAP1 JUMPDEST DUP3 DUP3 LT PUSH2 0x3D7 JUMPI POP POP POP POP SUB SWAP1 RETURN JUMPDEST SWAP2 SWAP4 PUSH1 0x1 SWAP2 SWAP4 SWAP6 POP PUSH1 0x20 DUP1 SWAP2 PUSH1 0x3F NOT DUP10 DUP3 SUB ADD DUP6 MSTORE DUP8 MLOAD SWAP1 PUSH1 0x80 DUP1 PUSH2 0x43E PUSH2 0x408 DUP6 MLOAD PUSH1 0xA0 DUP7 MSTORE PUSH1 0xA0 DUP7 ADD SWAP1 PUSH2 0x19B8 JUMP JUMPDEST PUSH1 0x1 PUSH1 0x1 PUSH1 0xA0 SHL SUB DUP8 DUP8 ADD MLOAD AND DUP8 DUP7 ADD MSTORE PUSH1 0x1 PUSH1 0x1 PUSH1 0xA0 SHL SUB PUSH1 0x40 DUP8 ADD MLOAD AND PUSH1 0x40 DUP7 ADD MSTORE PUSH1 0x60 DUP7 ADD MLOAD DUP6 DUP3 SUB PUSH1 0x60 DUP8 ADD MSTORE PUSH2 0x1940 JUMP JUMPDEST SWAP4 ADD MLOAD SWAP2 ADD MSTORE SWAP7 ADD SWAP3 ADD SWAP3 ADD DUP6 SWAP5 SWAP4 SWAP2 SWAP3 PUSH2 0x3C8 JUMP JUMPDEST PUSH1 0x13 PUSH1 0x20 PUSH1 0x1 SWAP3 PUSH1 0x40 MLOAD PUSH2 0x467 DUP2 PUSH2 0x1768 JUMP JUMPDEST PUSH2 0x470 DUP7 PUSH2 0x1897 JUMP JUMPDEST DUP2 MSTORE PUSH1 0x1 PUSH1 0x1 PUSH1 0xA0 SHL SUB PUSH1 0xF DUP8 ADD SLOAD AND DUP4 DUP3 ADD MSTORE PUSH1 0x1 PUSH1 0x1 PUSH1 0xA0 SHL SUB PUSH1 0x10 DUP8 ADD SLOAD AND PUSH1 0x40 DUP3 ADD MSTORE PUSH2 0x4A3 PUSH1 0x11 DUP8 ADD PUSH2 0x17A6 JUMP JUMPDEST PUSH1 0x60 DUP3 ADD MSTORE PUSH1 0x12 DUP7 ADD SLOAD PUSH1 0x80 DUP3 ADD MSTORE DUP2 MSTORE ADD SWAP3 ADD SWAP3 ADD SWAP2 SWAP1 PUSH2 0x399 JUMP JUMPDEST CALLVALUE PUSH2 0x1DF JUMPI PUSH1 0x80 CALLDATASIZE PUSH1 0x3 NOT ADD SLT PUSH2 0x1DF JUMPI PUSH2 0x4D9 PUSH2 0x16D0 JUMP JUMPDEST PUSH1 0x44 CALLDATALOAD SWAP1 PUSH1 0x1 PUSH1 0x1 PUSH1 0xA0 SHL SUB DUP3 AND DUP1 SWAP3 SUB PUSH2 0x1DF JUMPI PUSH1 0x64 CALLDATALOAD SWAP2 PUSH8 0xFFFFFFFFFFFFFFFF DUP4 GT PUSH2 0x1DF JUMPI CALLDATASIZE PUSH1 0x23 DUP5 ADD SLT ISZERO PUSH2 0x1DF JUMPI DUP3 PUSH1 0x4 ADD CALLDATALOAD SWAP2 PUSH8 0xFFFFFFFFFFFFFFFF DUP4 GT PUSH2 0x1DF JUMPI CALLDATASIZE PUSH1 0x24 DUP5 DUP7 ADD ADD GT PUSH2 0x1DF JUMPI PUSH1 0x1 PUSH1 0x1 PUSH1 0xA0 SHL SUB SWAP1 CALLER PUSH0 MSTORE PUSH1 0x6 PUSH1 0x20 MSTORE PUSH2 0x54E PUSH1 0xFF PUSH1 0x40 PUSH0 KECCAK256 SLOAD AND PUSH2 0x1B8A JUMP JUMPDEST AND SWAP1 DUP2 PUSH0 MSTORE PUSH1 0xA PUSH1 0x20 MSTORE PUSH1 0x40 PUSH0 KECCAK256 SWAP2 PUSH1 0x4 CALLDATALOAD PUSH0 MSTORE PUSH1 0x8 PUSH1 0x20 MSTORE PUSH0 PUSH1 0x20 PUSH1 0x40 DUP3 KECCAK256 SWAP6 PUSH2 0x584 PUSH1 0x40 MLOAD SWAP8 PUSH2 0x57F DUP10 PUSH2 0x1768 JUMP JUMPDEST PUSH2 0x1897 JUMP JUMPDEST DUP8 MSTORE DUP2 DUP8 ADD SWAP4 DUP5 MSTORE PUSH1 0x40 DUP8 ADD SWAP5 DUP6 MSTORE DUP1 PUSH1 0x24 PUSH1 0x40 MLOAD SWAP10 PUSH2 0x5AD DUP6 PUSH1 0x1F NOT PUSH1 0x1F DUP7 ADD AND ADD DUP13 PUSH2 0x1784 JUMP JUMPDEST DUP3 DUP12 MSTORE ADD DUP4 DUP11 ADD CALLDATACOPY DUP8 ADD ADD MSTORE PUSH1 0x60 DUP5 ADD SWAP5 DUP6 MSTORE PUSH1 0x80 DUP5 ADD SWAP3 TIMESTAMP DUP5 MSTORE DUP1 SLOAD PUSH9 0x10000000000000000 DUP2 LT ISZERO PUSH2 0x946 JUMPI PUSH2 0x5EA SWAP2 PUSH1 0x1 DUP3 ADD DUP2 SSTORE PUSH2 0x16E6 JUMP JUMPDEST SWAP5 SWAP1 SWAP5 PUSH2 0xB1A JUMPI MLOAD PUSH2 0x60B DUP2 MLOAD ISZERO ISZERO DUP7 SWAP1 PUSH1 0xFF DUP1 NOT DUP4 SLOAD AND SWAP2 ISZERO ISZERO AND OR SWAP1 SSTORE JUMP JUMPDEST PUSH1 0x20 DUP2 ADD MLOAD PUSH1 0x1 DUP7 ADD SSTORE PUSH1 0x1 PUSH1 0x1 PUSH1 0xA0 SHL SUB PUSH1 0x40 DUP3 ADD MLOAD AND PUSH1 0x1 PUSH1 0x1 PUSH1 0xA0 SHL SUB PUSH1 0x2 DUP8 ADD SWAP2 AND PUSH1 0x1 PUSH1 0x1 PUSH1 0xA0 SHL SUB NOT DUP3 SLOAD AND OR SWAP1 SSTORE PUSH1 0x60 DUP2 ADD MLOAD PUSH1 0x3 DUP7 ADD SSTORE PUSH1 0x4 DUP6 ADD PUSH1 0x80 DUP3 ADD MLOAD DUP1 MLOAD SWAP1 PUSH8 0xFFFFFFFFFFFFFFFF DUP3 GT PUSH2 0x946 JUMPI PUSH2 0x679 DUP3 PUSH2 0x673 DUP6 SLOAD PUSH2 0x1713 JUMP JUMPDEST DUP6 PUSH2 0x1CD0 JUMP JUMPDEST PUSH1 0x20 SWAP1 PUSH1 0x1F DUP4 GT PUSH1 0x1 EQ PUSH2 0xAB7 JUMPI PUSH2 0x6A8 SWAP3 SWAP2 PUSH0 SWAP2 DUP4 PUSH2 0xAAC JUMPI JUMPDEST POP POP DUP2 PUSH1 0x1 SHL SWAP2 PUSH0 NOT SWAP1 PUSH1 0x3 SHL SHR NOT AND OR SWAP1 JUMP JUMPDEST SWAP1 SSTORE JUMPDEST PUSH1 0x1 PUSH1 0x1 PUSH1 0xA0 SHL SUB PUSH1 0xA0 DUP3 ADD MLOAD AND PUSH1 0x1 PUSH1 0x1 PUSH1 0xA0 SHL SUB PUSH1 0x5 DUP8 ADD SWAP2 AND PUSH1 0x1 PUSH1 0x1 PUSH1 0xA0 SHL SUB NOT DUP3 SLOAD AND OR SWAP1 SSTORE PUSH1 0x6 DUP6 ADD PUSH1 0xC0 DUP3 ADD MLOAD SWAP1 DUP2 MLOAD DUP1 MLOAD SWAP1 PUSH8 0xFFFFFFFFFFFFFFFF DUP3 GT PUSH2 0x946 JUMPI PUSH2 0x702 DUP3 PUSH2 0x673 DUP6 SLOAD PUSH2 0x1713 JUMP JUMPDEST PUSH1 0x20 SWAP1 PUSH1 0x1F DUP4 GT PUSH1 0x1 EQ PUSH2 0xA49 JUMPI PUSH2 0x730 SWAP3 SWAP2 PUSH0 SWAP2 DUP4 PUSH2 0x9DB JUMPI POP POP DUP2 PUSH1 0x1 SHL SWAP2 PUSH0 NOT SWAP1 PUSH1 0x3 SHL SHR NOT AND OR SWAP1 JUMP JUMPDEST SWAP1 SSTORE JUMPDEST PUSH1 0x7 DUP7 ADD PUSH1 0x20 DUP3 ADD MLOAD DUP1 MLOAD SWAP1 PUSH8 0xFFFFFFFFFFFFFFFF DUP3 GT PUSH2 0x946 JUMPI PUSH2 0x75C DUP3 PUSH2 0x673 DUP6 SLOAD PUSH2 0x1713 JUMP JUMPDEST PUSH1 0x20 SWAP1 PUSH1 0x1F DUP4 GT PUSH1 0x1 EQ PUSH2 0x9E6 JUMPI PUSH2 0x78A SWAP3 SWAP2 PUSH0 SWAP2 DUP4 PUSH2 0x9DB JUMPI POP POP DUP2 PUSH1 0x1 SHL SWAP2 PUSH0 NOT SWAP1 PUSH1 0x3 SHL SHR NOT AND OR SWAP1 JUMP JUMPDEST SWAP1 SSTORE JUMPDEST PUSH1 0x8 DUP7 ADD PUSH1 0x40 DUP3 ADD MLOAD DUP1 MLOAD SWAP1 PUSH8 0xFFFFFFFFFFFFFFFF DUP3 GT PUSH2 0x946 JUMPI PUSH2 0x7B6 DUP3 PUSH2 0x673 DUP6 SLOAD PUSH2 0x1713 JUMP JUMPDEST PUSH1 0x20 SWAP1 PUSH1 0x1F DUP4 GT PUSH1 0x1 EQ PUSH2 0x965 JUMPI SWAP4 PUSH2 0x140 SWAP4 PUSH2 0x7F9 DUP5 PUSH1 0x1 PUSH1 0x1 PUSH1 0xA0 SHL SUB SWAP11 SWAP10 SWAP8 SWAP6 PUSH1 0x80 SWAP6 DUP13 SWAP11 SWAP8 PUSH0 SWAP3 PUSH2 0x95A JUMPI POP POP DUP2 PUSH1 0x1 SHL SWAP2 PUSH0 NOT SWAP1 PUSH1 0x3 SHL SHR NOT AND OR SWAP1 JUMP JUMPDEST SWAP1 SSTORE JUMPDEST PUSH1 0x60 DUP2 ADD MLOAD PUSH1 0x9 DUP12 ADD SSTORE ADD MLOAD PUSH1 0xA DUP10 ADD SSTORE PUSH1 0xE0 DUP2 ADD MLOAD PUSH1 0xB DUP10 ADD SSTORE DUP4 PUSH2 0x100 DUP3 ADD MLOAD AND DUP5 PUSH1 0xC DUP11 ADD SWAP2 AND DUP6 NOT DUP3 SLOAD AND OR SWAP1 SSTORE PUSH2 0x120 DUP2 ADD MLOAD PUSH1 0xD DUP10 ADD SSTORE ADD MLOAD PUSH1 0xE DUP8 ADD SSTORE MLOAD AND DUP3 PUSH1 0xF DUP7 ADD SWAP2 AND DUP4 NOT DUP3 SLOAD AND OR SWAP1 SSTORE MLOAD AND PUSH1 0x1 PUSH1 0x1 PUSH1 0xA0 SHL SUB PUSH1 0x10 DUP5 ADD SWAP2 AND PUSH1 0x1 PUSH1 0x1 PUSH1 0xA0 SHL SUB NOT DUP3 SLOAD AND OR SWAP1 SSTORE PUSH1 0x11 DUP3 ADD SWAP3 MLOAD SWAP3 DUP4 MLOAD PUSH8 0xFFFFFFFFFFFFFFFF DUP2 GT PUSH2 0x946 JUMPI PUSH2 0x89C DUP2 PUSH2 0x896 DUP5 SLOAD PUSH2 0x1713 JUMP JUMPDEST DUP5 PUSH2 0x1CD0 JUMP JUMPDEST PUSH1 0x20 PUSH1 0x1F DUP3 GT PUSH1 0x1 EQ PUSH2 0x8E1 JUMPI SWAP1 DUP1 PUSH2 0x8CD SWAP3 PUSH1 0x12 SWAP7 SWAP8 PUSH0 SWAP3 PUSH2 0x8D6 JUMPI POP POP DUP2 PUSH1 0x1 SHL SWAP2 PUSH0 NOT SWAP1 PUSH1 0x3 SHL SHR NOT AND OR SWAP1 JUMP JUMPDEST SWAP1 SSTORE JUMPDEST MLOAD SWAP2 ADD SSTORE STOP JUMPDEST ADD MLOAD SWAP1 POP DUP8 DUP1 PUSH2 0x694 JUMP JUMPDEST PUSH1 0x1F NOT DUP3 AND SWAP6 DUP4 PUSH0 MSTORE DUP2 PUSH0 KECCAK256 SWAP7 PUSH0 JUMPDEST DUP2 DUP2 LT PUSH2 0x92E JUMPI POP SWAP2 PUSH1 0x12 SWAP7 SWAP8 SWAP2 DUP5 PUSH1 0x1 SWAP6 SWAP5 LT PUSH2 0x916 JUMPI JUMPDEST POP POP POP DUP2 SHL ADD SWAP1 SSTORE PUSH2 0x8D0 JUMP JUMPDEST ADD MLOAD PUSH0 NOT PUSH1 0xF8 DUP5 PUSH1 0x3 SHL AND SHR NOT AND SWAP1 SSTORE DUP7 DUP1 DUP1 PUSH2 0x909 JUMP JUMPDEST DUP4 DUP4 ADD MLOAD DUP10 SSTORE PUSH1 0x1 SWAP1 SWAP9 ADD SWAP8 PUSH1 0x20 SWAP4 DUP5 ADD SWAP4 ADD PUSH2 0x8F0 JUMP JUMPDEST PUSH4 0x4E487B71 PUSH1 0xE0 SHL PUSH0 MSTORE PUSH1 0x41 PUSH1 0x4 MSTORE PUSH1 0x24 PUSH0 REVERT JUMPDEST ADD MLOAD SWAP1 POP DUP16 DUP1 PUSH2 0x694 JUMP JUMPDEST SWAP1 PUSH1 0x1F NOT DUP4 AND SWAP2 DUP5 PUSH0 MSTORE DUP2 PUSH0 KECCAK256 SWAP3 PUSH0 JUMPDEST DUP2 DUP2 LT PUSH2 0x9C3 JUMPI POP DUP5 PUSH1 0x80 SWAP5 PUSH1 0x1 PUSH1 0x1 PUSH1 0xA0 SHL SUB SWAP12 SWAP11 SWAP9 SWAP5 PUSH2 0x140 SWAP9 SWAP5 DUP14 SWAP12 SWAP9 PUSH1 0x1 SWAP6 LT PUSH2 0x9AB JUMPI JUMPDEST POP POP POP DUP2 SHL ADD SWAP1 SSTORE PUSH2 0x7FC JUMP JUMPDEST ADD MLOAD PUSH0 NOT PUSH1 0xF8 DUP5 PUSH1 0x3 SHL AND SHR NOT AND SWAP1 SSTORE DUP15 DUP1 DUP1 PUSH2 0x99E JUMP JUMPDEST SWAP3 SWAP4 PUSH1 0x20 PUSH1 0x1 DUP2 SWAP3 DUP8 DUP7 ADD MLOAD DUP2 SSTORE ADD SWAP6 ADD SWAP4 ADD PUSH2 0x975 JUMP JUMPDEST ADD MLOAD SWAP1 POP DUP12 DUP1 PUSH2 0x694 JUMP JUMPDEST SWAP1 PUSH1 0x1F NOT DUP4 AND SWAP2 DUP5 PUSH0 MSTORE DUP2 PUSH0 KECCAK256 SWAP3 PUSH0 JUMPDEST DUP2 DUP2 LT PUSH2 0xA31 JUMPI POP SWAP1 DUP5 PUSH1 0x1 SWAP6 SWAP5 SWAP4 SWAP3 LT PUSH2 0xA19 JUMPI JUMPDEST POP POP POP DUP2 SHL ADD SWAP1 SSTORE PUSH2 0x78D JUMP JUMPDEST ADD MLOAD PUSH0 NOT PUSH1 0xF8 DUP5 PUSH1 0x3 SHL AND SHR NOT AND SWAP1 SSTORE DUP11 DUP1 DUP1 PUSH2 0xA0C JUMP JUMPDEST SWAP3 SWAP4 PUSH1 0x20 PUSH1 0x1 DUP2 SWAP3 DUP8 DUP7 ADD MLOAD DUP2 SSTORE ADD SWAP6 ADD SWAP4 ADD PUSH2 0x9F6 JUMP JUMPDEST SWAP1 PUSH1 0x1F NOT DUP4 AND SWAP2 DUP5 PUSH0 MSTORE DUP2 PUSH0 KECCAK256 SWAP3 PUSH0 JUMPDEST DUP2 DUP2 LT PUSH2 0xA94 JUMPI POP SWAP1 DUP5 PUSH1 0x1 SWAP6 SWAP5 SWAP4 SWAP3 LT PUSH2 0xA7C JUMPI JUMPDEST POP POP POP DUP2 SHL ADD SWAP1 SSTORE PUSH2 0x733 JUMP JUMPDEST ADD MLOAD PUSH0 NOT PUSH1 0xF8 DUP5 PUSH1 0x3 SHL AND SHR NOT AND SWAP1 SSTORE DUP11 DUP1 DUP1 PUSH2 0xA6F JUMP JUMPDEST SWAP3 SWAP4 PUSH1 0x20 PUSH1 0x1 DUP2 SWAP3 DUP8 DUP7 ADD MLOAD DUP2 SSTORE ADD SWAP6 ADD SWAP4 ADD PUSH2 0xA59 JUMP JUMPDEST ADD MLOAD SWAP1 POP DUP11 DUP1 PUSH2 0x694 JUMP JUMPDEST SWAP1 PUSH1 0x1F NOT DUP4 AND SWAP2 DUP5 PUSH0 MSTORE DUP2 PUSH0 KECCAK256 SWAP3 PUSH0 JUMPDEST DUP2 DUP2 LT PUSH2 0xB02 JUMPI POP SWAP1 DUP5 PUSH1 0x1 SWAP6 SWAP5 SWAP4 SWAP3 LT PUSH2 0xAEA JUMPI JUMPDEST POP POP POP DUP2 SHL ADD SWAP1 SSTORE PUSH2 0x6AB JUMP JUMPDEST ADD MLOAD PUSH0 NOT PUSH1 0xF8 DUP5 PUSH1 0x3 SHL AND SHR NOT AND SWAP1 SSTORE DUP10 DUP1 DUP1 PUSH2 0xADD JUMP JUMPDEST SWAP3 SWAP4 PUSH1 0x20 PUSH1 0x1 DUP2 SWAP3 DUP8 DUP7 ADD MLOAD DUP2 SSTORE ADD SWAP6 ADD SWAP4 ADD PUSH2 0xAC7 JUMP JUMPDEST PUSH4 0x4E487B71 PUSH1 0xE0 SHL PUSH0 MSTORE PUSH0 PUSH1 0x4 MSTORE PUSH1 0x24 PUSH0 REVERT JUMPDEST CALLVALUE PUSH2 0x1DF JUMPI PUSH1 0x40 CALLDATASIZE PUSH1 0x3 NOT ADD SLT PUSH2 0x1DF JUMPI PUSH2 0xB46 PUSH2 0x16BA JUMP JUMPDEST PUSH1 0x40 MLOAD PUSH1 0x20 DUP2 ADD SWAP2 PUSH12 0xFFFFFFFFFFFFFFFFFFFFFFFF NOT SWAP1 PUSH1 0x60 SHL AND DUP3 MSTORE PUSH1 0x24 CALLDATALOAD PUSH1 0x34 DUP3 ADD MSTORE PUSH1 0x34 DUP2 MSTORE PUSH2 0xB7A PUSH1 0x54 DUP3 PUSH2 0x1784 JUMP JUMPDEST MLOAD SWAP1 KECCAK256 PUSH0 MSTORE PUSH1 0x8 PUSH1 0x20 MSTORE PUSH1 0x20 PUSH2 0xB92 PUSH1 0x40 PUSH0 KECCAK256 PUSH2 0x1897 JUMP JUMPDEST MLOAD ISZERO ISZERO PUSH1 0x40 MLOAD SWAP1 DUP2 MSTORE RETURN JUMPDEST CALLVALUE PUSH2 0x1DF JUMPI PUSH1 0x20 CALLDATASIZE PUSH1 0x3 NOT ADD SLT PUSH2 0x1DF JUMPI PUSH1 0x4 CALLDATALOAD PUSH1 0x1 SLOAD DUP2 LT ISZERO PUSH2 0x1DF JUMPI PUSH1 0x1 PUSH1 0x1 PUSH1 0xA0 SHL SUB PUSH2 0xBCE PUSH1 0x20 SWAP3 PUSH2 0x1B72 JUMP JUMPDEST SWAP1 SLOAD SWAP1 PUSH1 0x3 SHL SHR AND PUSH1 0x40 MLOAD SWAP1 DUP2 MSTORE RETURN JUMPDEST CALLVALUE PUSH2 0x1DF JUMPI PUSH0 CALLDATASIZE PUSH1 0x3 NOT ADD SLT PUSH2 0x1DF JUMPI CALLER PUSH0 MSTORE PUSH1 0x6 PUSH1 0x20 MSTORE PUSH2 0xC06 PUSH1 0xFF PUSH1 0x40 PUSH0 KECCAK256 SLOAD AND PUSH2 0x1B8A JUMP JUMPDEST PUSH1 0x4 SLOAD PUSH1 0x1 DUP2 ADD DUP1 SWAP2 GT PUSH2 0xC19 JUMPI PUSH1 0x4 SSTORE STOP JUMPDEST PUSH4 0x4E487B71 PUSH1 0xE0 SHL PUSH0 MSTORE PUSH1 0x11 PUSH1 0x4 MSTORE PUSH1 0x24 PUSH0 REVERT JUMPDEST CALLVALUE PUSH2 0x1DF JUMPI PUSH0 CALLDATASIZE PUSH1 0x3 NOT ADD SLT PUSH2 0x1DF JUMPI PUSH1 0x20 PUSH1 0x3 SLOAD PUSH1 0x40 MLOAD SWAP1 DUP2 MSTORE RETURN JUMPDEST CALLVALUE PUSH2 0x1DF JUMPI PUSH1 0x20 CALLDATASIZE PUSH1 0x3 NOT ADD SLT PUSH2 0x1DF JUMPI PUSH1 0x1 PUSH1 0x1 PUSH1 0xA0 SHL SUB PUSH2 0xC6B PUSH2 0x16BA JUMP JUMPDEST AND PUSH0 MSTORE PUSH1 0x6 PUSH1 0x20 MSTORE PUSH1 0x20 PUSH1 0xFF PUSH1 0x40 PUSH0 KECCAK256 SLOAD AND PUSH1 0x40 MLOAD SWAP1 ISZERO ISZERO DUP2 MSTORE RETURN JUMPDEST CALLVALUE PUSH2 0x1DF JUMPI PUSH0 CALLDATASIZE PUSH1 0x3 NOT ADD SLT PUSH2 0x1DF JUMPI PUSH1 0x20 PUSH1 0x4 SLOAD PUSH1 0x40 MLOAD SWAP1 DUP2 MSTORE RETURN JUMPDEST CALLVALUE PUSH2 0x1DF JUMPI PUSH1 0x20 CALLDATASIZE PUSH1 0x3 NOT ADD SLT PUSH2 0x1DF JUMPI PUSH1 0x1 PUSH1 0x1 PUSH1 0xA0 SHL SUB PUSH2 0xCC5 PUSH2 0x16BA JUMP JUMPDEST AND PUSH0 MSTORE PUSH1 0x5 PUSH1 0x20 MSTORE PUSH1 0x20 PUSH1 0x40 PUSH0 KECCAK256 SLOAD PUSH1 0x40 MLOAD SWAP1 DUP2 MSTORE RETURN JUMPDEST CALLVALUE PUSH2 0x1DF JUMPI PUSH1 0x20 CALLDATASIZE PUSH1 0x3 NOT ADD SLT PUSH2 0x1DF JUMPI PUSH1 0x4 CALLDATALOAD PUSH0 MSTORE PUSH1 0x8 PUSH1 0x20 MSTORE PUSH1 0x40 PUSH0 KECCAK256 PUSH1 0xFF DUP2 SLOAD AND PUSH2 0x31E PUSH1 0x1 DUP4 ADD SLOAD SWAP3 PUSH1 0x1 PUSH1 0x1 PUSH1 0xA0 SHL SUB PUSH1 0x2 DUP3 ADD SLOAD AND SWAP1 PUSH1 0x3 DUP2 ADD SLOAD PUSH2 0xD29 PUSH1 0x4 DUP4 ADD PUSH2 0x17A6 JUMP JUMPDEST PUSH1 0x1 PUSH1 0x1 PUSH1 0xA0 SHL SUB PUSH1 0x5 DUP5 ADD SLOAD AND PUSH2 0xD43 PUSH1 0x6 DUP6 ADD PUSH2 0x1846 JUMP JUMPDEST SWAP1 PUSH1 0xB DUP6 ADD SLOAD SWAP3 PUSH1 0x1 PUSH1 0x1 PUSH1 0xA0 SHL SUB PUSH1 0xC DUP8 ADD SLOAD AND SWAP5 PUSH1 0xE PUSH1 0xD DUP9 ADD SLOAD SWAP8 ADD SLOAD SWAP8 PUSH1 0x40 MLOAD SWAP12 DUP13 SWAP12 DUP13 PUSH2 0x1A89 JUMP JUMPDEST CALLVALUE PUSH2 0x1DF JUMPI PUSH1 0x40 CALLDATASIZE PUSH1 0x3 NOT ADD SLT PUSH2 0x1DF JUMPI PUSH1 0x24 CALLDATALOAD PUSH1 0x4 CALLDATALOAD PUSH2 0xD90 DUP3 PUSH2 0x224E JUMP JUMPDEST SWAP2 PUSH2 0xD9E PUSH1 0x40 MLOAD SWAP4 DUP5 PUSH2 0x1784 JUMP JUMPDEST DUP1 DUP4 MSTORE PUSH1 0x1F NOT PUSH2 0xDAD DUP3 PUSH2 0x224E JUMP JUMPDEST ADD PUSH0 JUMPDEST DUP2 DUP2 LT PUSH2 0xE5B JUMPI POP POP PUSH0 NOT DUP3 ADD SWAP2 DUP3 GT PUSH2 0xC19 JUMPI DUP1 DUP3 MUL SWAP2 DUP1 DUP4 DIV DUP3 EQ SWAP1 ISZERO OR ISZERO PUSH2 0xC19 JUMPI PUSH2 0xDDF SWAP1 DUP3 PUSH2 0x1BE9 JUMP JUMPDEST PUSH1 0x2 SLOAD SWAP1 DUP2 DUP2 GT ISZERO PUSH2 0xE53 JUMPI POP SWAP1 JUMPDEST DUP1 JUMPDEST DUP3 DUP2 LT PUSH2 0xE05 JUMPI PUSH1 0x40 MLOAD DUP1 PUSH2 0x31E DUP7 DUP3 PUSH2 0x1AFB JUMP JUMPDEST PUSH2 0xE0E DUP2 PUSH2 0x1B5A JUMP JUMPDEST SWAP1 SLOAD SWAP1 PUSH1 0x3 SHL SHR PUSH0 MSTORE PUSH1 0x8 PUSH1 0x20 MSTORE PUSH1 0x40 PUSH0 KECCAK256 SWAP1 DUP3 DUP2 SUB SWAP2 DUP2 DUP4 GT PUSH2 0xC19 JUMPI PUSH1 0x1 SWAP3 PUSH2 0xE3B PUSH2 0xE4C SWAP3 PUSH2 0x1897 JUMP JUMPDEST PUSH2 0xE45 DUP3 DUP10 PUSH2 0x2266 JUMP JUMPDEST MSTORE DUP7 PUSH2 0x2266 JUMP JUMPDEST POP ADD PUSH2 0xDF0 JUMP JUMPDEST SWAP1 POP SWAP1 PUSH2 0xDEE JUMP JUMPDEST PUSH1 0x20 SWAP1 PUSH1 0x40 MLOAD PUSH2 0xE6A DUP2 PUSH2 0x174B JUMP JUMPDEST PUSH0 DUP2 MSTORE PUSH0 DUP4 DUP3 ADD MSTORE PUSH0 PUSH1 0x40 DUP3 ADD MSTORE PUSH0 PUSH1 0x60 DUP3 ADD MSTORE PUSH1 0x60 PUSH1 0x80 DUP3 ADD MSTORE PUSH0 PUSH1 0xA0 DUP3 ADD MSTORE PUSH1 0x40 MLOAD PUSH2 0xE97 DUP2 PUSH2 0x1768 JUMP JUMPDEST PUSH1 0x60 DUP2 MSTORE PUSH1 0x60 DUP5 DUP3 ADD MSTORE PUSH1 0x60 PUSH1 0x40 DUP3 ADD MSTORE PUSH0 PUSH1 0x60 DUP3 ADD MSTORE PUSH0 PUSH1 0x80 DUP3 ADD MSTORE PUSH1 0xC0 DUP3 ADD MSTORE PUSH0 PUSH1 0xE0 DUP3 ADD MSTORE PUSH0 PUSH2 0x100 DUP3 ADD MSTORE PUSH0 PUSH2 0x120 DUP3 ADD MSTORE PUSH0 PUSH2 0x140 DUP3 ADD MSTORE DUP3 DUP3 DUP9 ADD ADD MSTORE ADD PUSH2 0xDB0 JUMP JUMPDEST CALLVALUE PUSH2 0x1DF JUMPI PUSH0 CALLDATASIZE PUSH1 0x3 NOT ADD SLT PUSH2 0x1DF JUMPI PUSH1 0x20 PUSH1 0x1 PUSH1 0x1 PUSH1 0xA0 SHL SUB PUSH0 SLOAD AND PUSH1 0x40 MLOAD SWAP1 DUP2 MSTORE RETURN JUMPDEST CALLVALUE PUSH2 0x1DF JUMPI PUSH0 CALLDATASIZE PUSH1 0x3 NOT ADD SLT PUSH2 0x1DF JUMPI PUSH1 0x1 SLOAD PUSH2 0xF21 DUP2 PUSH2 0x224E JUMP JUMPDEST SWAP1 PUSH2 0xF2F PUSH1 0x40 MLOAD SWAP3 DUP4 PUSH2 0x1784 JUMP JUMPDEST DUP1 DUP3 MSTORE PUSH2 0xF3B DUP2 PUSH2 0x224E JUMP JUMPDEST PUSH1 0x20 DUP4 ADD SWAP2 SWAP1 PUSH1 0x1F NOT ADD CALLDATASIZE DUP4 CALLDATACOPY PUSH0 JUMPDEST PUSH1 0xFF DUP2 AND SWAP1 DUP3 DUP3 LT ISZERO PUSH2 0xFAD JUMPI PUSH1 0xFF SWAP2 PUSH1 0x1 PUSH1 0x1 PUSH1 0xA0 SHL SUB PUSH2 0xF6B DUP4 PUSH2 0x1B72 JUMP JUMPDEST SWAP1 SLOAD SWAP1 PUSH1 0x3 SHL SHR AND SWAP1 DUP2 PUSH0 MSTORE PUSH1 0x6 PUSH1 0x20 MSTORE DUP4 PUSH1 0x40 PUSH0 KECCAK256 SLOAD AND PUSH2 0xF9B JUMPI JUMPDEST POP POP AND PUSH1 0xFF DUP2 EQ PUSH2 0xC19 JUMPI PUSH1 0x1 ADD PUSH2 0xF4A JUMP JUMPDEST PUSH2 0xFA5 SWAP1 DUP8 PUSH2 0x2266 JUMP JUMPDEST MSTORE DUP6 DUP1 PUSH2 0xF88 JUMP JUMPDEST POP POP POP SWAP1 PUSH1 0x40 MLOAD SWAP2 DUP3 SWAP2 PUSH1 0x20 DUP4 ADD SWAP1 PUSH1 0x20 DUP5 MSTORE MLOAD DUP1 SWAP2 MSTORE PUSH1 0x40 DUP4 ADD SWAP2 SWAP1 PUSH0 JUMPDEST DUP2 DUP2 LT PUSH2 0xFDA JUMPI POP POP POP SUB SWAP1 RETURN JUMPDEST DUP3 MLOAD PUSH1 0x1 PUSH1 0x1 PUSH1 0xA0 SHL SUB AND DUP5 MSTORE DUP6 SWAP5 POP PUSH1 0x20 SWAP4 DUP5 ADD SWAP4 SWAP1 SWAP3 ADD SWAP2 PUSH1 0x1 ADD PUSH2 0xFCC JUMP JUMPDEST CALLVALUE PUSH2 0x1DF JUMPI PUSH1 0x40 CALLDATASIZE PUSH1 0x3 NOT ADD SLT PUSH2 0x1DF JUMPI PUSH1 0x24 CALLDATALOAD PUSH1 0x4 CALLDATALOAD PUSH8 0xFFFFFFFFFFFFFFFF DUP3 GT PUSH2 0x1DF JUMPI PUSH2 0x160 DUP3 PUSH1 0x4 ADD SWAP3 PUSH1 0x3 NOT SWAP1 CALLDATASIZE SUB ADD SLT PUSH2 0x1DF JUMPI CALLER PUSH0 MSTORE PUSH1 0x6 PUSH1 0x20 MSTORE PUSH2 0x104E PUSH1 0xFF PUSH1 0x40 PUSH0 KECCAK256 SLOAD AND PUSH2 0x1B8A JUMP JUMPDEST DUP1 PUSH0 MSTORE PUSH1 0x8 PUSH1 0x20 MSTORE PUSH2 0x1063 DUP3 PUSH1 0x40 PUSH0 KECCAK256 PUSH2 0x1E34 JUMP JUMPDEST PUSH1 0x2 SLOAD DUP2 PUSH0 MSTORE PUSH1 0x7 PUSH1 0x20 MSTORE DUP1 PUSH1 0x40 PUSH0 KECCAK256 SSTORE PUSH9 0x10000000000000000 DUP2 LT ISZERO PUSH2 0x946 JUMPI PUSH2 0x1098 DUP2 PUSH1 0x1 PUSH2 0x10AE SWAP4 ADD PUSH1 0x2 SSTORE PUSH2 0x1B5A JUMP JUMPDEST DUP2 SWAP4 SWAP2 SLOAD SWAP1 PUSH1 0x3 SHL SWAP2 DUP3 SHL SWAP2 PUSH0 NOT SWAP1 SHL NOT AND OR SWAP1 JUMP JUMPDEST SWAP1 SSTORE ORIGIN PUSH0 MSTORE PUSH1 0x9 PUSH1 0x20 MSTORE PUSH1 0x40 PUSH0 KECCAK256 DUP1 SLOAD PUSH9 0x10000000000000000 DUP2 LT ISZERO PUSH2 0x946 JUMPI PUSH2 0x10DE SWAP2 PUSH1 0x1 DUP3 ADD DUP2 SSTORE PUSH2 0x1A70 JUMP JUMPDEST SWAP2 SWAP1 SWAP2 PUSH2 0xB1A JUMPI PUSH2 0x236 SWAP2 PUSH2 0x1E34 JUMP JUMPDEST CALLVALUE PUSH2 0x1DF JUMPI PUSH1 0x20 CALLDATASIZE PUSH1 0x3 NOT ADD SLT PUSH2 0x1DF JUMPI PUSH1 0x4 CALLDATALOAD CALLER PUSH0 MSTORE PUSH1 0x6 PUSH1 0x20 MSTORE PUSH2 0x111A PUSH1 0xFF PUSH1 0x40 PUSH0 KECCAK256 SLOAD AND PUSH2 0x1B8A JUMP JUMPDEST DUP1 PUSH0 MSTORE PUSH1 0x8 PUSH1 0x20 MSTORE PUSH1 0x1 PUSH1 0x1 PUSH1 0xA0 SHL SUB PUSH2 0x100 PUSH2 0x1139 PUSH1 0x40 PUSH0 KECCAK256 PUSH2 0x1897 JUMP JUMPDEST ADD MLOAD AND PUSH0 MSTORE PUSH1 0x9 PUSH1 0x20 MSTORE PUSH1 0x40 PUSH0 KECCAK256 SWAP1 PUSH0 JUMPDEST DUP3 SLOAD DUP2 LT ISZERO PUSH2 0x1331 JUMPI DUP2 PUSH1 0x20 PUSH2 0x1169 PUSH2 0x1163 DUP5 DUP8 PUSH2 0x1A70 JUMP JUMPDEST POP PUSH2 0x1897 JUMP JUMPDEST ADD MLOAD EQ PUSH2 0x1179 JUMPI JUMPDEST PUSH1 0x1 ADD PUSH2 0x114A JUMP JUMPDEST PUSH2 0x118C PUSH2 0x1186 DUP3 DUP6 PUSH2 0x1A70 JUMP JUMPDEST SWAP1 PUSH2 0x1C5A JUMP JUMPDEST DUP3 SLOAD PUSH0 NOT DUP2 ADD SWAP1 DUP2 GT PUSH2 0xC19 JUMPI PUSH2 0x11A3 SWAP1 DUP5 PUSH2 0x1A70 JUMP JUMPDEST POP PUSH2 0x11AE DUP3 DUP6 PUSH2 0x1A70 JUMP JUMPDEST SWAP2 SWAP1 SWAP2 PUSH2 0xB1A JUMPI DUP1 DUP3 SUB PUSH2 0x11F8 JUMPI JUMPDEST POP POP DUP3 SLOAD SWAP1 DUP2 ISZERO PUSH2 0x11E4 JUMPI PUSH1 0x1 SWAP2 PUSH0 NOT ADD PUSH2 0x11DB PUSH2 0x1186 DUP3 DUP8 PUSH2 0x1A70 JUMP JUMPDEST DUP5 SSTORE SWAP1 POP PUSH2 0x1171 JUMP JUMPDEST PUSH4 0x4E487B71 PUSH1 0xE0 SHL PUSH0 MSTORE PUSH1 0x31 PUSH1 0x4 MSTORE PUSH1 0x24 PUSH0 REVERT JUMPDEST PUSH1 0xE DUP2 PUSH2 0x1216 PUSH1 0xFF DUP4 SWAP5 SLOAD AND DUP6 SWAP1 PUSH1 0xFF DUP1 NOT DUP4 SLOAD AND SWAP2 ISZERO ISZERO AND OR SWAP1 SSTORE JUMP JUMPDEST PUSH1 0x1 DUP2 ADD SLOAD PUSH1 0x1 DUP6 ADD SSTORE PUSH1 0x1 PUSH1 0x1 PUSH1 0xA0 SHL SUB PUSH1 0x2 DUP3 ADD SLOAD AND PUSH1 0x1 PUSH1 0x1 PUSH1 0xA0 SHL SUB PUSH1 0x2 DUP7 ADD SWAP2 AND PUSH1 0x1 PUSH1 0x1 PUSH1 0xA0 SHL SUB NOT DUP3 SLOAD AND OR SWAP1 SSTORE PUSH1 0x3 DUP2 ADD SLOAD PUSH1 0x3 DUP6 ADD SSTORE PUSH2 0x1265 PUSH1 0x4 DUP3 ADD PUSH1 0x4 DUP7 ADD PUSH2 0x1D13 JUMP JUMPDEST PUSH1 0x1 PUSH1 0x1 PUSH1 0xA0 SHL SUB PUSH1 0x5 DUP3 ADD SLOAD AND PUSH1 0x1 PUSH1 0x1 PUSH1 0xA0 SHL SUB PUSH1 0x5 DUP7 ADD SWAP2 AND PUSH1 0x1 PUSH1 0x1 PUSH1 0xA0 SHL SUB NOT DUP3 SLOAD AND OR SWAP1 SSTORE PUSH1 0x6 DUP5 ADD PUSH1 0x6 DUP3 ADD DUP1 DUP3 SUB PUSH2 0x12ED JUMPI JUMPDEST POP POP PUSH1 0xB DUP2 ADD SLOAD PUSH1 0xB DUP6 ADD SSTORE PUSH1 0x1 PUSH1 0x1 PUSH1 0xA0 SHL SUB PUSH1 0xC DUP3 ADD SLOAD AND PUSH1 0x1 PUSH1 0x1 PUSH1 0xA0 SHL SUB PUSH1 0xC DUP7 ADD SWAP2 AND PUSH1 0x1 PUSH1 0x1 PUSH1 0xA0 SHL SUB NOT DUP3 SLOAD AND OR SWAP1 SSTORE PUSH1 0xD DUP2 ADD SLOAD PUSH1 0xD DUP6 ADD SSTORE ADD SLOAD SWAP2 ADD SSTORE DUP4 DUP1 PUSH2 0x11BD JUMP JUMPDEST PUSH2 0x12F6 SWAP2 PUSH2 0x1D13 JUMP JUMPDEST PUSH2 0x1306 PUSH1 0x7 DUP3 ADD PUSH1 0x7 DUP7 ADD PUSH2 0x1D13 JUMP JUMPDEST PUSH2 0x1316 PUSH1 0x8 DUP3 ADD PUSH1 0x8 DUP7 ADD PUSH2 0x1D13 JUMP JUMPDEST PUSH1 0x9 DUP2 ADD SLOAD PUSH1 0x9 DUP6 ADD SSTORE PUSH1 0xA DUP2 ADD SLOAD PUSH1 0xA DUP6 ADD SSTORE DUP8 DUP1 PUSH2 0x12A0 JUMP JUMPDEST POP DUP1 PUSH0 MSTORE PUSH1 0x8 PUSH1 0x20 MSTORE PUSH0 PUSH1 0xE PUSH1 0x40 DUP3 KECCAK256 DUP3 DUP2 SSTORE DUP3 PUSH1 0x1 DUP3 ADD SSTORE DUP3 PUSH1 0x2 DUP3 ADD SSTORE DUP3 PUSH1 0x3 DUP3 ADD SSTORE PUSH2 0x1362 PUSH1 0x4 DUP3 ADD PUSH2 0x1C0C JUMP JUMPDEST DUP3 PUSH1 0x5 DUP3 ADD SSTORE PUSH2 0x1374 PUSH1 0x6 DUP3 ADD PUSH2 0x1C0C JUMP JUMPDEST PUSH2 0x1380 PUSH1 0x7 DUP3 ADD PUSH2 0x1C0C JUMP JUMPDEST PUSH2 0x138C PUSH1 0x8 DUP3 ADD PUSH2 0x1C0C JUMP JUMPDEST DUP3 PUSH1 0x9 DUP3 ADD SSTORE DUP3 PUSH1 0xA DUP3 ADD SSTORE DUP3 PUSH1 0xB DUP3 ADD SSTORE DUP3 PUSH1 0xC DUP3 ADD SSTORE DUP3 PUSH1 0xD DUP3 ADD SSTORE ADD SSTORE PUSH0 MSTORE PUSH1 0x7 PUSH1 0x20 MSTORE PUSH1 0x40 PUSH0 KECCAK256 SLOAD PUSH1 0x2 SLOAD PUSH0 NOT DUP2 ADD SWAP1 DUP2 GT PUSH2 0xC19 JUMPI PUSH2 0x13CF SWAP1 PUSH2 0x1B5A JUMP JUMPDEST SWAP1 SLOAD SWAP1 PUSH1 0x3 SHL SHR PUSH2 0x13E2 PUSH2 0x1098 DUP4 PUSH2 0x1B5A JUMP JUMPDEST SWAP1 SSTORE PUSH2 0x13ED DUP2 PUSH2 0x1B5A JUMP JUMPDEST SWAP1 SLOAD SWAP1 PUSH1 0x3 SHL SHR PUSH0 MSTORE PUSH1 0x7 PUSH1 0x20 MSTORE PUSH1 0x40 PUSH0 KECCAK256 SSTORE PUSH1 0x2 SLOAD DUP1 ISZERO PUSH2 0x11E4 JUMPI PUSH0 NOT ADD PUSH2 0x1415 DUP2 PUSH2 0x1B5A JUMP JUMPDEST DUP2 SLOAD SWAP1 PUSH0 NOT SWAP1 PUSH1 0x3 SHL SHL NOT AND SWAP1 SSTORE PUSH1 0x2 SSTORE PUSH0 DUP1 RETURN JUMPDEST CALLVALUE PUSH2 0x1DF JUMPI PUSH1 0x40 CALLDATASIZE PUSH1 0x3 NOT ADD SLT PUSH2 0x1DF JUMPI PUSH1 0x4 CALLDATALOAD PUSH1 0x1 PUSH1 0x1 PUSH1 0xA0 SHL SUB PUSH2 0x144E PUSH2 0x16D0 JUMP JUMPDEST CALLER PUSH0 MSTORE PUSH1 0x6 PUSH1 0x20 MSTORE PUSH2 0x1466 PUSH1 0xFF PUSH1 0x40 PUSH0 KECCAK256 SLOAD AND PUSH2 0x1B8A JUMP JUMPDEST PUSH2 0x1472 DUP4 PUSH1 0x3 SLOAD PUSH2 0x1BE9 JUMP JUMPDEST PUSH1 0x3 SSTORE AND PUSH0 MSTORE PUSH1 0x5 PUSH1 0x20 MSTORE PUSH2 0x148C PUSH1 0x40 PUSH0 KECCAK256 SWAP2 DUP3 SLOAD PUSH2 0x1BE9 JUMP JUMPDEST SWAP1 SSTORE STOP JUMPDEST CALLVALUE PUSH2 0x1DF JUMPI PUSH0 CALLDATASIZE PUSH1 0x3 NOT ADD SLT PUSH2 0x1DF JUMPI PUSH1 0x20 PUSH1 0x2 SLOAD PUSH1 0x40 MLOAD SWAP1 DUP2 MSTORE RETURN JUMPDEST CALLVALUE PUSH2 0x1DF JUMPI PUSH0 CALLDATASIZE PUSH1 0x3 NOT ADD SLT PUSH2 0x1DF JUMPI PUSH2 0x14C5 PUSH2 0x227A JUMP JUMPDEST PUSH0 DUP1 SLOAD PUSH20 0xFFFFFFFFFFFFFFFFFFFFFFFFFFFFFFFFFFFFFFFF NOT DUP2 AND DUP3 SSTORE PUSH1 0x1 PUSH1 0x1 PUSH1 0xA0 SHL SUB AND PUSH32 0x8BE0079C531659141344CD1FD0A4F28419497F9722A3DAAFE3B4186F6B6457E0 DUP3 DUP1 LOG3 STOP JUMPDEST CALLVALUE PUSH2 0x1DF JUMPI PUSH1 0x20 CALLDATASIZE PUSH1 0x3 NOT ADD SLT PUSH2 0x1DF JUMPI PUSH1 0x4 CALLDATALOAD PUSH0 MSTORE PUSH1 0x7 PUSH1 0x20 MSTORE PUSH1 0x20 PUSH1 0x40 PUSH0 KECCAK256 SLOAD PUSH1 0x40 MLOAD SWAP1 DUP2 MSTORE RETURN JUMPDEST CALLVALUE PUSH2 0x1DF JUMPI PUSH1 0x40 CALLDATASIZE PUSH1 0x3 NOT ADD SLT PUSH2 0x1DF JUMPI PUSH2 0x1554 PUSH2 0x16BA JUMP JUMPDEST PUSH1 0x1 PUSH1 0x1 PUSH1 0xA0 SHL SUB PUSH1 0x24 CALLDATALOAD SWAP2 AND PUSH0 MSTORE PUSH1 0x9 PUSH1 0x20 MSTORE PUSH1 0x40 PUSH0 KECCAK256 SWAP1 DUP2 SLOAD DUP2 LT ISZERO PUSH2 0x1DF JUMPI PUSH2 0x157F SWAP2 PUSH2 0x1A70 JUMP JUMPDEST POP PUSH1 0xFF DUP2 SLOAD AND PUSH2 0x31E PUSH1 0x1 DUP4 ADD SLOAD SWAP3 PUSH1 0x1 PUSH1 0x1 PUSH1 0xA0 SHL SUB PUSH1 0x2 DUP3 ADD SLOAD AND SWAP1 PUSH1 0x3 DUP2 ADD SLOAD PUSH2 0xD29 PUSH1 0x4 DUP4 ADD PUSH2 0x17A6 JUMP JUMPDEST CALLVALUE PUSH2 0x1DF JUMPI PUSH1 0x40 CALLDATASIZE PUSH1 0x3 NOT ADD SLT PUSH2 0x1DF JUMPI PUSH2 0x236 PUSH2 0x15CA PUSH2 0x16BA JUMP JUMPDEST PUSH1 0x1 PUSH1 0x1 PUSH1 0xA0 SHL SUB PUSH2 0x15DA PUSH2 0x1A61 JUMP JUMPDEST SWAP2 PUSH2 0x15E3 PUSH2 0x227A JUMP JUMPDEST AND PUSH0 MSTORE PUSH1 0x6 PUSH1 0x20 MSTORE PUSH1 0x40 PUSH0 KECCAK256 SWAP1 PUSH1 0xFF DUP1 NOT DUP4 SLOAD AND SWAP2 ISZERO ISZERO AND OR SWAP1 SSTORE JUMP JUMPDEST CALLVALUE PUSH2 0x1DF JUMPI PUSH1 0x40 CALLDATASIZE PUSH1 0x3 NOT ADD SLT PUSH2 0x1DF JUMPI PUSH2 0x1619 PUSH2 0x16BA JUMP JUMPDEST PUSH1 0x1 PUSH1 0x1 PUSH1 0xA0 SHL SUB PUSH1 0x24 CALLDATALOAD SWAP2 AND PUSH0 MSTORE PUSH1 0xA PUSH1 0x20 MSTORE PUSH1 0x40 PUSH0 KECCAK256 DUP1 SLOAD DUP3 LT ISZERO PUSH2 0x1DF JUMPI PUSH2 0x1698 SWAP2 PUSH2 0x1647 SWAP2 PUSH2 0x16E6 JUMP JUMPDEST POP PUSH2 0x1651 DUP2 PUSH2 0x1897 JUMP JUMPDEST SWAP1 PUSH2 0x16B0 PUSH1 0x1 PUSH1 0x1 PUSH1 0xA0 SHL SUB PUSH1 0xF DUP4 ADD SLOAD AND PUSH1 0x1 PUSH1 0x1 PUSH1 0xA0 SHL SUB PUSH1 0x10 DUP5 ADD SLOAD AND SWAP3 PUSH1 0x12 PUSH2 0x1680 PUSH1 0x11 DUP4 ADD PUSH2 0x17A6 JUMP JUMPDEST SWAP2 ADD SLOAD SWAP4 PUSH1 0x40 MLOAD SWAP7 DUP8 SWAP7 PUSH1 0xA0 DUP9 MSTORE PUSH1 0xA0 DUP9 ADD SWAP1 PUSH2 0x19B8 JUMP JUMPDEST SWAP3 PUSH1 0x20 DUP8 ADD MSTORE PUSH1 0x40 DUP7 ADD MSTORE DUP5 DUP3 SUB PUSH1 0x60 DUP7 ADD MSTORE PUSH2 0x1940 JUMP JUMPDEST SWAP1 PUSH1 0x80 DUP4 ADD MSTORE SUB SWAP1 RETURN JUMPDEST PUSH1 0x4 CALLDATALOAD SWAP1 PUSH1 0x1 PUSH1 0x1 PUSH1 0xA0 SHL SUB DUP3 AND DUP3 SUB PUSH2 0x1DF JUMPI JUMP JUMPDEST PUSH1 0x24 CALLDATALOAD SWAP1 PUSH1 0x1 PUSH1 0x1 PUSH1 0xA0 SHL SUB DUP3 AND DUP3 SUB PUSH2 0x1DF JUMPI JUMP JUMPDEST DUP1 SLOAD DUP3 LT ISZERO PUSH2 0x16FF JUMPI PUSH0 MSTORE PUSH1 0x13 PUSH1 0x20 PUSH0 KECCAK256 SWAP2 MUL ADD SWAP1 PUSH0 SWAP1 JUMP JUMPDEST PUSH4 0x4E487B71 PUSH1 0xE0 SHL PUSH0 MSTORE PUSH1 0x32 PUSH1 0x4 MSTORE PUSH1 0x24 PUSH0 REVERT JUMPDEST SWAP1 PUSH1 0x1 DUP3 DUP2 SHR SWAP3 AND DUP1 ISZERO PUSH2 0x1741 JUMPI JUMPDEST PUSH1 0x20 DUP4 LT EQ PUSH2 0x172D JUMPI JUMP JUMPDEST PUSH4 0x4E487B71 PUSH1 0xE0 SHL PUSH0 MSTORE PUSH1 0x22 PUSH1 0x4 MSTORE PUSH1 0x24 PUSH0 REVERT JUMPDEST SWAP2 PUSH1 0x7F AND SWAP2 PUSH2 0x1722 JUMP JUMPDEST PUSH2 0x160 DUP2 ADD SWAP1 DUP2 LT PUSH8 0xFFFFFFFFFFFFFFFF DUP3 GT OR PUSH2 0x946 JUMPI PUSH1 0x40 MSTORE JUMP JUMPDEST PUSH1 0xA0 DUP2 ADD SWAP1 DUP2 LT PUSH8 0xFFFFFFFFFFFFFFFF DUP3 GT OR PUSH2 0x946 JUMPI PUSH1 0x40 MSTORE JUMP JUMPDEST SWAP1 PUSH1 0x1F DUP1 NOT SWAP2 ADD AND DUP2 ADD SWAP1 DUP2 LT PUSH8 0xFFFFFFFFFFFFFFFF DUP3 GT OR PUSH2 0x946 JUMPI PUSH1 0x40 MSTORE JUMP JUMPDEST SWAP1 PUSH1 0x40 MLOAD SWAP2 DUP3 PUSH0 DUP3 SLOAD SWAP3 PUSH2 0x17B9 DUP5 PUSH2 0x1713 JUMP JUMPDEST DUP1 DUP5 MSTORE SWAP4 PUSH1 0x1 DUP2 AND SWAP1 DUP2 ISZERO PUSH2 0x1824 JUMPI POP PUSH1 0x1 EQ PUSH2 0x17E0 JUMPI JUMPDEST POP PUSH2 0x17DE SWAP3 POP SUB DUP4 PUSH2 0x1784 JUMP JUMPDEST JUMP JUMPDEST SWAP1 POP PUSH0 SWAP3 SWAP2 SWAP3 MSTORE PUSH1 0x20 PUSH0 KECCAK256 SWAP1 PUSH0 SWAP2 JUMPDEST DUP2 DUP4 LT PUSH2 0x1808 JUMPI POP POP SWAP1 PUSH1 0x20 PUSH2 0x17DE SWAP3 DUP3 ADD ADD PUSH0 PUSH2 0x17D1 JUMP JUMPDEST PUSH1 0x20 SWAP2 SWAP4 POP DUP1 PUSH1 0x1 SWAP2 SLOAD DUP4 DUP6 DUP10 ADD ADD MSTORE ADD SWAP2 ADD SWAP1 SWAP2 DUP5 SWAP3 PUSH2 0x17EF JUMP JUMPDEST SWAP1 POP PUSH1 0x20 SWAP3 POP PUSH2 0x17DE SWAP5 SWAP2 POP PUSH1 0xFF NOT AND DUP3 DUP5 ADD MSTORE ISZERO ISZERO PUSH1 0x5 SHL DUP3 ADD ADD PUSH0 PUSH2 0x17D1 JUMP JUMPDEST SWAP1 PUSH1 0x40 MLOAD PUSH2 0x1853 DUP2 PUSH2 0x1768 JUMP JUMPDEST PUSH1 0x80 PUSH1 0x4 DUP3 SWAP5 PUSH2 0x1862 DUP2 PUSH2 0x17A6 JUMP JUMPDEST DUP5 MSTORE PUSH2 0x1870 PUSH1 0x1 DUP3 ADD PUSH2 0x17A6 JUMP JUMPDEST PUSH1 0x20 DUP6 ADD MSTORE PUSH2 0x1881 PUSH1 0x2 DUP3 ADD PUSH2 0x17A6 JUMP JUMPDEST PUSH1 0x40 DUP6 ADD MSTORE PUSH1 0x3 DUP2 ADD SLOAD PUSH1 0x60 DUP6 ADD MSTORE ADD SLOAD SWAP2 ADD MSTORE JUMP JUMPDEST SWAP1 PUSH1 0x40 MLOAD PUSH2 0x18A4 DUP2 PUSH2 0x174B JUMP JUMPDEST PUSH2 0x140 PUSH1 0xE DUP3 SWAP5 PUSH1 0xFF DUP2 SLOAD AND ISZERO ISZERO DUP5 MSTORE PUSH1 0x1 DUP2 ADD SLOAD PUSH1 0x20 DUP6 ADD MSTORE PUSH1 0x1 PUSH1 0x1 PUSH1 0xA0 SHL SUB PUSH1 0x2 DUP3 ADD SLOAD AND PUSH1 0x40 DUP6 ADD MSTORE PUSH1 0x3 DUP2 ADD SLOAD PUSH1 0x60 DUP6 ADD MSTORE PUSH2 0x18E7 PUSH1 0x4 DUP3 ADD PUSH2 0x17A6 JUMP JUMPDEST PUSH1 0x80 DUP6 ADD MSTORE PUSH1 0x1 PUSH1 0x1 PUSH1 0xA0 SHL SUB PUSH1 0x5 DUP3 ADD SLOAD AND PUSH1 0xA0 DUP6 ADD MSTORE PUSH2 0x190B PUSH1 0x6 DUP3 ADD PUSH2 0x1846 JUMP JUMPDEST PUSH1 0xC0 DUP6 ADD MSTORE PUSH1 0xB DUP2 ADD SLOAD PUSH1 0xE0 DUP6 ADD MSTORE PUSH1 0x1 PUSH1 0x1 PUSH1 0xA0 SHL SUB PUSH1 0xC DUP3 ADD SLOAD AND PUSH2 0x100 DUP6 ADD MSTORE PUSH1 0xD DUP2 ADD SLOAD PUSH2 0x120 DUP6 ADD MSTORE ADD SLOAD SWAP2 ADD MSTORE JUMP JUMPDEST DUP1 MLOAD DUP1 DUP4 MSTORE PUSH1 0x20 SWAP3 SWAP2 DUP2 SWAP1 DUP5 ADD DUP5 DUP5 ADD MCOPY PUSH0 DUP3 DUP3 ADD DUP5 ADD MSTORE PUSH1 0x1F ADD PUSH1 0x1F NOT AND ADD ADD SWAP1 JUMP JUMPDEST SWAP1 PUSH1 0x80 DUP1 PUSH2 0x19A5 PUSH2 0x1993 PUSH2 0x1981 DUP7 MLOAD PUSH1 0xA0 DUP8 MSTORE PUSH1 0xA0 DUP8 ADD SWAP1 PUSH2 0x1940 JUMP JUMPDEST PUSH1 0x20 DUP8 ADD MLOAD DUP7 DUP3 SUB PUSH1 0x20 DUP9 ADD MSTORE PUSH2 0x1940 JUMP JUMPDEST PUSH1 0x40 DUP7 ADD MLOAD DUP6 DUP3 SUB PUSH1 0x40 DUP8 ADD MSTORE PUSH2 0x1940 JUMP JUMPDEST SWAP4 PUSH1 0x60 DUP2 ADD MLOAD PUSH1 0x60 DUP6 ADD MSTORE ADD MLOAD SWAP2 ADD MSTORE SWAP1 JUMP JUMPDEST SWAP1 DUP2 MLOAD ISZERO ISZERO DUP2 MSTORE PUSH1 0x20 DUP3 ADD MLOAD PUSH1 0x20 DUP3 ADD MSTORE PUSH1 0x1 PUSH1 0x1 PUSH1 0xA0 SHL SUB PUSH1 0x40 DUP4 ADD MLOAD AND PUSH1 0x40 DUP3 ADD MSTORE PUSH1 0x60 DUP3 ADD MLOAD PUSH1 0x60 DUP3 ADD MSTORE PUSH2 0x140 DUP1 PUSH2 0x1A2D PUSH2 0x1A08 PUSH1 0x80 DUP7 ADD MLOAD PUSH2 0x160 PUSH1 0x80 DUP8 ADD MSTORE PUSH2 0x160 DUP7 ADD SWAP1 PUSH2 0x1940 JUMP JUMPDEST PUSH1 0x1 PUSH1 0x1 PUSH1 0xA0 SHL SUB PUSH1 0xA0 DUP8 ADD MLOAD AND PUSH1 0xA0 DUP7 ADD MSTORE PUSH1 0xC0 DUP7 ADD MLOAD DUP6 DUP3 SUB PUSH1 0xC0 DUP8 ADD MSTORE PUSH2 0x1964 JUMP JUMPDEST SWAP4 PUSH1 0xE0 DUP2 ADD MLOAD PUSH1 0xE0 DUP6 ADD MSTORE PUSH1 0x1 PUSH1 0x1 PUSH1 0xA0 SHL SUB PUSH2 0x100 DUP3 ADD MLOAD AND PUSH2 0x100 DUP6 ADD MSTORE PUSH2 0x120 DUP2 ADD MLOAD PUSH2 0x120 DUP6 ADD MSTORE ADD MLOAD SWAP2 ADD MSTORE SWAP1 JUMP JUMPDEST PUSH1 0x24 CALLDATALOAD SWAP1 DUP2 ISZERO ISZERO DUP3 SUB PUSH2 0x1DF JUMPI JUMP JUMPDEST DUP1 SLOAD DUP3 LT ISZERO PUSH2 0x16FF JUMPI PUSH0 MSTORE PUSH1 0xF PUSH1 0x20 PUSH0 KECCAK256 SWAP2 MUL ADD SWAP1 PUSH0 SWAP1 JUMP JUMPDEST SWAP8 SWAP12 SWAP11 SWAP10 SWAP7 SWAP2 PUSH2 0x140 SWAP10 SWAP6 PUSH2 0x1AE4 SWAP6 PUSH1 0x1 PUSH1 0x1 PUSH1 0xA0 SHL SUB DUP1 SWAP10 SWAP7 PUSH2 0x1AD0 SWAP5 PUSH1 0x20 DUP15 DUP5 SWAP9 ISZERO ISZERO DUP2 MSTORE ADD MSTORE AND PUSH1 0x40 DUP13 ADD MSTORE PUSH1 0x60 DUP12 ADD MSTORE PUSH2 0x160 PUSH1 0x80 DUP12 ADD MSTORE PUSH2 0x160 DUP11 ADD SWAP1 PUSH2 0x1940 JUMP JUMPDEST SWAP3 AND PUSH1 0xA0 DUP9 ADD MSTORE DUP7 DUP3 SUB PUSH1 0xC0 DUP9 ADD MSTORE PUSH2 0x1964 JUMP JUMPDEST SWAP8 PUSH1 0xE0 DUP6 ADD MSTORE AND PUSH2 0x100 DUP4 ADD MSTORE PUSH2 0x120 DUP3 ADD MSTORE ADD MSTORE JUMP JUMPDEST PUSH1 0x20 DUP2 ADD PUSH1 0x20 DUP3 MSTORE DUP3 MLOAD DUP1 SWAP2 MSTORE PUSH1 0x40 DUP3 ADD SWAP2 PUSH1 0x20 PUSH1 0x40 DUP4 PUSH1 0x5 SHL DUP4 ADD ADD SWAP5 ADD SWAP3 PUSH0 SWAP2 JUMPDEST DUP4 DUP4 LT PUSH2 0x1B2D JUMPI POP POP POP POP POP SWAP1 JUMP JUMPDEST SWAP1 SWAP2 SWAP3 SWAP4 SWAP5 PUSH1 0x20 DUP1 PUSH2 0x1B4B PUSH1 0x1 SWAP4 PUSH1 0x3F NOT DUP7 DUP3 SUB ADD DUP8 MSTORE DUP10 MLOAD PUSH2 0x19B8 JUMP JUMPDEST SWAP8 ADD SWAP4 ADD SWAP4 ADD SWAP2 SWAP4 SWAP3 SWAP1 PUSH2 0x1B1E JUMP JUMPDEST PUSH1 0x2 SLOAD DUP2 LT ISZERO PUSH2 0x16FF JUMPI PUSH1 0x2 PUSH0 MSTORE PUSH1 0x20 PUSH0 KECCAK256 ADD SWAP1 PUSH0 SWAP1 JUMP JUMPDEST PUSH1 0x1 SLOAD DUP2 LT ISZERO PUSH2 0x16FF JUMPI PUSH1 0x1 PUSH0 MSTORE PUSH1 0x20 PUSH0 KECCAK256 ADD SWAP1 PUSH0 SWAP1 JUMP JUMPDEST ISZERO PUSH2 0x1B91 JUMPI JUMP JUMPDEST PUSH1 0x40 MLOAD PUSH3 0x461BCD PUSH1 0xE5 SHL DUP2 MSTORE PUSH1 0x20 PUSH1 0x4 DUP3 ADD MSTORE PUSH1 0x2A PUSH1 0x24 DUP3 ADD MSTORE PUSH32 0x61646472657373206973206E6F7420616C6C6F7761626C6520746F2061636365 PUSH1 0x44 DUP3 ADD MSTORE PUSH10 0x73732073746F72616765 PUSH1 0xB0 SHL PUSH1 0x64 DUP3 ADD MSTORE PUSH1 0x84 SWAP1 REVERT JUMPDEST SWAP2 SWAP1 DUP3 ADD DUP1 SWAP3 GT PUSH2 0xC19 JUMPI JUMP JUMPDEST DUP2 DUP2 LT PUSH2 0x1C01 JUMPI POP POP JUMP JUMPDEST PUSH0 DUP2 SSTORE PUSH1 0x1 ADD PUSH2 0x1BF6 JUMP JUMPDEST PUSH2 0x1C16 DUP2 SLOAD PUSH2 0x1713 JUMP JUMPDEST SWAP1 DUP2 PUSH2 0x1C20 JUMPI POP POP JUMP JUMPDEST DUP2 PUSH1 0x1F PUSH0 SWAP4 GT PUSH1 0x1 EQ PUSH2 0x1C31 JUMPI POP SSTORE JUMP JUMPDEST DUP2 DUP4 MSTORE PUSH1 0x20 DUP4 KECCAK256 PUSH2 0x1C4D SWAP2 PUSH1 0x1F ADD PUSH1 0x5 SHR DUP2 ADD SWAP1 PUSH1 0x1 ADD PUSH2 0x1BF6 JUMP JUMPDEST DUP1 DUP3 MSTORE DUP2 PUSH1 0x20 DUP2 KECCAK256 SWAP2 SSTORE SSTORE JUMP JUMPDEST SWAP1 PUSH2 0xB1A JUMPI PUSH1 0xE DUP2 PUSH0 DUP1 SWAP4 SSTORE DUP3 PUSH1 0x1 DUP3 ADD SSTORE DUP3 PUSH1 0x2 DUP3 ADD SSTORE DUP3 PUSH1 0x3 DUP3 ADD SSTORE PUSH2 0x1C84 PUSH1 0x4 DUP3 ADD PUSH2 0x1C0C JUMP JUMPDEST DUP3 PUSH1 0x5 DUP3 ADD SSTORE PUSH2 0x1C96 PUSH1 0x6 DUP3 ADD PUSH2 0x1C0C JUMP JUMPDEST PUSH2 0x1CA2 PUSH1 0x7 DUP3 ADD PUSH2 0x1C0C JUMP JUMPDEST PUSH2 0x1CAE PUSH1 0x8 DUP3 ADD PUSH2 0x1C0C JUMP JUMPDEST DUP3 PUSH1 0x9 DUP3 ADD SSTORE DUP3 PUSH1 0xA DUP3 ADD SSTORE DUP3 PUSH1 0xB DUP3 ADD SSTORE DUP3 PUSH1 0xC DUP3 ADD SSTORE DUP3 PUSH1 0xD DUP3 ADD SSTORE ADD SSTORE JUMP JUMPDEST SWAP2 SWAP1 PUSH1 0x1F DUP2 GT PUSH2 0x1CDF JUMPI POP POP POP JUMP JUMPDEST PUSH2 0x17DE SWAP3 PUSH0 MSTORE PUSH1 0x20 PUSH0 KECCAK256 SWAP1 PUSH1 0x20 PUSH1 0x1F DUP5 ADD PUSH1 0x5 SHR DUP4 ADD SWAP4 LT PUSH2 0x1D09 JUMPI JUMPDEST PUSH1 0x1F ADD PUSH1 0x5 SHR ADD SWAP1 PUSH2 0x1BF6 JUMP JUMPDEST SWAP1 SWAP2 POP DUP2 SWAP1 PUSH2 0x1CFC JUMP JUMPDEST SWAP2 SWAP1 SWAP2 DUP3 DUP2 EQ PUSH2 0x1DE8 JUMPI PUSH2 0x1D27 DUP4 SLOAD PUSH2 0x1713 JUMP JUMPDEST PUSH8 0xFFFFFFFFFFFFFFFF DUP2 GT PUSH2 0x946 JUMPI PUSH2 0x1D44 DUP2 PUSH2 0x896 DUP5 SLOAD PUSH2 0x1713 JUMP JUMPDEST PUSH0 SWAP4 PUSH1 0x1F DUP3 GT PUSH1 0x1 EQ PUSH2 0x1D82 JUMPI PUSH2 0x1D73 SWAP3 SWAP4 SWAP5 DUP3 SWAP2 PUSH0 SWAP3 PUSH2 0x1D77 JUMPI POP POP DUP2 PUSH1 0x1 SHL SWAP2 PUSH0 NOT SWAP1 PUSH1 0x3 SHL SHR NOT AND OR SWAP1 JUMP JUMPDEST SWAP1 SSTORE JUMP JUMPDEST ADD SLOAD SWAP1 POP PUSH0 DUP1 PUSH2 0x694 JUMP JUMPDEST PUSH1 0x1F NOT DUP3 AND SWAP1 PUSH0 MSTORE PUSH1 0x20 PUSH0 KECCAK256 SWAP5 DUP4 PUSH0 MSTORE PUSH1 0x20 PUSH0 KECCAK256 SWAP2 PUSH0 JUMPDEST DUP2 DUP2 LT PUSH2 0x1DD0 JUMPI POP SWAP6 DUP4 PUSH1 0x1 SWAP6 SWAP7 SWAP8 LT PUSH2 0x1DB8 JUMPI JUMPDEST POP POP POP DUP2 SHL ADD SWAP1 SSTORE JUMP JUMPDEST ADD SLOAD PUSH0 NOT PUSH1 0xF8 DUP5 PUSH1 0x3 SHL AND SHR NOT AND SWAP1 SSTORE PUSH0 DUP1 DUP1 PUSH2 0x1DAE JUMP JUMPDEST SWAP2 SWAP3 PUSH1 0x1 DUP1 PUSH1 0x20 SWAP3 DUP7 DUP12 ADD SLOAD DUP2 SSTORE ADD SWAP5 ADD SWAP3 ADD PUSH2 0x1D99 JUMP JUMPDEST POP SWAP1 POP JUMP JUMPDEST CALLDATALOAD PUSH1 0x1 PUSH1 0x1 PUSH1 0xA0 SHL SUB DUP2 AND DUP2 SUB PUSH2 0x1DF JUMPI SWAP1 JUMP JUMPDEST SWAP1 CALLDATALOAD SWAP1 PUSH1 0x1E NOT DUP2 CALLDATASIZE SUB ADD DUP3 SLT ISZERO PUSH2 0x1DF JUMPI ADD DUP1 CALLDATALOAD SWAP1 PUSH8 0xFFFFFFFFFFFFFFFF DUP3 GT PUSH2 0x1DF JUMPI PUSH1 0x20 ADD SWAP2 DUP2 CALLDATASIZE SUB DUP4 SGT PUSH2 0x1DF JUMPI JUMP JUMPDEST SWAP1 DUP1 CALLDATALOAD DUP1 ISZERO ISZERO DUP2 SUB PUSH2 0x1DF JUMPI DUP3 SLOAD SWAP1 ISZERO ISZERO PUSH1 0xFF AND PUSH1 0xFF NOT SWAP2 SWAP1 SWAP2 AND OR DUP3 SSTORE PUSH1 0x20 DUP2 ADD CALLDATALOAD PUSH1 0x1 DUP4 ADD SSTORE PUSH2 0x1E68 PUSH1 0x40 DUP3 ADD PUSH2 0x1DED JUMP JUMPDEST PUSH1 0x1 PUSH1 0x1 PUSH1 0xA0 SHL SUB PUSH1 0x2 DUP5 ADD SWAP2 AND PUSH1 0x1 PUSH1 0x1 PUSH1 0xA0 SHL SUB NOT DUP3 SLOAD AND OR SWAP1 SSTORE PUSH1 0x60 DUP2 ADD CALLDATALOAD PUSH1 0x3 DUP4 ADD SSTORE PUSH1 0x4 DUP3 ADD PUSH2 0x1EA0 PUSH1 0x80 DUP4 ADD DUP4 PUSH2 0x1E01 JUMP JUMPDEST SWAP1 PUSH8 0xFFFFFFFFFFFFFFFF DUP3 GT PUSH2 0x946 JUMPI PUSH2 0x1EBE DUP3 PUSH2 0x673 DUP6 SLOAD PUSH2 0x1713 JUMP JUMPDEST PUSH0 SWAP1 PUSH1 0x1F DUP4 GT PUSH1 0x1 EQ PUSH2 0x21EA JUMPI PUSH2 0x1EEB SWAP3 SWAP2 PUSH0 SWAP2 DUP4 PUSH2 0x20A9 JUMPI POP POP DUP2 PUSH1 0x1 SHL SWAP2 PUSH0 NOT SWAP1 PUSH1 0x3 SHL SHR NOT AND OR SWAP1 JUMP JUMPDEST SWAP1 SSTORE JUMPDEST PUSH2 0x1EFA PUSH1 0xA0 DUP3 ADD PUSH2 0x1DED JUMP JUMPDEST PUSH1 0x1 PUSH1 0x1 PUSH1 0xA0 SHL SUB PUSH1 0x5 DUP5 ADD SWAP2 AND PUSH1 0x1 PUSH1 0x1 PUSH1 0xA0 SHL SUB NOT DUP3 SLOAD AND OR SWAP1 SSTORE PUSH1 0x6 DUP3 ADD PUSH1 0xC0 DUP3 ADD CALLDATALOAD PUSH1 0x9E NOT DUP4 CALLDATASIZE SUB ADD DUP2 SLT ISZERO PUSH2 0x1DF JUMPI DUP3 ADD SWAP1 PUSH2 0x1F3B DUP3 DUP1 PUSH2 0x1E01 JUMP JUMPDEST SWAP1 PUSH8 0xFFFFFFFFFFFFFFFF DUP3 GT PUSH2 0x946 JUMPI PUSH2 0x1F59 DUP3 PUSH2 0x673 DUP6 SLOAD PUSH2 0x1713 JUMP JUMPDEST PUSH0 SWAP1 PUSH1 0x1F DUP4 GT PUSH1 0x1 EQ PUSH2 0x2186 JUMPI PUSH2 0x1F86 SWAP3 SWAP2 PUSH0 SWAP2 DUP4 PUSH2 0x20A9 JUMPI POP POP DUP2 PUSH1 0x1 SHL SWAP2 PUSH0 NOT SWAP1 PUSH1 0x3 SHL SHR NOT AND OR SWAP1 JUMP JUMPDEST SWAP1 SSTORE JUMPDEST PUSH1 0x7 DUP4 ADD PUSH2 0x1F9A PUSH1 0x20 DUP4 ADD DUP4 PUSH2 0x1E01 JUMP JUMPDEST SWAP1 PUSH8 0xFFFFFFFFFFFFFFFF DUP3 GT PUSH2 0x946 JUMPI PUSH2 0x1FB8 DUP3 PUSH2 0x673 DUP6 SLOAD PUSH2 0x1713 JUMP JUMPDEST PUSH0 SWAP1 PUSH1 0x1F DUP4 GT PUSH1 0x1 EQ PUSH2 0x2122 JUMPI PUSH2 0x1FE5 SWAP3 SWAP2 PUSH0 SWAP2 DUP4 PUSH2 0x20A9 JUMPI POP POP DUP2 PUSH1 0x1 SHL SWAP2 PUSH0 NOT SWAP1 PUSH1 0x3 SHL SHR NOT AND OR SWAP1 JUMP JUMPDEST SWAP1 SSTORE JUMPDEST PUSH1 0x8 DUP4 ADD PUSH2 0x1FF9 PUSH1 0x40 DUP4 ADD DUP4 PUSH2 0x1E01 JUMP JUMPDEST SWAP1 PUSH8 0xFFFFFFFFFFFFFFFF DUP3 GT PUSH2 0x946 JUMPI PUSH2 0x2017 DUP3 PUSH2 0x673 DUP6 SLOAD PUSH2 0x1713 JUMP JUMPDEST PUSH0 SWAP1 PUSH1 0x1F DUP4 GT PUSH1 0x1 EQ PUSH2 0x20B4 JUMPI SWAP3 PUSH2 0x204F DUP4 PUSH1 0x80 SWAP5 PUSH2 0x140 SWAP8 SWAP5 PUSH1 0xE SWAP10 SWAP8 PUSH0 SWAP3 PUSH2 0x20A9 JUMPI POP POP DUP2 PUSH1 0x1 SHL SWAP2 PUSH0 NOT SWAP1 PUSH1 0x3 SHL SHR NOT AND OR SWAP1 JUMP JUMPDEST SWAP1 SSTORE JUMPDEST PUSH1 0x60 DUP2 ADD CALLDATALOAD PUSH1 0x9 DUP8 ADD SSTORE ADD CALLDATALOAD PUSH1 0xA DUP6 ADD SSTORE PUSH1 0xE0 DUP2 ADD CALLDATALOAD PUSH1 0xB DUP6 ADD SSTORE PUSH2 0x207A PUSH2 0x100 DUP3 ADD PUSH2 0x1DED JUMP JUMPDEST PUSH1 0x1 PUSH1 0x1 PUSH1 0xA0 SHL SUB PUSH1 0xC DUP7 ADD SWAP2 AND PUSH1 0x1 PUSH1 0x1 PUSH1 0xA0 SHL SUB NOT DUP3 SLOAD AND OR SWAP1 SSTORE PUSH2 0x120 DUP2 ADD CALLDATALOAD PUSH1 0xD DUP6 ADD SSTORE ADD CALLDATALOAD SWAP2 ADD SSTORE JUMP JUMPDEST ADD CALLDATALOAD SWAP1 POP PUSH0 DUP1 PUSH2 0x694 JUMP JUMPDEST PUSH1 0x1F NOT DUP4 AND SWAP2 DUP5 PUSH0 MSTORE PUSH1 0x20 PUSH0 KECCAK256 SWAP3 PUSH0 JUMPDEST DUP2 DUP2 LT PUSH2 0x210A JUMPI POP SWAP4 PUSH2 0x140 SWAP7 SWAP4 PUSH1 0xE SWAP9 SWAP7 SWAP4 PUSH1 0x1 SWAP4 DUP4 PUSH1 0x80 SWAP9 LT PUSH2 0x20F1 JUMPI JUMPDEST POP POP POP DUP2 SHL ADD SWAP1 SSTORE PUSH2 0x2052 JUMP JUMPDEST ADD CALLDATALOAD PUSH0 NOT PUSH1 0x3 DUP5 SWAP1 SHL PUSH1 0xF8 AND SHR NOT AND SWAP1 SSTORE PUSH0 DUP1 DUP1 PUSH2 0x20E4 JUMP JUMPDEST SWAP2 SWAP4 PUSH1 0x20 PUSH1 0x1 DUP2 SWAP3 DUP8 DUP8 ADD CALLDATALOAD DUP2 SSTORE ADD SWAP6 ADD SWAP3 ADD PUSH2 0x20C4 JUMP JUMPDEST PUSH1 0x1F NOT DUP4 AND SWAP2 DUP5 PUSH0 MSTORE PUSH1 0x20 PUSH0 KECCAK256 SWAP3 PUSH0 JUMPDEST DUP2 DUP2 LT PUSH2 0x216E JUMPI POP SWAP1 DUP5 PUSH1 0x1 SWAP6 SWAP5 SWAP4 SWAP3 LT PUSH2 0x2155 JUMPI JUMPDEST POP POP POP DUP2 SHL ADD SWAP1 SSTORE PUSH2 0x1FE8 JUMP JUMPDEST ADD CALLDATALOAD PUSH0 NOT PUSH1 0x3 DUP5 SWAP1 SHL PUSH1 0xF8 AND SHR NOT AND SWAP1 SSTORE PUSH0 DUP1 DUP1 PUSH2 0x2148 JUMP JUMPDEST SWAP2 SWAP4 PUSH1 0x20 PUSH1 0x1 DUP2 SWAP3 DUP8 DUP8 ADD CALLDATALOAD DUP2 SSTORE ADD SWAP6 ADD SWAP3 ADD PUSH2 0x2132 JUMP JUMPDEST PUSH1 0x1F NOT DUP4 AND SWAP2 DUP5 PUSH0 MSTORE PUSH1 0x20 PUSH0 KECCAK256 SWAP3 PUSH0 JUMPDEST DUP2 DUP2 LT PUSH2 0x21D2 JUMPI POP SWAP1 DUP5 PUSH1 0x1 SWAP6 SWAP5 SWAP4 SWAP3 LT PUSH2 0x21B9 JUMPI JUMPDEST POP POP POP DUP2 SHL ADD SWAP1 SSTORE PUSH2 0x1F89 JUMP JUMPDEST ADD CALLDATALOAD PUSH0 NOT PUSH1 0x3 DUP5 SWAP1 SHL PUSH1 0xF8 AND SHR NOT AND SWAP1 SSTORE PUSH0 DUP1 DUP1 PUSH2 0x21AC JUMP JUMPDEST SWAP2 SWAP4 PUSH1 0x20 PUSH1 0x1 DUP2 SWAP3 DUP8 DUP8 ADD CALLDATALOAD DUP2 SSTORE ADD SWAP6 ADD SWAP3 ADD PUSH2 0x2196 JUMP JUMPDEST PUSH1 0x1F NOT DUP4 AND SWAP2 DUP5 PUSH0 MSTORE PUSH1 0x20 PUSH0 KECCAK256 SWAP3 PUSH0 JUMPDEST DUP2 DUP2 LT PUSH2 0x2236 JUMPI POP SWAP1 DUP5 PUSH1 0x1 SWAP6 SWAP5 SWAP4 SWAP3 LT PUSH2 0x221D JUMPI JUMPDEST POP POP POP DUP2 SHL ADD SWAP1 SSTORE PUSH2 0x1EEE JUMP JUMPDEST ADD CALLDATALOAD PUSH0 NOT PUSH1 0x3 DUP5 SWAP1 SHL PUSH1 0xF8 AND SHR NOT AND SWAP1 SSTORE PUSH0 DUP1 DUP1 PUSH2 0x2210 JUMP JUMPDEST SWAP2 SWAP4 PUSH1 0x20 PUSH1 0x1 DUP2 SWAP3 DUP8 DUP8 ADD CALLDATALOAD DUP2 SSTORE ADD SWAP6 ADD SWAP3 ADD PUSH2 0x21FA JUMP JUMPDEST PUSH8 0xFFFFFFFFFFFFFFFF DUP2 GT PUSH2 0x946 JUMPI PUSH1 0x5 SHL PUSH1 0x20 ADD SWAP1 JUMP JUMPDEST DUP1 MLOAD DUP3 LT ISZERO PUSH2 0x16FF JUMPI PUSH1 0x20 SWAP2 PUSH1 0x5 SHL ADD ADD SWAP1 JUMP JUMPDEST PUSH1 0x1 PUSH1 0x1 PUSH1 0xA0 SHL SUB PUSH0 SLOAD AND CALLER SUB PUSH2 0x228D JUMPI JUMP JUMPDEST PUSH4 0x118CDAA7 PUSH1 0xE0 SHL PUSH0 MSTORE CALLER PUSH1 0x4 MSTORE PUSH1 0x24 PUSH0 REVERT INVALID LOG2 PUSH5 0x6970667358 0x22 SLT KECCAK256 SHR DUP12 ADDMOD PUSH13 0x17EE72F8DB42688038FEFBAEC9 0xEC 0xAB GAS SHL DELEGATECALL 0xF9 0xC5 0xDB 0xD6 DUP10 ADDMOD 0xD PUSH1 0xCF 0xE8 PUSH5 0x736F6C6343 STOP ADDMOD SHR STOP CALLER "
		},
		"gasEstimates": {
			"creation": {
				"codeDepositCost": "1783600",
				"executionCost": "27684",
				"totalCost": "1811284"
			},
			"external": {
				"accessableList(uint256)": "7084",
				"accumulateTradingCount()": "27007",
				"accumulateVolume(uint256,address)": "infinite",
				"createOrder(bytes32,(bool,bytes32,address,uint256,string,address,(string,string,string,uint256,uint256),uint256,address,uint256,uint256))": "infinite",
				"createTradeRecord(bytes32,address,address,string)": "infinite",
				"deleteOrder(bytes32)": "infinite",
				"getAllowableList()": "infinite",
				"getMyOrders(address)": "infinite",
				"getOrders(uint256,uint256)": "infinite",
				"getTotal()": "2402",
				"getTradeRecordsByAddress(address)": "infinite",
				"getTradingCount()": "2600",
				"getVolume()": "2666",
				"getVolumeByToken(address)": "2728",
				"isAccessable(address)": "2784",
				"isListed(address,uint256)": "infinite",
				"myOrders(address,uint256)": "infinite",
				"orderIDIndex(bytes32)": "2379",
				"orderIDs(uint256)": "7176",
				"orders(bytes32)": "infinite",
				"owner()": "2529",
				"renounceOwnership()": "28162",
				"setAccessableAddr(address,bool)": "26770",
				"setListPrice(bytes32,uint256)": "25109",
				"setOrderStatus(bytes32,bool)": "27323",
				"tradingCount()": "2336",
				"tradingRecords(address,uint256)": "infinite",
				"transferOwnership(address)": "28777",
				"volume()": "2644",
				"volumeByToken(address)": "2508"
			}
		},
		"methodIdentifiers": {
			"accessableList(uint256)": "cc2a717b",
			"accumulateTradingCount()": "c767a141",
			"accumulateVolume(uint256,address)": "857eab22",
			"createOrder(bytes32,(bool,bytes32,address,uint256,string,address,(string,string,string,uint256,uint256),uint256,address,uint256,uint256))": "88f3528e",
			"createTradeRecord(bytes32,address,address,string)": "d1f5d212",
			"deleteOrder(bytes32)": "87a61cbd",
			"getAllowableList()": "89adacf2",
			"getMyOrders(address)": "d3284d8e",
			"getOrders(uint256,uint256)": "8f72fc77",
			"getTotal()": "775a25e3",
			"getTradeRecordsByAddress(address)": "d25285f5",
			"getTradingCount()": "a8a6d538",
			"getVolume()": "c67bbc24",
			"getVolumeByToken(address)": "a54247ae",
			"isAccessable(address)": "bc4998b1",
			"isListed(address,uint256)": "cdb3cd25",
			"myOrders(address,uint256)": "35ebd1c6",
			"orderIDIndex(bytes32)": "52e30497",
			"orderIDs(uint256)": "d7f23b61",
			"orders(bytes32)": "9c3f1e90",
			"owner()": "8da5cb5b",
			"renounceOwnership()": "715018a6",
			"setAccessableAddr(address,bool)": "2b0d6076",
			"setListPrice(bytes32,uint256)": "e0f2bdd3",
			"setOrderStatus(bytes32,bool)": "e35b5e1d",
			"tradingCount()": "5300f7d4",
			"tradingRecords(address,uint256)": "27e7a2b7",
			"transferOwnership(address)": "f2fde38b",
			"volume()": "c618a1e4",
			"volumeByToken(address)": "6ef19c9d"
		}
	},
	"abi": [
		{
			"inputs": [],
			"stateMutability": "nonpayable",
			"type": "constructor"
		},
		{
			"inputs": [
				{
					"internalType": "address",
					"name": "owner",
					"type": "address"
				}
			],
			"name": "OwnableInvalidOwner",
			"type": "error"
		},
		{
			"inputs": [
				{
					"internalType": "address",
					"name": "account",
					"type": "address"
				}
			],
			"name": "OwnableUnauthorizedAccount",
			"type": "error"
		},
		{
			"anonymous": false,
			"inputs": [
				{
					"indexed": false,
					"internalType": "bytes32",
					"name": "orderId",
					"type": "bytes32"
				},
				{
					"indexed": true,
					"internalType": "address",
					"name": "wrappedNFTContract",
					"type": "address"
				},
				{
					"indexed": true,
					"internalType": "uint256",
					"name": "tokenId",
					"type": "uint256"
				},
				{
					"indexed": false,
					"internalType": "string",
					"name": "p",
					"type": "string"
				},
				{
					"indexed": false,
					"internalType": "string",
					"name": "op",
					"type": "string"
				},
				{
					"indexed": false,
					"internalType": "string",
					"name": "tick",
					"type": "string"
				},
				{
					"indexed": false,
					"internalType": "uint256",
					"name": "amt",
					"type": "uint256"
				},
				{
					"indexed": false,
					"internalType": "uint256",
					"name": "limit",
					"type": "uint256"
				},
				{
					"indexed": false,
					"internalType": "address",
					"name": "seller",
					"type": "address"
				},
				{
					"indexed": false,
					"internalType": "uint256",
					"name": "unitPrice",
					"type": "uint256"
				},
				{
					"indexed": false,
					"internalType": "string",
					"name": "symbol",
					"type": "string"
				},
				{
					"indexed": false,
					"internalType": "uint256",
					"name": "createTime",
					"type": "uint256"
				}
			],
			"name": "OrderListed",
			"type": "event"
		},
		{
			"anonymous": false,
			"inputs": [
				{
					"indexed": false,
					"internalType": "bytes32",
					"name": "orderId",
					"type": "bytes32"
				},
				{
					"indexed": false,
					"internalType": "address",
					"name": "buyer",
					"type": "address"
				},
				{
					"indexed": false,
					"internalType": "address",
					"name": "seller",
					"type": "address"
				},
				{
					"indexed": false,
					"internalType": "string",
					"name": "p",
					"type": "string"
				},
				{
					"indexed": false,
					"internalType": "string",
					"name": "op",
					"type": "string"
				},
				{
					"indexed": false,
					"internalType": "string",
					"name": "tick",
					"type": "string"
				},
				{
					"indexed": false,
					"internalType": "uint256",
					"name": "amt",
					"type": "uint256"
				},
				{
					"indexed": false,
					"internalType": "uint256",
					"name": "limit",
					"type": "uint256"
				},
				{
					"indexed": false,
					"internalType": "uint256",
					"name": "unitPrice",
					"type": "uint256"
				},
				{
					"indexed": false,
					"internalType": "string",
					"name": "symbol",
					"type": "string"
				},
				{
					"indexed": false,
					"internalType": "uint256",
					"name": "soldTime",
					"type": "uint256"
				}
			],
			"name": "OrderSold",
			"type": "event"
		},
		{
			"anonymous": false,
			"inputs": [
				{
					"indexed": false,
					"internalType": "bytes32",
					"name": "orderId",
					"type": "bytes32"
				},
				{
					"indexed": false,
					"internalType": "string",
					"name": "p",
					"type": "string"
				},
				{
					"indexed": false,
					"internalType": "string",
					"name": "op",
					"type": "string"
				},
				{
					"indexed": false,
					"internalType": "string",
					"name": "tick",
					"type": "string"
				},
				{
					"indexed": false,
					"internalType": "uint256",
					"name": "amt",
					"type": "uint256"
				},
				{
					"indexed": false,
					"internalType": "uint256",
					"name": "limit",
					"type": "uint256"
				},
				{
					"indexed": false,
					"internalType": "address",
					"name": "seller",
					"type": "address"
				},
				{
					"indexed": false,
					"internalType": "uint256",
					"name": "unitPrice",
					"type": "uint256"
				},
				{
					"indexed": false,
					"internalType": "string",
					"name": "symbol",
					"type": "string"
				},
				{
					"indexed": false,
					"internalType": "uint256",
					"name": "unlistTime",
					"type": "uint256"
				}
			],
			"name": "OrderUnlisted",
			"type": "event"
		},
		{
			"anonymous": false,
			"inputs": [
				{
					"indexed": false,
					"internalType": "bytes32",
					"name": "orderId",
					"type": "bytes32"
				},
				{
					"indexed": false,
					"internalType": "uint256",
					"name": "newUnitPrice",
					"type": "uint256"
				},
				{
					"indexed": false,
					"internalType": "string",
					"name": "p",
					"type": "string"
				},
				{
					"indexed": false,
					"internalType": "string",
					"name": "op",
					"type": "string"
				},
				{
					"indexed": false,
					"internalType": "string",
					"name": "tick",
					"type": "string"
				},
				{
					"indexed": false,
					"internalType": "uint256",
					"name": "amt",
					"type": "uint256"
				},
				{
					"indexed": false,
					"internalType": "uint256",
					"name": "limit",
					"type": "uint256"
				},
				{
					"indexed": false,
					"internalType": "address",
					"name": "seller",
					"type": "address"
				},
				{
					"indexed": false,
					"internalType": "string",
					"name": "symbol",
					"type": "string"
				},
				{
					"indexed": false,
					"internalType": "uint256",
					"name": "updateTime",
					"type": "uint256"
				}
			],
			"name": "OrderUpdated",
			"type": "event"
		},
		{
			"anonymous": false,
			"inputs": [
				{
					"indexed": true,
					"internalType": "address",
					"name": "previousOwner",
					"type": "address"
				},
				{
					"indexed": true,
					"internalType": "address",
					"name": "newOwner",
					"type": "address"
				}
			],
			"name": "OwnershipTransferred",
			"type": "event"
		},
		{
			"anonymous": false,
			"inputs": [
				{
					"indexed": false,
					"internalType": "address",
					"name": "Sender",
					"type": "address"
				},
				{
					"indexed": false,
					"internalType": "uint256",
					"name": "Value",
					"type": "uint256"
				}
			],
			"name": "Received",
			"type": "event"
		},
		{
			"anonymous": false,
			"inputs": [
				{
					"indexed": false,
					"internalType": "string",
					"name": "p",
					"type": "string"
				},
				{
					"indexed": false,
					"internalType": "string",
					"name": "op",
					"type": "string"
				},
				{
					"indexed": false,
					"internalType": "string",
					"name": "tick",
					"type": "string"
				},
				{
					"indexed": false,
					"internalType": "uint256",
					"name": "amount",
					"type": "uint256"
				},
				{
					"indexed": false,
					"internalType": "address",
					"name": "owner",
					"type": "address"
				}
			],
			"name": "UnWrap",
			"type": "event"
		},
		{
			"anonymous": false,
			"inputs": [
				{
					"indexed": false,
					"internalType": "string",
					"name": "p",
					"type": "string"
				},
				{
					"indexed": false,
					"internalType": "string",
					"name": "tick",
					"type": "string"
				},
				{
					"indexed": false,
					"internalType": "uint256",
					"name": "amount",
					"type": "uint256"
				},
				{
					"indexed": false,
					"internalType": "address",
					"name": "owner",
					"type": "address"
				},
				{
					"indexed": false,
					"internalType": "uint256",
					"name": "chainId",
					"type": "uint256"
				}
			],
			"name": "Wrap",
			"type": "event"
		},
		{
			"inputs": [
				{
					"internalType": "uint256",
					"name": "",
					"type": "uint256"
				}
			],
			"name": "accessableList",
			"outputs": [
				{
					"internalType": "address",
					"name": "",
					"type": "address"
				}
			],
			"stateMutability": "view",
			"type": "function"
		},
		{
			"inputs": [],
			"name": "accumulateTradingCount",
			"outputs": [],
			"stateMutability": "nonpayable",
			"type": "function"
		},
		{
			"inputs": [
				{
					"internalType": "uint256",
					"name": "value",
					"type": "uint256"
				},
				{
					"internalType": "address",
					"name": "tokenContract",
					"type": "address"
				}
			],
			"name": "accumulateVolume",
			"outputs": [],
			"stateMutability": "nonpayable",
			"type": "function"
		},
		{
			"inputs": [
				{
					"internalType": "bytes32",
					"name": "orderId",
					"type": "bytes32"
				},
				{
					"components": [
						{
							"internalType": "bool",
							"name": "exists",
							"type": "bool"
						},
						{
							"internalType": "bytes32",
							"name": "orderId",
							"type": "bytes32"
						},
						{
							"internalType": "address",
							"name": "wrappedNFTContract",
							"type": "address"
						},
						{
							"internalType": "uint256",
							"name": "tokenId",
							"type": "uint256"
						},
						{
							"internalType": "string",
							"name": "tokenSymbol",
							"type": "string"
						},
						{
							"internalType": "address",
							"name": "tokenContract",
							"type": "address"
						},
						{
							"components": [
								{
									"internalType": "string",
									"name": "p",
									"type": "string"
								},
								{
									"internalType": "string",
									"name": "op",
									"type": "string"
								},
								{
									"internalType": "string",
									"name": "tick",
									"type": "string"
								},
								{
									"internalType": "uint256",
									"name": "amt",
									"type": "uint256"
								},
								{
									"internalType": "uint256",
									"name": "limit",
									"type": "uint256"
								}
							],
							"internalType": "struct IInscriptionCommon.Inscription",
							"name": "inscription",
							"type": "tuple"
						},
						{
							"internalType": "uint256",
							"name": "remainingAmt",
							"type": "uint256"
						},
						{
							"internalType": "address",
							"name": "seller",
							"type": "address"
						},
						{
							"internalType": "uint256",
							"name": "unitPrice",
							"type": "uint256"
						},
						{
							"internalType": "uint256",
							"name": "createTime",
							"type": "uint256"
						}
					],
					"internalType": "struct IInscriptionCommon.Order",
					"name": "order",
					"type": "tuple"
				}
			],
			"name": "createOrder",
			"outputs": [],
			"stateMutability": "nonpayable",
			"type": "function"
		},
		{
			"inputs": [
				{
					"internalType": "bytes32",
					"name": "orderId",
					"type": "bytes32"
				},
				{
					"internalType": "address",
					"name": "from",
					"type": "address"
				},
				{
					"internalType": "address",
					"name": "to",
					"type": "address"
				},
				{
					"internalType": "string",
					"name": "tradeEvent",
					"type": "string"
				}
			],
			"name": "createTradeRecord",
			"outputs": [],
			"stateMutability": "nonpayable",
			"type": "function"
		},
		{
			"inputs": [
				{
					"internalType": "bytes32",
					"name": "orderId",
					"type": "bytes32"
				}
			],
			"name": "deleteOrder",
			"outputs": [],
			"stateMutability": "nonpayable",
			"type": "function"
		},
		{
			"inputs": [],
			"name": "getAllowableList",
			"outputs": [
				{
					"internalType": "address[]",
					"name": "",
					"type": "address[]"
				}
			],
			"stateMutability": "view",
			"type": "function"
		},
		{
			"inputs": [
				{
					"internalType": "address",
					"name": "owner",
					"type": "address"
				}
			],
			"name": "getMyOrders",
			"outputs": [
				{
					"components": [
						{
							"internalType": "bool",
							"name": "exists",
							"type": "bool"
						},
						{
							"internalType": "bytes32",
							"name": "orderId",
							"type": "bytes32"
						},
						{
							"internalType": "address",
							"name": "wrappedNFTContract",
							"type": "address"
						},
						{
							"internalType": "uint256",
							"name": "tokenId",
							"type": "uint256"
						},
						{
							"internalType": "string",
							"name": "tokenSymbol",
							"type": "string"
						},
						{
							"internalType": "address",
							"name": "tokenContract",
							"type": "address"
						},
						{
							"components": [
								{
									"internalType": "string",
									"name": "p",
									"type": "string"
								},
								{
									"internalType": "string",
									"name": "op",
									"type": "string"
								},
								{
									"internalType": "string",
									"name": "tick",
									"type": "string"
								},
								{
									"internalType": "uint256",
									"name": "amt",
									"type": "uint256"
								},
								{
									"internalType": "uint256",
									"name": "limit",
									"type": "uint256"
								}
							],
							"internalType": "struct IInscriptionCommon.Inscription",
							"name": "inscription",
							"type": "tuple"
						},
						{
							"internalType": "uint256",
							"name": "remainingAmt",
							"type": "uint256"
						},
						{
							"internalType": "address",
							"name": "seller",
							"type": "address"
						},
						{
							"internalType": "uint256",
							"name": "unitPrice",
							"type": "uint256"
						},
						{
							"internalType": "uint256",
							"name": "createTime",
							"type": "uint256"
						}
					],
					"internalType": "struct IInscriptionCommon.Order[]",
					"name": "",
					"type": "tuple[]"
				}
			],
			"stateMutability": "view",
			"type": "function"
		},
		{
			"inputs": [
				{
					"internalType": "uint256",
					"name": "page",
					"type": "uint256"
				},
				{
					"internalType": "uint256",
					"name": "pageSize",
					"type": "uint256"
				}
			],
			"name": "getOrders",
			"outputs": [
				{
					"components": [
						{
							"internalType": "bool",
							"name": "exists",
							"type": "bool"
						},
						{
							"internalType": "bytes32",
							"name": "orderId",
							"type": "bytes32"
						},
						{
							"internalType": "address",
							"name": "wrappedNFTContract",
							"type": "address"
						},
						{
							"internalType": "uint256",
							"name": "tokenId",
							"type": "uint256"
						},
						{
							"internalType": "string",
							"name": "tokenSymbol",
							"type": "string"
						},
						{
							"internalType": "address",
							"name": "tokenContract",
							"type": "address"
						},
						{
							"components": [
								{
									"internalType": "string",
									"name": "p",
									"type": "string"
								},
								{
									"internalType": "string",
									"name": "op",
									"type": "string"
								},
								{
									"internalType": "string",
									"name": "tick",
									"type": "string"
								},
								{
									"internalType": "uint256",
									"name": "amt",
									"type": "uint256"
								},
								{
									"internalType": "uint256",
									"name": "limit",
									"type": "uint256"
								}
							],
							"internalType": "struct IInscriptionCommon.Inscription",
							"name": "inscription",
							"type": "tuple"
						},
						{
							"internalType": "uint256",
							"name": "remainingAmt",
							"type": "uint256"
						},
						{
							"internalType": "address",
							"name": "seller",
							"type": "address"
						},
						{
							"internalType": "uint256",
							"name": "unitPrice",
							"type": "uint256"
						},
						{
							"internalType": "uint256",
							"name": "createTime",
							"type": "uint256"
						}
					],
					"internalType": "struct IInscriptionCommon.Order[]",
					"name": "",
					"type": "tuple[]"
				}
			],
			"stateMutability": "view",
			"type": "function"
		},
		{
			"inputs": [],
			"name": "getTotal",
			"outputs": [
				{
					"internalType": "uint256",
					"name": "",
					"type": "uint256"
				}
			],
			"stateMutability": "view",
			"type": "function"
		},
		{
			"inputs": [
				{
					"internalType": "address",
					"name": "wallet",
					"type": "address"
				}
			],
			"name": "getTradeRecordsByAddress",
			"outputs": [
				{
					"components": [
						{
							"components": [
								{
									"internalType": "bool",
									"name": "exists",
									"type": "bool"
								},
								{
									"internalType": "bytes32",
									"name": "orderId",
									"type": "bytes32"
								},
								{
									"internalType": "address",
									"name": "wrappedNFTContract",
									"type": "address"
								},
								{
									"internalType": "uint256",
									"name": "tokenId",
									"type": "uint256"
								},
								{
									"internalType": "string",
									"name": "tokenSymbol",
									"type": "string"
								},
								{
									"internalType": "address",
									"name": "tokenContract",
									"type": "address"
								},
								{
									"components": [
										{
											"internalType": "string",
											"name": "p",
											"type": "string"
										},
										{
											"internalType": "string",
											"name": "op",
											"type": "string"
										},
										{
											"internalType": "string",
											"name": "tick",
											"type": "string"
										},
										{
											"internalType": "uint256",
											"name": "amt",
											"type": "uint256"
										},
										{
											"internalType": "uint256",
											"name": "limit",
											"type": "uint256"
										}
									],
									"internalType": "struct IInscriptionCommon.Inscription",
									"name": "inscription",
									"type": "tuple"
								},
								{
									"internalType": "uint256",
									"name": "remainingAmt",
									"type": "uint256"
								},
								{
									"internalType": "address",
									"name": "seller",
									"type": "address"
								},
								{
									"internalType": "uint256",
									"name": "unitPrice",
									"type": "uint256"
								},
								{
									"internalType": "uint256",
									"name": "createTime",
									"type": "uint256"
								}
							],
							"internalType": "struct IInscriptionCommon.Order",
							"name": "order",
							"type": "tuple"
						},
						{
							"internalType": "address",
							"name": "from",
							"type": "address"
						},
						{
							"internalType": "address",
							"name": "to",
							"type": "address"
						},
						{
							"internalType": "string",
							"name": "op",
							"type": "string"
						},
						{
							"internalType": "uint256",
							"name": "time",
							"type": "uint256"
						}
					],
					"internalType": "struct IInscriptionCommon.TradeRecord[]",
					"name": "",
					"type": "tuple[]"
				}
			],
			"stateMutability": "view",
			"type": "function"
		},
		{
			"inputs": [],
			"name": "getTradingCount",
			"outputs": [
				{
					"internalType": "uint256",
					"name": "",
					"type": "uint256"
				}
			],
			"stateMutability": "view",
			"type": "function"
		},
		{
			"inputs": [],
			"name": "getVolume",
			"outputs": [
				{
					"internalType": "uint256",
					"name": "",
					"type": "uint256"
				}
			],
			"stateMutability": "view",
			"type": "function"
		},
		{
			"inputs": [
				{
					"internalType": "address",
					"name": "tokenContract",
					"type": "address"
				}
			],
			"name": "getVolumeByToken",
			"outputs": [
				{
					"internalType": "uint256",
					"name": "",
					"type": "uint256"
				}
			],
			"stateMutability": "view",
			"type": "function"
		},
		{
			"inputs": [
				{
					"internalType": "address",
					"name": "",
					"type": "address"
				}
			],
			"name": "isAccessable",
			"outputs": [
				{
					"internalType": "bool",
					"name": "",
					"type": "bool"
				}
			],
			"stateMutability": "view",
			"type": "function"
		},
		{
			"inputs": [
				{
					"internalType": "address",
					"name": "nftContract",
					"type": "address"
				},
				{
					"internalType": "uint256",
					"name": "tokenId",
					"type": "uint256"
				}
			],
			"name": "isListed",
			"outputs": [
				{
					"internalType": "bool",
					"name": "",
					"type": "bool"
				}
			],
			"stateMutability": "view",
			"type": "function"
		},
		{
			"inputs": [
				{
					"internalType": "address",
					"name": "",
					"type": "address"
				},
				{
					"internalType": "uint256",
					"name": "",
					"type": "uint256"
				}
			],
			"name": "myOrders",
			"outputs": [
				{
					"internalType": "bool",
					"name": "exists",
					"type": "bool"
				},
				{
					"internalType": "bytes32",
					"name": "orderId",
					"type": "bytes32"
				},
				{
					"internalType": "address",
					"name": "wrappedNFTContract",
					"type": "address"
				},
				{
					"internalType": "uint256",
					"name": "tokenId",
					"type": "uint256"
				},
				{
					"internalType": "string",
					"name": "tokenSymbol",
					"type": "string"
				},
				{
					"internalType": "address",
					"name": "tokenContract",
					"type": "address"
				},
				{
					"components": [
						{
							"internalType": "string",
							"name": "p",
							"type": "string"
						},
						{
							"internalType": "string",
							"name": "op",
							"type": "string"
						},
						{
							"internalType": "string",
							"name": "tick",
							"type": "string"
						},
						{
							"internalType": "uint256",
							"name": "amt",
							"type": "uint256"
						},
						{
							"internalType": "uint256",
							"name": "limit",
							"type": "uint256"
						}
					],
					"internalType": "struct IInscriptionCommon.Inscription",
					"name": "inscription",
					"type": "tuple"
				},
				{
					"internalType": "uint256",
					"name": "remainingAmt",
					"type": "uint256"
				},
				{
					"internalType": "address",
					"name": "seller",
					"type": "address"
				},
				{
					"internalType": "uint256",
					"name": "unitPrice",
					"type": "uint256"
				},
				{
					"internalType": "uint256",
					"name": "createTime",
					"type": "uint256"
				}
			],
			"stateMutability": "view",
			"type": "function"
		},
		{
			"inputs": [
				{
					"internalType": "bytes32",
					"name": "",
					"type": "bytes32"
				}
			],
			"name": "orderIDIndex",
			"outputs": [
				{
					"internalType": "uint256",
					"name": "",
					"type": "uint256"
				}
			],
			"stateMutability": "view",
			"type": "function"
		},
		{
			"inputs": [
				{
					"internalType": "uint256",
					"name": "",
					"type": "uint256"
				}
			],
			"name": "orderIDs",
			"outputs": [
				{
					"internalType": "bytes32",
					"name": "",
					"type": "bytes32"
				}
			],
			"stateMutability": "view",
			"type": "function"
		},
		{
			"inputs": [
				{
					"internalType": "bytes32",
					"name": "",
					"type": "bytes32"
				}
			],
			"name": "orders",
			"outputs": [
				{
					"internalType": "bool",
					"name": "exists",
					"type": "bool"
				},
				{
					"internalType": "bytes32",
					"name": "orderId",
					"type": "bytes32"
				},
				{
					"internalType": "address",
					"name": "wrappedNFTContract",
					"type": "address"
				},
				{
					"internalType": "uint256",
					"name": "tokenId",
					"type": "uint256"
				},
				{
					"internalType": "string",
					"name": "tokenSymbol",
					"type": "string"
				},
				{
					"internalType": "address",
					"name": "tokenContract",
					"type": "address"
				},
				{
					"components": [
						{
							"internalType": "string",
							"name": "p",
							"type": "string"
						},
						{
							"internalType": "string",
							"name": "op",
							"type": "string"
						},
						{
							"internalType": "string",
							"name": "tick",
							"type": "string"
						},
						{
							"internalType": "uint256",
							"name": "amt",
							"type": "uint256"
						},
						{
							"internalType": "uint256",
							"name": "limit",
							"type": "uint256"
						}
					],
					"internalType": "struct IInscriptionCommon.Inscription",
					"name": "inscription",
					"type": "tuple"
				},
				{
					"internalType": "uint256",
					"name": "remainingAmt",
					"type": "uint256"
				},
				{
					"internalType": "address",
					"name": "seller",
					"type": "address"
				},
				{
					"internalType": "uint256",
					"name": "unitPrice",
					"type": "uint256"
				},
				{
					"internalType": "uint256",
					"name": "createTime",
					"type": "uint256"
				}
			],
			"stateMutability": "view",
			"type": "function"
		},
		{
			"inputs": [],
			"name": "owner",
			"outputs": [
				{
					"internalType": "address",
					"name": "",
					"type": "address"
				}
			],
			"stateMutability": "view",
			"type": "function"
		},
		{
			"inputs": [],
			"name": "renounceOwnership",
			"outputs": [],
			"stateMutability": "nonpayable",
			"type": "function"
		},
		{
			"inputs": [
				{
					"internalType": "address",
					"name": "operator",
					"type": "address"
				},
				{
					"internalType": "bool",
					"name": "status",
					"type": "bool"
				}
			],
			"name": "setAccessableAddr",
			"outputs": [],
			"stateMutability": "nonpayable",
			"type": "function"
		},
		{
			"inputs": [
				{
					"internalType": "bytes32",
					"name": "orderId",
					"type": "bytes32"
				},
				{
					"internalType": "uint256",
					"name": "unitPrice",
					"type": "uint256"
				}
			],
			"name": "setListPrice",
			"outputs": [],
			"stateMutability": "nonpayable",
			"type": "function"
		},
		{
			"inputs": [
				{
					"internalType": "bytes32",
					"name": "orderId",
					"type": "bytes32"
				},
				{
					"internalType": "bool",
					"name": "status",
					"type": "bool"
				}
			],
			"name": "setOrderStatus",
			"outputs": [],
			"stateMutability": "nonpayable",
			"type": "function"
		},
		{
			"inputs": [],
			"name": "tradingCount",
			"outputs": [
				{
					"internalType": "uint256",
					"name": "",
					"type": "uint256"
				}
			],
			"stateMutability": "view",
			"type": "function"
		},
		{
			"inputs": [
				{
					"internalType": "address",
					"name": "",
					"type": "address"
				},
				{
					"internalType": "uint256",
					"name": "",
					"type": "uint256"
				}
			],
			"name": "tradingRecords",
			"outputs": [
				{
					"components": [
						{
							"internalType": "bool",
							"name": "exists",
							"type": "bool"
						},
						{
							"internalType": "bytes32",
							"name": "orderId",
							"type": "bytes32"
						},
						{
							"internalType": "address",
							"name": "wrappedNFTContract",
							"type": "address"
						},
						{
							"internalType": "uint256",
							"name": "tokenId",
							"type": "uint256"
						},
						{
							"internalType": "string",
							"name": "tokenSymbol",
							"type": "string"
						},
						{
							"internalType": "address",
							"name": "tokenContract",
							"type": "address"
						},
						{
							"components": [
								{
									"internalType": "string",
									"name": "p",
									"type": "string"
								},
								{
									"internalType": "string",
									"name": "op",
									"type": "string"
								},
								{
									"internalType": "string",
									"name": "tick",
									"type": "string"
								},
								{
									"internalType": "uint256",
									"name": "amt",
									"type": "uint256"
								},
								{
									"internalType": "uint256",
									"name": "limit",
									"type": "uint256"
								}
							],
							"internalType": "struct IInscriptionCommon.Inscription",
							"name": "inscription",
							"type": "tuple"
						},
						{
							"internalType": "uint256",
							"name": "remainingAmt",
							"type": "uint256"
						},
						{
							"internalType": "address",
							"name": "seller",
							"type": "address"
						},
						{
							"internalType": "uint256",
							"name": "unitPrice",
							"type": "uint256"
						},
						{
							"internalType": "uint256",
							"name": "createTime",
							"type": "uint256"
						}
					],
					"internalType": "struct IInscriptionCommon.Order",
					"name": "order",
					"type": "tuple"
				},
				{
					"internalType": "address",
					"name": "from",
					"type": "address"
				},
				{
					"internalType": "address",
					"name": "to",
					"type": "address"
				},
				{
					"internalType": "string",
					"name": "op",
					"type": "string"
				},
				{
					"internalType": "uint256",
					"name": "time",
					"type": "uint256"
				}
			],
			"stateMutability": "view",
			"type": "function"
		},
		{
			"inputs": [
				{
					"internalType": "address",
					"name": "newOwner",
					"type": "address"
				}
			],
			"name": "transferOwnership",
			"outputs": [],
			"stateMutability": "nonpayable",
			"type": "function"
		},
		{
			"inputs": [],
			"name": "volume",
			"outputs": [
				{
					"internalType": "uint256",
					"name": "",
					"type": "uint256"
				}
			],
			"stateMutability": "view",
			"type": "function"
		},
		{
			"inputs": [
				{
					"internalType": "address",
					"name": "",
					"type": "address"
				}
			],
			"name": "volumeByToken",
			"outputs": [
				{
					"internalType": "uint256",
					"name": "",
					"type": "uint256"
				}
			],
			"stateMutability": "view",
			"type": "function"
		}
	]
}