{
	"data": {
		"bytecode": {
			"linkReferences": {},
			"object": "6080601f61366038819003918201601f19168301916001600160401b0383118484101761012a57808492608094604052833981010312610126576100428161013e565b9061004f6020820161013e565b9061006160606040830151920161013e565b913315610113575f8054336001600160a01b03198216811783556040519660019390926001600160a01b0316907f8be0079c531659141344cd1fd0a4f28419497f9722a3daafe3b4186f6b6457e09080a3818055600254906101008360a81b039060081b1690828060a81b031916171760025560018060a01b031660018060a01b0319600354161760035560055560018060a01b031660018060a01b0319600454161760045561350d90816101538239f35b631e4fbdf760e01b5f525f60045260245ffd5b5f80fd5b634e487b7160e01b5f52604160045260245ffd5b51906001600160a01b03821682036101265756fe6080604052600436101561004b575b3615610018575f80fd5b604080513381523460208201527f88a5966d370b9919b20f3e2c13ff65706f196a4e32cc2c12bf57088f885258749190a1005b5f5f3560e01c806309c2ffd614612aae57806311ce026714612a855780631bf1eca414612a2d578063224652d81461230d57806336bfc264146122ce5780633ccfd60b146122945780635aff59991461226d57806361c7cbf01461224f57806364a7601b1461202657806369fe0e2d14611fd0578063715018a614611f7e5780637471ddbd14611f4e5780637489ec2314611cf35780638947606914611bf75780638da5cb5b14611bd15780638f72fc7714611b6f578063a237e4e914611af6578063a54247ae14611a95578063a8a6d53814611a46578063adb78eac14611a17578063ae080ecd146119da578063b195d29c14611985578063bd05a0481461195e578063c34304cb1461190f578063c5d9b07014611685578063c67bbc24146115fe578063cdb3cd2514611532578063d25285f5146112e5578063d3284d8e1461124b578063d40b021414610e6f578063d95a1daf14610e37578063dc38b0a214610dd7578063ddca3f4314610db9578063e5e664e1146109ed578063ed6bbff3146109ae578063ef9bc914146102825763f2fde38b146101ed575061000e565b3461027f57602036600319011261027f576001600160a01b0361020e612bcd565b610216613491565b16801561026b57815473ffffffffffffffffffffffffffffffffffffffff198116821783556001600160a01b03167f8be0079c531659141344cd1fd0a4f28419497f9722a3daafe3b4186f6b6457e08380a380f35b631e4fbdf760e01b82526004829052602482fd5b80fd5b5061028c36612bf7565b906001600160a01b036002546102a460ff8216612e1b565b60081c1691604051906309c3f1e960e41b82528260048301528482602481875afa80156109a3578590868794889389988a968b908c948d97610965575b50801515918261095a575b505015610915576103068b9261030061311c565b90613021565b6001600160a01b038316996001600160a01b0360409561035f8d88519061032d8a83612dec565b601e82527f4e46544d61726b65743a3a63616e7420616363657074206f776e2061736b00006020830152331415613021565b1685516331a9108f60e11b81528a6004820152602081602481855afa80156107125785906108da575b6103a691508d6001600160a01b0361039e613157565b921614613021565b60209986516103b58c82612dec565b858152601f198c01368d830137823b15610731576104069286928f84908b5196879586948593635c46a7ef60e11b855260048501523360248501526044840152608060648401526084830190612c0d565b03925af18015610758579084916108c1575b505060608801936001600160a01b0361043286518961336f565b921690848d8c898561076b5783926104858493927f4e46544d61726b65743a3a696e73756666696369656e742076616c7565000000859461047583519384612dec565b601d835282015289341015613021565b61049d60646104966005548b61336f565b0489613396565b90828215610762575bf115610758575b86516104b98882612dec565b600381526262757960e81b8c820152843b156107315785828e6104f18b5194859384936368fae90960e11b85523390600486016130a3565b038183895af1801561074e57908691610735575b50508651906105148883612dec565b60048252631cdbdb1960e21b8c830152843b15610731578c869161054d8a5194859384936368fae90960e11b85523391600486016130a3565b038183885af180156107125790859161071c575b5050823b156106f95785516387a61cbd60e01b8152600481018c9052848160248183885af18015610712579085916106fd575b5050823b156106f9578551916342bf559160e11b835260048301526024820152828160448183865af180156106ef579083916106da575b5050803b156106d657818091600486518094819363c767a14160e01b83525af180156106cc576106a9575b50509061067d8594939261066f7f619e07f489943272a38745fb88154e26b5855b57254e1851c2168288ff0c487e9a61066161069c99518b8a0151926080888c015196519b01519780519e8f9e8f918252339101528d015261016060608d01526101608c0190612c0d565b908a820360808c0152612c0d565b9088820360a08a0152612c0d565b9360c087015260e0860152610100850152838203610120850152612c0d565b426101408301520390a180f35b816106b991979695949397612dec565b6106c85790919293885f6105f6565b8880fd5b84513d84823e3d90fd5b5080fd5b816106e491612dec565b6106d657815f6105cb565b85513d85823e3d90fd5b8380fd5b8161070791612dec565b6106f957835f610594565b87513d87823e3d90fd5b8161072691612dec565b6106f957835f610561565b8580fd5b8161073f91612dec565b61074a57845f610505565b8480fd5b88513d88823e3d90fd5b86513d86823e3d90fd5b506108fc6104a6565b5050505061078760646107806005548661336f565b0484613396565b6107cb8c6107958387613396565b8a516323b872dd60e01b81523360048201526001600160a01b038616602482015260448101949094529291829081906064820190565b03818a885af19081156108b757908d918891610874575b50916107f061081c936133a3565b89516323b872dd60e01b8152336004820152306024820152604481019190915291829081906064820190565b038189875af1801561074e57869061083e575b61083991506133ef565b6104ad565b508b81813d831161086d575b6108548183612dec565b810103126107315761086861083991612e0e565b61082f565b503d61084a565b82819392503d83116108b0575b61088b8183612dec565b810103126108ac5761081c916107f06108a48f93612e0e565b9193506107e2565b8680fd5b503d610881565b89513d89823e3d90fd5b816108cb91612dec565b6108d657825f610418565b8280fd5b506020813d60201161090d575b816108f460209383612dec565b8101031261074a576109086103a691612e7b565b610388565b3d91506108e7565b60405162461bcd60e51b815260206004820152601260248201527f696e76616c69642062757920616d6f756e7400000000000000000000000000006044820152606490fd5b101590505f806102ec565b975098505098505050505061098c91503d8087833e6109848183612dec565b810190612f80565b50939b95999298949750929594929392915f6102e1565b6040513d87823e3d90fd5b503461027f57602036600319011261027f576001600160a01b036109d0612bcd565b6109d8613491565b166001600160a01b0319600354161760035580f35b503461027f57608036600319011261027f57610a07612bcd565b60643590602435604435610a196134b7565b8115610d74578015610d2f57838552600960205260ff604086205416610cea576001600160a01b03600354166040516331a9108f60e11b8152856004820152602081602481855afa8015610ca4578790610caf575b610a8391506001600160a01b03163314613445565b60405163020604bf60e21b815260048101869052602081602481855afa908115610ca4578791610c6a575b506001600160a01b031630148015610be6575b610acb9150613445565b6007545f198114610bd25760010191826007556040519360c0850185811067ffffffffffffffff821117610bbe579160059391610ba19695936040523386526001600160a01b0360208701911681526001600160a01b036040870191838352606088019384526080880194855260a0880195600187528b526008602052818060408d2099511616821989541617885551166001600160a01b036001880191166001600160a01b031982541617905551600286015551600385015551600484015551151591019060ff801983541691151516179055565b8152600960205260408120600160ff198254161790556001805580f35b634e487b7160e01b88526041600452602488fd5b634e487b7160e01b86526011600452602486fd5b5060405163e985e9c560e01b815233600482015230602482015290602090829060449082905afa8015610c5f578690610c24575b610acb9150610ac1565b506020813d602011610c57575b81610c3e60209383612dec565b8101031261073157610c52610acb91612e0e565b610c1a565b3d9150610c31565b6040513d88823e3d90fd5b90506020813d602011610c9c575b81610c8560209383612dec565b810103126108ac57610c9690612e7b565b5f610aae565b3d9150610c78565b6040513d89823e3d90fd5b506020813d602011610ce2575b81610cc960209383612dec565b810103126108ac57610cdd610a8391612e7b565b610a6e565b3d9150610cbc565b60405162461bcd60e51b815260206004820152601a60248201527f54686973204e465420697320616c7265616479206c69737465640000000000006044820152606490fd5b60405162461bcd60e51b815260206004820152601660248201527f496e76616c69642070726963652070657220756e6974000000000000000000006044820152606490fd5b60405162461bcd60e51b815260206004820152601460248201527f496e76616c696420746f74616c20616d6f756e740000000000000000000000006044820152606490fd5b503461027f578060031936011261027f576020600554604051908152f35b503461027f57602036600319011261027f57610df1612bcd565b610df9613491565b74ffffffffffffffffffffffffffffffffffffffff006002549160081b169074ffffffffffffffffffffffffffffffffffffffff0019161760025580f35b503461027f57602036600319011261027f576004358015158091036106d657610e5e613491565b60ff80196002541691161760025580f35b50610e7936612bf7565b610e816134b7565b8183526008602052604083209060ff60058301541615611206576001600160a01b038254163381146111c15760038301928284541061117c5782156111375785610ecf84600484015461336f565b926001600160a01b0360018401541680155f14610fcf57505050813410610f8a5785808093610f196001600160a01b0383955416916064610f126005548361336f565b0490613396565b90828215610f81575bf115610f7657610f34905b8254613396565b80915515610f45575b506001805580f35b815260086020528060056040822082815582600182015582600282015582600382015582600482015501555f610f3d565b6040513d85823e3d90fd5b506108fc610f22565b60405162461bcd60e51b815260206004820152601c60248201527f4e65656420746f2073656e64206d6f72652045544820746f20627579000000006044820152606490fd5b919493611035919350602090610ffd610ff66064610fef6005548561336f565b0483613396565b8092613396565b6040516323b872dd60e01b81523360048201526001600160a01b03909616602487015260448601919091529391829081906064820190565b038188865af19081156109a35785916110ef575b509060209261105a61108a936133a3565b6040516323b872dd60e01b8152336004820152306024820152604481019190915294859283919082906064820190565b03925af19182156109a35785926110ae575b506110a9610f34926133ef565b610f2d565b91506020823d6020116110e7575b816110c960209383612dec565b8101031261074a576110a96110e0610f3493612e0e565b925061109c565b3d91506110bc565b9190506020823d60201161112f575b8161110b60209383612dec565b8101031261074a5760209261105a61112561108a94612e0e565b9293505092611049565b3d91506110fe565b60405162461bcd60e51b815260206004820152601660248201527f5061727420636f756e74206d757374206265203e2030000000000000000000006044820152606490fd5b60405162461bcd60e51b815260206004820152601660248201527f4e6f7420656e6f75676820746f6b656e73206c656674000000000000000000006044820152606490fd5b60405162461bcd60e51b815260206004820152601460248201527f43616e6e6f74206275792066726f6d2073656c660000000000000000000000006044820152606490fd5b60405162461bcd60e51b815260206004820152601460248201527f436865636b20646f6573206e6f742065786973740000000000000000000000006044820152606490fd5b503461027f57602036600319011261027f57611265612bcd565b816001600160a01b0360248160025460081c1693604051948593849263699426c760e11b84521660048301525afa9081156112da57826112b393926112b7575b505060405191829182612d23565b0390f35b6112d392503d8091833e6112cb8183612dec565b8101906132d3565b5f806112a5565b6040513d84823e3d90fd5b503461027f57602036600319011261027f576112ff612bcd565b816001600160a01b0360248160025460081c1693604051948593849263d25285f560e01b84521660048301525afa9081156112da5782916113f0575b50906040519182916020830160208452825180915260408401602060408360051b870101940192905b82821061137357505050500390f35b919360019193955060208091603f198982030185528751906080806113da6113a4855160a0865260a0860190612c31565b6001600160a01b038787015116878601526001600160a01b03604087015116604086015260608601518582036060870152612c0d565b9301519101529601920192018594939192611364565b90503d8083833e6114018183612dec565b8101906020818303126108d65780519067ffffffffffffffff82116106f9570181601f820112156108d657805190611438826131cb565b926114466040519485612dec565b82845260208085019360051b830101918183116107315760208101935b8385106114755750505050505f61133b565b845167ffffffffffffffff811161152e57820160a0818503601f19011261152e57604051916114a383612dbc565b602082015167ffffffffffffffff811161152a578560206114c6928501016131e3565b83526114d460408301612e7b565b60208401526114e560608301612e7b565b604084015260808201519267ffffffffffffffff841161152a5760a083611513886020809881980101612e8f565b606084015201516080820152815201940193611463565b8980fd5b8780fd5b503461027f57604036600319011261027f57611596906020611552612bcd565b6001600160a01b0360025460081c16604051808096819463cdb3cd2560e01b83526024359060048401602090939291936001600160a01b0360408201951681520152565b03915afa9081156115f25780916115b5575b6020826040519015158152f35b90506020823d6020116115ea575b816115d060209383612dec565b8101031261027f57506115e4602091612e0e565b5f6115a8565b3d91506115c3565b604051903d90823e3d90fd5b503461027f578060031936011261027f5760049060206001600160a01b0360025460081c166040519384809263319eef0960e21b82525afa9081156115f2579061164e575b602090604051908152f35b506020813d60201161167d575b8161166860209383612dec565b810103126116795760209051611643565b5f80fd5b3d915061165b565b503461027f57602036600319011261027f5761169f612bcd565b816001600160a01b0360248160035416936040519485938492630fe1580360e31b84521660048301525afa9081156112da57829161179a575b50906040519182916020830160208452825180915260408401602060408360051b870101940192905b82821061171057505050500390f35b919360019193955060208091603f1989820301855287519081518152828201518382015260c06001600160a01b038161176d61175b604087015160e0604088015260e0870190612c0d565b60608701518682036060880152612c0d565b94608081015160808601528260a08201511660a08601520151169101529601920192018594939192611701565b90503d8083833e6117ab8183612dec565b8101906020818303126108d65780519067ffffffffffffffff82116106f9570181601f820112156108d6578051906117e2826131cb565b926117f06040519485612dec565b82845260208085019360051b830101918183116107315760208101935b83851061181f5750505050505f6116d8565b845167ffffffffffffffff811161152e5782019060e0828503601f19011261152e576040519060e0820182811067ffffffffffffffff8211176118fb576040526020830151825260408301516020830152606083015167ffffffffffffffff811161152a5785602061189392860101612e8f565b604083015260808301519167ffffffffffffffff831161152a576118eb60e0856118c589602080999881990101612e8f565b606085015260a081015160808501526118e060c08201612e7b565b60a085015201612e7b565b60c082015281520194019361180d565b634e487b7160e01b8a52604160045260248afd5b503461027f578060031936011261027f5760049060206001600160a01b0360025460081c166040519384809263775a25e360e01b82525afa9081156115f2579061164e57602090604051908152f35b503461027f578060031936011261027f5760206001600160a01b0360035416604051908152f35b503461027f578060031936011261027f5733815260066020526119ae60ff604083205416612d82565b808080806001600160a01b036004541647908282156119d1575bf1156115f25780f35b506108fc6119c8565b503461027f57602036600319011261027f5760ff60406020926001600160a01b03611a03612bcd565b168152600684522054166040519015158152f35b503461027f57602036600319011261027f5760ff60406020926004358152600984522054166040519015158152f35b503461027f578060031936011261027f5760049060206001600160a01b0360025460081c1660405193848092631514daa760e31b82525afa9081156115f2579061164e57602090604051908152f35b503461027f57602036600319011261027f57611aaf612bcd565b9060206001600160a01b0360248160025460081c169460405195869384926352a123d760e11b84521660048301525afa9081156115f2579061164e57602090604051908152f35b503461027f57602036600319011261027f57604060c09160043581526008602052206001600160a01b03815416906001600160a01b0360018201541690600281015460038201549060ff6005600485015494015416936040519586526020860152604085015260608401526080830152151560a0820152f35b503461027f5780611b7f36612bf7565b60446001600160a01b0360029493945460081c16936040519485938492638f72fc7760e01b8452600484015260248301525afa9081156112da57826112b393926112b757505060405191829182612d23565b503461027f578060031936011261027f576001600160a01b036020915416604051908152f35b503461027f57602036600319011261027f57806001600160a01b03611c1a612bcd565b611c22613491565b166040516370a0823160e01b8152306004820152602081602481855afa908115610f76578391611cbb575b5060405163a9059cbb60e01b815233600482015260248101919091529160209183916044918391905af180156112da57611c85575080f35b6020813d602011611cb3575b81611c9e60209383612dec565b810103126106d657611caf90612e0e565b5080f35b3d9150611c91565b9250506020823d602011611ceb575b81611cd760209383612dec565b810103126116795790518291906020611c4d565b3d9150611cca565b503461027f57602036600319011261027f576004356001600160a01b03600254611d1f60ff8216612e1b565b60081c1690604051916309c3f1e960e41b83528160048401528383602481845afa8015611f435784918594869387918894611f07575b5090611d66611d7f9261030061311c565b611d6e613157565b906001600160a01b03163314613021565b856040918251611d8f8482612dec565b60068152651d5b9b1a5cdd60d21b6020820152813b156108d65782611dca918551809381926368fae90960e11b835233338d600486016130a3565b038183865af18015611efd57908391611ee8575b5050803b156106d65781809160248551809481936387a61cbd60e01b83528b60048401525af18015611ede57611ec1575b507fc2e5b615cf4e487c1eaee99c4ba32d9f239d32d36923cbba42f7de1b8eee07e2602086611eb4878a8888611e90845191611e8289870151918088015192611e75608060608b01519a01519661014084519e8f9e8f90815201526101408d0190612c0d565b918b8303908c0152612c0d565b9088820360608a0152612c0d565b93608087015260a08601523360c086015260e0850152838203610100850152612c0d565b426101208301520390a180f35b81611ed0919695939496612dec565b61073157919290855f611e0f565b83513d84823e3d90fd5b81611ef291612dec565b6106d657815f611dde565b84513d85823e3d90fd5b915050611d669550611f29919350611d7f92503d8088833e6109848183612dec565b50949c929a94995093979396509294509250611d55915050565b6040513d86823e3d90fd5b503461027f57604036600319011261027f576020611f76611f6d612bcd565b60243590613192565b604051908152f35b503461027f578060031936011261027f57611f97613491565b806001600160a01b038154811981168355167f8be0079c531659141344cd1fd0a4f28419497f9722a3daafe3b4186f6b6457e08280a380f35b503461027f57602036600319011261027f57600435611fed613491565b6064811015611ffc5760055580f35b60405162461bcd60e51b8152602060048201526002602482015261252560f01b6044820152606490fd5b503461027f5761203536612bf7565b906001600160a01b0360025461204d60ff8216612e1b565b60081c1691604051906309c3f1e960e41b82528260048301528482602481875afa9384156109a3578594869587948892612219575b50906120936120ac9261030061311c565b6001600160a01b036120a3613157565b91163314613021565b803b15610731578560405163e0f2bdd360e01b8152856004820152836024820152818160448183875af180156112da57612204575b5050856040918251906120f48483612dec565b600682526575706461746560d01b6020830152803b156108d65783516368fae90960e11b815291839183918290849082906121359033808f600486016130a3565b03925af18015611ede576121e7575b507f8c8b7b2be083296d0432a677d71942fd8901dd06fe9327b571917715c9bde3dc602086611eb4878a886121c8896121ba85516121ac8a88015191610140858a015195608060608c01519b01519881519e8f9e8f90815201528c01526101408b0190612c0d565b9089820360608b0152612c0d565b908782036080890152612c0d565b9260a086015260c08501523360e0850152838203610100850152612c0d565b816121f6919695939496612dec565b61073157919290855f612144565b8161220e91612dec565b61073157855f6120e1565b905061209396506120ac945061223991503d8089833e6109848183612dec565b50949d929b509796509094506120829350505050565b503461027f578060031936011261027f576020600754604051908152f35b503461027f578060031936011261027f5760206001600160a01b0360045416604051908152f35b503461027f578060031936011261027f576122ad613491565b80808080478181156122c5575b3390f1156115f25780f35b506108fc6122ba565b503461027f57602036600319011261027f576001600160a01b036122f0612bcd565b6122f8613491565b166001600160a01b0319600454161760045580f35b50346116795760203660031901126116795760043567ffffffffffffffff81116116795780600401813603916101606003198401126116795760025461235560ff8216612e1b565b6040915f806123a06123ae865161236c8882612dec565b60048152630c4c8ccd60e21b6020820152875192839163104c13eb60e21b6020840152602060248401526044830190612c0d565b03601f198101835282612dec565b6020815191016a636f6e736f6c652e6c6f675afa5060448101936123d185612e67565b956001600160a01b036123e960648501358099613192565b9460081c16945f806123a061243c84516124038682612dec565b60048152636861686160e01b6020820152855192839163759f86bb60e01b60208401528c60248401528760448401526064830190612c0d565b6020815191016a636f6e736f6c652e6c6f675afa5080516309c3f1e960e41b8152600481018690525f816024818a5afa90811561298057906124bd915f91612a09575b5082519061248d8483612dec565b601982527f4e46544d61726b65743a3a6475706c6963617465642061736b00000000000000602083015215613021565b6001600160a01b036124ce88612e67565b1681516331a9108f60e11b8152896004820152602081602481855afa80156129c4575f906129ce575b61254391508351906125098583612dec565b601482527f4e46544d61726b65743a3a6e6f74206f776e657200000000000000000000000060208301526001600160a01b03163314613021565b815163020604bf60e21b8152600481018a9052602081602481855afa9081156129c4575f9161298a575b506001600160a01b031630148015612908575b6125c191508251906125928483612dec565b601782527f4e46544d61726b65743a3a6e6f7420617070726f7665640000000000000000006020830152613021565b853b1561167957805196634479a94760e11b88528560048901528160248901528335801515809103611679576044890152602485013560648901526001600160a01b0361260d82612be3565b1660848901528860a4890152608485019661263e61262b8987613051565b61016060c48d01526101a48c0191613083565b986001600160a01b0361265360a48901612be3565b1660e482015260c487019485359060a2190181121561167957818b0360431901610104830152870199608060846126db8d6126ce6004820160446126c66126ab61269d8480613051565b60a08c5260a08c0191613083565b6126b86024870185613051565b908b830360208d0152613083565b930190613051565b908683038b880152613083565b9c60648101356060850152013591015260e48701356101248201526001600160a01b0361270b6101048901612be3565b166101448201525f81806101446101248b01359a8b61016484015201359c8d610184830152038183865af180156128fe576128e9575b5082518b916127508583612dec565b60048252631b1a5cdd60e21b6020830152803b156108d6576127a49183918a8388518096819582946368fae90960e11b84526004840152336024840152836044840152608060648401526084830190612c0d565b03925af180156106cc576128d4575b50506127be90612e67565b936127c983856130d4565b806127d3916130e9565b9790946127e085826130d4565b602081016127ed916130e9565b94906127f987846130d4565b828101612805916130e9565b92909361281289826130d4565b606001359861282190826130d4565b608001359561282f916130e9565b97909982519d8e9d8e528d602081016101409052610140019061285192613083565b918c8303908d015261286292613083565b9089820360608b015261287492613083565b93608088015260a08701523360c087015260e086015284820361010086015261289c92613083565b936101208301526001600160a01b031692037f8aaa5d02e82d84d5ee847b8b4f5b2811daf8870a6dc77a7b689a71bf6d74e5de91a380f35b816128de91612dec565b61152a57895f6127b3565b6128f6919b505f90612dec565b5f995f612741565b84513d5f823e3d90fd5b50815163e985e9c560e01b815233600482015230602482015290602090829060449082905afa8015612980575f90612945575b6125c19150612580565b506020813d602011612978575b8161295f60209383612dec565b81010312611679576129736125c191612e0e565b61293b565b3d9150612952565b82513d5f823e3d90fd5b90506020813d6020116129bc575b816129a560209383612dec565b81010312611679576129b690612e7b565b5f61256d565b3d9150612998565b83513d5f823e3d90fd5b506020813d602011612a01575b816129e860209383612dec565b81010312611679576129fc61254391612e7b565b6124f7565b3d91506129db565b612a1d91503d805f833e6109848183612dec565b505050505050505050505f61247f565b3461167957604036600319011261167957612a46612bcd565b6024358015158103611679576001600160a01b03612a8392612a66613491565b165f52600660205260405f209060ff801983541691151516179055565b005b34611679575f3660031901126116795760206001600160a01b0360025460081c16604051908152f35b34611679576020366003190112611679576001600160a01b03612acf612bcd565b335f526006602052612ae760ff60405f205416612d82565b166040516370a0823160e01b8152306004820152602081602481855afa908115612b8e575f91612b99575b506004805460405163a9059cbb60e01b81526001600160a01b03909116918101919091526024810191909152906020908290815f81604481015b03925af18015612b8e57612b5c57005b6020813d602011612b86575b81612b7560209383612dec565b8101031261167957612a8390612e0e565b3d9150612b68565b6040513d5f823e3d90fd5b90506020813d602011612bc5575b81612bb460209383612dec565b810103126116795751612b4c612b12565b3d9150612ba7565b600435906001600160a01b038216820361167957565b35906001600160a01b038216820361167957565b6040906003190112611679576004359060243590565b805180835260209291819084018484015e5f828201840152601f01601f1916010190565b90815115158152602082015160208201526001600160a01b0360408301511660408201526060820151606082015261014080612c7e60808501516101606080860152610160850190612c0d565b936001600160a01b0360a08201511660a085015260c08101519484810360c0860152608080612ce0612cce612cbc8a5160a0875260a0870190612c0d565b60208b01518682036020880152612c0d565b60408a01518582036040870152612c0d565b9760608101516060850152015191015260e081015160e08501526001600160a01b0361010082015116610100850152610120810151610120850152015191015290565b602081016020825282518091526040820191602060408360051b8301019401925f915b838310612d5557505050505090565b9091929394602080612d73600193603f198682030187528951612c31565b97019301930191939290612d46565b15612d8957565b60405162461bcd60e51b815260206004820152600b60248201526a139bdd08105b1b1bddd95960aa1b6044820152606490fd5b60a0810190811067ffffffffffffffff821117612dd857604052565b634e487b7160e01b5f52604160045260245ffd5b90601f8019910116810190811067ffffffffffffffff821117612dd857604052565b5190811515820361167957565b15612e2257565b60405162461bcd60e51b815260206004820152601960248201527f4d61726b6574206973206265696e672072657061697265642e000000000000006044820152606490fd5b356001600160a01b03811681036116795790565b51906001600160a01b038216820361167957565b81601f820112156116795780519067ffffffffffffffff8211612dd85760405192612ec4601f8401601f191660200185612dec565b8284526020838301011161167957815f9260208093018386015e8301015290565b91909160a0818403126116795760405190612eff82612dbc565b8193815167ffffffffffffffff81116116795781612f1e918401612e8f565b8352602082015167ffffffffffffffff81116116795781612f40918401612e8f565b602084015260408201519167ffffffffffffffff831161167957612f6a6080939284938301612e8f565b6040850152606081015160608501520151910152565b906101608282031261167957612f9582612e0e565b92602083015192612fa860408201612e7b565b92606082015192608083015167ffffffffffffffff81116116795782612fcf918501612e8f565b92612fdc60a08201612e7b565b9260c08201519067ffffffffffffffff821161167957612ffd918301612ee5565b9160e0820151916130116101008201612e7b565b9161014061012083015192015190565b156130295750565b60405162461bcd60e51b81526020600482015290819061304d906024830190612c0d565b0390fd5b9035601e198236030181121561167957016020813591019167ffffffffffffffff821161167957813603831361167957565b908060209392818452848401375f828201840152601f01601f1916010190565b906130d194936001600160a01b03608094819385521660208401521660408201528160608201520190612c0d565b90565b903590609e1981360301821215611679570190565b903590601e1981360301821215611679570180359067ffffffffffffffff82116116795760200191813603831361167957565b6040519061312b604083612dec565b601d82527f4e46544d61726b65743a3a61736b20646f6573206e6f742065786973740000006020830152565b60405190613166604083612dec565b602082527f4e46544d61726b65743a3a61736b2063726561746f72206e6f74206f776e65726020830152565b906040519060208201926bffffffffffffffffffffffff199060601b1683526034820152603481526131c5605482612dec565b51902090565b67ffffffffffffffff8111612dd85760051b60200190565b919091610160818403126116795760405190610160820182811067ffffffffffffffff821117612dd857604052819361321b82612e0e565b83526020820151602084015261323360408301612e7b565b604084015260608201516060840152608082015167ffffffffffffffff81116116795781613262918401612e8f565b608084015261327360a08301612e7b565b60a084015260c08201519167ffffffffffffffff83116116795761329e610140939284938301612ee5565b60c085015260e081015160e08501526132ba6101008201612e7b565b6101008501526101208101516101208501520151910152565b6020818303126116795780519067ffffffffffffffff821161167957019080601f83011215611679578151613307816131cb565b926133156040519485612dec565b81845260208085019260051b820101918383116116795760208201905b83821061334157505050505090565b815167ffffffffffffffff811161167957602091613364878480948801016131e3565b815201910190613332565b8181029291811591840414171561338257565b634e487b7160e01b5f52601160045260245ffd5b9190820391821161338257565b156133aa57565b60405162461bcd60e51b815260206004820152601f60248201527f7472616e7366657220657263323020746f2073656c6c6572206661696c6564006044820152606490fd5b156133f657565b60405162461bcd60e51b815260206004820152602160248201527f7472616e7366657220657263323020746f20636f6e7472616374206661696c656044820152601960fa1b6064820152608490fd5b1561344c57565b60405162461bcd60e51b815260206004820152601360248201527f796f7520617265206e6f7420617070726f7665000000000000000000000000006044820152606490fd5b6001600160a01b035f541633036134a457565b63118cdaa760e01b5f523360045260245ffd5b6002600154146134c8576002600155565b633ee5aeb560e01b5f5260045ffdfea26469706673582212208301b02a29f894acd690c40f28972050227b539d91f0c21aef0fdecac7e4c22c64736f6c634300081c0033",
			"opcodes": "PUSH1 0x80 PUSH1 0x1F PUSH2 0x3660 CODESIZE DUP2 SWAP1 SUB SWAP2 DUP3 ADD PUSH1 0x1F NOT AND DUP4 ADD SWAP2 PUSH1 0x1 PUSH1 0x1 PUSH1 0x40 SHL SUB DUP4 GT DUP5 DUP5 LT OR PUSH2 0x12A JUMPI DUP1 DUP5 SWAP3 PUSH1 0x80 SWAP5 PUSH1 0x40 MSTORE DUP4 CODECOPY DUP2 ADD SUB SLT PUSH2 0x126 JUMPI PUSH2 0x42 DUP2 PUSH2 0x13E JUMP JUMPDEST SWAP1 PUSH2 0x4F PUSH1 0x20 DUP3 ADD PUSH2 0x13E JUMP JUMPDEST SWAP1 PUSH2 0x61 PUSH1 0x60 PUSH1 0x40 DUP4 ADD MLOAD SWAP3 ADD PUSH2 0x13E JUMP JUMPDEST SWAP2 CALLER ISZERO PUSH2 0x113 JUMPI PUSH0 DUP1 SLOAD CALLER PUSH1 0x1 PUSH1 0x1 PUSH1 0xA0 SHL SUB NOT DUP3 AND DUP2 OR DUP4 SSTORE PUSH1 0x40 MLOAD SWAP7 PUSH1 0x1 SWAP4 SWAP1 SWAP3 PUSH1 0x1 PUSH1 0x1 PUSH1 0xA0 SHL SUB AND SWAP1 PUSH32 0x8BE0079C531659141344CD1FD0A4F28419497F9722A3DAAFE3B4186F6B6457E0 SWAP1 DUP1 LOG3 DUP2 DUP1 SSTORE PUSH1 0x2 SLOAD SWAP1 PUSH2 0x100 DUP4 PUSH1 0xA8 SHL SUB SWAP1 PUSH1 0x8 SHL AND SWAP1 DUP3 DUP1 PUSH1 0xA8 SHL SUB NOT AND OR OR PUSH1 0x2 SSTORE PUSH1 0x1 DUP1 PUSH1 0xA0 SHL SUB AND PUSH1 0x1 DUP1 PUSH1 0xA0 SHL SUB NOT PUSH1 0x3 SLOAD AND OR PUSH1 0x3 SSTORE PUSH1 0x5 SSTORE PUSH1 0x1 DUP1 PUSH1 0xA0 SHL SUB AND PUSH1 0x1 DUP1 PUSH1 0xA0 SHL SUB NOT PUSH1 0x4 SLOAD AND OR PUSH1 0x4 SSTORE PUSH2 0x350D SWAP1 DUP2 PUSH2 0x153 DUP3 CODECOPY RETURN JUMPDEST PUSH4 0x1E4FBDF7 PUSH1 0xE0 SHL PUSH0 MSTORE PUSH0 PUSH1 0x4 MSTORE PUSH1 0x24 PUSH0 REVERT JUMPDEST PUSH0 DUP1 REVERT JUMPDEST PUSH4 0x4E487B71 PUSH1 0xE0 SHL PUSH0 MSTORE PUSH1 0x41 PUSH1 0x4 MSTORE PUSH1 0x24 PUSH0 REVERT JUMPDEST MLOAD SWAP1 PUSH1 0x1 PUSH1 0x1 PUSH1 0xA0 SHL SUB DUP3 AND DUP3 SUB PUSH2 0x126 JUMPI JUMP INVALID PUSH1 0x80 PUSH1 0x40 MSTORE PUSH1 0x4 CALLDATASIZE LT ISZERO PUSH2 0x4B JUMPI JUMPDEST CALLDATASIZE ISZERO PUSH2 0x18 JUMPI PUSH0 DUP1 REVERT JUMPDEST PUSH1 0x40 DUP1 MLOAD CALLER DUP2 MSTORE CALLVALUE PUSH1 0x20 DUP3 ADD MSTORE PUSH32 0x88A5966D370B9919B20F3E2C13FF65706F196A4E32CC2C12BF57088F88525874 SWAP2 SWAP1 LOG1 STOP JUMPDEST PUSH0 PUSH0 CALLDATALOAD PUSH1 0xE0 SHR DUP1 PUSH4 0x9C2FFD6 EQ PUSH2 0x2AAE JUMPI DUP1 PUSH4 0x11CE0267 EQ PUSH2 0x2A85 JUMPI DUP1 PUSH4 0x1BF1ECA4 EQ PUSH2 0x2A2D JUMPI DUP1 PUSH4 0x224652D8 EQ PUSH2 0x230D JUMPI DUP1 PUSH4 0x36BFC264 EQ PUSH2 0x22CE JUMPI DUP1 PUSH4 0x3CCFD60B EQ PUSH2 0x2294 JUMPI DUP1 PUSH4 0x5AFF5999 EQ PUSH2 0x226D JUMPI DUP1 PUSH4 0x61C7CBF0 EQ PUSH2 0x224F JUMPI DUP1 PUSH4 0x64A7601B EQ PUSH2 0x2026 JUMPI DUP1 PUSH4 0x69FE0E2D EQ PUSH2 0x1FD0 JUMPI DUP1 PUSH4 0x715018A6 EQ PUSH2 0x1F7E JUMPI DUP1 PUSH4 0x7471DDBD EQ PUSH2 0x1F4E JUMPI DUP1 PUSH4 0x7489EC23 EQ PUSH2 0x1CF3 JUMPI DUP1 PUSH4 0x89476069 EQ PUSH2 0x1BF7 JUMPI DUP1 PUSH4 0x8DA5CB5B EQ PUSH2 0x1BD1 JUMPI DUP1 PUSH4 0x8F72FC77 EQ PUSH2 0x1B6F JUMPI DUP1 PUSH4 0xA237E4E9 EQ PUSH2 0x1AF6 JUMPI DUP1 PUSH4 0xA54247AE EQ PUSH2 0x1A95 JUMPI DUP1 PUSH4 0xA8A6D538 EQ PUSH2 0x1A46 JUMPI DUP1 PUSH4 0xADB78EAC EQ PUSH2 0x1A17 JUMPI DUP1 PUSH4 0xAE080ECD EQ PUSH2 0x19DA JUMPI DUP1 PUSH4 0xB195D29C EQ PUSH2 0x1985 JUMPI DUP1 PUSH4 0xBD05A048 EQ PUSH2 0x195E JUMPI DUP1 PUSH4 0xC34304CB EQ PUSH2 0x190F JUMPI DUP1 PUSH4 0xC5D9B070 EQ PUSH2 0x1685 JUMPI DUP1 PUSH4 0xC67BBC24 EQ PUSH2 0x15FE JUMPI DUP1 PUSH4 0xCDB3CD25 EQ PUSH2 0x1532 JUMPI DUP1 PUSH4 0xD25285F5 EQ PUSH2 0x12E5 JUMPI DUP1 PUSH4 0xD3284D8E EQ PUSH2 0x124B JUMPI DUP1 PUSH4 0xD40B0214 EQ PUSH2 0xE6F JUMPI DUP1 PUSH4 0xD95A1DAF EQ PUSH2 0xE37 JUMPI DUP1 PUSH4 0xDC38B0A2 EQ PUSH2 0xDD7 JUMPI DUP1 PUSH4 0xDDCA3F43 EQ PUSH2 0xDB9 JUMPI DUP1 PUSH4 0xE5E664E1 EQ PUSH2 0x9ED JUMPI DUP1 PUSH4 0xED6BBFF3 EQ PUSH2 0x9AE JUMPI DUP1 PUSH4 0xEF9BC914 EQ PUSH2 0x282 JUMPI PUSH4 0xF2FDE38B EQ PUSH2 0x1ED JUMPI POP PUSH2 0xE JUMP JUMPDEST CALLVALUE PUSH2 0x27F JUMPI PUSH1 0x20 CALLDATASIZE PUSH1 0x3 NOT ADD SLT PUSH2 0x27F JUMPI PUSH1 0x1 PUSH1 0x1 PUSH1 0xA0 SHL SUB PUSH2 0x20E PUSH2 0x2BCD JUMP JUMPDEST PUSH2 0x216 PUSH2 0x3491 JUMP JUMPDEST AND DUP1 ISZERO PUSH2 0x26B JUMPI DUP2 SLOAD PUSH20 0xFFFFFFFFFFFFFFFFFFFFFFFFFFFFFFFFFFFFFFFF NOT DUP2 AND DUP3 OR DUP4 SSTORE PUSH1 0x1 PUSH1 0x1 PUSH1 0xA0 SHL SUB AND PUSH32 0x8BE0079C531659141344CD1FD0A4F28419497F9722A3DAAFE3B4186F6B6457E0 DUP4 DUP1 LOG3 DUP1 RETURN JUMPDEST PUSH4 0x1E4FBDF7 PUSH1 0xE0 SHL DUP3 MSTORE PUSH1 0x4 DUP3 SWAP1 MSTORE PUSH1 0x24 DUP3 REVERT JUMPDEST DUP1 REVERT JUMPDEST POP PUSH2 0x28C CALLDATASIZE PUSH2 0x2BF7 JUMP JUMPDEST SWAP1 PUSH1 0x1 PUSH1 0x1 PUSH1 0xA0 SHL SUB PUSH1 0x2 SLOAD PUSH2 0x2A4 PUSH1 0xFF DUP3 AND PUSH2 0x2E1B JUMP JUMPDEST PUSH1 0x8 SHR AND SWAP2 PUSH1 0x40 MLOAD SWAP1 PUSH4 0x9C3F1E9 PUSH1 0xE4 SHL DUP3 MSTORE DUP3 PUSH1 0x4 DUP4 ADD MSTORE DUP5 DUP3 PUSH1 0x24 DUP2 DUP8 GAS STATICCALL DUP1 ISZERO PUSH2 0x9A3 JUMPI DUP6 SWAP1 DUP7 DUP8 SWAP5 DUP9 SWAP4 DUP10 SWAP9 DUP11 SWAP7 DUP12 SWAP1 DUP13 SWAP5 DUP14 SWAP8 PUSH2 0x965 JUMPI JUMPDEST POP DUP1 ISZERO ISZERO SWAP2 DUP3 PUSH2 0x95A JUMPI JUMPDEST POP POP ISZERO PUSH2 0x915 JUMPI PUSH2 0x306 DUP12 SWAP3 PUSH2 0x300 PUSH2 0x311C JUMP JUMPDEST SWAP1 PUSH2 0x3021 JUMP JUMPDEST PUSH1 0x1 PUSH1 0x1 PUSH1 0xA0 SHL SUB DUP4 AND SWAP10 PUSH1 0x1 PUSH1 0x1 PUSH1 0xA0 SHL SUB PUSH1 0x40 SWAP6 PUSH2 0x35F DUP14 DUP9 MLOAD SWAP1 PUSH2 0x32D DUP11 DUP4 PUSH2 0x2DEC JUMP JUMPDEST PUSH1 0x1E DUP3 MSTORE PUSH32 0x4E46544D61726B65743A3A63616E7420616363657074206F776E2061736B0000 PUSH1 0x20 DUP4 ADD MSTORE CALLER EQ ISZERO PUSH2 0x3021 JUMP JUMPDEST AND DUP6 MLOAD PUSH4 0x31A9108F PUSH1 0xE1 SHL DUP2 MSTORE DUP11 PUSH1 0x4 DUP3 ADD MSTORE PUSH1 0x20 DUP2 PUSH1 0x24 DUP2 DUP6 GAS STATICCALL DUP1 ISZERO PUSH2 0x712 JUMPI DUP6 SWAP1 PUSH2 0x8DA JUMPI JUMPDEST PUSH2 0x3A6 SWAP2 POP DUP14 PUSH1 0x1 PUSH1 0x1 PUSH1 0xA0 SHL SUB PUSH2 0x39E PUSH2 0x3157 JUMP JUMPDEST SWAP3 AND EQ PUSH2 0x3021 JUMP JUMPDEST PUSH1 0x20 SWAP10 DUP7 MLOAD PUSH2 0x3B5 DUP13 DUP3 PUSH2 0x2DEC JUMP JUMPDEST DUP6 DUP2 MSTORE PUSH1 0x1F NOT DUP13 ADD CALLDATASIZE DUP14 DUP4 ADD CALLDATACOPY DUP3 EXTCODESIZE ISZERO PUSH2 0x731 JUMPI PUSH2 0x406 SWAP3 DUP7 SWAP3 DUP16 DUP5 SWAP1 DUP12 MLOAD SWAP7 DUP8 SWAP6 DUP7 SWAP5 DUP6 SWAP4 PUSH4 0x5C46A7EF PUSH1 0xE1 SHL DUP6 MSTORE PUSH1 0x4 DUP6 ADD MSTORE CALLER PUSH1 0x24 DUP6 ADD MSTORE PUSH1 0x44 DUP5 ADD MSTORE PUSH1 0x80 PUSH1 0x64 DUP5 ADD MSTORE PUSH1 0x84 DUP4 ADD SWAP1 PUSH2 0x2C0D JUMP JUMPDEST SUB SWAP3 GAS CALL DUP1 ISZERO PUSH2 0x758 JUMPI SWAP1 DUP5 SWAP2 PUSH2 0x8C1 JUMPI JUMPDEST POP POP PUSH1 0x60 DUP9 ADD SWAP4 PUSH1 0x1 PUSH1 0x1 PUSH1 0xA0 SHL SUB PUSH2 0x432 DUP7 MLOAD DUP10 PUSH2 0x336F JUMP JUMPDEST SWAP3 AND SWAP1 DUP5 DUP14 DUP13 DUP10 DUP6 PUSH2 0x76B JUMPI DUP4 SWAP3 PUSH2 0x485 DUP5 SWAP4 SWAP3 PUSH32 0x4E46544D61726B65743A3A696E73756666696369656E742076616C7565000000 DUP6 SWAP5 PUSH2 0x475 DUP4 MLOAD SWAP4 DUP5 PUSH2 0x2DEC JUMP JUMPDEST PUSH1 0x1D DUP4 MSTORE DUP3 ADD MSTORE DUP10 CALLVALUE LT ISZERO PUSH2 0x3021 JUMP JUMPDEST PUSH2 0x49D PUSH1 0x64 PUSH2 0x496 PUSH1 0x5 SLOAD DUP12 PUSH2 0x336F JUMP JUMPDEST DIV DUP10 PUSH2 0x3396 JUMP JUMPDEST SWAP1 DUP3 DUP3 ISZERO PUSH2 0x762 JUMPI JUMPDEST CALL ISZERO PUSH2 0x758 JUMPI JUMPDEST DUP7 MLOAD PUSH2 0x4B9 DUP9 DUP3 PUSH2 0x2DEC JUMP JUMPDEST PUSH1 0x3 DUP2 MSTORE PUSH3 0x627579 PUSH1 0xE8 SHL DUP13 DUP3 ADD MSTORE DUP5 EXTCODESIZE ISZERO PUSH2 0x731 JUMPI DUP6 DUP3 DUP15 PUSH2 0x4F1 DUP12 MLOAD SWAP5 DUP6 SWAP4 DUP5 SWAP4 PUSH4 0x68FAE909 PUSH1 0xE1 SHL DUP6 MSTORE CALLER SWAP1 PUSH1 0x4 DUP7 ADD PUSH2 0x30A3 JUMP JUMPDEST SUB DUP2 DUP4 DUP10 GAS CALL DUP1 ISZERO PUSH2 0x74E JUMPI SWAP1 DUP7 SWAP2 PUSH2 0x735 JUMPI JUMPDEST POP POP DUP7 MLOAD SWAP1 PUSH2 0x514 DUP9 DUP4 PUSH2 0x2DEC JUMP JUMPDEST PUSH1 0x4 DUP3 MSTORE PUSH4 0x1CDBDB19 PUSH1 0xE2 SHL DUP13 DUP4 ADD MSTORE DUP5 EXTCODESIZE ISZERO PUSH2 0x731 JUMPI DUP13 DUP7 SWAP2 PUSH2 0x54D DUP11 MLOAD SWAP5 DUP6 SWAP4 DUP5 SWAP4 PUSH4 0x68FAE909 PUSH1 0xE1 SHL DUP6 MSTORE CALLER SWAP2 PUSH1 0x4 DUP7 ADD PUSH2 0x30A3 JUMP JUMPDEST SUB DUP2 DUP4 DUP9 GAS CALL DUP1 ISZERO PUSH2 0x712 JUMPI SWAP1 DUP6 SWAP2 PUSH2 0x71C JUMPI JUMPDEST POP POP DUP3 EXTCODESIZE ISZERO PUSH2 0x6F9 JUMPI DUP6 MLOAD PUSH4 0x87A61CBD PUSH1 0xE0 SHL DUP2 MSTORE PUSH1 0x4 DUP2 ADD DUP13 SWAP1 MSTORE DUP5 DUP2 PUSH1 0x24 DUP2 DUP4 DUP9 GAS CALL DUP1 ISZERO PUSH2 0x712 JUMPI SWAP1 DUP6 SWAP2 PUSH2 0x6FD JUMPI JUMPDEST POP POP DUP3 EXTCODESIZE ISZERO PUSH2 0x6F9 JUMPI DUP6 MLOAD SWAP2 PUSH4 0x42BF5591 PUSH1 0xE1 SHL DUP4 MSTORE PUSH1 0x4 DUP4 ADD MSTORE PUSH1 0x24 DUP3 ADD MSTORE DUP3 DUP2 PUSH1 0x44 DUP2 DUP4 DUP7 GAS CALL DUP1 ISZERO PUSH2 0x6EF JUMPI SWAP1 DUP4 SWAP2 PUSH2 0x6DA JUMPI JUMPDEST POP POP DUP1 EXTCODESIZE ISZERO PUSH2 0x6D6 JUMPI DUP2 DUP1 SWAP2 PUSH1 0x4 DUP7 MLOAD DUP1 SWAP5 DUP2 SWAP4 PUSH4 0xC767A141 PUSH1 0xE0 SHL DUP4 MSTORE GAS CALL DUP1 ISZERO PUSH2 0x6CC JUMPI PUSH2 0x6A9 JUMPI JUMPDEST POP POP SWAP1 PUSH2 0x67D DUP6 SWAP5 SWAP4 SWAP3 PUSH2 0x66F PUSH32 0x619E07F489943272A38745FB88154E26B5855B57254E1851C2168288FF0C487E SWAP11 PUSH2 0x661 PUSH2 0x69C SWAP10 MLOAD DUP12 DUP11 ADD MLOAD SWAP3 PUSH1 0x80 DUP9 DUP13 ADD MLOAD SWAP7 MLOAD SWAP12 ADD MLOAD SWAP8 DUP1 MLOAD SWAP15 DUP16 SWAP15 DUP16 SWAP2 DUP3 MSTORE CALLER SWAP2 ADD MSTORE DUP14 ADD MSTORE PUSH2 0x160 PUSH1 0x60 DUP14 ADD MSTORE PUSH2 0x160 DUP13 ADD SWAP1 PUSH2 0x2C0D JUMP JUMPDEST SWAP1 DUP11 DUP3 SUB PUSH1 0x80 DUP13 ADD MSTORE PUSH2 0x2C0D JUMP JUMPDEST SWAP1 DUP9 DUP3 SUB PUSH1 0xA0 DUP11 ADD MSTORE PUSH2 0x2C0D JUMP JUMPDEST SWAP4 PUSH1 0xC0 DUP8 ADD MSTORE PUSH1 0xE0 DUP7 ADD MSTORE PUSH2 0x100 DUP6 ADD MSTORE DUP4 DUP3 SUB PUSH2 0x120 DUP6 ADD MSTORE PUSH2 0x2C0D JUMP JUMPDEST TIMESTAMP PUSH2 0x140 DUP4 ADD MSTORE SUB SWAP1 LOG1 DUP1 RETURN JUMPDEST DUP2 PUSH2 0x6B9 SWAP2 SWAP8 SWAP7 SWAP6 SWAP5 SWAP4 SWAP8 PUSH2 0x2DEC JUMP JUMPDEST PUSH2 0x6C8 JUMPI SWAP1 SWAP2 SWAP3 SWAP4 DUP9 PUSH0 PUSH2 0x5F6 JUMP JUMPDEST DUP9 DUP1 REVERT JUMPDEST DUP5 MLOAD RETURNDATASIZE DUP5 DUP3 RETURNDATACOPY RETURNDATASIZE SWAP1 REVERT JUMPDEST POP DUP1 REVERT JUMPDEST DUP2 PUSH2 0x6E4 SWAP2 PUSH2 0x2DEC JUMP JUMPDEST PUSH2 0x6D6 JUMPI DUP2 PUSH0 PUSH2 0x5CB JUMP JUMPDEST DUP6 MLOAD RETURNDATASIZE DUP6 DUP3 RETURNDATACOPY RETURNDATASIZE SWAP1 REVERT JUMPDEST DUP4 DUP1 REVERT JUMPDEST DUP2 PUSH2 0x707 SWAP2 PUSH2 0x2DEC JUMP JUMPDEST PUSH2 0x6F9 JUMPI DUP4 PUSH0 PUSH2 0x594 JUMP JUMPDEST DUP8 MLOAD RETURNDATASIZE DUP8 DUP3 RETURNDATACOPY RETURNDATASIZE SWAP1 REVERT JUMPDEST DUP2 PUSH2 0x726 SWAP2 PUSH2 0x2DEC JUMP JUMPDEST PUSH2 0x6F9 JUMPI DUP4 PUSH0 PUSH2 0x561 JUMP JUMPDEST DUP6 DUP1 REVERT JUMPDEST DUP2 PUSH2 0x73F SWAP2 PUSH2 0x2DEC JUMP JUMPDEST PUSH2 0x74A JUMPI DUP5 PUSH0 PUSH2 0x505 JUMP JUMPDEST DUP5 DUP1 REVERT JUMPDEST DUP9 MLOAD RETURNDATASIZE DUP9 DUP3 RETURNDATACOPY RETURNDATASIZE SWAP1 REVERT JUMPDEST DUP7 MLOAD RETURNDATASIZE DUP7 DUP3 RETURNDATACOPY RETURNDATASIZE SWAP1 REVERT JUMPDEST POP PUSH2 0x8FC PUSH2 0x4A6 JUMP JUMPDEST POP POP POP POP PUSH2 0x787 PUSH1 0x64 PUSH2 0x780 PUSH1 0x5 SLOAD DUP7 PUSH2 0x336F JUMP JUMPDEST DIV DUP5 PUSH2 0x3396 JUMP JUMPDEST PUSH2 0x7CB DUP13 PUSH2 0x795 DUP4 DUP8 PUSH2 0x3396 JUMP JUMPDEST DUP11 MLOAD PUSH4 0x23B872DD PUSH1 0xE0 SHL DUP2 MSTORE CALLER PUSH1 0x4 DUP3 ADD MSTORE PUSH1 0x1 PUSH1 0x1 PUSH1 0xA0 SHL SUB DUP7 AND PUSH1 0x24 DUP3 ADD MSTORE PUSH1 0x44 DUP2 ADD SWAP5 SWAP1 SWAP5 MSTORE SWAP3 SWAP2 DUP3 SWAP1 DUP2 SWAP1 PUSH1 0x64 DUP3 ADD SWAP1 JUMP JUMPDEST SUB DUP2 DUP11 DUP9 GAS CALL SWAP1 DUP2 ISZERO PUSH2 0x8B7 JUMPI SWAP1 DUP14 SWAP2 DUP9 SWAP2 PUSH2 0x874 JUMPI JUMPDEST POP SWAP2 PUSH2 0x7F0 PUSH2 0x81C SWAP4 PUSH2 0x33A3 JUMP JUMPDEST DUP10 MLOAD PUSH4 0x23B872DD PUSH1 0xE0 SHL DUP2 MSTORE CALLER PUSH1 0x4 DUP3 ADD MSTORE ADDRESS PUSH1 0x24 DUP3 ADD MSTORE PUSH1 0x44 DUP2 ADD SWAP2 SWAP1 SWAP2 MSTORE SWAP2 DUP3 SWAP1 DUP2 SWAP1 PUSH1 0x64 DUP3 ADD SWAP1 JUMP JUMPDEST SUB DUP2 DUP10 DUP8 GAS CALL DUP1 ISZERO PUSH2 0x74E JUMPI DUP7 SWAP1 PUSH2 0x83E JUMPI JUMPDEST PUSH2 0x839 SWAP2 POP PUSH2 0x33EF JUMP JUMPDEST PUSH2 0x4AD JUMP JUMPDEST POP DUP12 DUP2 DUP2 RETURNDATASIZE DUP4 GT PUSH2 0x86D JUMPI JUMPDEST PUSH2 0x854 DUP2 DUP4 PUSH2 0x2DEC JUMP JUMPDEST DUP2 ADD SUB SLT PUSH2 0x731 JUMPI PUSH2 0x868 PUSH2 0x839 SWAP2 PUSH2 0x2E0E JUMP JUMPDEST PUSH2 0x82F JUMP JUMPDEST POP RETURNDATASIZE PUSH2 0x84A JUMP JUMPDEST DUP3 DUP2 SWAP4 SWAP3 POP RETURNDATASIZE DUP4 GT PUSH2 0x8B0 JUMPI JUMPDEST PUSH2 0x88B DUP2 DUP4 PUSH2 0x2DEC JUMP JUMPDEST DUP2 ADD SUB SLT PUSH2 0x8AC JUMPI PUSH2 0x81C SWAP2 PUSH2 0x7F0 PUSH2 0x8A4 DUP16 SWAP4 PUSH2 0x2E0E JUMP JUMPDEST SWAP2 SWAP4 POP PUSH2 0x7E2 JUMP JUMPDEST DUP7 DUP1 REVERT JUMPDEST POP RETURNDATASIZE PUSH2 0x881 JUMP JUMPDEST DUP10 MLOAD RETURNDATASIZE DUP10 DUP3 RETURNDATACOPY RETURNDATASIZE SWAP1 REVERT JUMPDEST DUP2 PUSH2 0x8CB SWAP2 PUSH2 0x2DEC JUMP JUMPDEST PUSH2 0x8D6 JUMPI DUP3 PUSH0 PUSH2 0x418 JUMP JUMPDEST DUP3 DUP1 REVERT JUMPDEST POP PUSH1 0x20 DUP2 RETURNDATASIZE PUSH1 0x20 GT PUSH2 0x90D JUMPI JUMPDEST DUP2 PUSH2 0x8F4 PUSH1 0x20 SWAP4 DUP4 PUSH2 0x2DEC JUMP JUMPDEST DUP2 ADD SUB SLT PUSH2 0x74A JUMPI PUSH2 0x908 PUSH2 0x3A6 SWAP2 PUSH2 0x2E7B JUMP JUMPDEST PUSH2 0x388 JUMP JUMPDEST RETURNDATASIZE SWAP2 POP PUSH2 0x8E7 JUMP JUMPDEST PUSH1 0x40 MLOAD PUSH3 0x461BCD PUSH1 0xE5 SHL DUP2 MSTORE PUSH1 0x20 PUSH1 0x4 DUP3 ADD MSTORE PUSH1 0x12 PUSH1 0x24 DUP3 ADD MSTORE PUSH32 0x696E76616C69642062757920616D6F756E740000000000000000000000000000 PUSH1 0x44 DUP3 ADD MSTORE PUSH1 0x64 SWAP1 REVERT JUMPDEST LT ISZERO SWAP1 POP PUSH0 DUP1 PUSH2 0x2EC JUMP JUMPDEST SWAP8 POP SWAP9 POP POP SWAP9 POP POP POP POP POP PUSH2 0x98C SWAP2 POP RETURNDATASIZE DUP1 DUP8 DUP4 RETURNDATACOPY PUSH2 0x984 DUP2 DUP4 PUSH2 0x2DEC JUMP JUMPDEST DUP2 ADD SWAP1 PUSH2 0x2F80 JUMP JUMPDEST POP SWAP4 SWAP12 SWAP6 SWAP10 SWAP3 SWAP9 SWAP5 SWAP8 POP SWAP3 SWAP6 SWAP5 SWAP3 SWAP4 SWAP3 SWAP2 PUSH0 PUSH2 0x2E1 JUMP JUMPDEST PUSH1 0x40 MLOAD RETURNDATASIZE DUP8 DUP3 RETURNDATACOPY RETURNDATASIZE SWAP1 REVERT JUMPDEST POP CALLVALUE PUSH2 0x27F JUMPI PUSH1 0x20 CALLDATASIZE PUSH1 0x3 NOT ADD SLT PUSH2 0x27F JUMPI PUSH1 0x1 PUSH1 0x1 PUSH1 0xA0 SHL SUB PUSH2 0x9D0 PUSH2 0x2BCD JUMP JUMPDEST PUSH2 0x9D8 PUSH2 0x3491 JUMP JUMPDEST AND PUSH1 0x1 PUSH1 0x1 PUSH1 0xA0 SHL SUB NOT PUSH1 0x3 SLOAD AND OR PUSH1 0x3 SSTORE DUP1 RETURN JUMPDEST POP CALLVALUE PUSH2 0x27F JUMPI PUSH1 0x80 CALLDATASIZE PUSH1 0x3 NOT ADD SLT PUSH2 0x27F JUMPI PUSH2 0xA07 PUSH2 0x2BCD JUMP JUMPDEST PUSH1 0x64 CALLDATALOAD SWAP1 PUSH1 0x24 CALLDATALOAD PUSH1 0x44 CALLDATALOAD PUSH2 0xA19 PUSH2 0x34B7 JUMP JUMPDEST DUP2 ISZERO PUSH2 0xD74 JUMPI DUP1 ISZERO PUSH2 0xD2F JUMPI DUP4 DUP6 MSTORE PUSH1 0x9 PUSH1 0x20 MSTORE PUSH1 0xFF PUSH1 0x40 DUP7 KECCAK256 SLOAD AND PUSH2 0xCEA JUMPI PUSH1 0x1 PUSH1 0x1 PUSH1 0xA0 SHL SUB PUSH1 0x3 SLOAD AND PUSH1 0x40 MLOAD PUSH4 0x31A9108F PUSH1 0xE1 SHL DUP2 MSTORE DUP6 PUSH1 0x4 DUP3 ADD MSTORE PUSH1 0x20 DUP2 PUSH1 0x24 DUP2 DUP6 GAS STATICCALL DUP1 ISZERO PUSH2 0xCA4 JUMPI DUP8 SWAP1 PUSH2 0xCAF JUMPI JUMPDEST PUSH2 0xA83 SWAP2 POP PUSH1 0x1 PUSH1 0x1 PUSH1 0xA0 SHL SUB AND CALLER EQ PUSH2 0x3445 JUMP JUMPDEST PUSH1 0x40 MLOAD PUSH4 0x20604BF PUSH1 0xE2 SHL DUP2 MSTORE PUSH1 0x4 DUP2 ADD DUP7 SWAP1 MSTORE PUSH1 0x20 DUP2 PUSH1 0x24 DUP2 DUP6 GAS STATICCALL SWAP1 DUP2 ISZERO PUSH2 0xCA4 JUMPI DUP8 SWAP2 PUSH2 0xC6A JUMPI JUMPDEST POP PUSH1 0x1 PUSH1 0x1 PUSH1 0xA0 SHL SUB AND ADDRESS EQ DUP1 ISZERO PUSH2 0xBE6 JUMPI JUMPDEST PUSH2 0xACB SWAP2 POP PUSH2 0x3445 JUMP JUMPDEST PUSH1 0x7 SLOAD PUSH0 NOT DUP2 EQ PUSH2 0xBD2 JUMPI PUSH1 0x1 ADD SWAP2 DUP3 PUSH1 0x7 SSTORE PUSH1 0x40 MLOAD SWAP4 PUSH1 0xC0 DUP6 ADD DUP6 DUP2 LT PUSH8 0xFFFFFFFFFFFFFFFF DUP3 GT OR PUSH2 0xBBE JUMPI SWAP2 PUSH1 0x5 SWAP4 SWAP2 PUSH2 0xBA1 SWAP7 SWAP6 SWAP4 PUSH1 0x40 MSTORE CALLER DUP7 MSTORE PUSH1 0x1 PUSH1 0x1 PUSH1 0xA0 SHL SUB PUSH1 0x20 DUP8 ADD SWAP2 AND DUP2 MSTORE PUSH1 0x1 PUSH1 0x1 PUSH1 0xA0 SHL SUB PUSH1 0x40 DUP8 ADD SWAP2 DUP4 DUP4 MSTORE PUSH1 0x60 DUP9 ADD SWAP4 DUP5 MSTORE PUSH1 0x80 DUP9 ADD SWAP5 DUP6 MSTORE PUSH1 0xA0 DUP9 ADD SWAP6 PUSH1 0x1 DUP8 MSTORE DUP12 MSTORE PUSH1 0x8 PUSH1 0x20 MSTORE DUP2 DUP1 PUSH1 0x40 DUP14 KECCAK256 SWAP10 MLOAD AND AND DUP3 NOT DUP10 SLOAD AND OR DUP9 SSTORE MLOAD AND PUSH1 0x1 PUSH1 0x1 PUSH1 0xA0 SHL SUB PUSH1 0x1 DUP9 ADD SWAP2 AND PUSH1 0x1 PUSH1 0x1 PUSH1 0xA0 SHL SUB NOT DUP3 SLOAD AND OR SWAP1 SSTORE MLOAD PUSH1 0x2 DUP7 ADD SSTORE MLOAD PUSH1 0x3 DUP6 ADD SSTORE MLOAD PUSH1 0x4 DUP5 ADD SSTORE MLOAD ISZERO ISZERO SWAP2 ADD SWAP1 PUSH1 0xFF DUP1 NOT DUP4 SLOAD AND SWAP2 ISZERO ISZERO AND OR SWAP1 SSTORE JUMP JUMPDEST DUP2 MSTORE PUSH1 0x9 PUSH1 0x20 MSTORE PUSH1 0x40 DUP2 KECCAK256 PUSH1 0x1 PUSH1 0xFF NOT DUP3 SLOAD AND OR SWAP1 SSTORE PUSH1 0x1 DUP1 SSTORE DUP1 RETURN JUMPDEST PUSH4 0x4E487B71 PUSH1 0xE0 SHL DUP9 MSTORE PUSH1 0x41 PUSH1 0x4 MSTORE PUSH1 0x24 DUP9 REVERT JUMPDEST PUSH4 0x4E487B71 PUSH1 0xE0 SHL DUP7 MSTORE PUSH1 0x11 PUSH1 0x4 MSTORE PUSH1 0x24 DUP7 REVERT JUMPDEST POP PUSH1 0x40 MLOAD PUSH4 0xE985E9C5 PUSH1 0xE0 SHL DUP2 MSTORE CALLER PUSH1 0x4 DUP3 ADD MSTORE ADDRESS PUSH1 0x24 DUP3 ADD MSTORE SWAP1 PUSH1 0x20 SWAP1 DUP3 SWAP1 PUSH1 0x44 SWAP1 DUP3 SWAP1 GAS STATICCALL DUP1 ISZERO PUSH2 0xC5F JUMPI DUP7 SWAP1 PUSH2 0xC24 JUMPI JUMPDEST PUSH2 0xACB SWAP2 POP PUSH2 0xAC1 JUMP JUMPDEST POP PUSH1 0x20 DUP2 RETURNDATASIZE PUSH1 0x20 GT PUSH2 0xC57 JUMPI JUMPDEST DUP2 PUSH2 0xC3E PUSH1 0x20 SWAP4 DUP4 PUSH2 0x2DEC JUMP JUMPDEST DUP2 ADD SUB SLT PUSH2 0x731 JUMPI PUSH2 0xC52 PUSH2 0xACB SWAP2 PUSH2 0x2E0E JUMP JUMPDEST PUSH2 0xC1A JUMP JUMPDEST RETURNDATASIZE SWAP2 POP PUSH2 0xC31 JUMP JUMPDEST PUSH1 0x40 MLOAD RETURNDATASIZE DUP9 DUP3 RETURNDATACOPY RETURNDATASIZE SWAP1 REVERT JUMPDEST SWAP1 POP PUSH1 0x20 DUP2 RETURNDATASIZE PUSH1 0x20 GT PUSH2 0xC9C JUMPI JUMPDEST DUP2 PUSH2 0xC85 PUSH1 0x20 SWAP4 DUP4 PUSH2 0x2DEC JUMP JUMPDEST DUP2 ADD SUB SLT PUSH2 0x8AC JUMPI PUSH2 0xC96 SWAP1 PUSH2 0x2E7B JUMP JUMPDEST PUSH0 PUSH2 0xAAE JUMP JUMPDEST RETURNDATASIZE SWAP2 POP PUSH2 0xC78 JUMP JUMPDEST PUSH1 0x40 MLOAD RETURNDATASIZE DUP10 DUP3 RETURNDATACOPY RETURNDATASIZE SWAP1 REVERT JUMPDEST POP PUSH1 0x20 DUP2 RETURNDATASIZE PUSH1 0x20 GT PUSH2 0xCE2 JUMPI JUMPDEST DUP2 PUSH2 0xCC9 PUSH1 0x20 SWAP4 DUP4 PUSH2 0x2DEC JUMP JUMPDEST DUP2 ADD SUB SLT PUSH2 0x8AC JUMPI PUSH2 0xCDD PUSH2 0xA83 SWAP2 PUSH2 0x2E7B JUMP JUMPDEST PUSH2 0xA6E JUMP JUMPDEST RETURNDATASIZE SWAP2 POP PUSH2 0xCBC JUMP JUMPDEST PUSH1 0x40 MLOAD PUSH3 0x461BCD PUSH1 0xE5 SHL DUP2 MSTORE PUSH1 0x20 PUSH1 0x4 DUP3 ADD MSTORE PUSH1 0x1A PUSH1 0x24 DUP3 ADD MSTORE PUSH32 0x54686973204E465420697320616C7265616479206C6973746564000000000000 PUSH1 0x44 DUP3 ADD MSTORE PUSH1 0x64 SWAP1 REVERT JUMPDEST PUSH1 0x40 MLOAD PUSH3 0x461BCD PUSH1 0xE5 SHL DUP2 MSTORE PUSH1 0x20 PUSH1 0x4 DUP3 ADD MSTORE PUSH1 0x16 PUSH1 0x24 DUP3 ADD MSTORE PUSH32 0x496E76616C69642070726963652070657220756E697400000000000000000000 PUSH1 0x44 DUP3 ADD MSTORE PUSH1 0x64 SWAP1 REVERT JUMPDEST PUSH1 0x40 MLOAD PUSH3 0x461BCD PUSH1 0xE5 SHL DUP2 MSTORE PUSH1 0x20 PUSH1 0x4 DUP3 ADD MSTORE PUSH1 0x14 PUSH1 0x24 DUP3 ADD MSTORE PUSH32 0x496E76616C696420746F74616C20616D6F756E74000000000000000000000000 PUSH1 0x44 DUP3 ADD MSTORE PUSH1 0x64 SWAP1 REVERT JUMPDEST POP CALLVALUE PUSH2 0x27F JUMPI DUP1 PUSH1 0x3 NOT CALLDATASIZE ADD SLT PUSH2 0x27F JUMPI PUSH1 0x20 PUSH1 0x5 SLOAD PUSH1 0x40 MLOAD SWAP1 DUP2 MSTORE RETURN JUMPDEST POP CALLVALUE PUSH2 0x27F JUMPI PUSH1 0x20 CALLDATASIZE PUSH1 0x3 NOT ADD SLT PUSH2 0x27F JUMPI PUSH2 0xDF1 PUSH2 0x2BCD JUMP JUMPDEST PUSH2 0xDF9 PUSH2 0x3491 JUMP JUMPDEST PUSH21 0xFFFFFFFFFFFFFFFFFFFFFFFFFFFFFFFFFFFFFFFF00 PUSH1 0x2 SLOAD SWAP2 PUSH1 0x8 SHL AND SWAP1 PUSH21 0xFFFFFFFFFFFFFFFFFFFFFFFFFFFFFFFFFFFFFFFF00 NOT AND OR PUSH1 0x2 SSTORE DUP1 RETURN JUMPDEST POP CALLVALUE PUSH2 0x27F JUMPI PUSH1 0x20 CALLDATASIZE PUSH1 0x3 NOT ADD SLT PUSH2 0x27F JUMPI PUSH1 0x4 CALLDATALOAD DUP1 ISZERO ISZERO DUP1 SWAP2 SUB PUSH2 0x6D6 JUMPI PUSH2 0xE5E PUSH2 0x3491 JUMP JUMPDEST PUSH1 0xFF DUP1 NOT PUSH1 0x2 SLOAD AND SWAP2 AND OR PUSH1 0x2 SSTORE DUP1 RETURN JUMPDEST POP PUSH2 0xE79 CALLDATASIZE PUSH2 0x2BF7 JUMP JUMPDEST PUSH2 0xE81 PUSH2 0x34B7 JUMP JUMPDEST DUP2 DUP4 MSTORE PUSH1 0x8 PUSH1 0x20 MSTORE PUSH1 0x40 DUP4 KECCAK256 SWAP1 PUSH1 0xFF PUSH1 0x5 DUP4 ADD SLOAD AND ISZERO PUSH2 0x1206 JUMPI PUSH1 0x1 PUSH1 0x1 PUSH1 0xA0 SHL SUB DUP3 SLOAD AND CALLER DUP2 EQ PUSH2 0x11C1 JUMPI PUSH1 0x3 DUP4 ADD SWAP3 DUP3 DUP5 SLOAD LT PUSH2 0x117C JUMPI DUP3 ISZERO PUSH2 0x1137 JUMPI DUP6 PUSH2 0xECF DUP5 PUSH1 0x4 DUP5 ADD SLOAD PUSH2 0x336F JUMP JUMPDEST SWAP3 PUSH1 0x1 PUSH1 0x1 PUSH1 0xA0 SHL SUB PUSH1 0x1 DUP5 ADD SLOAD AND DUP1 ISZERO PUSH0 EQ PUSH2 0xFCF JUMPI POP POP POP DUP2 CALLVALUE LT PUSH2 0xF8A JUMPI DUP6 DUP1 DUP1 SWAP4 PUSH2 0xF19 PUSH1 0x1 PUSH1 0x1 PUSH1 0xA0 SHL SUB DUP4 SWAP6 SLOAD AND SWAP2 PUSH1 0x64 PUSH2 0xF12 PUSH1 0x5 SLOAD DUP4 PUSH2 0x336F JUMP JUMPDEST DIV SWAP1 PUSH2 0x3396 JUMP JUMPDEST SWAP1 DUP3 DUP3 ISZERO PUSH2 0xF81 JUMPI JUMPDEST CALL ISZERO PUSH2 0xF76 JUMPI PUSH2 0xF34 SWAP1 JUMPDEST DUP3 SLOAD PUSH2 0x3396 JUMP JUMPDEST DUP1 SWAP2 SSTORE ISZERO PUSH2 0xF45 JUMPI JUMPDEST POP PUSH1 0x1 DUP1 SSTORE DUP1 RETURN JUMPDEST DUP2 MSTORE PUSH1 0x8 PUSH1 0x20 MSTORE DUP1 PUSH1 0x5 PUSH1 0x40 DUP3 KECCAK256 DUP3 DUP2 SSTORE DUP3 PUSH1 0x1 DUP3 ADD SSTORE DUP3 PUSH1 0x2 DUP3 ADD SSTORE DUP3 PUSH1 0x3 DUP3 ADD SSTORE DUP3 PUSH1 0x4 DUP3 ADD SSTORE ADD SSTORE PUSH0 PUSH2 0xF3D JUMP JUMPDEST PUSH1 0x40 MLOAD RETURNDATASIZE DUP6 DUP3 RETURNDATACOPY RETURNDATASIZE SWAP1 REVERT JUMPDEST POP PUSH2 0x8FC PUSH2 0xF22 JUMP JUMPDEST PUSH1 0x40 MLOAD PUSH3 0x461BCD PUSH1 0xE5 SHL DUP2 MSTORE PUSH1 0x20 PUSH1 0x4 DUP3 ADD MSTORE PUSH1 0x1C PUSH1 0x24 DUP3 ADD MSTORE PUSH32 0x4E65656420746F2073656E64206D6F72652045544820746F2062757900000000 PUSH1 0x44 DUP3 ADD MSTORE PUSH1 0x64 SWAP1 REVERT JUMPDEST SWAP2 SWAP5 SWAP4 PUSH2 0x1035 SWAP2 SWAP4 POP PUSH1 0x20 SWAP1 PUSH2 0xFFD PUSH2 0xFF6 PUSH1 0x64 PUSH2 0xFEF PUSH1 0x5 SLOAD DUP6 PUSH2 0x336F JUMP JUMPDEST DIV DUP4 PUSH2 0x3396 JUMP JUMPDEST DUP1 SWAP3 PUSH2 0x3396 JUMP JUMPDEST PUSH1 0x40 MLOAD PUSH4 0x23B872DD PUSH1 0xE0 SHL DUP2 MSTORE CALLER PUSH1 0x4 DUP3 ADD MSTORE PUSH1 0x1 PUSH1 0x1 PUSH1 0xA0 SHL SUB SWAP1 SWAP7 AND PUSH1 0x24 DUP8 ADD MSTORE PUSH1 0x44 DUP7 ADD SWAP2 SWAP1 SWAP2 MSTORE SWAP4 SWAP2 DUP3 SWAP1 DUP2 SWAP1 PUSH1 0x64 DUP3 ADD SWAP1 JUMP JUMPDEST SUB DUP2 DUP9 DUP7 GAS CALL SWAP1 DUP2 ISZERO PUSH2 0x9A3 JUMPI DUP6 SWAP2 PUSH2 0x10EF JUMPI JUMPDEST POP SWAP1 PUSH1 0x20 SWAP3 PUSH2 0x105A PUSH2 0x108A SWAP4 PUSH2 0x33A3 JUMP JUMPDEST PUSH1 0x40 MLOAD PUSH4 0x23B872DD PUSH1 0xE0 SHL DUP2 MSTORE CALLER PUSH1 0x4 DUP3 ADD MSTORE ADDRESS PUSH1 0x24 DUP3 ADD MSTORE PUSH1 0x44 DUP2 ADD SWAP2 SWAP1 SWAP2 MSTORE SWAP5 DUP6 SWAP3 DUP4 SWAP2 SWAP1 DUP3 SWAP1 PUSH1 0x64 DUP3 ADD SWAP1 JUMP JUMPDEST SUB SWAP3 GAS CALL SWAP2 DUP3 ISZERO PUSH2 0x9A3 JUMPI DUP6 SWAP3 PUSH2 0x10AE JUMPI JUMPDEST POP PUSH2 0x10A9 PUSH2 0xF34 SWAP3 PUSH2 0x33EF JUMP JUMPDEST PUSH2 0xF2D JUMP JUMPDEST SWAP2 POP PUSH1 0x20 DUP3 RETURNDATASIZE PUSH1 0x20 GT PUSH2 0x10E7 JUMPI JUMPDEST DUP2 PUSH2 0x10C9 PUSH1 0x20 SWAP4 DUP4 PUSH2 0x2DEC JUMP JUMPDEST DUP2 ADD SUB SLT PUSH2 0x74A JUMPI PUSH2 0x10A9 PUSH2 0x10E0 PUSH2 0xF34 SWAP4 PUSH2 0x2E0E JUMP JUMPDEST SWAP3 POP PUSH2 0x109C JUMP JUMPDEST RETURNDATASIZE SWAP2 POP PUSH2 0x10BC JUMP JUMPDEST SWAP2 SWAP1 POP PUSH1 0x20 DUP3 RETURNDATASIZE PUSH1 0x20 GT PUSH2 0x112F JUMPI JUMPDEST DUP2 PUSH2 0x110B PUSH1 0x20 SWAP4 DUP4 PUSH2 0x2DEC JUMP JUMPDEST DUP2 ADD SUB SLT PUSH2 0x74A JUMPI PUSH1 0x20 SWAP3 PUSH2 0x105A PUSH2 0x1125 PUSH2 0x108A SWAP5 PUSH2 0x2E0E JUMP JUMPDEST SWAP3 SWAP4 POP POP SWAP3 PUSH2 0x1049 JUMP JUMPDEST RETURNDATASIZE SWAP2 POP PUSH2 0x10FE JUMP JUMPDEST PUSH1 0x40 MLOAD PUSH3 0x461BCD PUSH1 0xE5 SHL DUP2 MSTORE PUSH1 0x20 PUSH1 0x4 DUP3 ADD MSTORE PUSH1 0x16 PUSH1 0x24 DUP3 ADD MSTORE PUSH32 0x5061727420636F756E74206D757374206265203E203000000000000000000000 PUSH1 0x44 DUP3 ADD MSTORE PUSH1 0x64 SWAP1 REVERT JUMPDEST PUSH1 0x40 MLOAD PUSH3 0x461BCD PUSH1 0xE5 SHL DUP2 MSTORE PUSH1 0x20 PUSH1 0x4 DUP3 ADD MSTORE PUSH1 0x16 PUSH1 0x24 DUP3 ADD MSTORE PUSH32 0x4E6F7420656E6F75676820746F6B656E73206C65667400000000000000000000 PUSH1 0x44 DUP3 ADD MSTORE PUSH1 0x64 SWAP1 REVERT JUMPDEST PUSH1 0x40 MLOAD PUSH3 0x461BCD PUSH1 0xE5 SHL DUP2 MSTORE PUSH1 0x20 PUSH1 0x4 DUP3 ADD MSTORE PUSH1 0x14 PUSH1 0x24 DUP3 ADD MSTORE PUSH32 0x43616E6E6F74206275792066726F6D2073656C66000000000000000000000000 PUSH1 0x44 DUP3 ADD MSTORE PUSH1 0x64 SWAP1 REVERT JUMPDEST PUSH1 0x40 MLOAD PUSH3 0x461BCD PUSH1 0xE5 SHL DUP2 MSTORE PUSH1 0x20 PUSH1 0x4 DUP3 ADD MSTORE PUSH1 0x14 PUSH1 0x24 DUP3 ADD MSTORE PUSH32 0x436865636B20646F6573206E6F74206578697374000000000000000000000000 PUSH1 0x44 DUP3 ADD MSTORE PUSH1 0x64 SWAP1 REVERT JUMPDEST POP CALLVALUE PUSH2 0x27F JUMPI PUSH1 0x20 CALLDATASIZE PUSH1 0x3 NOT ADD SLT PUSH2 0x27F JUMPI PUSH2 0x1265 PUSH2 0x2BCD JUMP JUMPDEST DUP2 PUSH1 0x1 PUSH1 0x1 PUSH1 0xA0 SHL SUB PUSH1 0x24 DUP2 PUSH1 0x2 SLOAD PUSH1 0x8 SHR AND SWAP4 PUSH1 0x40 MLOAD SWAP5 DUP6 SWAP4 DUP5 SWAP3 PUSH4 0x699426C7 PUSH1 0xE1 SHL DUP5 MSTORE AND PUSH1 0x4 DUP4 ADD MSTORE GAS STATICCALL SWAP1 DUP2 ISZERO PUSH2 0x12DA JUMPI DUP3 PUSH2 0x12B3 SWAP4 SWAP3 PUSH2 0x12B7 JUMPI JUMPDEST POP POP PUSH1 0x40 MLOAD SWAP2 DUP3 SWAP2 DUP3 PUSH2 0x2D23 JUMP JUMPDEST SUB SWAP1 RETURN JUMPDEST PUSH2 0x12D3 SWAP3 POP RETURNDATASIZE DUP1 SWAP2 DUP4 RETURNDATACOPY PUSH2 0x12CB DUP2 DUP4 PUSH2 0x2DEC JUMP JUMPDEST DUP2 ADD SWAP1 PUSH2 0x32D3 JUMP JUMPDEST PUSH0 DUP1 PUSH2 0x12A5 JUMP JUMPDEST PUSH1 0x40 MLOAD RETURNDATASIZE DUP5 DUP3 RETURNDATACOPY RETURNDATASIZE SWAP1 REVERT JUMPDEST POP CALLVALUE PUSH2 0x27F JUMPI PUSH1 0x20 CALLDATASIZE PUSH1 0x3 NOT ADD SLT PUSH2 0x27F JUMPI PUSH2 0x12FF PUSH2 0x2BCD JUMP JUMPDEST DUP2 PUSH1 0x1 PUSH1 0x1 PUSH1 0xA0 SHL SUB PUSH1 0x24 DUP2 PUSH1 0x2 SLOAD PUSH1 0x8 SHR AND SWAP4 PUSH1 0x40 MLOAD SWAP5 DUP6 SWAP4 DUP5 SWAP3 PUSH4 0xD25285F5 PUSH1 0xE0 SHL DUP5 MSTORE AND PUSH1 0x4 DUP4 ADD MSTORE GAS STATICCALL SWAP1 DUP2 ISZERO PUSH2 0x12DA JUMPI DUP3 SWAP2 PUSH2 0x13F0 JUMPI JUMPDEST POP SWAP1 PUSH1 0x40 MLOAD SWAP2 DUP3 SWAP2 PUSH1 0x20 DUP4 ADD PUSH1 0x20 DUP5 MSTORE DUP3 MLOAD DUP1 SWAP2 MSTORE PUSH1 0x40 DUP5 ADD PUSH1 0x20 PUSH1 0x40 DUP4 PUSH1 0x5 SHL DUP8 ADD ADD SWAP5 ADD SWAP3 SWAP1 JUMPDEST DUP3 DUP3 LT PUSH2 0x1373 JUMPI POP POP POP POP SUB SWAP1 RETURN JUMPDEST SWAP2 SWAP4 PUSH1 0x1 SWAP2 SWAP4 SWAP6 POP PUSH1 0x20 DUP1 SWAP2 PUSH1 0x3F NOT DUP10 DUP3 SUB ADD DUP6 MSTORE DUP8 MLOAD SWAP1 PUSH1 0x80 DUP1 PUSH2 0x13DA PUSH2 0x13A4 DUP6 MLOAD PUSH1 0xA0 DUP7 MSTORE PUSH1 0xA0 DUP7 ADD SWAP1 PUSH2 0x2C31 JUMP JUMPDEST PUSH1 0x1 PUSH1 0x1 PUSH1 0xA0 SHL SUB DUP8 DUP8 ADD MLOAD AND DUP8 DUP7 ADD MSTORE PUSH1 0x1 PUSH1 0x1 PUSH1 0xA0 SHL SUB PUSH1 0x40 DUP8 ADD MLOAD AND PUSH1 0x40 DUP7 ADD MSTORE PUSH1 0x60 DUP7 ADD MLOAD DUP6 DUP3 SUB PUSH1 0x60 DUP8 ADD MSTORE PUSH2 0x2C0D JUMP JUMPDEST SWAP4 ADD MLOAD SWAP2 ADD MSTORE SWAP7 ADD SWAP3 ADD SWAP3 ADD DUP6 SWAP5 SWAP4 SWAP2 SWAP3 PUSH2 0x1364 JUMP JUMPDEST SWAP1 POP RETURNDATASIZE DUP1 DUP4 DUP4 RETURNDATACOPY PUSH2 0x1401 DUP2 DUP4 PUSH2 0x2DEC JUMP JUMPDEST DUP2 ADD SWAP1 PUSH1 0x20 DUP2 DUP4 SUB SLT PUSH2 0x8D6 JUMPI DUP1 MLOAD SWAP1 PUSH8 0xFFFFFFFFFFFFFFFF DUP3 GT PUSH2 0x6F9 JUMPI ADD DUP2 PUSH1 0x1F DUP3 ADD SLT ISZERO PUSH2 0x8D6 JUMPI DUP1 MLOAD SWAP1 PUSH2 0x1438 DUP3 PUSH2 0x31CB JUMP JUMPDEST SWAP3 PUSH2 0x1446 PUSH1 0x40 MLOAD SWAP5 DUP6 PUSH2 0x2DEC JUMP JUMPDEST DUP3 DUP5 MSTORE PUSH1 0x20 DUP1 DUP6 ADD SWAP4 PUSH1 0x5 SHL DUP4 ADD ADD SWAP2 DUP2 DUP4 GT PUSH2 0x731 JUMPI PUSH1 0x20 DUP2 ADD SWAP4 JUMPDEST DUP4 DUP6 LT PUSH2 0x1475 JUMPI POP POP POP POP POP PUSH0 PUSH2 0x133B JUMP JUMPDEST DUP5 MLOAD PUSH8 0xFFFFFFFFFFFFFFFF DUP2 GT PUSH2 0x152E JUMPI DUP3 ADD PUSH1 0xA0 DUP2 DUP6 SUB PUSH1 0x1F NOT ADD SLT PUSH2 0x152E JUMPI PUSH1 0x40 MLOAD SWAP2 PUSH2 0x14A3 DUP4 PUSH2 0x2DBC JUMP JUMPDEST PUSH1 0x20 DUP3 ADD MLOAD PUSH8 0xFFFFFFFFFFFFFFFF DUP2 GT PUSH2 0x152A JUMPI DUP6 PUSH1 0x20 PUSH2 0x14C6 SWAP3 DUP6 ADD ADD PUSH2 0x31E3 JUMP JUMPDEST DUP4 MSTORE PUSH2 0x14D4 PUSH1 0x40 DUP4 ADD PUSH2 0x2E7B JUMP JUMPDEST PUSH1 0x20 DUP5 ADD MSTORE PUSH2 0x14E5 PUSH1 0x60 DUP4 ADD PUSH2 0x2E7B JUMP JUMPDEST PUSH1 0x40 DUP5 ADD MSTORE PUSH1 0x80 DUP3 ADD MLOAD SWAP3 PUSH8 0xFFFFFFFFFFFFFFFF DUP5 GT PUSH2 0x152A JUMPI PUSH1 0xA0 DUP4 PUSH2 0x1513 DUP9 PUSH1 0x20 DUP1 SWAP9 DUP2 SWAP9 ADD ADD PUSH2 0x2E8F JUMP JUMPDEST PUSH1 0x60 DUP5 ADD MSTORE ADD MLOAD PUSH1 0x80 DUP3 ADD MSTORE DUP2 MSTORE ADD SWAP5 ADD SWAP4 PUSH2 0x1463 JUMP JUMPDEST DUP10 DUP1 REVERT JUMPDEST DUP8 DUP1 REVERT JUMPDEST POP CALLVALUE PUSH2 0x27F JUMPI PUSH1 0x40 CALLDATASIZE PUSH1 0x3 NOT ADD SLT PUSH2 0x27F JUMPI PUSH2 0x1596 SWAP1 PUSH1 0x20 PUSH2 0x1552 PUSH2 0x2BCD JUMP JUMPDEST PUSH1 0x1 PUSH1 0x1 PUSH1 0xA0 SHL SUB PUSH1 0x2 SLOAD PUSH1 0x8 SHR AND PUSH1 0x40 MLOAD DUP1 DUP1 SWAP7 DUP2 SWAP5 PUSH4 0xCDB3CD25 PUSH1 0xE0 SHL DUP4 MSTORE PUSH1 0x24 CALLDATALOAD SWAP1 PUSH1 0x4 DUP5 ADD PUSH1 0x20 SWAP1 SWAP4 SWAP3 SWAP2 SWAP4 PUSH1 0x1 PUSH1 0x1 PUSH1 0xA0 SHL SUB PUSH1 0x40 DUP3 ADD SWAP6 AND DUP2 MSTORE ADD MSTORE JUMP JUMPDEST SUB SWAP2 GAS STATICCALL SWAP1 DUP2 ISZERO PUSH2 0x15F2 JUMPI DUP1 SWAP2 PUSH2 0x15B5 JUMPI JUMPDEST PUSH1 0x20 DUP3 PUSH1 0x40 MLOAD SWAP1 ISZERO ISZERO DUP2 MSTORE RETURN JUMPDEST SWAP1 POP PUSH1 0x20 DUP3 RETURNDATASIZE PUSH1 0x20 GT PUSH2 0x15EA JUMPI JUMPDEST DUP2 PUSH2 0x15D0 PUSH1 0x20 SWAP4 DUP4 PUSH2 0x2DEC JUMP JUMPDEST DUP2 ADD SUB SLT PUSH2 0x27F JUMPI POP PUSH2 0x15E4 PUSH1 0x20 SWAP2 PUSH2 0x2E0E JUMP JUMPDEST PUSH0 PUSH2 0x15A8 JUMP JUMPDEST RETURNDATASIZE SWAP2 POP PUSH2 0x15C3 JUMP JUMPDEST PUSH1 0x40 MLOAD SWAP1 RETURNDATASIZE SWAP1 DUP3 RETURNDATACOPY RETURNDATASIZE SWAP1 REVERT JUMPDEST POP CALLVALUE PUSH2 0x27F JUMPI DUP1 PUSH1 0x3 NOT CALLDATASIZE ADD SLT PUSH2 0x27F JUMPI PUSH1 0x4 SWAP1 PUSH1 0x20 PUSH1 0x1 PUSH1 0x1 PUSH1 0xA0 SHL SUB PUSH1 0x2 SLOAD PUSH1 0x8 SHR AND PUSH1 0x40 MLOAD SWAP4 DUP5 DUP1 SWAP3 PUSH4 0x319EEF09 PUSH1 0xE2 SHL DUP3 MSTORE GAS STATICCALL SWAP1 DUP2 ISZERO PUSH2 0x15F2 JUMPI SWAP1 PUSH2 0x164E JUMPI JUMPDEST PUSH1 0x20 SWAP1 PUSH1 0x40 MLOAD SWAP1 DUP2 MSTORE RETURN JUMPDEST POP PUSH1 0x20 DUP2 RETURNDATASIZE PUSH1 0x20 GT PUSH2 0x167D JUMPI JUMPDEST DUP2 PUSH2 0x1668 PUSH1 0x20 SWAP4 DUP4 PUSH2 0x2DEC JUMP JUMPDEST DUP2 ADD SUB SLT PUSH2 0x1679 JUMPI PUSH1 0x20 SWAP1 MLOAD PUSH2 0x1643 JUMP JUMPDEST PUSH0 DUP1 REVERT JUMPDEST RETURNDATASIZE SWAP2 POP PUSH2 0x165B JUMP JUMPDEST POP CALLVALUE PUSH2 0x27F JUMPI PUSH1 0x20 CALLDATASIZE PUSH1 0x3 NOT ADD SLT PUSH2 0x27F JUMPI PUSH2 0x169F PUSH2 0x2BCD JUMP JUMPDEST DUP2 PUSH1 0x1 PUSH1 0x1 PUSH1 0xA0 SHL SUB PUSH1 0x24 DUP2 PUSH1 0x3 SLOAD AND SWAP4 PUSH1 0x40 MLOAD SWAP5 DUP6 SWAP4 DUP5 SWAP3 PUSH4 0xFE15803 PUSH1 0xE3 SHL DUP5 MSTORE AND PUSH1 0x4 DUP4 ADD MSTORE GAS STATICCALL SWAP1 DUP2 ISZERO PUSH2 0x12DA JUMPI DUP3 SWAP2 PUSH2 0x179A JUMPI JUMPDEST POP SWAP1 PUSH1 0x40 MLOAD SWAP2 DUP3 SWAP2 PUSH1 0x20 DUP4 ADD PUSH1 0x20 DUP5 MSTORE DUP3 MLOAD DUP1 SWAP2 MSTORE PUSH1 0x40 DUP5 ADD PUSH1 0x20 PUSH1 0x40 DUP4 PUSH1 0x5 SHL DUP8 ADD ADD SWAP5 ADD SWAP3 SWAP1 JUMPDEST DUP3 DUP3 LT PUSH2 0x1710 JUMPI POP POP POP POP SUB SWAP1 RETURN JUMPDEST SWAP2 SWAP4 PUSH1 0x1 SWAP2 SWAP4 SWAP6 POP PUSH1 0x20 DUP1 SWAP2 PUSH1 0x3F NOT DUP10 DUP3 SUB ADD DUP6 MSTORE DUP8 MLOAD SWAP1 DUP2 MLOAD DUP2 MSTORE DUP3 DUP3 ADD MLOAD DUP4 DUP3 ADD MSTORE PUSH1 0xC0 PUSH1 0x1 PUSH1 0x1 PUSH1 0xA0 SHL SUB DUP2 PUSH2 0x176D PUSH2 0x175B PUSH1 0x40 DUP8 ADD MLOAD PUSH1 0xE0 PUSH1 0x40 DUP9 ADD MSTORE PUSH1 0xE0 DUP8 ADD SWAP1 PUSH2 0x2C0D JUMP JUMPDEST PUSH1 0x60 DUP8 ADD MLOAD DUP7 DUP3 SUB PUSH1 0x60 DUP9 ADD MSTORE PUSH2 0x2C0D JUMP JUMPDEST SWAP5 PUSH1 0x80 DUP2 ADD MLOAD PUSH1 0x80 DUP7 ADD MSTORE DUP3 PUSH1 0xA0 DUP3 ADD MLOAD AND PUSH1 0xA0 DUP7 ADD MSTORE ADD MLOAD AND SWAP2 ADD MSTORE SWAP7 ADD SWAP3 ADD SWAP3 ADD DUP6 SWAP5 SWAP4 SWAP2 SWAP3 PUSH2 0x1701 JUMP JUMPDEST SWAP1 POP RETURNDATASIZE DUP1 DUP4 DUP4 RETURNDATACOPY PUSH2 0x17AB DUP2 DUP4 PUSH2 0x2DEC JUMP JUMPDEST DUP2 ADD SWAP1 PUSH1 0x20 DUP2 DUP4 SUB SLT PUSH2 0x8D6 JUMPI DUP1 MLOAD SWAP1 PUSH8 0xFFFFFFFFFFFFFFFF DUP3 GT PUSH2 0x6F9 JUMPI ADD DUP2 PUSH1 0x1F DUP3 ADD SLT ISZERO PUSH2 0x8D6 JUMPI DUP1 MLOAD SWAP1 PUSH2 0x17E2 DUP3 PUSH2 0x31CB JUMP JUMPDEST SWAP3 PUSH2 0x17F0 PUSH1 0x40 MLOAD SWAP5 DUP6 PUSH2 0x2DEC JUMP JUMPDEST DUP3 DUP5 MSTORE PUSH1 0x20 DUP1 DUP6 ADD SWAP4 PUSH1 0x5 SHL DUP4 ADD ADD SWAP2 DUP2 DUP4 GT PUSH2 0x731 JUMPI PUSH1 0x20 DUP2 ADD SWAP4 JUMPDEST DUP4 DUP6 LT PUSH2 0x181F JUMPI POP POP POP POP POP PUSH0 PUSH2 0x16D8 JUMP JUMPDEST DUP5 MLOAD PUSH8 0xFFFFFFFFFFFFFFFF DUP2 GT PUSH2 0x152E JUMPI DUP3 ADD SWAP1 PUSH1 0xE0 DUP3 DUP6 SUB PUSH1 0x1F NOT ADD SLT PUSH2 0x152E JUMPI PUSH1 0x40 MLOAD SWAP1 PUSH1 0xE0 DUP3 ADD DUP3 DUP2 LT PUSH8 0xFFFFFFFFFFFFFFFF DUP3 GT OR PUSH2 0x18FB JUMPI PUSH1 0x40 MSTORE PUSH1 0x20 DUP4 ADD MLOAD DUP3 MSTORE PUSH1 0x40 DUP4 ADD MLOAD PUSH1 0x20 DUP4 ADD MSTORE PUSH1 0x60 DUP4 ADD MLOAD PUSH8 0xFFFFFFFFFFFFFFFF DUP2 GT PUSH2 0x152A JUMPI DUP6 PUSH1 0x20 PUSH2 0x1893 SWAP3 DUP7 ADD ADD PUSH2 0x2E8F JUMP JUMPDEST PUSH1 0x40 DUP4 ADD MSTORE PUSH1 0x80 DUP4 ADD MLOAD SWAP2 PUSH8 0xFFFFFFFFFFFFFFFF DUP4 GT PUSH2 0x152A JUMPI PUSH2 0x18EB PUSH1 0xE0 DUP6 PUSH2 0x18C5 DUP10 PUSH1 0x20 DUP1 SWAP10 SWAP9 DUP2 SWAP10 ADD ADD PUSH2 0x2E8F JUMP JUMPDEST PUSH1 0x60 DUP6 ADD MSTORE PUSH1 0xA0 DUP2 ADD MLOAD PUSH1 0x80 DUP6 ADD MSTORE PUSH2 0x18E0 PUSH1 0xC0 DUP3 ADD PUSH2 0x2E7B JUMP JUMPDEST PUSH1 0xA0 DUP6 ADD MSTORE ADD PUSH2 0x2E7B JUMP JUMPDEST PUSH1 0xC0 DUP3 ADD MSTORE DUP2 MSTORE ADD SWAP5 ADD SWAP4 PUSH2 0x180D JUMP JUMPDEST PUSH4 0x4E487B71 PUSH1 0xE0 SHL DUP11 MSTORE PUSH1 0x41 PUSH1 0x4 MSTORE PUSH1 0x24 DUP11 REVERT JUMPDEST POP CALLVALUE PUSH2 0x27F JUMPI DUP1 PUSH1 0x3 NOT CALLDATASIZE ADD SLT PUSH2 0x27F JUMPI PUSH1 0x4 SWAP1 PUSH1 0x20 PUSH1 0x1 PUSH1 0x1 PUSH1 0xA0 SHL SUB PUSH1 0x2 SLOAD PUSH1 0x8 SHR AND PUSH1 0x40 MLOAD SWAP4 DUP5 DUP1 SWAP3 PUSH4 0x775A25E3 PUSH1 0xE0 SHL DUP3 MSTORE GAS STATICCALL SWAP1 DUP2 ISZERO PUSH2 0x15F2 JUMPI SWAP1 PUSH2 0x164E JUMPI PUSH1 0x20 SWAP1 PUSH1 0x40 MLOAD SWAP1 DUP2 MSTORE RETURN JUMPDEST POP CALLVALUE PUSH2 0x27F JUMPI DUP1 PUSH1 0x3 NOT CALLDATASIZE ADD SLT PUSH2 0x27F JUMPI PUSH1 0x20 PUSH1 0x1 PUSH1 0x1 PUSH1 0xA0 SHL SUB PUSH1 0x3 SLOAD AND PUSH1 0x40 MLOAD SWAP1 DUP2 MSTORE RETURN JUMPDEST POP CALLVALUE PUSH2 0x27F JUMPI DUP1 PUSH1 0x3 NOT CALLDATASIZE ADD SLT PUSH2 0x27F JUMPI CALLER DUP2 MSTORE PUSH1 0x6 PUSH1 0x20 MSTORE PUSH2 0x19AE PUSH1 0xFF PUSH1 0x40 DUP4 KECCAK256 SLOAD AND PUSH2 0x2D82 JUMP JUMPDEST DUP1 DUP1 DUP1 DUP1 PUSH1 0x1 PUSH1 0x1 PUSH1 0xA0 SHL SUB PUSH1 0x4 SLOAD AND SELFBALANCE SWAP1 DUP3 DUP3 ISZERO PUSH2 0x19D1 JUMPI JUMPDEST CALL ISZERO PUSH2 0x15F2 JUMPI DUP1 RETURN JUMPDEST POP PUSH2 0x8FC PUSH2 0x19C8 JUMP JUMPDEST POP CALLVALUE PUSH2 0x27F JUMPI PUSH1 0x20 CALLDATASIZE PUSH1 0x3 NOT ADD SLT PUSH2 0x27F JUMPI PUSH1 0xFF PUSH1 0x40 PUSH1 0x20 SWAP3 PUSH1 0x1 PUSH1 0x1 PUSH1 0xA0 SHL SUB PUSH2 0x1A03 PUSH2 0x2BCD JUMP JUMPDEST AND DUP2 MSTORE PUSH1 0x6 DUP5 MSTORE KECCAK256 SLOAD AND PUSH1 0x40 MLOAD SWAP1 ISZERO ISZERO DUP2 MSTORE RETURN JUMPDEST POP CALLVALUE PUSH2 0x27F JUMPI PUSH1 0x20 CALLDATASIZE PUSH1 0x3 NOT ADD SLT PUSH2 0x27F JUMPI PUSH1 0xFF PUSH1 0x40 PUSH1 0x20 SWAP3 PUSH1 0x4 CALLDATALOAD DUP2 MSTORE PUSH1 0x9 DUP5 MSTORE KECCAK256 SLOAD AND PUSH1 0x40 MLOAD SWAP1 ISZERO ISZERO DUP2 MSTORE RETURN JUMPDEST POP CALLVALUE PUSH2 0x27F JUMPI DUP1 PUSH1 0x3 NOT CALLDATASIZE ADD SLT PUSH2 0x27F JUMPI PUSH1 0x4 SWAP1 PUSH1 0x20 PUSH1 0x1 PUSH1 0x1 PUSH1 0xA0 SHL SUB PUSH1 0x2 SLOAD PUSH1 0x8 SHR AND PUSH1 0x40 MLOAD SWAP4 DUP5 DUP1 SWAP3 PUSH4 0x1514DAA7 PUSH1 0xE3 SHL DUP3 MSTORE GAS STATICCALL SWAP1 DUP2 ISZERO PUSH2 0x15F2 JUMPI SWAP1 PUSH2 0x164E JUMPI PUSH1 0x20 SWAP1 PUSH1 0x40 MLOAD SWAP1 DUP2 MSTORE RETURN JUMPDEST POP CALLVALUE PUSH2 0x27F JUMPI PUSH1 0x20 CALLDATASIZE PUSH1 0x3 NOT ADD SLT PUSH2 0x27F JUMPI PUSH2 0x1AAF PUSH2 0x2BCD JUMP JUMPDEST SWAP1 PUSH1 0x20 PUSH1 0x1 PUSH1 0x1 PUSH1 0xA0 SHL SUB PUSH1 0x24 DUP2 PUSH1 0x2 SLOAD PUSH1 0x8 SHR AND SWAP5 PUSH1 0x40 MLOAD SWAP6 DUP7 SWAP4 DUP5 SWAP3 PUSH4 0x52A123D7 PUSH1 0xE1 SHL DUP5 MSTORE AND PUSH1 0x4 DUP4 ADD MSTORE GAS STATICCALL SWAP1 DUP2 ISZERO PUSH2 0x15F2 JUMPI SWAP1 PUSH2 0x164E JUMPI PUSH1 0x20 SWAP1 PUSH1 0x40 MLOAD SWAP1 DUP2 MSTORE RETURN JUMPDEST POP CALLVALUE PUSH2 0x27F JUMPI PUSH1 0x20 CALLDATASIZE PUSH1 0x3 NOT ADD SLT PUSH2 0x27F JUMPI PUSH1 0x40 PUSH1 0xC0 SWAP2 PUSH1 0x4 CALLDATALOAD DUP2 MSTORE PUSH1 0x8 PUSH1 0x20 MSTORE KECCAK256 PUSH1 0x1 PUSH1 0x1 PUSH1 0xA0 SHL SUB DUP2 SLOAD AND SWAP1 PUSH1 0x1 PUSH1 0x1 PUSH1 0xA0 SHL SUB PUSH1 0x1 DUP3 ADD SLOAD AND SWAP1 PUSH1 0x2 DUP2 ADD SLOAD PUSH1 0x3 DUP3 ADD SLOAD SWAP1 PUSH1 0xFF PUSH1 0x5 PUSH1 0x4 DUP6 ADD SLOAD SWAP5 ADD SLOAD AND SWAP4 PUSH1 0x40 MLOAD SWAP6 DUP7 MSTORE PUSH1 0x20 DUP7 ADD MSTORE PUSH1 0x40 DUP6 ADD MSTORE PUSH1 0x60 DUP5 ADD MSTORE PUSH1 0x80 DUP4 ADD MSTORE ISZERO ISZERO PUSH1 0xA0 DUP3 ADD MSTORE RETURN JUMPDEST POP CALLVALUE PUSH2 0x27F JUMPI DUP1 PUSH2 0x1B7F CALLDATASIZE PUSH2 0x2BF7 JUMP JUMPDEST PUSH1 0x44 PUSH1 0x1 PUSH1 0x1 PUSH1 0xA0 SHL SUB PUSH1 0x2 SWAP5 SWAP4 SWAP5 SLOAD PUSH1 0x8 SHR AND SWAP4 PUSH1 0x40 MLOAD SWAP5 DUP6 SWAP4 DUP5 SWAP3 PUSH4 0x8F72FC77 PUSH1 0xE0 SHL DUP5 MSTORE PUSH1 0x4 DUP5 ADD MSTORE PUSH1 0x24 DUP4 ADD MSTORE GAS STATICCALL SWAP1 DUP2 ISZERO PUSH2 0x12DA JUMPI DUP3 PUSH2 0x12B3 SWAP4 SWAP3 PUSH2 0x12B7 JUMPI POP POP PUSH1 0x40 MLOAD SWAP2 DUP3 SWAP2 DUP3 PUSH2 0x2D23 JUMP JUMPDEST POP CALLVALUE PUSH2 0x27F JUMPI DUP1 PUSH1 0x3 NOT CALLDATASIZE ADD SLT PUSH2 0x27F JUMPI PUSH1 0x1 PUSH1 0x1 PUSH1 0xA0 SHL SUB PUSH1 0x20 SWAP2 SLOAD AND PUSH1 0x40 MLOAD SWAP1 DUP2 MSTORE RETURN JUMPDEST POP CALLVALUE PUSH2 0x27F JUMPI PUSH1 0x20 CALLDATASIZE PUSH1 0x3 NOT ADD SLT PUSH2 0x27F JUMPI DUP1 PUSH1 0x1 PUSH1 0x1 PUSH1 0xA0 SHL SUB PUSH2 0x1C1A PUSH2 0x2BCD JUMP JUMPDEST PUSH2 0x1C22 PUSH2 0x3491 JUMP JUMPDEST AND PUSH1 0x40 MLOAD PUSH4 0x70A08231 PUSH1 0xE0 SHL DUP2 MSTORE ADDRESS PUSH1 0x4 DUP3 ADD MSTORE PUSH1 0x20 DUP2 PUSH1 0x24 DUP2 DUP6 GAS STATICCALL SWAP1 DUP2 ISZERO PUSH2 0xF76 JUMPI DUP4 SWAP2 PUSH2 0x1CBB JUMPI JUMPDEST POP PUSH1 0x40 MLOAD PUSH4 0xA9059CBB PUSH1 0xE0 SHL DUP2 MSTORE CALLER PUSH1 0x4 DUP3 ADD MSTORE PUSH1 0x24 DUP2 ADD SWAP2 SWAP1 SWAP2 MSTORE SWAP2 PUSH1 0x20 SWAP2 DUP4 SWAP2 PUSH1 0x44 SWAP2 DUP4 SWAP2 SWAP1 GAS CALL DUP1 ISZERO PUSH2 0x12DA JUMPI PUSH2 0x1C85 JUMPI POP DUP1 RETURN JUMPDEST PUSH1 0x20 DUP2 RETURNDATASIZE PUSH1 0x20 GT PUSH2 0x1CB3 JUMPI JUMPDEST DUP2 PUSH2 0x1C9E PUSH1 0x20 SWAP4 DUP4 PUSH2 0x2DEC JUMP JUMPDEST DUP2 ADD SUB SLT PUSH2 0x6D6 JUMPI PUSH2 0x1CAF SWAP1 PUSH2 0x2E0E JUMP JUMPDEST POP DUP1 RETURN JUMPDEST RETURNDATASIZE SWAP2 POP PUSH2 0x1C91 JUMP JUMPDEST SWAP3 POP POP PUSH1 0x20 DUP3 RETURNDATASIZE PUSH1 0x20 GT PUSH2 0x1CEB JUMPI JUMPDEST DUP2 PUSH2 0x1CD7 PUSH1 0x20 SWAP4 DUP4 PUSH2 0x2DEC JUMP JUMPDEST DUP2 ADD SUB SLT PUSH2 0x1679 JUMPI SWAP1 MLOAD DUP3 SWAP2 SWAP1 PUSH1 0x20 PUSH2 0x1C4D JUMP JUMPDEST RETURNDATASIZE SWAP2 POP PUSH2 0x1CCA JUMP JUMPDEST POP CALLVALUE PUSH2 0x27F JUMPI PUSH1 0x20 CALLDATASIZE PUSH1 0x3 NOT ADD SLT PUSH2 0x27F JUMPI PUSH1 0x4 CALLDATALOAD PUSH1 0x1 PUSH1 0x1 PUSH1 0xA0 SHL SUB PUSH1 0x2 SLOAD PUSH2 0x1D1F PUSH1 0xFF DUP3 AND PUSH2 0x2E1B JUMP JUMPDEST PUSH1 0x8 SHR AND SWAP1 PUSH1 0x40 MLOAD SWAP2 PUSH4 0x9C3F1E9 PUSH1 0xE4 SHL DUP4 MSTORE DUP2 PUSH1 0x4 DUP5 ADD MSTORE DUP4 DUP4 PUSH1 0x24 DUP2 DUP5 GAS STATICCALL DUP1 ISZERO PUSH2 0x1F43 JUMPI DUP5 SWAP2 DUP6 SWAP5 DUP7 SWAP4 DUP8 SWAP2 DUP9 SWAP5 PUSH2 0x1F07 JUMPI JUMPDEST POP SWAP1 PUSH2 0x1D66 PUSH2 0x1D7F SWAP3 PUSH2 0x300 PUSH2 0x311C JUMP JUMPDEST PUSH2 0x1D6E PUSH2 0x3157 JUMP JUMPDEST SWAP1 PUSH1 0x1 PUSH1 0x1 PUSH1 0xA0 SHL SUB AND CALLER EQ PUSH2 0x3021 JUMP JUMPDEST DUP6 PUSH1 0x40 SWAP2 DUP3 MLOAD PUSH2 0x1D8F DUP5 DUP3 PUSH2 0x2DEC JUMP JUMPDEST PUSH1 0x6 DUP2 MSTORE PUSH6 0x1D5B9B1A5CDD PUSH1 0xD2 SHL PUSH1 0x20 DUP3 ADD MSTORE DUP2 EXTCODESIZE ISZERO PUSH2 0x8D6 JUMPI DUP3 PUSH2 0x1DCA SWAP2 DUP6 MLOAD DUP1 SWAP4 DUP2 SWAP3 PUSH4 0x68FAE909 PUSH1 0xE1 SHL DUP4 MSTORE CALLER CALLER DUP14 PUSH1 0x4 DUP7 ADD PUSH2 0x30A3 JUMP JUMPDEST SUB DUP2 DUP4 DUP7 GAS CALL DUP1 ISZERO PUSH2 0x1EFD JUMPI SWAP1 DUP4 SWAP2 PUSH2 0x1EE8 JUMPI JUMPDEST POP POP DUP1 EXTCODESIZE ISZERO PUSH2 0x6D6 JUMPI DUP2 DUP1 SWAP2 PUSH1 0x24 DUP6 MLOAD DUP1 SWAP5 DUP2 SWAP4 PUSH4 0x87A61CBD PUSH1 0xE0 SHL DUP4 MSTORE DUP12 PUSH1 0x4 DUP5 ADD MSTORE GAS CALL DUP1 ISZERO PUSH2 0x1EDE JUMPI PUSH2 0x1EC1 JUMPI JUMPDEST POP PUSH32 0xC2E5B615CF4E487C1EAEE99C4BA32D9F239D32D36923CBBA42F7DE1B8EEE07E2 PUSH1 0x20 DUP7 PUSH2 0x1EB4 DUP8 DUP11 DUP9 DUP9 PUSH2 0x1E90 DUP5 MLOAD SWAP2 PUSH2 0x1E82 DUP10 DUP8 ADD MLOAD SWAP2 DUP1 DUP9 ADD MLOAD SWAP3 PUSH2 0x1E75 PUSH1 0x80 PUSH1 0x60 DUP12 ADD MLOAD SWAP11 ADD MLOAD SWAP7 PUSH2 0x140 DUP5 MLOAD SWAP15 DUP16 SWAP15 DUP16 SWAP1 DUP2 MSTORE ADD MSTORE PUSH2 0x140 DUP14 ADD SWAP1 PUSH2 0x2C0D JUMP JUMPDEST SWAP2 DUP12 DUP4 SUB SWAP1 DUP13 ADD MSTORE PUSH2 0x2C0D JUMP JUMPDEST SWAP1 DUP9 DUP3 SUB PUSH1 0x60 DUP11 ADD MSTORE PUSH2 0x2C0D JUMP JUMPDEST SWAP4 PUSH1 0x80 DUP8 ADD MSTORE PUSH1 0xA0 DUP7 ADD MSTORE CALLER PUSH1 0xC0 DUP7 ADD MSTORE PUSH1 0xE0 DUP6 ADD MSTORE DUP4 DUP3 SUB PUSH2 0x100 DUP6 ADD MSTORE PUSH2 0x2C0D JUMP JUMPDEST TIMESTAMP PUSH2 0x120 DUP4 ADD MSTORE SUB SWAP1 LOG1 DUP1 RETURN JUMPDEST DUP2 PUSH2 0x1ED0 SWAP2 SWAP7 SWAP6 SWAP4 SWAP5 SWAP7 PUSH2 0x2DEC JUMP JUMPDEST PUSH2 0x731 JUMPI SWAP2 SWAP3 SWAP1 DUP6 PUSH0 PUSH2 0x1E0F JUMP JUMPDEST DUP4 MLOAD RETURNDATASIZE DUP5 DUP3 RETURNDATACOPY RETURNDATASIZE SWAP1 REVERT JUMPDEST DUP2 PUSH2 0x1EF2 SWAP2 PUSH2 0x2DEC JUMP JUMPDEST PUSH2 0x6D6 JUMPI DUP2 PUSH0 PUSH2 0x1DDE JUMP JUMPDEST DUP5 MLOAD RETURNDATASIZE DUP6 DUP3 RETURNDATACOPY RETURNDATASIZE SWAP1 REVERT JUMPDEST SWAP2 POP POP PUSH2 0x1D66 SWAP6 POP PUSH2 0x1F29 SWAP2 SWAP4 POP PUSH2 0x1D7F SWAP3 POP RETURNDATASIZE DUP1 DUP9 DUP4 RETURNDATACOPY PUSH2 0x984 DUP2 DUP4 PUSH2 0x2DEC JUMP JUMPDEST POP SWAP5 SWAP13 SWAP3 SWAP11 SWAP5 SWAP10 POP SWAP4 SWAP8 SWAP4 SWAP7 POP SWAP3 SWAP5 POP SWAP3 POP PUSH2 0x1D55 SWAP2 POP POP JUMP JUMPDEST PUSH1 0x40 MLOAD RETURNDATASIZE DUP7 DUP3 RETURNDATACOPY RETURNDATASIZE SWAP1 REVERT JUMPDEST POP CALLVALUE PUSH2 0x27F JUMPI PUSH1 0x40 CALLDATASIZE PUSH1 0x3 NOT ADD SLT PUSH2 0x27F JUMPI PUSH1 0x20 PUSH2 0x1F76 PUSH2 0x1F6D PUSH2 0x2BCD JUMP JUMPDEST PUSH1 0x24 CALLDATALOAD SWAP1 PUSH2 0x3192 JUMP JUMPDEST PUSH1 0x40 MLOAD SWAP1 DUP2 MSTORE RETURN JUMPDEST POP CALLVALUE PUSH2 0x27F JUMPI DUP1 PUSH1 0x3 NOT CALLDATASIZE ADD SLT PUSH2 0x27F JUMPI PUSH2 0x1F97 PUSH2 0x3491 JUMP JUMPDEST DUP1 PUSH1 0x1 PUSH1 0x1 PUSH1 0xA0 SHL SUB DUP2 SLOAD DUP2 NOT DUP2 AND DUP4 SSTORE AND PUSH32 0x8BE0079C531659141344CD1FD0A4F28419497F9722A3DAAFE3B4186F6B6457E0 DUP3 DUP1 LOG3 DUP1 RETURN JUMPDEST POP CALLVALUE PUSH2 0x27F JUMPI PUSH1 0x20 CALLDATASIZE PUSH1 0x3 NOT ADD SLT PUSH2 0x27F JUMPI PUSH1 0x4 CALLDATALOAD PUSH2 0x1FED PUSH2 0x3491 JUMP JUMPDEST PUSH1 0x64 DUP2 LT ISZERO PUSH2 0x1FFC JUMPI PUSH1 0x5 SSTORE DUP1 RETURN JUMPDEST PUSH1 0x40 MLOAD PUSH3 0x461BCD PUSH1 0xE5 SHL DUP2 MSTORE PUSH1 0x20 PUSH1 0x4 DUP3 ADD MSTORE PUSH1 0x2 PUSH1 0x24 DUP3 ADD MSTORE PUSH2 0x2525 PUSH1 0xF0 SHL PUSH1 0x44 DUP3 ADD MSTORE PUSH1 0x64 SWAP1 REVERT JUMPDEST POP CALLVALUE PUSH2 0x27F JUMPI PUSH2 0x2035 CALLDATASIZE PUSH2 0x2BF7 JUMP JUMPDEST SWAP1 PUSH1 0x1 PUSH1 0x1 PUSH1 0xA0 SHL SUB PUSH1 0x2 SLOAD PUSH2 0x204D PUSH1 0xFF DUP3 AND PUSH2 0x2E1B JUMP JUMPDEST PUSH1 0x8 SHR AND SWAP2 PUSH1 0x40 MLOAD SWAP1 PUSH4 0x9C3F1E9 PUSH1 0xE4 SHL DUP3 MSTORE DUP3 PUSH1 0x4 DUP4 ADD MSTORE DUP5 DUP3 PUSH1 0x24 DUP2 DUP8 GAS STATICCALL SWAP4 DUP5 ISZERO PUSH2 0x9A3 JUMPI DUP6 SWAP5 DUP7 SWAP6 DUP8 SWAP5 DUP9 SWAP3 PUSH2 0x2219 JUMPI JUMPDEST POP SWAP1 PUSH2 0x2093 PUSH2 0x20AC SWAP3 PUSH2 0x300 PUSH2 0x311C JUMP JUMPDEST PUSH1 0x1 PUSH1 0x1 PUSH1 0xA0 SHL SUB PUSH2 0x20A3 PUSH2 0x3157 JUMP JUMPDEST SWAP2 AND CALLER EQ PUSH2 0x3021 JUMP JUMPDEST DUP1 EXTCODESIZE ISZERO PUSH2 0x731 JUMPI DUP6 PUSH1 0x40 MLOAD PUSH4 0xE0F2BDD3 PUSH1 0xE0 SHL DUP2 MSTORE DUP6 PUSH1 0x4 DUP3 ADD MSTORE DUP4 PUSH1 0x24 DUP3 ADD MSTORE DUP2 DUP2 PUSH1 0x44 DUP2 DUP4 DUP8 GAS CALL DUP1 ISZERO PUSH2 0x12DA JUMPI PUSH2 0x2204 JUMPI JUMPDEST POP POP DUP6 PUSH1 0x40 SWAP2 DUP3 MLOAD SWAP1 PUSH2 0x20F4 DUP5 DUP4 PUSH2 0x2DEC JUMP JUMPDEST PUSH1 0x6 DUP3 MSTORE PUSH6 0x757064617465 PUSH1 0xD0 SHL PUSH1 0x20 DUP4 ADD MSTORE DUP1 EXTCODESIZE ISZERO PUSH2 0x8D6 JUMPI DUP4 MLOAD PUSH4 0x68FAE909 PUSH1 0xE1 SHL DUP2 MSTORE SWAP2 DUP4 SWAP2 DUP4 SWAP2 DUP3 SWAP1 DUP5 SWAP1 DUP3 SWAP1 PUSH2 0x2135 SWAP1 CALLER DUP1 DUP16 PUSH1 0x4 DUP7 ADD PUSH2 0x30A3 JUMP JUMPDEST SUB SWAP3 GAS CALL DUP1 ISZERO PUSH2 0x1EDE JUMPI PUSH2 0x21E7 JUMPI JUMPDEST POP PUSH32 0x8C8B7B2BE083296D0432A677D71942FD8901DD06FE9327B571917715C9BDE3DC PUSH1 0x20 DUP7 PUSH2 0x1EB4 DUP8 DUP11 DUP9 PUSH2 0x21C8 DUP10 PUSH2 0x21BA DUP6 MLOAD PUSH2 0x21AC DUP11 DUP9 ADD MLOAD SWAP2 PUSH2 0x140 DUP6 DUP11 ADD MLOAD SWAP6 PUSH1 0x80 PUSH1 0x60 DUP13 ADD MLOAD SWAP12 ADD MLOAD SWAP9 DUP2 MLOAD SWAP15 DUP16 SWAP15 DUP16 SWAP1 DUP2 MSTORE ADD MSTORE DUP13 ADD MSTORE PUSH2 0x140 DUP12 ADD SWAP1 PUSH2 0x2C0D JUMP JUMPDEST SWAP1 DUP10 DUP3 SUB PUSH1 0x60 DUP12 ADD MSTORE PUSH2 0x2C0D JUMP JUMPDEST SWAP1 DUP8 DUP3 SUB PUSH1 0x80 DUP10 ADD MSTORE PUSH2 0x2C0D JUMP JUMPDEST SWAP3 PUSH1 0xA0 DUP7 ADD MSTORE PUSH1 0xC0 DUP6 ADD MSTORE CALLER PUSH1 0xE0 DUP6 ADD MSTORE DUP4 DUP3 SUB PUSH2 0x100 DUP6 ADD MSTORE PUSH2 0x2C0D JUMP JUMPDEST DUP2 PUSH2 0x21F6 SWAP2 SWAP7 SWAP6 SWAP4 SWAP5 SWAP7 PUSH2 0x2DEC JUMP JUMPDEST PUSH2 0x731 JUMPI SWAP2 SWAP3 SWAP1 DUP6 PUSH0 PUSH2 0x2144 JUMP JUMPDEST DUP2 PUSH2 0x220E SWAP2 PUSH2 0x2DEC JUMP JUMPDEST PUSH2 0x731 JUMPI DUP6 PUSH0 PUSH2 0x20E1 JUMP JUMPDEST SWAP1 POP PUSH2 0x2093 SWAP7 POP PUSH2 0x20AC SWAP5 POP PUSH2 0x2239 SWAP2 POP RETURNDATASIZE DUP1 DUP10 DUP4 RETURNDATACOPY PUSH2 0x984 DUP2 DUP4 PUSH2 0x2DEC JUMP JUMPDEST POP SWAP5 SWAP14 SWAP3 SWAP12 POP SWAP8 SWAP7 POP SWAP1 SWAP5 POP PUSH2 0x2082 SWAP4 POP POP POP POP JUMP JUMPDEST POP CALLVALUE PUSH2 0x27F JUMPI DUP1 PUSH1 0x3 NOT CALLDATASIZE ADD SLT PUSH2 0x27F JUMPI PUSH1 0x20 PUSH1 0x7 SLOAD PUSH1 0x40 MLOAD SWAP1 DUP2 MSTORE RETURN JUMPDEST POP CALLVALUE PUSH2 0x27F JUMPI DUP1 PUSH1 0x3 NOT CALLDATASIZE ADD SLT PUSH2 0x27F JUMPI PUSH1 0x20 PUSH1 0x1 PUSH1 0x1 PUSH1 0xA0 SHL SUB PUSH1 0x4 SLOAD AND PUSH1 0x40 MLOAD SWAP1 DUP2 MSTORE RETURN JUMPDEST POP CALLVALUE PUSH2 0x27F JUMPI DUP1 PUSH1 0x3 NOT CALLDATASIZE ADD SLT PUSH2 0x27F JUMPI PUSH2 0x22AD PUSH2 0x3491 JUMP JUMPDEST DUP1 DUP1 DUP1 DUP1 SELFBALANCE DUP2 DUP2 ISZERO PUSH2 0x22C5 JUMPI JUMPDEST CALLER SWAP1 CALL ISZERO PUSH2 0x15F2 JUMPI DUP1 RETURN JUMPDEST POP PUSH2 0x8FC PUSH2 0x22BA JUMP JUMPDEST POP CALLVALUE PUSH2 0x27F JUMPI PUSH1 0x20 CALLDATASIZE PUSH1 0x3 NOT ADD SLT PUSH2 0x27F JUMPI PUSH1 0x1 PUSH1 0x1 PUSH1 0xA0 SHL SUB PUSH2 0x22F0 PUSH2 0x2BCD JUMP JUMPDEST PUSH2 0x22F8 PUSH2 0x3491 JUMP JUMPDEST AND PUSH1 0x1 PUSH1 0x1 PUSH1 0xA0 SHL SUB NOT PUSH1 0x4 SLOAD AND OR PUSH1 0x4 SSTORE DUP1 RETURN JUMPDEST POP CALLVALUE PUSH2 0x1679 JUMPI PUSH1 0x20 CALLDATASIZE PUSH1 0x3 NOT ADD SLT PUSH2 0x1679 JUMPI PUSH1 0x4 CALLDATALOAD PUSH8 0xFFFFFFFFFFFFFFFF DUP2 GT PUSH2 0x1679 JUMPI DUP1 PUSH1 0x4 ADD DUP2 CALLDATASIZE SUB SWAP2 PUSH2 0x160 PUSH1 0x3 NOT DUP5 ADD SLT PUSH2 0x1679 JUMPI PUSH1 0x2 SLOAD PUSH2 0x2355 PUSH1 0xFF DUP3 AND PUSH2 0x2E1B JUMP JUMPDEST PUSH1 0x40 SWAP2 PUSH0 DUP1 PUSH2 0x23A0 PUSH2 0x23AE DUP7 MLOAD PUSH2 0x236C DUP9 DUP3 PUSH2 0x2DEC JUMP JUMPDEST PUSH1 0x4 DUP2 MSTORE PUSH4 0xC4C8CCD PUSH1 0xE2 SHL PUSH1 0x20 DUP3 ADD MSTORE DUP8 MLOAD SWAP3 DUP4 SWAP2 PUSH4 0x104C13EB PUSH1 0xE2 SHL PUSH1 0x20 DUP5 ADD MSTORE PUSH1 0x20 PUSH1 0x24 DUP5 ADD MSTORE PUSH1 0x44 DUP4 ADD SWAP1 PUSH2 0x2C0D JUMP JUMPDEST SUB PUSH1 0x1F NOT DUP2 ADD DUP4 MSTORE DUP3 PUSH2 0x2DEC JUMP JUMPDEST PUSH1 0x20 DUP2 MLOAD SWAP2 ADD PUSH11 0x636F6E736F6C652E6C6F67 GAS STATICCALL POP PUSH1 0x44 DUP2 ADD SWAP4 PUSH2 0x23D1 DUP6 PUSH2 0x2E67 JUMP JUMPDEST SWAP6 PUSH1 0x1 PUSH1 0x1 PUSH1 0xA0 SHL SUB PUSH2 0x23E9 PUSH1 0x64 DUP6 ADD CALLDATALOAD DUP1 SWAP10 PUSH2 0x3192 JUMP JUMPDEST SWAP5 PUSH1 0x8 SHR AND SWAP5 PUSH0 DUP1 PUSH2 0x23A0 PUSH2 0x243C DUP5 MLOAD PUSH2 0x2403 DUP7 DUP3 PUSH2 0x2DEC JUMP JUMPDEST PUSH1 0x4 DUP2 MSTORE PUSH4 0x68616861 PUSH1 0xE0 SHL PUSH1 0x20 DUP3 ADD MSTORE DUP6 MLOAD SWAP3 DUP4 SWAP2 PUSH4 0x759F86BB PUSH1 0xE0 SHL PUSH1 0x20 DUP5 ADD MSTORE DUP13 PUSH1 0x24 DUP5 ADD MSTORE DUP8 PUSH1 0x44 DUP5 ADD MSTORE PUSH1 0x64 DUP4 ADD SWAP1 PUSH2 0x2C0D JUMP JUMPDEST PUSH1 0x20 DUP2 MLOAD SWAP2 ADD PUSH11 0x636F6E736F6C652E6C6F67 GAS STATICCALL POP DUP1 MLOAD PUSH4 0x9C3F1E9 PUSH1 0xE4 SHL DUP2 MSTORE PUSH1 0x4 DUP2 ADD DUP7 SWAP1 MSTORE PUSH0 DUP2 PUSH1 0x24 DUP2 DUP11 GAS STATICCALL SWAP1 DUP2 ISZERO PUSH2 0x2980 JUMPI SWAP1 PUSH2 0x24BD SWAP2 PUSH0 SWAP2 PUSH2 0x2A09 JUMPI JUMPDEST POP DUP3 MLOAD SWAP1 PUSH2 0x248D DUP5 DUP4 PUSH2 0x2DEC JUMP JUMPDEST PUSH1 0x19 DUP3 MSTORE PUSH32 0x4E46544D61726B65743A3A6475706C6963617465642061736B00000000000000 PUSH1 0x20 DUP4 ADD MSTORE ISZERO PUSH2 0x3021 JUMP JUMPDEST PUSH1 0x1 PUSH1 0x1 PUSH1 0xA0 SHL SUB PUSH2 0x24CE DUP9 PUSH2 0x2E67 JUMP JUMPDEST AND DUP2 MLOAD PUSH4 0x31A9108F PUSH1 0xE1 SHL DUP2 MSTORE DUP10 PUSH1 0x4 DUP3 ADD MSTORE PUSH1 0x20 DUP2 PUSH1 0x24 DUP2 DUP6 GAS STATICCALL DUP1 ISZERO PUSH2 0x29C4 JUMPI PUSH0 SWAP1 PUSH2 0x29CE JUMPI JUMPDEST PUSH2 0x2543 SWAP2 POP DUP4 MLOAD SWAP1 PUSH2 0x2509 DUP6 DUP4 PUSH2 0x2DEC JUMP JUMPDEST PUSH1 0x14 DUP3 MSTORE PUSH32 0x4E46544D61726B65743A3A6E6F74206F776E6572000000000000000000000000 PUSH1 0x20 DUP4 ADD MSTORE PUSH1 0x1 PUSH1 0x1 PUSH1 0xA0 SHL SUB AND CALLER EQ PUSH2 0x3021 JUMP JUMPDEST DUP2 MLOAD PUSH4 0x20604BF PUSH1 0xE2 SHL DUP2 MSTORE PUSH1 0x4 DUP2 ADD DUP11 SWAP1 MSTORE PUSH1 0x20 DUP2 PUSH1 0x24 DUP2 DUP6 GAS STATICCALL SWAP1 DUP2 ISZERO PUSH2 0x29C4 JUMPI PUSH0 SWAP2 PUSH2 0x298A JUMPI JUMPDEST POP PUSH1 0x1 PUSH1 0x1 PUSH1 0xA0 SHL SUB AND ADDRESS EQ DUP1 ISZERO PUSH2 0x2908 JUMPI JUMPDEST PUSH2 0x25C1 SWAP2 POP DUP3 MLOAD SWAP1 PUSH2 0x2592 DUP5 DUP4 PUSH2 0x2DEC JUMP JUMPDEST PUSH1 0x17 DUP3 MSTORE PUSH32 0x4E46544D61726B65743A3A6E6F7420617070726F766564000000000000000000 PUSH1 0x20 DUP4 ADD MSTORE PUSH2 0x3021 JUMP JUMPDEST DUP6 EXTCODESIZE ISZERO PUSH2 0x1679 JUMPI DUP1 MLOAD SWAP7 PUSH4 0x4479A947 PUSH1 0xE1 SHL DUP9 MSTORE DUP6 PUSH1 0x4 DUP10 ADD MSTORE DUP2 PUSH1 0x24 DUP10 ADD MSTORE DUP4 CALLDATALOAD DUP1 ISZERO ISZERO DUP1 SWAP2 SUB PUSH2 0x1679 JUMPI PUSH1 0x44 DUP10 ADD MSTORE PUSH1 0x24 DUP6 ADD CALLDATALOAD PUSH1 0x64 DUP10 ADD MSTORE PUSH1 0x1 PUSH1 0x1 PUSH1 0xA0 SHL SUB PUSH2 0x260D DUP3 PUSH2 0x2BE3 JUMP JUMPDEST AND PUSH1 0x84 DUP10 ADD MSTORE DUP9 PUSH1 0xA4 DUP10 ADD MSTORE PUSH1 0x84 DUP6 ADD SWAP7 PUSH2 0x263E PUSH2 0x262B DUP10 DUP8 PUSH2 0x3051 JUMP JUMPDEST PUSH2 0x160 PUSH1 0xC4 DUP14 ADD MSTORE PUSH2 0x1A4 DUP13 ADD SWAP2 PUSH2 0x3083 JUMP JUMPDEST SWAP9 PUSH1 0x1 PUSH1 0x1 PUSH1 0xA0 SHL SUB PUSH2 0x2653 PUSH1 0xA4 DUP10 ADD PUSH2 0x2BE3 JUMP JUMPDEST AND PUSH1 0xE4 DUP3 ADD MSTORE PUSH1 0xC4 DUP8 ADD SWAP5 DUP6 CALLDATALOAD SWAP1 PUSH1 0xA2 NOT ADD DUP2 SLT ISZERO PUSH2 0x1679 JUMPI DUP2 DUP12 SUB PUSH1 0x43 NOT ADD PUSH2 0x104 DUP4 ADD MSTORE DUP8 ADD SWAP10 PUSH1 0x80 PUSH1 0x84 PUSH2 0x26DB DUP14 PUSH2 0x26CE PUSH1 0x4 DUP3 ADD PUSH1 0x44 PUSH2 0x26C6 PUSH2 0x26AB PUSH2 0x269D DUP5 DUP1 PUSH2 0x3051 JUMP JUMPDEST PUSH1 0xA0 DUP13 MSTORE PUSH1 0xA0 DUP13 ADD SWAP2 PUSH2 0x3083 JUMP JUMPDEST PUSH2 0x26B8 PUSH1 0x24 DUP8 ADD DUP6 PUSH2 0x3051 JUMP JUMPDEST SWAP1 DUP12 DUP4 SUB PUSH1 0x20 DUP14 ADD MSTORE PUSH2 0x3083 JUMP JUMPDEST SWAP4 ADD SWAP1 PUSH2 0x3051 JUMP JUMPDEST SWAP1 DUP7 DUP4 SUB DUP12 DUP9 ADD MSTORE PUSH2 0x3083 JUMP JUMPDEST SWAP13 PUSH1 0x64 DUP2 ADD CALLDATALOAD PUSH1 0x60 DUP6 ADD MSTORE ADD CALLDATALOAD SWAP2 ADD MSTORE PUSH1 0xE4 DUP8 ADD CALLDATALOAD PUSH2 0x124 DUP3 ADD MSTORE PUSH1 0x1 PUSH1 0x1 PUSH1 0xA0 SHL SUB PUSH2 0x270B PUSH2 0x104 DUP10 ADD PUSH2 0x2BE3 JUMP JUMPDEST AND PUSH2 0x144 DUP3 ADD MSTORE PUSH0 DUP2 DUP1 PUSH2 0x144 PUSH2 0x124 DUP12 ADD CALLDATALOAD SWAP11 DUP12 PUSH2 0x164 DUP5 ADD MSTORE ADD CALLDATALOAD SWAP13 DUP14 PUSH2 0x184 DUP4 ADD MSTORE SUB DUP2 DUP4 DUP7 GAS CALL DUP1 ISZERO PUSH2 0x28FE JUMPI PUSH2 0x28E9 JUMPI JUMPDEST POP DUP3 MLOAD DUP12 SWAP2 PUSH2 0x2750 DUP6 DUP4 PUSH2 0x2DEC JUMP JUMPDEST PUSH1 0x4 DUP3 MSTORE PUSH4 0x1B1A5CDD PUSH1 0xE2 SHL PUSH1 0x20 DUP4 ADD MSTORE DUP1 EXTCODESIZE ISZERO PUSH2 0x8D6 JUMPI PUSH2 0x27A4 SWAP2 DUP4 SWAP2 DUP11 DUP4 DUP9 MLOAD DUP1 SWAP7 DUP2 SWAP6 DUP3 SWAP5 PUSH4 0x68FAE909 PUSH1 0xE1 SHL DUP5 MSTORE PUSH1 0x4 DUP5 ADD MSTORE CALLER PUSH1 0x24 DUP5 ADD MSTORE DUP4 PUSH1 0x44 DUP5 ADD MSTORE PUSH1 0x80 PUSH1 0x64 DUP5 ADD MSTORE PUSH1 0x84 DUP4 ADD SWAP1 PUSH2 0x2C0D JUMP JUMPDEST SUB SWAP3 GAS CALL DUP1 ISZERO PUSH2 0x6CC JUMPI PUSH2 0x28D4 JUMPI JUMPDEST POP POP PUSH2 0x27BE SWAP1 PUSH2 0x2E67 JUMP JUMPDEST SWAP4 PUSH2 0x27C9 DUP4 DUP6 PUSH2 0x30D4 JUMP JUMPDEST DUP1 PUSH2 0x27D3 SWAP2 PUSH2 0x30E9 JUMP JUMPDEST SWAP8 SWAP1 SWAP5 PUSH2 0x27E0 DUP6 DUP3 PUSH2 0x30D4 JUMP JUMPDEST PUSH1 0x20 DUP2 ADD PUSH2 0x27ED SWAP2 PUSH2 0x30E9 JUMP JUMPDEST SWAP5 SWAP1 PUSH2 0x27F9 DUP8 DUP5 PUSH2 0x30D4 JUMP JUMPDEST DUP3 DUP2 ADD PUSH2 0x2805 SWAP2 PUSH2 0x30E9 JUMP JUMPDEST SWAP3 SWAP1 SWAP4 PUSH2 0x2812 DUP10 DUP3 PUSH2 0x30D4 JUMP JUMPDEST PUSH1 0x60 ADD CALLDATALOAD SWAP9 PUSH2 0x2821 SWAP1 DUP3 PUSH2 0x30D4 JUMP JUMPDEST PUSH1 0x80 ADD CALLDATALOAD SWAP6 PUSH2 0x282F SWAP2 PUSH2 0x30E9 JUMP JUMPDEST SWAP8 SWAP1 SWAP10 DUP3 MLOAD SWAP14 DUP15 SWAP14 DUP15 MSTORE DUP14 PUSH1 0x20 DUP2 ADD PUSH2 0x140 SWAP1 MSTORE PUSH2 0x140 ADD SWAP1 PUSH2 0x2851 SWAP3 PUSH2 0x3083 JUMP JUMPDEST SWAP2 DUP13 DUP4 SUB SWAP1 DUP14 ADD MSTORE PUSH2 0x2862 SWAP3 PUSH2 0x3083 JUMP JUMPDEST SWAP1 DUP10 DUP3 SUB PUSH1 0x60 DUP12 ADD MSTORE PUSH2 0x2874 SWAP3 PUSH2 0x3083 JUMP JUMPDEST SWAP4 PUSH1 0x80 DUP9 ADD MSTORE PUSH1 0xA0 DUP8 ADD MSTORE CALLER PUSH1 0xC0 DUP8 ADD MSTORE PUSH1 0xE0 DUP7 ADD MSTORE DUP5 DUP3 SUB PUSH2 0x100 DUP7 ADD MSTORE PUSH2 0x289C SWAP3 PUSH2 0x3083 JUMP JUMPDEST SWAP4 PUSH2 0x120 DUP4 ADD MSTORE PUSH1 0x1 PUSH1 0x1 PUSH1 0xA0 SHL SUB AND SWAP3 SUB PUSH32 0x8AAA5D02E82D84D5EE847B8B4F5B2811DAF8870A6DC77A7B689A71BF6D74E5DE SWAP2 LOG3 DUP1 RETURN JUMPDEST DUP2 PUSH2 0x28DE SWAP2 PUSH2 0x2DEC JUMP JUMPDEST PUSH2 0x152A JUMPI DUP10 PUSH0 PUSH2 0x27B3 JUMP JUMPDEST PUSH2 0x28F6 SWAP2 SWAP12 POP PUSH0 SWAP1 PUSH2 0x2DEC JUMP JUMPDEST PUSH0 SWAP10 PUSH0 PUSH2 0x2741 JUMP JUMPDEST DUP5 MLOAD RETURNDATASIZE PUSH0 DUP3 RETURNDATACOPY RETURNDATASIZE SWAP1 REVERT JUMPDEST POP DUP2 MLOAD PUSH4 0xE985E9C5 PUSH1 0xE0 SHL DUP2 MSTORE CALLER PUSH1 0x4 DUP3 ADD MSTORE ADDRESS PUSH1 0x24 DUP3 ADD MSTORE SWAP1 PUSH1 0x20 SWAP1 DUP3 SWAP1 PUSH1 0x44 SWAP1 DUP3 SWAP1 GAS STATICCALL DUP1 ISZERO PUSH2 0x2980 JUMPI PUSH0 SWAP1 PUSH2 0x2945 JUMPI JUMPDEST PUSH2 0x25C1 SWAP2 POP PUSH2 0x2580 JUMP JUMPDEST POP PUSH1 0x20 DUP2 RETURNDATASIZE PUSH1 0x20 GT PUSH2 0x2978 JUMPI JUMPDEST DUP2 PUSH2 0x295F PUSH1 0x20 SWAP4 DUP4 PUSH2 0x2DEC JUMP JUMPDEST DUP2 ADD SUB SLT PUSH2 0x1679 JUMPI PUSH2 0x2973 PUSH2 0x25C1 SWAP2 PUSH2 0x2E0E JUMP JUMPDEST PUSH2 0x293B JUMP JUMPDEST RETURNDATASIZE SWAP2 POP PUSH2 0x2952 JUMP JUMPDEST DUP3 MLOAD RETURNDATASIZE PUSH0 DUP3 RETURNDATACOPY RETURNDATASIZE SWAP1 REVERT JUMPDEST SWAP1 POP PUSH1 0x20 DUP2 RETURNDATASIZE PUSH1 0x20 GT PUSH2 0x29BC JUMPI JUMPDEST DUP2 PUSH2 0x29A5 PUSH1 0x20 SWAP4 DUP4 PUSH2 0x2DEC JUMP JUMPDEST DUP2 ADD SUB SLT PUSH2 0x1679 JUMPI PUSH2 0x29B6 SWAP1 PUSH2 0x2E7B JUMP JUMPDEST PUSH0 PUSH2 0x256D JUMP JUMPDEST RETURNDATASIZE SWAP2 POP PUSH2 0x2998 JUMP JUMPDEST DUP4 MLOAD RETURNDATASIZE PUSH0 DUP3 RETURNDATACOPY RETURNDATASIZE SWAP1 REVERT JUMPDEST POP PUSH1 0x20 DUP2 RETURNDATASIZE PUSH1 0x20 GT PUSH2 0x2A01 JUMPI JUMPDEST DUP2 PUSH2 0x29E8 PUSH1 0x20 SWAP4 DUP4 PUSH2 0x2DEC JUMP JUMPDEST DUP2 ADD SUB SLT PUSH2 0x1679 JUMPI PUSH2 0x29FC PUSH2 0x2543 SWAP2 PUSH2 0x2E7B JUMP JUMPDEST PUSH2 0x24F7 JUMP JUMPDEST RETURNDATASIZE SWAP2 POP PUSH2 0x29DB JUMP JUMPDEST PUSH2 0x2A1D SWAP2 POP RETURNDATASIZE DUP1 PUSH0 DUP4 RETURNDATACOPY PUSH2 0x984 DUP2 DUP4 PUSH2 0x2DEC JUMP JUMPDEST POP POP POP POP POP POP POP POP POP POP PUSH0 PUSH2 0x247F JUMP JUMPDEST CALLVALUE PUSH2 0x1679 JUMPI PUSH1 0x40 CALLDATASIZE PUSH1 0x3 NOT ADD SLT PUSH2 0x1679 JUMPI PUSH2 0x2A46 PUSH2 0x2BCD JUMP JUMPDEST PUSH1 0x24 CALLDATALOAD DUP1 ISZERO ISZERO DUP2 SUB PUSH2 0x1679 JUMPI PUSH1 0x1 PUSH1 0x1 PUSH1 0xA0 SHL SUB PUSH2 0x2A83 SWAP3 PUSH2 0x2A66 PUSH2 0x3491 JUMP JUMPDEST AND PUSH0 MSTORE PUSH1 0x6 PUSH1 0x20 MSTORE PUSH1 0x40 PUSH0 KECCAK256 SWAP1 PUSH1 0xFF DUP1 NOT DUP4 SLOAD AND SWAP2 ISZERO ISZERO AND OR SWAP1 SSTORE JUMP JUMPDEST STOP JUMPDEST CALLVALUE PUSH2 0x1679 JUMPI PUSH0 CALLDATASIZE PUSH1 0x3 NOT ADD SLT PUSH2 0x1679 JUMPI PUSH1 0x20 PUSH1 0x1 PUSH1 0x1 PUSH1 0xA0 SHL SUB PUSH1 0x2 SLOAD PUSH1 0x8 SHR AND PUSH1 0x40 MLOAD SWAP1 DUP2 MSTORE RETURN JUMPDEST CALLVALUE PUSH2 0x1679 JUMPI PUSH1 0x20 CALLDATASIZE PUSH1 0x3 NOT ADD SLT PUSH2 0x1679 JUMPI PUSH1 0x1 PUSH1 0x1 PUSH1 0xA0 SHL SUB PUSH2 0x2ACF PUSH2 0x2BCD JUMP JUMPDEST CALLER PUSH0 MSTORE PUSH1 0x6 PUSH1 0x20 MSTORE PUSH2 0x2AE7 PUSH1 0xFF PUSH1 0x40 PUSH0 KECCAK256 SLOAD AND PUSH2 0x2D82 JUMP JUMPDEST AND PUSH1 0x40 MLOAD PUSH4 0x70A08231 PUSH1 0xE0 SHL DUP2 MSTORE ADDRESS PUSH1 0x4 DUP3 ADD MSTORE PUSH1 0x20 DUP2 PUSH1 0x24 DUP2 DUP6 GAS STATICCALL SWAP1 DUP2 ISZERO PUSH2 0x2B8E JUMPI PUSH0 SWAP2 PUSH2 0x2B99 JUMPI JUMPDEST POP PUSH1 0x4 DUP1 SLOAD PUSH1 0x40 MLOAD PUSH4 0xA9059CBB PUSH1 0xE0 SHL DUP2 MSTORE PUSH1 0x1 PUSH1 0x1 PUSH1 0xA0 SHL SUB SWAP1 SWAP2 AND SWAP2 DUP2 ADD SWAP2 SWAP1 SWAP2 MSTORE PUSH1 0x24 DUP2 ADD SWAP2 SWAP1 SWAP2 MSTORE SWAP1 PUSH1 0x20 SWAP1 DUP3 SWAP1 DUP2 PUSH0 DUP2 PUSH1 0x44 DUP2 ADD JUMPDEST SUB SWAP3 GAS CALL DUP1 ISZERO PUSH2 0x2B8E JUMPI PUSH2 0x2B5C JUMPI STOP JUMPDEST PUSH1 0x20 DUP2 RETURNDATASIZE PUSH1 0x20 GT PUSH2 0x2B86 JUMPI JUMPDEST DUP2 PUSH2 0x2B75 PUSH1 0x20 SWAP4 DUP4 PUSH2 0x2DEC JUMP JUMPDEST DUP2 ADD SUB SLT PUSH2 0x1679 JUMPI PUSH2 0x2A83 SWAP1 PUSH2 0x2E0E JUMP JUMPDEST RETURNDATASIZE SWAP2 POP PUSH2 0x2B68 JUMP JUMPDEST PUSH1 0x40 MLOAD RETURNDATASIZE PUSH0 DUP3 RETURNDATACOPY RETURNDATASIZE SWAP1 REVERT JUMPDEST SWAP1 POP PUSH1 0x20 DUP2 RETURNDATASIZE PUSH1 0x20 GT PUSH2 0x2BC5 JUMPI JUMPDEST DUP2 PUSH2 0x2BB4 PUSH1 0x20 SWAP4 DUP4 PUSH2 0x2DEC JUMP JUMPDEST DUP2 ADD SUB SLT PUSH2 0x1679 JUMPI MLOAD PUSH2 0x2B4C PUSH2 0x2B12 JUMP JUMPDEST RETURNDATASIZE SWAP2 POP PUSH2 0x2BA7 JUMP JUMPDEST PUSH1 0x4 CALLDATALOAD SWAP1 PUSH1 0x1 PUSH1 0x1 PUSH1 0xA0 SHL SUB DUP3 AND DUP3 SUB PUSH2 0x1679 JUMPI JUMP JUMPDEST CALLDATALOAD SWAP1 PUSH1 0x1 PUSH1 0x1 PUSH1 0xA0 SHL SUB DUP3 AND DUP3 SUB PUSH2 0x1679 JUMPI JUMP JUMPDEST PUSH1 0x40 SWAP1 PUSH1 0x3 NOT ADD SLT PUSH2 0x1679 JUMPI PUSH1 0x4 CALLDATALOAD SWAP1 PUSH1 0x24 CALLDATALOAD SWAP1 JUMP JUMPDEST DUP1 MLOAD DUP1 DUP4 MSTORE PUSH1 0x20 SWAP3 SWAP2 DUP2 SWAP1 DUP5 ADD DUP5 DUP5 ADD MCOPY PUSH0 DUP3 DUP3 ADD DUP5 ADD MSTORE PUSH1 0x1F ADD PUSH1 0x1F NOT AND ADD ADD SWAP1 JUMP JUMPDEST SWAP1 DUP2 MLOAD ISZERO ISZERO DUP2 MSTORE PUSH1 0x20 DUP3 ADD MLOAD PUSH1 0x20 DUP3 ADD MSTORE PUSH1 0x1 PUSH1 0x1 PUSH1 0xA0 SHL SUB PUSH1 0x40 DUP4 ADD MLOAD AND PUSH1 0x40 DUP3 ADD MSTORE PUSH1 0x60 DUP3 ADD MLOAD PUSH1 0x60 DUP3 ADD MSTORE PUSH2 0x140 DUP1 PUSH2 0x2C7E PUSH1 0x80 DUP6 ADD MLOAD PUSH2 0x160 PUSH1 0x80 DUP7 ADD MSTORE PUSH2 0x160 DUP6 ADD SWAP1 PUSH2 0x2C0D JUMP JUMPDEST SWAP4 PUSH1 0x1 PUSH1 0x1 PUSH1 0xA0 SHL SUB PUSH1 0xA0 DUP3 ADD MLOAD AND PUSH1 0xA0 DUP6 ADD MSTORE PUSH1 0xC0 DUP2 ADD MLOAD SWAP5 DUP5 DUP2 SUB PUSH1 0xC0 DUP7 ADD MSTORE PUSH1 0x80 DUP1 PUSH2 0x2CE0 PUSH2 0x2CCE PUSH2 0x2CBC DUP11 MLOAD PUSH1 0xA0 DUP8 MSTORE PUSH1 0xA0 DUP8 ADD SWAP1 PUSH2 0x2C0D JUMP JUMPDEST PUSH1 0x20 DUP12 ADD MLOAD DUP7 DUP3 SUB PUSH1 0x20 DUP9 ADD MSTORE PUSH2 0x2C0D JUMP JUMPDEST PUSH1 0x40 DUP11 ADD MLOAD DUP6 DUP3 SUB PUSH1 0x40 DUP8 ADD MSTORE PUSH2 0x2C0D JUMP JUMPDEST SWAP8 PUSH1 0x60 DUP2 ADD MLOAD PUSH1 0x60 DUP6 ADD MSTORE ADD MLOAD SWAP2 ADD MSTORE PUSH1 0xE0 DUP2 ADD MLOAD PUSH1 0xE0 DUP6 ADD MSTORE PUSH1 0x1 PUSH1 0x1 PUSH1 0xA0 SHL SUB PUSH2 0x100 DUP3 ADD MLOAD AND PUSH2 0x100 DUP6 ADD MSTORE PUSH2 0x120 DUP2 ADD MLOAD PUSH2 0x120 DUP6 ADD MSTORE ADD MLOAD SWAP2 ADD MSTORE SWAP1 JUMP JUMPDEST PUSH1 0x20 DUP2 ADD PUSH1 0x20 DUP3 MSTORE DUP3 MLOAD DUP1 SWAP2 MSTORE PUSH1 0x40 DUP3 ADD SWAP2 PUSH1 0x20 PUSH1 0x40 DUP4 PUSH1 0x5 SHL DUP4 ADD ADD SWAP5 ADD SWAP3 PUSH0 SWAP2 JUMPDEST DUP4 DUP4 LT PUSH2 0x2D55 JUMPI POP POP POP POP POP SWAP1 JUMP JUMPDEST SWAP1 SWAP2 SWAP3 SWAP4 SWAP5 PUSH1 0x20 DUP1 PUSH2 0x2D73 PUSH1 0x1 SWAP4 PUSH1 0x3F NOT DUP7 DUP3 SUB ADD DUP8 MSTORE DUP10 MLOAD PUSH2 0x2C31 JUMP JUMPDEST SWAP8 ADD SWAP4 ADD SWAP4 ADD SWAP2 SWAP4 SWAP3 SWAP1 PUSH2 0x2D46 JUMP JUMPDEST ISZERO PUSH2 0x2D89 JUMPI JUMP JUMPDEST PUSH1 0x40 MLOAD PUSH3 0x461BCD PUSH1 0xE5 SHL DUP2 MSTORE PUSH1 0x20 PUSH1 0x4 DUP3 ADD MSTORE PUSH1 0xB PUSH1 0x24 DUP3 ADD MSTORE PUSH11 0x139BDD08105B1B1BDDD959 PUSH1 0xAA SHL PUSH1 0x44 DUP3 ADD MSTORE PUSH1 0x64 SWAP1 REVERT JUMPDEST PUSH1 0xA0 DUP2 ADD SWAP1 DUP2 LT PUSH8 0xFFFFFFFFFFFFFFFF DUP3 GT OR PUSH2 0x2DD8 JUMPI PUSH1 0x40 MSTORE JUMP JUMPDEST PUSH4 0x4E487B71 PUSH1 0xE0 SHL PUSH0 MSTORE PUSH1 0x41 PUSH1 0x4 MSTORE PUSH1 0x24 PUSH0 REVERT JUMPDEST SWAP1 PUSH1 0x1F DUP1 NOT SWAP2 ADD AND DUP2 ADD SWAP1 DUP2 LT PUSH8 0xFFFFFFFFFFFFFFFF DUP3 GT OR PUSH2 0x2DD8 JUMPI PUSH1 0x40 MSTORE JUMP JUMPDEST MLOAD SWAP1 DUP2 ISZERO ISZERO DUP3 SUB PUSH2 0x1679 JUMPI JUMP JUMPDEST ISZERO PUSH2 0x2E22 JUMPI JUMP JUMPDEST PUSH1 0x40 MLOAD PUSH3 0x461BCD PUSH1 0xE5 SHL DUP2 MSTORE PUSH1 0x20 PUSH1 0x4 DUP3 ADD MSTORE PUSH1 0x19 PUSH1 0x24 DUP3 ADD MSTORE PUSH32 0x4D61726B6574206973206265696E672072657061697265642E00000000000000 PUSH1 0x44 DUP3 ADD MSTORE PUSH1 0x64 SWAP1 REVERT JUMPDEST CALLDATALOAD PUSH1 0x1 PUSH1 0x1 PUSH1 0xA0 SHL SUB DUP2 AND DUP2 SUB PUSH2 0x1679 JUMPI SWAP1 JUMP JUMPDEST MLOAD SWAP1 PUSH1 0x1 PUSH1 0x1 PUSH1 0xA0 SHL SUB DUP3 AND DUP3 SUB PUSH2 0x1679 JUMPI JUMP JUMPDEST DUP2 PUSH1 0x1F DUP3 ADD SLT ISZERO PUSH2 0x1679 JUMPI DUP1 MLOAD SWAP1 PUSH8 0xFFFFFFFFFFFFFFFF DUP3 GT PUSH2 0x2DD8 JUMPI PUSH1 0x40 MLOAD SWAP3 PUSH2 0x2EC4 PUSH1 0x1F DUP5 ADD PUSH1 0x1F NOT AND PUSH1 0x20 ADD DUP6 PUSH2 0x2DEC JUMP JUMPDEST DUP3 DUP5 MSTORE PUSH1 0x20 DUP4 DUP4 ADD ADD GT PUSH2 0x1679 JUMPI DUP2 PUSH0 SWAP3 PUSH1 0x20 DUP1 SWAP4 ADD DUP4 DUP7 ADD MCOPY DUP4 ADD ADD MSTORE SWAP1 JUMP JUMPDEST SWAP2 SWAP1 SWAP2 PUSH1 0xA0 DUP2 DUP5 SUB SLT PUSH2 0x1679 JUMPI PUSH1 0x40 MLOAD SWAP1 PUSH2 0x2EFF DUP3 PUSH2 0x2DBC JUMP JUMPDEST DUP2 SWAP4 DUP2 MLOAD PUSH8 0xFFFFFFFFFFFFFFFF DUP2 GT PUSH2 0x1679 JUMPI DUP2 PUSH2 0x2F1E SWAP2 DUP5 ADD PUSH2 0x2E8F JUMP JUMPDEST DUP4 MSTORE PUSH1 0x20 DUP3 ADD MLOAD PUSH8 0xFFFFFFFFFFFFFFFF DUP2 GT PUSH2 0x1679 JUMPI DUP2 PUSH2 0x2F40 SWAP2 DUP5 ADD PUSH2 0x2E8F JUMP JUMPDEST PUSH1 0x20 DUP5 ADD MSTORE PUSH1 0x40 DUP3 ADD MLOAD SWAP2 PUSH8 0xFFFFFFFFFFFFFFFF DUP4 GT PUSH2 0x1679 JUMPI PUSH2 0x2F6A PUSH1 0x80 SWAP4 SWAP3 DUP5 SWAP4 DUP4 ADD PUSH2 0x2E8F JUMP JUMPDEST PUSH1 0x40 DUP6 ADD MSTORE PUSH1 0x60 DUP2 ADD MLOAD PUSH1 0x60 DUP6 ADD MSTORE ADD MLOAD SWAP2 ADD MSTORE JUMP JUMPDEST SWAP1 PUSH2 0x160 DUP3 DUP3 SUB SLT PUSH2 0x1679 JUMPI PUSH2 0x2F95 DUP3 PUSH2 0x2E0E JUMP JUMPDEST SWAP3 PUSH1 0x20 DUP4 ADD MLOAD SWAP3 PUSH2 0x2FA8 PUSH1 0x40 DUP3 ADD PUSH2 0x2E7B JUMP JUMPDEST SWAP3 PUSH1 0x60 DUP3 ADD MLOAD SWAP3 PUSH1 0x80 DUP4 ADD MLOAD PUSH8 0xFFFFFFFFFFFFFFFF DUP2 GT PUSH2 0x1679 JUMPI DUP3 PUSH2 0x2FCF SWAP2 DUP6 ADD PUSH2 0x2E8F JUMP JUMPDEST SWAP3 PUSH2 0x2FDC PUSH1 0xA0 DUP3 ADD PUSH2 0x2E7B JUMP JUMPDEST SWAP3 PUSH1 0xC0 DUP3 ADD MLOAD SWAP1 PUSH8 0xFFFFFFFFFFFFFFFF DUP3 GT PUSH2 0x1679 JUMPI PUSH2 0x2FFD SWAP2 DUP4 ADD PUSH2 0x2EE5 JUMP JUMPDEST SWAP2 PUSH1 0xE0 DUP3 ADD MLOAD SWAP2 PUSH2 0x3011 PUSH2 0x100 DUP3 ADD PUSH2 0x2E7B JUMP JUMPDEST SWAP2 PUSH2 0x140 PUSH2 0x120 DUP4 ADD MLOAD SWAP3 ADD MLOAD SWAP1 JUMP JUMPDEST ISZERO PUSH2 0x3029 JUMPI POP JUMP JUMPDEST PUSH1 0x40 MLOAD PUSH3 0x461BCD PUSH1 0xE5 SHL DUP2 MSTORE PUSH1 0x20 PUSH1 0x4 DUP3 ADD MSTORE SWAP1 DUP2 SWAP1 PUSH2 0x304D SWAP1 PUSH1 0x24 DUP4 ADD SWAP1 PUSH2 0x2C0D JUMP JUMPDEST SUB SWAP1 REVERT JUMPDEST SWAP1 CALLDATALOAD PUSH1 0x1E NOT DUP3 CALLDATASIZE SUB ADD DUP2 SLT ISZERO PUSH2 0x1679 JUMPI ADD PUSH1 0x20 DUP2 CALLDATALOAD SWAP2 ADD SWAP2 PUSH8 0xFFFFFFFFFFFFFFFF DUP3 GT PUSH2 0x1679 JUMPI DUP2 CALLDATASIZE SUB DUP4 SGT PUSH2 0x1679 JUMPI JUMP JUMPDEST SWAP1 DUP1 PUSH1 0x20 SWAP4 SWAP3 DUP2 DUP5 MSTORE DUP5 DUP5 ADD CALLDATACOPY PUSH0 DUP3 DUP3 ADD DUP5 ADD MSTORE PUSH1 0x1F ADD PUSH1 0x1F NOT AND ADD ADD SWAP1 JUMP JUMPDEST SWAP1 PUSH2 0x30D1 SWAP5 SWAP4 PUSH1 0x1 PUSH1 0x1 PUSH1 0xA0 SHL SUB PUSH1 0x80 SWAP5 DUP2 SWAP4 DUP6 MSTORE AND PUSH1 0x20 DUP5 ADD MSTORE AND PUSH1 0x40 DUP3 ADD MSTORE DUP2 PUSH1 0x60 DUP3 ADD MSTORE ADD SWAP1 PUSH2 0x2C0D JUMP JUMPDEST SWAP1 JUMP JUMPDEST SWAP1 CALLDATALOAD SWAP1 PUSH1 0x9E NOT DUP2 CALLDATASIZE SUB ADD DUP3 SLT ISZERO PUSH2 0x1679 JUMPI ADD SWAP1 JUMP JUMPDEST SWAP1 CALLDATALOAD SWAP1 PUSH1 0x1E NOT DUP2 CALLDATASIZE SUB ADD DUP3 SLT ISZERO PUSH2 0x1679 JUMPI ADD DUP1 CALLDATALOAD SWAP1 PUSH8 0xFFFFFFFFFFFFFFFF DUP3 GT PUSH2 0x1679 JUMPI PUSH1 0x20 ADD SWAP2 DUP2 CALLDATASIZE SUB DUP4 SGT PUSH2 0x1679 JUMPI JUMP JUMPDEST PUSH1 0x40 MLOAD SWAP1 PUSH2 0x312B PUSH1 0x40 DUP4 PUSH2 0x2DEC JUMP JUMPDEST PUSH1 0x1D DUP3 MSTORE PUSH32 0x4E46544D61726B65743A3A61736B20646F6573206E6F74206578697374000000 PUSH1 0x20 DUP4 ADD MSTORE JUMP JUMPDEST PUSH1 0x40 MLOAD SWAP1 PUSH2 0x3166 PUSH1 0x40 DUP4 PUSH2 0x2DEC JUMP JUMPDEST PUSH1 0x20 DUP3 MSTORE PUSH32 0x4E46544D61726B65743A3A61736B2063726561746F72206E6F74206F776E6572 PUSH1 0x20 DUP4 ADD MSTORE JUMP JUMPDEST SWAP1 PUSH1 0x40 MLOAD SWAP1 PUSH1 0x20 DUP3 ADD SWAP3 PUSH12 0xFFFFFFFFFFFFFFFFFFFFFFFF NOT SWAP1 PUSH1 0x60 SHL AND DUP4 MSTORE PUSH1 0x34 DUP3 ADD MSTORE PUSH1 0x34 DUP2 MSTORE PUSH2 0x31C5 PUSH1 0x54 DUP3 PUSH2 0x2DEC JUMP JUMPDEST MLOAD SWAP1 KECCAK256 SWAP1 JUMP JUMPDEST PUSH8 0xFFFFFFFFFFFFFFFF DUP2 GT PUSH2 0x2DD8 JUMPI PUSH1 0x5 SHL PUSH1 0x20 ADD SWAP1 JUMP JUMPDEST SWAP2 SWAP1 SWAP2 PUSH2 0x160 DUP2 DUP5 SUB SLT PUSH2 0x1679 JUMPI PUSH1 0x40 MLOAD SWAP1 PUSH2 0x160 DUP3 ADD DUP3 DUP2 LT PUSH8 0xFFFFFFFFFFFFFFFF DUP3 GT OR PUSH2 0x2DD8 JUMPI PUSH1 0x40 MSTORE DUP2 SWAP4 PUSH2 0x321B DUP3 PUSH2 0x2E0E JUMP JUMPDEST DUP4 MSTORE PUSH1 0x20 DUP3 ADD MLOAD PUSH1 0x20 DUP5 ADD MSTORE PUSH2 0x3233 PUSH1 0x40 DUP4 ADD PUSH2 0x2E7B JUMP JUMPDEST PUSH1 0x40 DUP5 ADD MSTORE PUSH1 0x60 DUP3 ADD MLOAD PUSH1 0x60 DUP5 ADD MSTORE PUSH1 0x80 DUP3 ADD MLOAD PUSH8 0xFFFFFFFFFFFFFFFF DUP2 GT PUSH2 0x1679 JUMPI DUP2 PUSH2 0x3262 SWAP2 DUP5 ADD PUSH2 0x2E8F JUMP JUMPDEST PUSH1 0x80 DUP5 ADD MSTORE PUSH2 0x3273 PUSH1 0xA0 DUP4 ADD PUSH2 0x2E7B JUMP JUMPDEST PUSH1 0xA0 DUP5 ADD MSTORE PUSH1 0xC0 DUP3 ADD MLOAD SWAP2 PUSH8 0xFFFFFFFFFFFFFFFF DUP4 GT PUSH2 0x1679 JUMPI PUSH2 0x329E PUSH2 0x140 SWAP4 SWAP3 DUP5 SWAP4 DUP4 ADD PUSH2 0x2EE5 JUMP JUMPDEST PUSH1 0xC0 DUP6 ADD MSTORE PUSH1 0xE0 DUP2 ADD MLOAD PUSH1 0xE0 DUP6 ADD MSTORE PUSH2 0x32BA PUSH2 0x100 DUP3 ADD PUSH2 0x2E7B JUMP JUMPDEST PUSH2 0x100 DUP6 ADD MSTORE PUSH2 0x120 DUP2 ADD MLOAD PUSH2 0x120 DUP6 ADD MSTORE ADD MLOAD SWAP2 ADD MSTORE JUMP JUMPDEST PUSH1 0x20 DUP2 DUP4 SUB SLT PUSH2 0x1679 JUMPI DUP1 MLOAD SWAP1 PUSH8 0xFFFFFFFFFFFFFFFF DUP3 GT PUSH2 0x1679 JUMPI ADD SWAP1 DUP1 PUSH1 0x1F DUP4 ADD SLT ISZERO PUSH2 0x1679 JUMPI DUP2 MLOAD PUSH2 0x3307 DUP2 PUSH2 0x31CB JUMP JUMPDEST SWAP3 PUSH2 0x3315 PUSH1 0x40 MLOAD SWAP5 DUP6 PUSH2 0x2DEC JUMP JUMPDEST DUP2 DUP5 MSTORE PUSH1 0x20 DUP1 DUP6 ADD SWAP3 PUSH1 0x5 SHL DUP3 ADD ADD SWAP2 DUP4 DUP4 GT PUSH2 0x1679 JUMPI PUSH1 0x20 DUP3 ADD SWAP1 JUMPDEST DUP4 DUP3 LT PUSH2 0x3341 JUMPI POP POP POP POP POP SWAP1 JUMP JUMPDEST DUP2 MLOAD PUSH8 0xFFFFFFFFFFFFFFFF DUP2 GT PUSH2 0x1679 JUMPI PUSH1 0x20 SWAP2 PUSH2 0x3364 DUP8 DUP5 DUP1 SWAP5 DUP9 ADD ADD PUSH2 0x31E3 JUMP JUMPDEST DUP2 MSTORE ADD SWAP2 ADD SWAP1 PUSH2 0x3332 JUMP JUMPDEST DUP2 DUP2 MUL SWAP3 SWAP2 DUP2 ISZERO SWAP2 DUP5 DIV EQ OR ISZERO PUSH2 0x3382 JUMPI JUMP JUMPDEST PUSH4 0x4E487B71 PUSH1 0xE0 SHL PUSH0 MSTORE PUSH1 0x11 PUSH1 0x4 MSTORE PUSH1 0x24 PUSH0 REVERT JUMPDEST SWAP2 SWAP1 DUP3 SUB SWAP2 DUP3 GT PUSH2 0x3382 JUMPI JUMP JUMPDEST ISZERO PUSH2 0x33AA JUMPI JUMP JUMPDEST PUSH1 0x40 MLOAD PUSH3 0x461BCD PUSH1 0xE5 SHL DUP2 MSTORE PUSH1 0x20 PUSH1 0x4 DUP3 ADD MSTORE PUSH1 0x1F PUSH1 0x24 DUP3 ADD MSTORE PUSH32 0x7472616E7366657220657263323020746F2073656C6C6572206661696C656400 PUSH1 0x44 DUP3 ADD MSTORE PUSH1 0x64 SWAP1 REVERT JUMPDEST ISZERO PUSH2 0x33F6 JUMPI JUMP JUMPDEST PUSH1 0x40 MLOAD PUSH3 0x461BCD PUSH1 0xE5 SHL DUP2 MSTORE PUSH1 0x20 PUSH1 0x4 DUP3 ADD MSTORE PUSH1 0x21 PUSH1 0x24 DUP3 ADD MSTORE PUSH32 0x7472616E7366657220657263323020746F20636F6E7472616374206661696C65 PUSH1 0x44 DUP3 ADD MSTORE PUSH1 0x19 PUSH1 0xFA SHL PUSH1 0x64 DUP3 ADD MSTORE PUSH1 0x84 SWAP1 REVERT JUMPDEST ISZERO PUSH2 0x344C JUMPI JUMP JUMPDEST PUSH1 0x40 MLOAD PUSH3 0x461BCD PUSH1 0xE5 SHL DUP2 MSTORE PUSH1 0x20 PUSH1 0x4 DUP3 ADD MSTORE PUSH1 0x13 PUSH1 0x24 DUP3 ADD MSTORE PUSH32 0x796F7520617265206E6F7420617070726F766500000000000000000000000000 PUSH1 0x44 DUP3 ADD MSTORE PUSH1 0x64 SWAP1 REVERT JUMPDEST PUSH1 0x1 PUSH1 0x1 PUSH1 0xA0 SHL SUB PUSH0 SLOAD AND CALLER SUB PUSH2 0x34A4 JUMPI JUMP JUMPDEST PUSH4 0x118CDAA7 PUSH1 0xE0 SHL PUSH0 MSTORE CALLER PUSH1 0x4 MSTORE PUSH1 0x24 PUSH0 REVERT JUMPDEST PUSH1 0x2 PUSH1 0x1 SLOAD EQ PUSH2 0x34C8 JUMPI PUSH1 0x2 PUSH1 0x1 SSTORE JUMP JUMPDEST PUSH4 0x3EE5AEB5 PUSH1 0xE0 SHL PUSH0 MSTORE PUSH1 0x4 PUSH0 REVERT INVALID LOG2 PUSH5 0x6970667358 0x22 SLT KECCAK256 DUP4 ADD 0xB0 0x2A 0x29 0xF8 SWAP5 0xAC 0xD6 SWAP1 0xC4 0xF 0x28 SWAP8 KECCAK256 POP 0x22 PUSH28 0x539D91F0C21AEF0FDECAC7E4C22C64736F6C634300081C0033000000 "
		},
		"gasEstimates": {
			"creation": {
				"codeDepositCost": "2716200",
				"executionCost": "infinite",
				"totalCost": "infinite"
			},
			"external": {
				"acceptOrder(bytes32,uint256)": "infinite",
				"buyFraction(uint256,uint256)": "infinite",
				"cancelOrder(bytes32)": "infinite",
				"checkCounter()": "2407",
				"checkNFTs(uint256)": "13354",
				"createCheck(address,uint256,uint256,uint256)": "infinite",
				"createOrder((bool,bytes32,address,uint256,string,address,(string,string,string,uint256,uint256),uint256,address,uint256,uint256))": "infinite",
				"fee()": "2957",
				"genOrderId(address,uint256)": "724",
				"getMyOrders(address)": "infinite",
				"getOrders(uint256,uint256)": "infinite",
				"getOrdersTotal()": "infinite",
				"getTradeRecordsByAddress(address)": "infinite",
				"getTradingCount()": "infinite",
				"getUserWrappedInscriptions(address)": "infinite",
				"getVolume()": "infinite",
				"getVolumeByToken(address)": "infinite",
				"isListed(address,uint256)": "infinite",
				"isNFTListed(uint256)": "2749",
				"nftFactoryContract()": "2755",
				"owner()": "2579",
				"recipientAddress()": "2403",
				"renounceOwnership()": "28259",
				"setFee(uint256)": "24623",
				"setNFTFactoryContract(address)": "27360",
				"setRecipientAddress(address)": "26700",
				"setStorageContract(address)": "27282",
				"setWithdrawWL(address,bool)": "26767",
				"storageContract()": "2296",
				"switchMarketStatus(bool)": "27215",
				"transferOwnership(address)": "28939",
				"updateOrder(bytes32,uint256)": "infinite",
				"withdraw()": "infinite",
				"withdrawForWL()": "infinite",
				"withdrawToken(address)": "infinite",
				"withdrawTokenForWL(address)": "infinite",
				"withdrawWL(address)": "2856"
			},
			"internal": {
				"_takeFee(uint256)": "infinite"
			}
		},
		"methodIdentifiers": {
			"acceptOrder(bytes32,uint256)": "ef9bc914",
			"buyFraction(uint256,uint256)": "d40b0214",
			"cancelOrder(bytes32)": "7489ec23",
			"checkCounter()": "61c7cbf0",
			"checkNFTs(uint256)": "a237e4e9",
			"createCheck(address,uint256,uint256,uint256)": "e5e664e1",
			"createOrder((bool,bytes32,address,uint256,string,address,(string,string,string,uint256,uint256),uint256,address,uint256,uint256))": "224652d8",
			"fee()": "ddca3f43",
			"genOrderId(address,uint256)": "7471ddbd",
			"getMyOrders(address)": "d3284d8e",
			"getOrders(uint256,uint256)": "8f72fc77",
			"getOrdersTotal()": "c34304cb",
			"getTradeRecordsByAddress(address)": "d25285f5",
			"getTradingCount()": "a8a6d538",
			"getUserWrappedInscriptions(address)": "c5d9b070",
			"getVolume()": "c67bbc24",
			"getVolumeByToken(address)": "a54247ae",
			"isListed(address,uint256)": "cdb3cd25",
			"isNFTListed(uint256)": "adb78eac",
			"nftFactoryContract()": "bd05a048",
			"owner()": "8da5cb5b",
			"recipientAddress()": "5aff5999",
			"renounceOwnership()": "715018a6",
			"setFee(uint256)": "69fe0e2d",
			"setNFTFactoryContract(address)": "ed6bbff3",
			"setRecipientAddress(address)": "36bfc264",
			"setStorageContract(address)": "dc38b0a2",
			"setWithdrawWL(address,bool)": "1bf1eca4",
			"storageContract()": "11ce0267",
			"switchMarketStatus(bool)": "d95a1daf",
			"transferOwnership(address)": "f2fde38b",
			"updateOrder(bytes32,uint256)": "64a7601b",
			"withdraw()": "3ccfd60b",
			"withdrawForWL()": "b195d29c",
			"withdrawToken(address)": "89476069",
			"withdrawTokenForWL(address)": "09c2ffd6",
			"withdrawWL(address)": "ae080ecd"
		}
	},
	"abi": [
		{
			"inputs": [
				{
					"internalType": "address",
					"name": "_storageContract",
					"type": "address"
				},
				{
					"internalType": "address",
					"name": "_nftFactoryContract",
					"type": "address"
				},
				{
					"internalType": "uint256",
					"name": "_fee",
					"type": "uint256"
				},
				{
					"internalType": "address",
					"name": "_recipientAddress",
					"type": "address"
				}
			],
			"stateMutability": "payable",
			"type": "constructor"
		},
		{
			"inputs": [
				{
					"internalType": "address",
					"name": "owner",
					"type": "address"
				}
			],
			"name": "OwnableInvalidOwner",
			"type": "error"
		},
		{
			"inputs": [
				{
					"internalType": "address",
					"name": "account",
					"type": "address"
				}
			],
			"name": "OwnableUnauthorizedAccount",
			"type": "error"
		},
		{
			"inputs": [],
			"name": "ReentrancyGuardReentrantCall",
			"type": "error"
		},
		{
			"anonymous": false,
			"inputs": [
				{
					"indexed": false,
					"internalType": "bytes32",
					"name": "orderId",
					"type": "bytes32"
				},
				{
					"indexed": true,
					"internalType": "address",
					"name": "wrappedNFTContract",
					"type": "address"
				},
				{
					"indexed": true,
					"internalType": "uint256",
					"name": "tokenId",
					"type": "uint256"
				},
				{
					"indexed": false,
					"internalType": "string",
					"name": "p",
					"type": "string"
				},
				{
					"indexed": false,
					"internalType": "string",
					"name": "op",
					"type": "string"
				},
				{
					"indexed": false,
					"internalType": "string",
					"name": "tick",
					"type": "string"
				},
				{
					"indexed": false,
					"internalType": "uint256",
					"name": "amt",
					"type": "uint256"
				},
				{
					"indexed": false,
					"internalType": "uint256",
					"name": "limit",
					"type": "uint256"
				},
				{
					"indexed": false,
					"internalType": "address",
					"name": "seller",
					"type": "address"
				},
				{
					"indexed": false,
					"internalType": "uint256",
					"name": "unitPrice",
					"type": "uint256"
				},
				{
					"indexed": false,
					"internalType": "string",
					"name": "symbol",
					"type": "string"
				},
				{
					"indexed": false,
					"internalType": "uint256",
					"name": "createTime",
					"type": "uint256"
				}
			],
			"name": "OrderListed",
			"type": "event"
		},
		{
			"anonymous": false,
			"inputs": [
				{
					"indexed": false,
					"internalType": "bytes32",
					"name": "orderId",
					"type": "bytes32"
				},
				{
					"indexed": false,
					"internalType": "address",
					"name": "buyer",
					"type": "address"
				},
				{
					"indexed": false,
					"internalType": "address",
					"name": "seller",
					"type": "address"
				},
				{
					"indexed": false,
					"internalType": "string",
					"name": "p",
					"type": "string"
				},
				{
					"indexed": false,
					"internalType": "string",
					"name": "op",
					"type": "string"
				},
				{
					"indexed": false,
					"internalType": "string",
					"name": "tick",
					"type": "string"
				},
				{
					"indexed": false,
					"internalType": "uint256",
					"name": "amt",
					"type": "uint256"
				},
				{
					"indexed": false,
					"internalType": "uint256",
					"name": "limit",
					"type": "uint256"
				},
				{
					"indexed": false,
					"internalType": "uint256",
					"name": "unitPrice",
					"type": "uint256"
				},
				{
					"indexed": false,
					"internalType": "string",
					"name": "symbol",
					"type": "string"
				},
				{
					"indexed": false,
					"internalType": "uint256",
					"name": "soldTime",
					"type": "uint256"
				}
			],
			"name": "OrderSold",
			"type": "event"
		},
		{
			"anonymous": false,
			"inputs": [
				{
					"indexed": false,
					"internalType": "bytes32",
					"name": "orderId",
					"type": "bytes32"
				},
				{
					"indexed": false,
					"internalType": "string",
					"name": "p",
					"type": "string"
				},
				{
					"indexed": false,
					"internalType": "string",
					"name": "op",
					"type": "string"
				},
				{
					"indexed": false,
					"internalType": "string",
					"name": "tick",
					"type": "string"
				},
				{
					"indexed": false,
					"internalType": "uint256",
					"name": "amt",
					"type": "uint256"
				},
				{
					"indexed": false,
					"internalType": "uint256",
					"name": "limit",
					"type": "uint256"
				},
				{
					"indexed": false,
					"internalType": "address",
					"name": "seller",
					"type": "address"
				},
				{
					"indexed": false,
					"internalType": "uint256",
					"name": "unitPrice",
					"type": "uint256"
				},
				{
					"indexed": false,
					"internalType": "string",
					"name": "symbol",
					"type": "string"
				},
				{
					"indexed": false,
					"internalType": "uint256",
					"name": "unlistTime",
					"type": "uint256"
				}
			],
			"name": "OrderUnlisted",
			"type": "event"
		},
		{
			"anonymous": false,
			"inputs": [
				{
					"indexed": false,
					"internalType": "bytes32",
					"name": "orderId",
					"type": "bytes32"
				},
				{
					"indexed": false,
					"internalType": "uint256",
					"name": "newUnitPrice",
					"type": "uint256"
				},
				{
					"indexed": false,
					"internalType": "string",
					"name": "p",
					"type": "string"
				},
				{
					"indexed": false,
					"internalType": "string",
					"name": "op",
					"type": "string"
				},
				{
					"indexed": false,
					"internalType": "string",
					"name": "tick",
					"type": "string"
				},
				{
					"indexed": false,
					"internalType": "uint256",
					"name": "amt",
					"type": "uint256"
				},
				{
					"indexed": false,
					"internalType": "uint256",
					"name": "limit",
					"type": "uint256"
				},
				{
					"indexed": false,
					"internalType": "address",
					"name": "seller",
					"type": "address"
				},
				{
					"indexed": false,
					"internalType": "string",
					"name": "symbol",
					"type": "string"
				},
				{
					"indexed": false,
					"internalType": "uint256",
					"name": "updateTime",
					"type": "uint256"
				}
			],
			"name": "OrderUpdated",
			"type": "event"
		},
		{
			"anonymous": false,
			"inputs": [
				{
					"indexed": true,
					"internalType": "address",
					"name": "previousOwner",
					"type": "address"
				},
				{
					"indexed": true,
					"internalType": "address",
					"name": "newOwner",
					"type": "address"
				}
			],
			"name": "OwnershipTransferred",
			"type": "event"
		},
		{
			"anonymous": false,
			"inputs": [
				{
					"indexed": false,
					"internalType": "address",
					"name": "Sender",
					"type": "address"
				},
				{
					"indexed": false,
					"internalType": "uint256",
					"name": "Value",
					"type": "uint256"
				}
			],
			"name": "Received",
			"type": "event"
		},
		{
			"anonymous": false,
			"inputs": [
				{
					"indexed": false,
					"internalType": "string",
					"name": "p",
					"type": "string"
				},
				{
					"indexed": false,
					"internalType": "string",
					"name": "op",
					"type": "string"
				},
				{
					"indexed": false,
					"internalType": "string",
					"name": "tick",
					"type": "string"
				},
				{
					"indexed": false,
					"internalType": "uint256",
					"name": "amount",
					"type": "uint256"
				},
				{
					"indexed": false,
					"internalType": "address",
					"name": "owner",
					"type": "address"
				}
			],
			"name": "UnWrap",
			"type": "event"
		},
		{
			"anonymous": false,
			"inputs": [
				{
					"indexed": false,
					"internalType": "string",
					"name": "p",
					"type": "string"
				},
				{
					"indexed": false,
					"internalType": "string",
					"name": "tick",
					"type": "string"
				},
				{
					"indexed": false,
					"internalType": "uint256",
					"name": "amount",
					"type": "uint256"
				},
				{
					"indexed": false,
					"internalType": "address",
					"name": "owner",
					"type": "address"
				},
				{
					"indexed": false,
					"internalType": "uint256",
					"name": "chainId",
					"type": "uint256"
				}
			],
			"name": "Wrap",
			"type": "event"
		},
		{
			"inputs": [
				{
					"internalType": "bytes32",
					"name": "orderId",
					"type": "bytes32"
				},
				{
					"internalType": "uint256",
					"name": "buyAmount",
					"type": "uint256"
				}
			],
			"name": "acceptOrder",
			"outputs": [],
			"stateMutability": "payable",
			"type": "function"
		},
		{
			"inputs": [
				{
					"internalType": "uint256",
					"name": "_checkId",
					"type": "uint256"
				},
				{
					"internalType": "uint256",
					"name": "_partCount",
					"type": "uint256"
				}
			],
			"name": "buyFraction",
			"outputs": [],
			"stateMutability": "payable",
			"type": "function"
		},
		{
			"inputs": [
				{
					"internalType": "bytes32",
					"name": "orderId",
					"type": "bytes32"
				}
			],
			"name": "cancelOrder",
			"outputs": [],
			"stateMutability": "nonpayable",
			"type": "function"
		},
		{
			"inputs": [],
			"name": "checkCounter",
			"outputs": [
				{
					"internalType": "uint256",
					"name": "",
					"type": "uint256"
				}
			],
			"stateMutability": "view",
			"type": "function"
		},
		{
			"inputs": [
				{
					"internalType": "uint256",
					"name": "",
					"type": "uint256"
				}
			],
			"name": "checkNFTs",
			"outputs": [
				{
					"internalType": "address",
					"name": "seller",
					"type": "address"
				},
				{
					"internalType": "address",
					"name": "tokenContract",
					"type": "address"
				},
				{
					"internalType": "uint256",
					"name": "totalAmount",
					"type": "uint256"
				},
				{
					"internalType": "uint256",
					"name": "remainingAmount",
					"type": "uint256"
				},
				{
					"internalType": "uint256",
					"name": "pricePerUnit",
					"type": "uint256"
				},
				{
					"internalType": "bool",
					"name": "exists",
					"type": "bool"
				}
			],
			"stateMutability": "view",
			"type": "function"
		},
		{
			"inputs": [
				{
					"internalType": "address",
					"name": "_tokenContract",
					"type": "address"
				},
				{
					"internalType": "uint256",
					"name": "_totalAmount",
					"type": "uint256"
				},
				{
					"internalType": "uint256",
					"name": "_pricePerUnit",
					"type": "uint256"
				},
				{
					"internalType": "uint256",
					"name": "tokenId",
					"type": "uint256"
				}
			],
			"name": "createCheck",
			"outputs": [],
			"stateMutability": "nonpayable",
			"type": "function"
		},
		{
			"inputs": [
				{
					"components": [
						{
							"internalType": "bool",
							"name": "exists",
							"type": "bool"
						},
						{
							"internalType": "bytes32",
							"name": "orderId",
							"type": "bytes32"
						},
						{
							"internalType": "address",
							"name": "wrappedNFTContract",
							"type": "address"
						},
						{
							"internalType": "uint256",
							"name": "tokenId",
							"type": "uint256"
						},
						{
							"internalType": "string",
							"name": "tokenSymbol",
							"type": "string"
						},
						{
							"internalType": "address",
							"name": "tokenContract",
							"type": "address"
						},
						{
							"components": [
								{
									"internalType": "string",
									"name": "p",
									"type": "string"
								},
								{
									"internalType": "string",
									"name": "op",
									"type": "string"
								},
								{
									"internalType": "string",
									"name": "tick",
									"type": "string"
								},
								{
									"internalType": "uint256",
									"name": "amt",
									"type": "uint256"
								},
								{
									"internalType": "uint256",
									"name": "limit",
									"type": "uint256"
								}
							],
							"internalType": "struct IInscriptionCommon.Inscription",
							"name": "inscription",
							"type": "tuple"
						},
						{
							"internalType": "uint256",
							"name": "remainingAmt",
							"type": "uint256"
						},
						{
							"internalType": "address",
							"name": "seller",
							"type": "address"
						},
						{
							"internalType": "uint256",
							"name": "unitPrice",
							"type": "uint256"
						},
						{
							"internalType": "uint256",
							"name": "createTime",
							"type": "uint256"
						}
					],
					"internalType": "struct IInscriptionCommon.Order",
					"name": "order",
					"type": "tuple"
				}
			],
			"name": "createOrder",
			"outputs": [],
			"stateMutability": "nonpayable",
			"type": "function"
		},
		{
			"inputs": [],
			"name": "fee",
			"outputs": [
				{
					"internalType": "uint256",
					"name": "",
					"type": "uint256"
				}
			],
			"stateMutability": "view",
			"type": "function"
		},
		{
			"inputs": [
				{
					"internalType": "address",
					"name": "nftContract",
					"type": "address"
				},
				{
					"internalType": "uint256",
					"name": "tokenId",
					"type": "uint256"
				}
			],
			"name": "genOrderId",
			"outputs": [
				{
					"internalType": "bytes32",
					"name": "",
					"type": "bytes32"
				}
			],
			"stateMutability": "pure",
			"type": "function"
		},
		{
			"inputs": [
				{
					"internalType": "address",
					"name": "owner",
					"type": "address"
				}
			],
			"name": "getMyOrders",
			"outputs": [
				{
					"components": [
						{
							"internalType": "bool",
							"name": "exists",
							"type": "bool"
						},
						{
							"internalType": "bytes32",
							"name": "orderId",
							"type": "bytes32"
						},
						{
							"internalType": "address",
							"name": "wrappedNFTContract",
							"type": "address"
						},
						{
							"internalType": "uint256",
							"name": "tokenId",
							"type": "uint256"
						},
						{
							"internalType": "string",
							"name": "tokenSymbol",
							"type": "string"
						},
						{
							"internalType": "address",
							"name": "tokenContract",
							"type": "address"
						},
						{
							"components": [
								{
									"internalType": "string",
									"name": "p",
									"type": "string"
								},
								{
									"internalType": "string",
									"name": "op",
									"type": "string"
								},
								{
									"internalType": "string",
									"name": "tick",
									"type": "string"
								},
								{
									"internalType": "uint256",
									"name": "amt",
									"type": "uint256"
								},
								{
									"internalType": "uint256",
									"name": "limit",
									"type": "uint256"
								}
							],
							"internalType": "struct IInscriptionCommon.Inscription",
							"name": "inscription",
							"type": "tuple"
						},
						{
							"internalType": "uint256",
							"name": "remainingAmt",
							"type": "uint256"
						},
						{
							"internalType": "address",
							"name": "seller",
							"type": "address"
						},
						{
							"internalType": "uint256",
							"name": "unitPrice",
							"type": "uint256"
						},
						{
							"internalType": "uint256",
							"name": "createTime",
							"type": "uint256"
						}
					],
					"internalType": "struct IInscriptionCommon.Order[]",
					"name": "",
					"type": "tuple[]"
				}
			],
			"stateMutability": "view",
			"type": "function"
		},
		{
			"inputs": [
				{
					"internalType": "uint256",
					"name": "page",
					"type": "uint256"
				},
				{
					"internalType": "uint256",
					"name": "pageSize",
					"type": "uint256"
				}
			],
			"name": "getOrders",
			"outputs": [
				{
					"components": [
						{
							"internalType": "bool",
							"name": "exists",
							"type": "bool"
						},
						{
							"internalType": "bytes32",
							"name": "orderId",
							"type": "bytes32"
						},
						{
							"internalType": "address",
							"name": "wrappedNFTContract",
							"type": "address"
						},
						{
							"internalType": "uint256",
							"name": "tokenId",
							"type": "uint256"
						},
						{
							"internalType": "string",
							"name": "tokenSymbol",
							"type": "string"
						},
						{
							"internalType": "address",
							"name": "tokenContract",
							"type": "address"
						},
						{
							"components": [
								{
									"internalType": "string",
									"name": "p",
									"type": "string"
								},
								{
									"internalType": "string",
									"name": "op",
									"type": "string"
								},
								{
									"internalType": "string",
									"name": "tick",
									"type": "string"
								},
								{
									"internalType": "uint256",
									"name": "amt",
									"type": "uint256"
								},
								{
									"internalType": "uint256",
									"name": "limit",
									"type": "uint256"
								}
							],
							"internalType": "struct IInscriptionCommon.Inscription",
							"name": "inscription",
							"type": "tuple"
						},
						{
							"internalType": "uint256",
							"name": "remainingAmt",
							"type": "uint256"
						},
						{
							"internalType": "address",
							"name": "seller",
							"type": "address"
						},
						{
							"internalType": "uint256",
							"name": "unitPrice",
							"type": "uint256"
						},
						{
							"internalType": "uint256",
							"name": "createTime",
							"type": "uint256"
						}
					],
					"internalType": "struct IInscriptionCommon.Order[]",
					"name": "",
					"type": "tuple[]"
				}
			],
			"stateMutability": "view",
			"type": "function"
		},
		{
			"inputs": [],
			"name": "getOrdersTotal",
			"outputs": [
				{
					"internalType": "uint256",
					"name": "",
					"type": "uint256"
				}
			],
			"stateMutability": "view",
			"type": "function"
		},
		{
			"inputs": [
				{
					"internalType": "address",
					"name": "wallet",
					"type": "address"
				}
			],
			"name": "getTradeRecordsByAddress",
			"outputs": [
				{
					"components": [
						{
							"components": [
								{
									"internalType": "bool",
									"name": "exists",
									"type": "bool"
								},
								{
									"internalType": "bytes32",
									"name": "orderId",
									"type": "bytes32"
								},
								{
									"internalType": "address",
									"name": "wrappedNFTContract",
									"type": "address"
								},
								{
									"internalType": "uint256",
									"name": "tokenId",
									"type": "uint256"
								},
								{
									"internalType": "string",
									"name": "tokenSymbol",
									"type": "string"
								},
								{
									"internalType": "address",
									"name": "tokenContract",
									"type": "address"
								},
								{
									"components": [
										{
											"internalType": "string",
											"name": "p",
											"type": "string"
										},
										{
											"internalType": "string",
											"name": "op",
											"type": "string"
										},
										{
											"internalType": "string",
											"name": "tick",
											"type": "string"
										},
										{
											"internalType": "uint256",
											"name": "amt",
											"type": "uint256"
										},
										{
											"internalType": "uint256",
											"name": "limit",
											"type": "uint256"
										}
									],
									"internalType": "struct IInscriptionCommon.Inscription",
									"name": "inscription",
									"type": "tuple"
								},
								{
									"internalType": "uint256",
									"name": "remainingAmt",
									"type": "uint256"
								},
								{
									"internalType": "address",
									"name": "seller",
									"type": "address"
								},
								{
									"internalType": "uint256",
									"name": "unitPrice",
									"type": "uint256"
								},
								{
									"internalType": "uint256",
									"name": "createTime",
									"type": "uint256"
								}
							],
							"internalType": "struct IInscriptionCommon.Order",
							"name": "order",
							"type": "tuple"
						},
						{
							"internalType": "address",
							"name": "from",
							"type": "address"
						},
						{
							"internalType": "address",
							"name": "to",
							"type": "address"
						},
						{
							"internalType": "string",
							"name": "op",
							"type": "string"
						},
						{
							"internalType": "uint256",
							"name": "time",
							"type": "uint256"
						}
					],
					"internalType": "struct IInscriptionCommon.TradeRecord[]",
					"name": "",
					"type": "tuple[]"
				}
			],
			"stateMutability": "view",
			"type": "function"
		},
		{
			"inputs": [],
			"name": "getTradingCount",
			"outputs": [
				{
					"internalType": "uint256",
					"name": "",
					"type": "uint256"
				}
			],
			"stateMutability": "view",
			"type": "function"
		},
		{
			"inputs": [
				{
					"internalType": "address",
					"name": "owner",
					"type": "address"
				}
			],
			"name": "getUserWrappedInscriptions",
			"outputs": [
				{
					"components": [
						{
							"internalType": "uint256",
							"name": "tokenId",
							"type": "uint256"
						},
						{
							"internalType": "uint256",
							"name": "chainId",
							"type": "uint256"
						},
						{
							"internalType": "string",
							"name": "tick",
							"type": "string"
						},
						{
							"internalType": "string",
							"name": "protocol",
							"type": "string"
						},
						{
							"internalType": "uint256",
							"name": "amount",
							"type": "uint256"
						},
						{
							"internalType": "address",
							"name": "owner",
							"type": "address"
						},
						{
							"internalType": "address",
							"name": "contractAddr",
							"type": "address"
						}
					],
					"internalType": "struct INFTWrapFactory.EthscriptionToNFT[]",
					"name": "",
					"type": "tuple[]"
				}
			],
			"stateMutability": "view",
			"type": "function"
		},
		{
			"inputs": [],
			"name": "getVolume",
			"outputs": [
				{
					"internalType": "uint256",
					"name": "",
					"type": "uint256"
				}
			],
			"stateMutability": "view",
			"type": "function"
		},
		{
			"inputs": [
				{
					"internalType": "address",
					"name": "tokenContract",
					"type": "address"
				}
			],
			"name": "getVolumeByToken",
			"outputs": [
				{
					"internalType": "uint256",
					"name": "",
					"type": "uint256"
				}
			],
			"stateMutability": "view",
			"type": "function"
		},
		{
			"inputs": [
				{
					"internalType": "address",
					"name": "nftContract",
					"type": "address"
				},
				{
					"internalType": "uint256",
					"name": "tokenId",
					"type": "uint256"
				}
			],
			"name": "isListed",
			"outputs": [
				{
					"internalType": "bool",
					"name": "",
					"type": "bool"
				}
			],
			"stateMutability": "view",
			"type": "function"
		},
		{
			"inputs": [
				{
					"internalType": "uint256",
					"name": "",
					"type": "uint256"
				}
			],
			"name": "isNFTListed",
			"outputs": [
				{
					"internalType": "bool",
					"name": "",
					"type": "bool"
				}
			],
			"stateMutability": "view",
			"type": "function"
		},
		{
			"inputs": [],
			"name": "nftFactoryContract",
			"outputs": [
				{
					"internalType": "address",
					"name": "",
					"type": "address"
				}
			],
			"stateMutability": "view",
			"type": "function"
		},
		{
			"inputs": [],
			"name": "owner",
			"outputs": [
				{
					"internalType": "address",
					"name": "",
					"type": "address"
				}
			],
			"stateMutability": "view",
			"type": "function"
		},
		{
			"inputs": [],
			"name": "recipientAddress",
			"outputs": [
				{
					"internalType": "address",
					"name": "",
					"type": "address"
				}
			],
			"stateMutability": "view",
			"type": "function"
		},
		{
			"inputs": [],
			"name": "renounceOwnership",
			"outputs": [],
			"stateMutability": "nonpayable",
			"type": "function"
		},
		{
			"inputs": [
				{
					"internalType": "uint256",
					"name": "_fee",
					"type": "uint256"
				}
			],
			"name": "setFee",
			"outputs": [],
			"stateMutability": "nonpayable",
			"type": "function"
		},
		{
			"inputs": [
				{
					"internalType": "address",
					"name": "newNFTFactoryContract",
					"type": "address"
				}
			],
			"name": "setNFTFactoryContract",
			"outputs": [],
			"stateMutability": "nonpayable",
			"type": "function"
		},
		{
			"inputs": [
				{
					"internalType": "address",
					"name": "newRecipient",
					"type": "address"
				}
			],
			"name": "setRecipientAddress",
			"outputs": [],
			"stateMutability": "nonpayable",
			"type": "function"
		},
		{
			"inputs": [
				{
					"internalType": "address",
					"name": "newStorageContract",
					"type": "address"
				}
			],
			"name": "setStorageContract",
			"outputs": [],
			"stateMutability": "nonpayable",
			"type": "function"
		},
		{
			"inputs": [
				{
					"internalType": "address",
					"name": "operator",
					"type": "address"
				},
				{
					"internalType": "bool",
					"name": "status",
					"type": "bool"
				}
			],
			"name": "setWithdrawWL",
			"outputs": [],
			"stateMutability": "nonpayable",
			"type": "function"
		},
		{
			"inputs": [],
			"name": "storageContract",
			"outputs": [
				{
					"internalType": "address",
					"name": "",
					"type": "address"
				}
			],
			"stateMutability": "view",
			"type": "function"
		},
		{
			"inputs": [
				{
					"internalType": "bool",
					"name": "status",
					"type": "bool"
				}
			],
			"name": "switchMarketStatus",
			"outputs": [],
			"stateMutability": "nonpayable",
			"type": "function"
		},
		{
			"inputs": [
				{
					"internalType": "address",
					"name": "newOwner",
					"type": "address"
				}
			],
			"name": "transferOwnership",
			"outputs": [],
			"stateMutability": "nonpayable",
			"type": "function"
		},
		{
			"inputs": [
				{
					"internalType": "bytes32",
					"name": "orderId",
					"type": "bytes32"
				},
				{
					"internalType": "uint256",
					"name": "unitPrice",
					"type": "uint256"
				}
			],
			"name": "updateOrder",
			"outputs": [],
			"stateMutability": "nonpayable",
			"type": "function"
		},
		{
			"inputs": [],
			"name": "withdraw",
			"outputs": [],
			"stateMutability": "nonpayable",
			"type": "function"
		},
		{
			"inputs": [],
			"name": "withdrawForWL",
			"outputs": [],
			"stateMutability": "nonpayable",
			"type": "function"
		},
		{
			"inputs": [
				{
					"internalType": "address",
					"name": "tokenContract",
					"type": "address"
				}
			],
			"name": "withdrawToken",
			"outputs": [],
			"stateMutability": "nonpayable",
			"type": "function"
		},
		{
			"inputs": [
				{
					"internalType": "address",
					"name": "tokenContract",
					"type": "address"
				}
			],
			"name": "withdrawTokenForWL",
			"outputs": [],
			"stateMutability": "nonpayable",
			"type": "function"
		},
		{
			"inputs": [
				{
					"internalType": "address",
					"name": "",
					"type": "address"
				}
			],
			"name": "withdrawWL",
			"outputs": [
				{
					"internalType": "bool",
					"name": "",
					"type": "bool"
				}
			],
			"stateMutability": "view",
			"type": "function"
		},
		{
			"stateMutability": "payable",
			"type": "receive"
		}
	]
}