{
	"data": {
		"bytecode": {
			"linkReferences": {},
			"object": "60806040523461062157611f4c8038038061001981610625565b9283398101906040818303126106215780516001600160401b038111610621578261004591830161064a565b60208201519092906001600160401b03811161062157610065920161064a565b61006f6040610625565b916005835264135e53919560da1b602084015261008c6040610625565b60048152631353919560e21b602082015283519092906001600160401b03811161036e575f54600181811c91168015610617575b602082101461035057601f81116105b5575b50602094601f8211600114610554579481929394955f92610549575b50508160011b915f199060031b1c1916175f555b82516001600160401b03811161036e57600154600181811c9116801561053f575b602082101461035057601f81116104dc575b506020601f821160011461047957819293945f9261046e575b50508160011b915f199060031b1c1916176001555b331561045b5760078054336001600160a01b0319821681179092556001600160a01b03167f8be0079c531659141344cd1fd0a4f28419497f9722a3daafe3b4186f6b6457e05f80a3600160085581516001600160401b03811161036e57600954600181811c91168015610451575b602082101461035057601f81116103ee575b50602092601f821160011461038d57928192935f92610382575b50508160011b915f199060031b1c1916176009555b80516001600160401b03811161036e57600a54600181811c91168015610364575b602082101461035057601f81116102ed575b50602091601f821160011461028d579181925f92610282575b50508160011b915f199060031b1c191617600a555b6040516118b0908161069c8239f35b015190505f8061025e565b601f19821692600a5f52805f20915f5b8581106102d5575083600195106102bd575b505050811b01600a55610273565b01515f1960f88460031b161c191690555f80806102af565b9192602060018192868501518155019401920161029d565b600a5f527fc65a7bb8d6351c1cf70c95a316cc6a92839c986682d98bc35f958f4883f9d2a8601f830160051c81019160208410610346575b601f0160051c01905b81811061033b5750610245565b5f815560010161032e565b9091508190610325565b634e487b7160e01b5f52602260045260245ffd5b90607f1690610233565b634e487b7160e01b5f52604160045260245ffd5b015190505f806101fd565b601f1982169360095f52805f20915f5b8681106103d657508360019596106103be575b505050811b01600955610212565b01515f1960f88460031b161c191690555f80806103b0565b9192602060018192868501518155019401920161039d565b60095f527f6e1540171b6c0c960b71a7020d9f60077f6af931a8bbf590da0223dacf75c7af601f830160051c81019160208410610447575b601f0160051c01905b81811061043c57506101e3565b5f815560010161042f565b9091508190610426565b90607f16906101d1565b631e4fbdf760e01b5f525f60045260245ffd5b015190505f8061014e565b601f1982169060015f52805f20915f5b8181106104c4575095836001959697106104ac575b505050811b01600155610163565b01515f1960f88460031b161c191690555f808061049e565b9192602060018192868b015181550194019201610489565b60015f527fb10e2d527612073b26eecdfd717e6a320cf44b4afac2b0732d9fcbe2b7fa0cf6601f830160051c81019160208410610535575b601f0160051c01905b81811061052a5750610135565b5f815560010161051d565b9091508190610514565b90607f1690610123565b015190505f806100ee565b601f198216955f8052805f20915f5b88811061059d57508360019596979810610585575b505050811b015f55610102565b01515f1960f88460031b161c191690555f8080610578565b91926020600181928685015181550194019201610563565b5f80527f290decd9548b62a8d60345a988386fc84ba6bc95484008f6362f93160ef3e563601f830160051c8101916020841061060d575b601f0160051c01905b81811061060257506100d2565b5f81556001016105f5565b90915081906105ec565b90607f16906100c0565b5f80fd5b6040519190601f01601f191682016001600160401b0381118382101761036e57604052565b81601f82011215610621578051906001600160401b03821161036e57610679601f8301601f1916602001610625565b928284526020838301011161062157815f9260208093018386015e830101529056fe6080806040526004361015610012575f80fd5b5f3560e01c90816301ffc9a714610ad15750806306fdde0314610a2f578063081812fc146109f2578063095ea7b31461090657806323b872dd146108ef5780633eaf5d9f146108d457806342842e0e146108a55780634a5dc3aa146107ea5780636352211e146107bb57806370a082311461076a578063715018a61461071857806379207ab5146106cb5780638ce74426146106b05780638da5cb5b1461068a57806395d89b41146105c0578063a20d0c51146104f4578063a22cb46514610459578063b88d4fde146103ed578063c87b56dd146103b6578063d204c45e146102cd578063e2afe8b3146101f4578063e985e9c51461019b5763f2fde38b14610119575f80fd5b34610197576020366003190112610197576001600160a01b0361013a610b7a565b6101426113bf565b168015610184576001600160a01b03600754828219821617600755167f8be0079c531659141344cd1fd0a4f28419497f9722a3daafe3b4186f6b6457e05f80a3005b631e4fbdf760e01b5f525f60045260245ffd5b5f80fd5b34610197576040366003190112610197576101b4610b7a565b6001600160a01b036101c4610b90565b91165f5260056020526001600160a01b0360405f2091165f52602052602060ff60405f2054166040519015158152f35b346101975760203660031901126101975761020d610b7a565b506040518060208101602082526060518091526040820160408260051b840101916080915f905b82821061024357505050500390f35b919360019193955060208091603f1989820301855287519081518152828201518382015260c06001600160a01b03816102a061028e604087015160e0604088015260e0870190610b56565b60608701518682036060880152610b56565b94608081015160808601528260a08201511660a08601520151169101529601920192018594939192610234565b34610197576040366003190112610197576102e6610b7a565b6024359067ffffffffffffffff82116101975761033561030d6103b4933690600401610ea6565b6103156113bf565b61032d61032360085461105f565b80600855846113e6565b6008546115f0565b6001600160a01b03600854916040519261034e84610c18565b835260016020840152604080516103658282610c48565b60038152620cae8d60eb1b60208201528185015261038581519182610c48565b6005815264065726332360dc1b60208201526060840152600160808401521660a08201523060c0820152611081565b005b34610197576020366003190112610197576103e96103d560043561135c565b604051918291602083526020830190610b56565b0390f35b3461019757608036600319011261019757610406610b7a565b61040e610b90565b906044356064359267ffffffffffffffff84116101975736602385011215610197576104476103b4943690602481600401359101610e70565b92610453838383610ec4565b33611757565b3461019757604036600319011261019757610472610b7a565b60243590811515809203610197576001600160a01b03169081156104e157335f52600560205260405f20825f5260205260405f2060ff1981541660ff83161790556040519081527f17307eab39ab6107e8899845ad3d59bd9653f200f220920489ca2b5937696c3160203392a3005b50630b61174360e31b5f5260045260245ffd5b3461019757602036600319011261019757600435600b5481101561019757600b548110156105ac57600b5f52600760205f20910201805460018201549161053d60028201610db6565b61054960038301610db6565b9161059860048201549361058a6001600160a01b0360068160058701541695015416946040519889988952602089015260e0604089015260e0880190610b56565b908682036060880152610b56565b92608085015260a084015260c08301520390f35b634e487b7160e01b5f52603260045260245ffd5b34610197575f366003190112610197576040515f6001546105e081610be0565b80845290600181169081156106665750600114610608575b6103e9836103d581850382610c48565b60015f9081527fb10e2d527612073b26eecdfd717e6a320cf44b4afac2b0732d9fcbe2b7fa0cf6939250905b80821061064c575090915081016020016103d56105f8565b919260018160209254838588010152019101909291610634565b60ff191660208086019190915291151560051b840190910191506103d590506105f8565b34610197575f3660031901126101975760206001600160a01b0360075416604051908152f35b34610197575f366003190112610197576103e96103d5610d21565b34610197576040366003190112610197576106e4610b7a565b6001600160a01b0360243591165f52600c60205260405f20908154811015610197576020915f52815f200154604051908152f35b34610197575f366003190112610197576107306113bf565b5f6001600160a01b0360075481198116600755167f8be0079c531659141344cd1fd0a4f28419497f9722a3daafe3b4186f6b6457e08280a3005b34610197576020366003190112610197576001600160a01b0361078b610b7a565b1680156107a8575f526003602052602060405f2054604051908152f35b6322718ad960e21b5f525f60045260245ffd5b346101975760203660031901126101975760206107d960043561138c565b6001600160a01b0360405191168152f35b3461019757608036600319011261019757610803610b7a565b6024359067ffffffffffffffff8211610197576001600160a01b0361082f6103b4933690600401610ea6565b916108386113bf565b61085b61084660085461105f565b938460085561085585846113e6565b846115f0565b6040519261086884610c18565b8352604435602084015261087a610c6a565b6040840152610887610d21565b606084015260643560808401521660a08201523060c0820152611081565b34610197576103b46108b636610ba6565b90604051926108c6602085610c48565b5f8452610453838383610ec4565b34610197575f366003190112610197576103e96103d5610c6a565b34610197576103b461090036610ba6565b91610ec4565b346101975760403660031901126101975761091f610b7a565b60243561092b8161138c565b331515806109df575b806109ac575b6109995781906001600160a01b0380851691167f8c5be1e5ebec7d5bd14f71427d1e84f3dd0314c0f7b2291e5b200ac8c7c3b9255f80a45f5260046020526001600160a01b0360405f2091166001600160a01b03198254161790555f80f35b63a9fbf51f60e01b5f523360045260245ffd5b506001600160a01b0381165f52600560205260405f206001600160a01b0333165f5260205260ff60405f2054161561093a565b50336001600160a01b0382161415610934565b3461019757602036600319011261019757600435610a0f8161138c565b505f52600460205260206001600160a01b0360405f205416604051908152f35b34610197575f366003190112610197576040515f5f54610a4e81610be0565b80845290600181169081156106665750600114610a75576103e9836103d581850382610c48565b5f8080527f290decd9548b62a8d60345a988386fc84ba6bc95484008f6362f93160ef3e563939250905b808210610ab7575090915081016020016103d56105f8565b919260018160209254838588010152019101909291610a9f565b34610197576020366003190112610197576004359063ffffffff60e01b821680920361019757602091632483248360e11b8114908115610b13575b5015158152f35b6380ac58cd60e01b811491508115610b45575b8115610b34575b5083610b0c565b6301ffc9a760e01b14905083610b2d565b635b5e139f60e01b81149150610b26565b805180835260209291819084018484015e5f828201840152601f01601f1916010190565b600435906001600160a01b038216820361019757565b602435906001600160a01b038216820361019757565b6060906003190112610197576004356001600160a01b038116810361019757906024356001600160a01b0381168103610197579060443590565b90600182811c92168015610c0e575b6020831014610bfa57565b634e487b7160e01b5f52602260045260245ffd5b91607f1691610bef565b60e0810190811067ffffffffffffffff821117610c3457604052565b634e487b7160e01b5f52604160045260245ffd5b90601f8019910116810190811067ffffffffffffffff821117610c3457604052565b604051905f8260095491610c7d83610be0565b8083529260018116908115610d025750600114610ca3575b610ca192500383610c48565b565b5060095f90815290917f6e1540171b6c0c960b71a7020d9f60077f6af931a8bbf590da0223dacf75c7af5b818310610ce6575050906020610ca192820101610c95565b6020919350806001915483858901015201910190918492610cce565b60209250610ca194915060ff191682840152151560051b820101610c95565b604051905f82600a5491610d3483610be0565b8083529260018116908115610d025750600114610d5757610ca192500383610c48565b50600a5f90815290917fc65a7bb8d6351c1cf70c95a316cc6a92839c986682d98bc35f958f4883f9d2a85b818310610d9a575050906020610ca192820101610c95565b6020919350806001915483858901015201910190918492610d82565b9060405191825f825492610dc984610be0565b8084529360018116908115610e325750600114610dee575b50610ca192500383610c48565b90505f9291925260205f20905f915b818310610e16575050906020610ca1928201015f610de1565b6020919350806001915483858901015201910190918492610dfd565b905060209250610ca194915060ff191682840152151560051b8201015f610de1565b67ffffffffffffffff8111610c3457601f01601f191660200190565b929192610e7c82610e54565b91610e8a6040519384610c48565b829481845281830111610197578281602093845f960137010152565b9080601f8301121561019757816020610ec193359101610e70565b90565b91906001600160a01b0316801561104c57815f5260026020526001600160a01b0360405f20541692823315159283610fb0575b6001600160a01b03935085610f79575b805f52600360205260405f2060018154019055815f52600260205260405f20818519825416179055857fddf252ad1be2c89b69c2b068fc378daa952ba7f163c4a11628f55a4df523b3ef5f80a416808303610f6157505050565b6364283d7b60e01b5f5260045260245260445260645ffd5b610f98825f52600460205260405f206001600160a01b03198154169055565b855f52600360205260405f205f198154019055610f07565b9192905080610ff5575b15610fc757828291610ef7565b8284610fdf57637e27328960e01b5f5260045260245ffd5b63177e802f60e01b5f523360045260245260445ffd5b503384148015611023575b80610fba5750825f526004602052336001600160a01b0360405f20541614610fba565b50835f52600560205260405f206001600160a01b0333165f5260205260ff60405f205416611000565b633250574960e11b5f525f60045260245ffd5b5f19811461106d5760010190565b634e487b7160e01b5f52601160045260245ffd5b600b5468010000000000000000811015610c345760018101600b55600b548110156105ac57600b5f526007027f0175b7a638427703f0dbe7bb9bbf987a2551717b34e79f33b5b1008d1fa01db90190805182556020810151600183015560028201604082015180519067ffffffffffffffff8211610c345781906111058454610be0565b601f811161130c575b50602090601f83116001146112a9575f9261129e575b50508160011b915f199060031b1c19161790555b60038201606082015180519067ffffffffffffffff8211610c345761115d8354610be0565b601f8111611259575b50602090601f83116001146111e75793600693836001600160a01b03969460c09488965f926111dc575b50508160011b915f199060031b1c19161790555b608081015160048701558260a082015116836005880191168419825416179055015116920191166001600160a01b0319825416179055565b015190505f80611190565b90601f19831691845f52815f20925f5b81811061124157508460c0946001600160a01b039894600698948a9860019510611229575b505050811b0190556111a4565b01515f1960f88460031b161c191690555f808061121c565b929360206001819287860151815501950193016111f7565b835f5260205f20601f840160051c81019160208510611294575b601f0160051c01905b8181106112895750611166565b5f815560010161127c565b9091508190611273565b015190505f80611124565b5f8581528281209350601f198516905b8181106112f457509084600195949392106112dc575b505050811b019055611138565b01515f1960f88460031b161c191690555f80806112cf565b929360206001819287860151815501950193016112b9565b909150835f5260205f20601f840160051c81019160208510611352575b90601f859493920160051c01905b818110611344575061110e565b5f8155849350600101611337565b9091508190611329565b6113658161138c565b505f52600660205261137960405f20610db6565b5f604051611388602082610c48565b5290565b805f5260026020526001600160a01b0360405f2054169081156113ad575090565b637e27328960e01b5f5260045260245ffd5b6001600160a01b036007541633036113d357565b63118cdaa760e01b5f523360045260245ffd5b90602090604051906113f88383610c48565b5f82526001600160a01b03841693841561104c57815f52600284526001600160a01b0360405f20541680151590816115ba575b865f526003865260405f2060018154019055835f526002865260405f20876001600160a01b03198254161790558387827fddf252ad1be2c89b69c2b068fc378daa952ba7f163c4a11628f55a4df523b3ef5f80a4506115a7573b611490575b50505050565b916114cd91819495936040519384928392630a85bd0160e11b84523360048501525f60248501526044840152608060648401526084830190610b56565b03815f885af15f9181611567575b506115305750503d15611528573d906114f382610e54565b916115016040519384610c48565b82523d5f8284013e5b815191826115255783633250574960e11b5f5260045260245ffd5b01fd5b60609061150a565b909291506001600160e01b03191663757a42ff60e11b0161155557505f80808061148a565b633250574960e11b5f5260045260245ffd5b9091508381813d83116115a0575b61157f8183610c48565b8101031261019757516001600160e01b03198116810361019757905f6114db565b503d611575565b6339e3563760e11b5f525f60045260245ffd5b6115d9845f52600460205260405f206001600160a01b03198154169055565b805f526003865260405f205f19815401905561142b565b919091805f52600660205260405f20835167ffffffffffffffff8111610c345761161a8254610be0565b601f8111611712575b506020601f821160011461168a57908060209493927ff8e1a15aba9398e019f0b49df1a4fde98ee17ae345cb5f6b5e2c27f5033e8ce796975f9261167f575b50508160011b915f199060031b1c19161790555b604051908152a1565b015190505f80611662565b601f19821695835f52815f20965f5b8181106116fa575096600192849260209796957ff8e1a15aba9398e019f0b49df1a4fde98ee17ae345cb5f6b5e2c27f5033e8ce7999a106116e2575b505050811b019055611676565b01515f1960f88460031b161c191690555f80806116d5565b83830151895560019098019760209384019301611699565b825f5260205f20601f830160051c8101916020841061174d575b601f0160051c01905b8181106117425750611623565b5f8155600101611735565b909150819061172c565b93909293823b611769575b5050505050565b6117b06001600160a01b0392836020951696846040519788968796630a85bd0160e11b88521660048701521660248501526044840152608060648401526084830190610b56565b03815f865af15f9181611835575b5061181357503d1561180c573d6117d481610e54565b906117e26040519283610c48565b81523d5f602083013e5b805190816118075782633250574960e11b5f5260045260245ffd5b602001fd5b60606117ec565b6001600160e01b03191663757a42ff60e11b0161155557505f80808080611762565b9091506020813d602011611872575b8161185160209383610c48565b8101031261019757516001600160e01b03198116810361019757905f6117be565b3d915061184456fea2646970667358221220e2fd791ec6308d2c1a12bad33e13b4161050bd9d485572b067aa80fb9a1d72d664736f6c634300081c0033",
			"opcodes": "PUSH1 0x80 PUSH1 0x40 MSTORE CALLVALUE PUSH2 0x621 JUMPI PUSH2 0x1F4C DUP1 CODESIZE SUB DUP1 PUSH2 0x19 DUP2 PUSH2 0x625 JUMP JUMPDEST SWAP3 DUP4 CODECOPY DUP2 ADD SWAP1 PUSH1 0x40 DUP2 DUP4 SUB SLT PUSH2 0x621 JUMPI DUP1 MLOAD PUSH1 0x1 PUSH1 0x1 PUSH1 0x40 SHL SUB DUP2 GT PUSH2 0x621 JUMPI DUP3 PUSH2 0x45 SWAP2 DUP4 ADD PUSH2 0x64A JUMP JUMPDEST PUSH1 0x20 DUP3 ADD MLOAD SWAP1 SWAP3 SWAP1 PUSH1 0x1 PUSH1 0x1 PUSH1 0x40 SHL SUB DUP2 GT PUSH2 0x621 JUMPI PUSH2 0x65 SWAP3 ADD PUSH2 0x64A JUMP JUMPDEST PUSH2 0x6F PUSH1 0x40 PUSH2 0x625 JUMP JUMPDEST SWAP2 PUSH1 0x5 DUP4 MSTORE PUSH5 0x135E539195 PUSH1 0xDA SHL PUSH1 0x20 DUP5 ADD MSTORE PUSH2 0x8C PUSH1 0x40 PUSH2 0x625 JUMP JUMPDEST PUSH1 0x4 DUP2 MSTORE PUSH4 0x13539195 PUSH1 0xE2 SHL PUSH1 0x20 DUP3 ADD MSTORE DUP4 MLOAD SWAP1 SWAP3 SWAP1 PUSH1 0x1 PUSH1 0x1 PUSH1 0x40 SHL SUB DUP2 GT PUSH2 0x36E JUMPI PUSH0 SLOAD PUSH1 0x1 DUP2 DUP2 SHR SWAP2 AND DUP1 ISZERO PUSH2 0x617 JUMPI JUMPDEST PUSH1 0x20 DUP3 LT EQ PUSH2 0x350 JUMPI PUSH1 0x1F DUP2 GT PUSH2 0x5B5 JUMPI JUMPDEST POP PUSH1 0x20 SWAP5 PUSH1 0x1F DUP3 GT PUSH1 0x1 EQ PUSH2 0x554 JUMPI SWAP5 DUP2 SWAP3 SWAP4 SWAP5 SWAP6 PUSH0 SWAP3 PUSH2 0x549 JUMPI JUMPDEST POP POP DUP2 PUSH1 0x1 SHL SWAP2 PUSH0 NOT SWAP1 PUSH1 0x3 SHL SHR NOT AND OR PUSH0 SSTORE JUMPDEST DUP3 MLOAD PUSH1 0x1 PUSH1 0x1 PUSH1 0x40 SHL SUB DUP2 GT PUSH2 0x36E JUMPI PUSH1 0x1 SLOAD PUSH1 0x1 DUP2 DUP2 SHR SWAP2 AND DUP1 ISZERO PUSH2 0x53F JUMPI JUMPDEST PUSH1 0x20 DUP3 LT EQ PUSH2 0x350 JUMPI PUSH1 0x1F DUP2 GT PUSH2 0x4DC JUMPI JUMPDEST POP PUSH1 0x20 PUSH1 0x1F DUP3 GT PUSH1 0x1 EQ PUSH2 0x479 JUMPI DUP2 SWAP3 SWAP4 SWAP5 PUSH0 SWAP3 PUSH2 0x46E JUMPI JUMPDEST POP POP DUP2 PUSH1 0x1 SHL SWAP2 PUSH0 NOT SWAP1 PUSH1 0x3 SHL SHR NOT AND OR PUSH1 0x1 SSTORE JUMPDEST CALLER ISZERO PUSH2 0x45B JUMPI PUSH1 0x7 DUP1 SLOAD CALLER PUSH1 0x1 PUSH1 0x1 PUSH1 0xA0 SHL SUB NOT DUP3 AND DUP2 OR SWAP1 SWAP3 SSTORE PUSH1 0x1 PUSH1 0x1 PUSH1 0xA0 SHL SUB AND PUSH32 0x8BE0079C531659141344CD1FD0A4F28419497F9722A3DAAFE3B4186F6B6457E0 PUSH0 DUP1 LOG3 PUSH1 0x1 PUSH1 0x8 SSTORE DUP2 MLOAD PUSH1 0x1 PUSH1 0x1 PUSH1 0x40 SHL SUB DUP2 GT PUSH2 0x36E JUMPI PUSH1 0x9 SLOAD PUSH1 0x1 DUP2 DUP2 SHR SWAP2 AND DUP1 ISZERO PUSH2 0x451 JUMPI JUMPDEST PUSH1 0x20 DUP3 LT EQ PUSH2 0x350 JUMPI PUSH1 0x1F DUP2 GT PUSH2 0x3EE JUMPI JUMPDEST POP PUSH1 0x20 SWAP3 PUSH1 0x1F DUP3 GT PUSH1 0x1 EQ PUSH2 0x38D JUMPI SWAP3 DUP2 SWAP3 SWAP4 PUSH0 SWAP3 PUSH2 0x382 JUMPI JUMPDEST POP POP DUP2 PUSH1 0x1 SHL SWAP2 PUSH0 NOT SWAP1 PUSH1 0x3 SHL SHR NOT AND OR PUSH1 0x9 SSTORE JUMPDEST DUP1 MLOAD PUSH1 0x1 PUSH1 0x1 PUSH1 0x40 SHL SUB DUP2 GT PUSH2 0x36E JUMPI PUSH1 0xA SLOAD PUSH1 0x1 DUP2 DUP2 SHR SWAP2 AND DUP1 ISZERO PUSH2 0x364 JUMPI JUMPDEST PUSH1 0x20 DUP3 LT EQ PUSH2 0x350 JUMPI PUSH1 0x1F DUP2 GT PUSH2 0x2ED JUMPI JUMPDEST POP PUSH1 0x20 SWAP2 PUSH1 0x1F DUP3 GT PUSH1 0x1 EQ PUSH2 0x28D JUMPI SWAP2 DUP2 SWAP3 PUSH0 SWAP3 PUSH2 0x282 JUMPI JUMPDEST POP POP DUP2 PUSH1 0x1 SHL SWAP2 PUSH0 NOT SWAP1 PUSH1 0x3 SHL SHR NOT AND OR PUSH1 0xA SSTORE JUMPDEST PUSH1 0x40 MLOAD PUSH2 0x18B0 SWAP1 DUP2 PUSH2 0x69C DUP3 CODECOPY RETURN JUMPDEST ADD MLOAD SWAP1 POP PUSH0 DUP1 PUSH2 0x25E JUMP JUMPDEST PUSH1 0x1F NOT DUP3 AND SWAP3 PUSH1 0xA PUSH0 MSTORE DUP1 PUSH0 KECCAK256 SWAP2 PUSH0 JUMPDEST DUP6 DUP2 LT PUSH2 0x2D5 JUMPI POP DUP4 PUSH1 0x1 SWAP6 LT PUSH2 0x2BD JUMPI JUMPDEST POP POP POP DUP2 SHL ADD PUSH1 0xA SSTORE PUSH2 0x273 JUMP JUMPDEST ADD MLOAD PUSH0 NOT PUSH1 0xF8 DUP5 PUSH1 0x3 SHL AND SHR NOT AND SWAP1 SSTORE PUSH0 DUP1 DUP1 PUSH2 0x2AF JUMP JUMPDEST SWAP2 SWAP3 PUSH1 0x20 PUSH1 0x1 DUP2 SWAP3 DUP7 DUP6 ADD MLOAD DUP2 SSTORE ADD SWAP5 ADD SWAP3 ADD PUSH2 0x29D JUMP JUMPDEST PUSH1 0xA PUSH0 MSTORE PUSH32 0xC65A7BB8D6351C1CF70C95A316CC6A92839C986682D98BC35F958F4883F9D2A8 PUSH1 0x1F DUP4 ADD PUSH1 0x5 SHR DUP2 ADD SWAP2 PUSH1 0x20 DUP5 LT PUSH2 0x346 JUMPI JUMPDEST PUSH1 0x1F ADD PUSH1 0x5 SHR ADD SWAP1 JUMPDEST DUP2 DUP2 LT PUSH2 0x33B JUMPI POP PUSH2 0x245 JUMP JUMPDEST PUSH0 DUP2 SSTORE PUSH1 0x1 ADD PUSH2 0x32E JUMP JUMPDEST SWAP1 SWAP2 POP DUP2 SWAP1 PUSH2 0x325 JUMP JUMPDEST PUSH4 0x4E487B71 PUSH1 0xE0 SHL PUSH0 MSTORE PUSH1 0x22 PUSH1 0x4 MSTORE PUSH1 0x24 PUSH0 REVERT JUMPDEST SWAP1 PUSH1 0x7F AND SWAP1 PUSH2 0x233 JUMP JUMPDEST PUSH4 0x4E487B71 PUSH1 0xE0 SHL PUSH0 MSTORE PUSH1 0x41 PUSH1 0x4 MSTORE PUSH1 0x24 PUSH0 REVERT JUMPDEST ADD MLOAD SWAP1 POP PUSH0 DUP1 PUSH2 0x1FD JUMP JUMPDEST PUSH1 0x1F NOT DUP3 AND SWAP4 PUSH1 0x9 PUSH0 MSTORE DUP1 PUSH0 KECCAK256 SWAP2 PUSH0 JUMPDEST DUP7 DUP2 LT PUSH2 0x3D6 JUMPI POP DUP4 PUSH1 0x1 SWAP6 SWAP7 LT PUSH2 0x3BE JUMPI JUMPDEST POP POP POP DUP2 SHL ADD PUSH1 0x9 SSTORE PUSH2 0x212 JUMP JUMPDEST ADD MLOAD PUSH0 NOT PUSH1 0xF8 DUP5 PUSH1 0x3 SHL AND SHR NOT AND SWAP1 SSTORE PUSH0 DUP1 DUP1 PUSH2 0x3B0 JUMP JUMPDEST SWAP2 SWAP3 PUSH1 0x20 PUSH1 0x1 DUP2 SWAP3 DUP7 DUP6 ADD MLOAD DUP2 SSTORE ADD SWAP5 ADD SWAP3 ADD PUSH2 0x39D JUMP JUMPDEST PUSH1 0x9 PUSH0 MSTORE PUSH32 0x6E1540171B6C0C960B71A7020D9F60077F6AF931A8BBF590DA0223DACF75C7AF PUSH1 0x1F DUP4 ADD PUSH1 0x5 SHR DUP2 ADD SWAP2 PUSH1 0x20 DUP5 LT PUSH2 0x447 JUMPI JUMPDEST PUSH1 0x1F ADD PUSH1 0x5 SHR ADD SWAP1 JUMPDEST DUP2 DUP2 LT PUSH2 0x43C JUMPI POP PUSH2 0x1E3 JUMP JUMPDEST PUSH0 DUP2 SSTORE PUSH1 0x1 ADD PUSH2 0x42F JUMP JUMPDEST SWAP1 SWAP2 POP DUP2 SWAP1 PUSH2 0x426 JUMP JUMPDEST SWAP1 PUSH1 0x7F AND SWAP1 PUSH2 0x1D1 JUMP JUMPDEST PUSH4 0x1E4FBDF7 PUSH1 0xE0 SHL PUSH0 MSTORE PUSH0 PUSH1 0x4 MSTORE PUSH1 0x24 PUSH0 REVERT JUMPDEST ADD MLOAD SWAP1 POP PUSH0 DUP1 PUSH2 0x14E JUMP JUMPDEST PUSH1 0x1F NOT DUP3 AND SWAP1 PUSH1 0x1 PUSH0 MSTORE DUP1 PUSH0 KECCAK256 SWAP2 PUSH0 JUMPDEST DUP2 DUP2 LT PUSH2 0x4C4 JUMPI POP SWAP6 DUP4 PUSH1 0x1 SWAP6 SWAP7 SWAP8 LT PUSH2 0x4AC JUMPI JUMPDEST POP POP POP DUP2 SHL ADD PUSH1 0x1 SSTORE PUSH2 0x163 JUMP JUMPDEST ADD MLOAD PUSH0 NOT PUSH1 0xF8 DUP5 PUSH1 0x3 SHL AND SHR NOT AND SWAP1 SSTORE PUSH0 DUP1 DUP1 PUSH2 0x49E JUMP JUMPDEST SWAP2 SWAP3 PUSH1 0x20 PUSH1 0x1 DUP2 SWAP3 DUP7 DUP12 ADD MLOAD DUP2 SSTORE ADD SWAP5 ADD SWAP3 ADD PUSH2 0x489 JUMP JUMPDEST PUSH1 0x1 PUSH0 MSTORE PUSH32 0xB10E2D527612073B26EECDFD717E6A320CF44B4AFAC2B0732D9FCBE2B7FA0CF6 PUSH1 0x1F DUP4 ADD PUSH1 0x5 SHR DUP2 ADD SWAP2 PUSH1 0x20 DUP5 LT PUSH2 0x535 JUMPI JUMPDEST PUSH1 0x1F ADD PUSH1 0x5 SHR ADD SWAP1 JUMPDEST DUP2 DUP2 LT PUSH2 0x52A JUMPI POP PUSH2 0x135 JUMP JUMPDEST PUSH0 DUP2 SSTORE PUSH1 0x1 ADD PUSH2 0x51D JUMP JUMPDEST SWAP1 SWAP2 POP DUP2 SWAP1 PUSH2 0x514 JUMP JUMPDEST SWAP1 PUSH1 0x7F AND SWAP1 PUSH2 0x123 JUMP JUMPDEST ADD MLOAD SWAP1 POP PUSH0 DUP1 PUSH2 0xEE JUMP JUMPDEST PUSH1 0x1F NOT DUP3 AND SWAP6 PUSH0 DUP1 MSTORE DUP1 PUSH0 KECCAK256 SWAP2 PUSH0 JUMPDEST DUP9 DUP2 LT PUSH2 0x59D JUMPI POP DUP4 PUSH1 0x1 SWAP6 SWAP7 SWAP8 SWAP9 LT PUSH2 0x585 JUMPI JUMPDEST POP POP POP DUP2 SHL ADD PUSH0 SSTORE PUSH2 0x102 JUMP JUMPDEST ADD MLOAD PUSH0 NOT PUSH1 0xF8 DUP5 PUSH1 0x3 SHL AND SHR NOT AND SWAP1 SSTORE PUSH0 DUP1 DUP1 PUSH2 0x578 JUMP JUMPDEST SWAP2 SWAP3 PUSH1 0x20 PUSH1 0x1 DUP2 SWAP3 DUP7 DUP6 ADD MLOAD DUP2 SSTORE ADD SWAP5 ADD SWAP3 ADD PUSH2 0x563 JUMP JUMPDEST PUSH0 DUP1 MSTORE PUSH32 0x290DECD9548B62A8D60345A988386FC84BA6BC95484008F6362F93160EF3E563 PUSH1 0x1F DUP4 ADD PUSH1 0x5 SHR DUP2 ADD SWAP2 PUSH1 0x20 DUP5 LT PUSH2 0x60D JUMPI JUMPDEST PUSH1 0x1F ADD PUSH1 0x5 SHR ADD SWAP1 JUMPDEST DUP2 DUP2 LT PUSH2 0x602 JUMPI POP PUSH2 0xD2 JUMP JUMPDEST PUSH0 DUP2 SSTORE PUSH1 0x1 ADD PUSH2 0x5F5 JUMP JUMPDEST SWAP1 SWAP2 POP DUP2 SWAP1 PUSH2 0x5EC JUMP JUMPDEST SWAP1 PUSH1 0x7F AND SWAP1 PUSH2 0xC0 JUMP JUMPDEST PUSH0 DUP1 REVERT JUMPDEST PUSH1 0x40 MLOAD SWAP2 SWAP1 PUSH1 0x1F ADD PUSH1 0x1F NOT AND DUP3 ADD PUSH1 0x1 PUSH1 0x1 PUSH1 0x40 SHL SUB DUP2 GT DUP4 DUP3 LT OR PUSH2 0x36E JUMPI PUSH1 0x40 MSTORE JUMP JUMPDEST DUP2 PUSH1 0x1F DUP3 ADD SLT ISZERO PUSH2 0x621 JUMPI DUP1 MLOAD SWAP1 PUSH1 0x1 PUSH1 0x1 PUSH1 0x40 SHL SUB DUP3 GT PUSH2 0x36E JUMPI PUSH2 0x679 PUSH1 0x1F DUP4 ADD PUSH1 0x1F NOT AND PUSH1 0x20 ADD PUSH2 0x625 JUMP JUMPDEST SWAP3 DUP3 DUP5 MSTORE PUSH1 0x20 DUP4 DUP4 ADD ADD GT PUSH2 0x621 JUMPI DUP2 PUSH0 SWAP3 PUSH1 0x20 DUP1 SWAP4 ADD DUP4 DUP7 ADD MCOPY DUP4 ADD ADD MSTORE SWAP1 JUMP INVALID PUSH1 0x80 DUP1 PUSH1 0x40 MSTORE PUSH1 0x4 CALLDATASIZE LT ISZERO PUSH2 0x12 JUMPI PUSH0 DUP1 REVERT JUMPDEST PUSH0 CALLDATALOAD PUSH1 0xE0 SHR SWAP1 DUP2 PUSH4 0x1FFC9A7 EQ PUSH2 0xAD1 JUMPI POP DUP1 PUSH4 0x6FDDE03 EQ PUSH2 0xA2F JUMPI DUP1 PUSH4 0x81812FC EQ PUSH2 0x9F2 JUMPI DUP1 PUSH4 0x95EA7B3 EQ PUSH2 0x906 JUMPI DUP1 PUSH4 0x23B872DD EQ PUSH2 0x8EF JUMPI DUP1 PUSH4 0x3EAF5D9F EQ PUSH2 0x8D4 JUMPI DUP1 PUSH4 0x42842E0E EQ PUSH2 0x8A5 JUMPI DUP1 PUSH4 0x4A5DC3AA EQ PUSH2 0x7EA JUMPI DUP1 PUSH4 0x6352211E EQ PUSH2 0x7BB JUMPI DUP1 PUSH4 0x70A08231 EQ PUSH2 0x76A JUMPI DUP1 PUSH4 0x715018A6 EQ PUSH2 0x718 JUMPI DUP1 PUSH4 0x79207AB5 EQ PUSH2 0x6CB JUMPI DUP1 PUSH4 0x8CE74426 EQ PUSH2 0x6B0 JUMPI DUP1 PUSH4 0x8DA5CB5B EQ PUSH2 0x68A JUMPI DUP1 PUSH4 0x95D89B41 EQ PUSH2 0x5C0 JUMPI DUP1 PUSH4 0xA20D0C51 EQ PUSH2 0x4F4 JUMPI DUP1 PUSH4 0xA22CB465 EQ PUSH2 0x459 JUMPI DUP1 PUSH4 0xB88D4FDE EQ PUSH2 0x3ED JUMPI DUP1 PUSH4 0xC87B56DD EQ PUSH2 0x3B6 JUMPI DUP1 PUSH4 0xD204C45E EQ PUSH2 0x2CD JUMPI DUP1 PUSH4 0xE2AFE8B3 EQ PUSH2 0x1F4 JUMPI DUP1 PUSH4 0xE985E9C5 EQ PUSH2 0x19B JUMPI PUSH4 0xF2FDE38B EQ PUSH2 0x119 JUMPI PUSH0 DUP1 REVERT JUMPDEST CALLVALUE PUSH2 0x197 JUMPI PUSH1 0x20 CALLDATASIZE PUSH1 0x3 NOT ADD SLT PUSH2 0x197 JUMPI PUSH1 0x1 PUSH1 0x1 PUSH1 0xA0 SHL SUB PUSH2 0x13A PUSH2 0xB7A JUMP JUMPDEST PUSH2 0x142 PUSH2 0x13BF JUMP JUMPDEST AND DUP1 ISZERO PUSH2 0x184 JUMPI PUSH1 0x1 PUSH1 0x1 PUSH1 0xA0 SHL SUB PUSH1 0x7 SLOAD DUP3 DUP3 NOT DUP3 AND OR PUSH1 0x7 SSTORE AND PUSH32 0x8BE0079C531659141344CD1FD0A4F28419497F9722A3DAAFE3B4186F6B6457E0 PUSH0 DUP1 LOG3 STOP JUMPDEST PUSH4 0x1E4FBDF7 PUSH1 0xE0 SHL PUSH0 MSTORE PUSH0 PUSH1 0x4 MSTORE PUSH1 0x24 PUSH0 REVERT JUMPDEST PUSH0 DUP1 REVERT JUMPDEST CALLVALUE PUSH2 0x197 JUMPI PUSH1 0x40 CALLDATASIZE PUSH1 0x3 NOT ADD SLT PUSH2 0x197 JUMPI PUSH2 0x1B4 PUSH2 0xB7A JUMP JUMPDEST PUSH1 0x1 PUSH1 0x1 PUSH1 0xA0 SHL SUB PUSH2 0x1C4 PUSH2 0xB90 JUMP JUMPDEST SWAP2 AND PUSH0 MSTORE PUSH1 0x5 PUSH1 0x20 MSTORE PUSH1 0x1 PUSH1 0x1 PUSH1 0xA0 SHL SUB PUSH1 0x40 PUSH0 KECCAK256 SWAP2 AND PUSH0 MSTORE PUSH1 0x20 MSTORE PUSH1 0x20 PUSH1 0xFF PUSH1 0x40 PUSH0 KECCAK256 SLOAD AND PUSH1 0x40 MLOAD SWAP1 ISZERO ISZERO DUP2 MSTORE RETURN JUMPDEST CALLVALUE PUSH2 0x197 JUMPI PUSH1 0x20 CALLDATASIZE PUSH1 0x3 NOT ADD SLT PUSH2 0x197 JUMPI PUSH2 0x20D PUSH2 0xB7A JUMP JUMPDEST POP PUSH1 0x40 MLOAD DUP1 PUSH1 0x20 DUP2 ADD PUSH1 0x20 DUP3 MSTORE PUSH1 0x60 MLOAD DUP1 SWAP2 MSTORE PUSH1 0x40 DUP3 ADD PUSH1 0x40 DUP3 PUSH1 0x5 SHL DUP5 ADD ADD SWAP2 PUSH1 0x80 SWAP2 PUSH0 SWAP1 JUMPDEST DUP3 DUP3 LT PUSH2 0x243 JUMPI POP POP POP POP SUB SWAP1 RETURN JUMPDEST SWAP2 SWAP4 PUSH1 0x1 SWAP2 SWAP4 SWAP6 POP PUSH1 0x20 DUP1 SWAP2 PUSH1 0x3F NOT DUP10 DUP3 SUB ADD DUP6 MSTORE DUP8 MLOAD SWAP1 DUP2 MLOAD DUP2 MSTORE DUP3 DUP3 ADD MLOAD DUP4 DUP3 ADD MSTORE PUSH1 0xC0 PUSH1 0x1 PUSH1 0x1 PUSH1 0xA0 SHL SUB DUP2 PUSH2 0x2A0 PUSH2 0x28E PUSH1 0x40 DUP8 ADD MLOAD PUSH1 0xE0 PUSH1 0x40 DUP9 ADD MSTORE PUSH1 0xE0 DUP8 ADD SWAP1 PUSH2 0xB56 JUMP JUMPDEST PUSH1 0x60 DUP8 ADD MLOAD DUP7 DUP3 SUB PUSH1 0x60 DUP9 ADD MSTORE PUSH2 0xB56 JUMP JUMPDEST SWAP5 PUSH1 0x80 DUP2 ADD MLOAD PUSH1 0x80 DUP7 ADD MSTORE DUP3 PUSH1 0xA0 DUP3 ADD MLOAD AND PUSH1 0xA0 DUP7 ADD MSTORE ADD MLOAD AND SWAP2 ADD MSTORE SWAP7 ADD SWAP3 ADD SWAP3 ADD DUP6 SWAP5 SWAP4 SWAP2 SWAP3 PUSH2 0x234 JUMP JUMPDEST CALLVALUE PUSH2 0x197 JUMPI PUSH1 0x40 CALLDATASIZE PUSH1 0x3 NOT ADD SLT PUSH2 0x197 JUMPI PUSH2 0x2E6 PUSH2 0xB7A JUMP JUMPDEST PUSH1 0x24 CALLDATALOAD SWAP1 PUSH8 0xFFFFFFFFFFFFFFFF DUP3 GT PUSH2 0x197 JUMPI PUSH2 0x335 PUSH2 0x30D PUSH2 0x3B4 SWAP4 CALLDATASIZE SWAP1 PUSH1 0x4 ADD PUSH2 0xEA6 JUMP JUMPDEST PUSH2 0x315 PUSH2 0x13BF JUMP JUMPDEST PUSH2 0x32D PUSH2 0x323 PUSH1 0x8 SLOAD PUSH2 0x105F JUMP JUMPDEST DUP1 PUSH1 0x8 SSTORE DUP5 PUSH2 0x13E6 JUMP JUMPDEST PUSH1 0x8 SLOAD PUSH2 0x15F0 JUMP JUMPDEST PUSH1 0x1 PUSH1 0x1 PUSH1 0xA0 SHL SUB PUSH1 0x8 SLOAD SWAP2 PUSH1 0x40 MLOAD SWAP3 PUSH2 0x34E DUP5 PUSH2 0xC18 JUMP JUMPDEST DUP4 MSTORE PUSH1 0x1 PUSH1 0x20 DUP5 ADD MSTORE PUSH1 0x40 DUP1 MLOAD PUSH2 0x365 DUP3 DUP3 PUSH2 0xC48 JUMP JUMPDEST PUSH1 0x3 DUP2 MSTORE PUSH3 0xCAE8D PUSH1 0xEB SHL PUSH1 0x20 DUP3 ADD MSTORE DUP2 DUP6 ADD MSTORE PUSH2 0x385 DUP2 MLOAD SWAP2 DUP3 PUSH2 0xC48 JUMP JUMPDEST PUSH1 0x5 DUP2 MSTORE PUSH5 0x657263323 PUSH1 0xDC SHL PUSH1 0x20 DUP3 ADD MSTORE PUSH1 0x60 DUP5 ADD MSTORE PUSH1 0x1 PUSH1 0x80 DUP5 ADD MSTORE AND PUSH1 0xA0 DUP3 ADD MSTORE ADDRESS PUSH1 0xC0 DUP3 ADD MSTORE PUSH2 0x1081 JUMP JUMPDEST STOP JUMPDEST CALLVALUE PUSH2 0x197 JUMPI PUSH1 0x20 CALLDATASIZE PUSH1 0x3 NOT ADD SLT PUSH2 0x197 JUMPI PUSH2 0x3E9 PUSH2 0x3D5 PUSH1 0x4 CALLDATALOAD PUSH2 0x135C JUMP JUMPDEST PUSH1 0x40 MLOAD SWAP2 DUP3 SWAP2 PUSH1 0x20 DUP4 MSTORE PUSH1 0x20 DUP4 ADD SWAP1 PUSH2 0xB56 JUMP JUMPDEST SUB SWAP1 RETURN JUMPDEST CALLVALUE PUSH2 0x197 JUMPI PUSH1 0x80 CALLDATASIZE PUSH1 0x3 NOT ADD SLT PUSH2 0x197 JUMPI PUSH2 0x406 PUSH2 0xB7A JUMP JUMPDEST PUSH2 0x40E PUSH2 0xB90 JUMP JUMPDEST SWAP1 PUSH1 0x44 CALLDATALOAD PUSH1 0x64 CALLDATALOAD SWAP3 PUSH8 0xFFFFFFFFFFFFFFFF DUP5 GT PUSH2 0x197 JUMPI CALLDATASIZE PUSH1 0x23 DUP6 ADD SLT ISZERO PUSH2 0x197 JUMPI PUSH2 0x447 PUSH2 0x3B4 SWAP5 CALLDATASIZE SWAP1 PUSH1 0x24 DUP2 PUSH1 0x4 ADD CALLDATALOAD SWAP2 ADD PUSH2 0xE70 JUMP JUMPDEST SWAP3 PUSH2 0x453 DUP4 DUP4 DUP4 PUSH2 0xEC4 JUMP JUMPDEST CALLER PUSH2 0x1757 JUMP JUMPDEST CALLVALUE PUSH2 0x197 JUMPI PUSH1 0x40 CALLDATASIZE PUSH1 0x3 NOT ADD SLT PUSH2 0x197 JUMPI PUSH2 0x472 PUSH2 0xB7A JUMP JUMPDEST PUSH1 0x24 CALLDATALOAD SWAP1 DUP2 ISZERO ISZERO DUP1 SWAP3 SUB PUSH2 0x197 JUMPI PUSH1 0x1 PUSH1 0x1 PUSH1 0xA0 SHL SUB AND SWAP1 DUP2 ISZERO PUSH2 0x4E1 JUMPI CALLER PUSH0 MSTORE PUSH1 0x5 PUSH1 0x20 MSTORE PUSH1 0x40 PUSH0 KECCAK256 DUP3 PUSH0 MSTORE PUSH1 0x20 MSTORE PUSH1 0x40 PUSH0 KECCAK256 PUSH1 0xFF NOT DUP2 SLOAD AND PUSH1 0xFF DUP4 AND OR SWAP1 SSTORE PUSH1 0x40 MLOAD SWAP1 DUP2 MSTORE PUSH32 0x17307EAB39AB6107E8899845AD3D59BD9653F200F220920489CA2B5937696C31 PUSH1 0x20 CALLER SWAP3 LOG3 STOP JUMPDEST POP PUSH4 0xB611743 PUSH1 0xE3 SHL PUSH0 MSTORE PUSH1 0x4 MSTORE PUSH1 0x24 PUSH0 REVERT JUMPDEST CALLVALUE PUSH2 0x197 JUMPI PUSH1 0x20 CALLDATASIZE PUSH1 0x3 NOT ADD SLT PUSH2 0x197 JUMPI PUSH1 0x4 CALLDATALOAD PUSH1 0xB SLOAD DUP2 LT ISZERO PUSH2 0x197 JUMPI PUSH1 0xB SLOAD DUP2 LT ISZERO PUSH2 0x5AC JUMPI PUSH1 0xB PUSH0 MSTORE PUSH1 0x7 PUSH1 0x20 PUSH0 KECCAK256 SWAP2 MUL ADD DUP1 SLOAD PUSH1 0x1 DUP3 ADD SLOAD SWAP2 PUSH2 0x53D PUSH1 0x2 DUP3 ADD PUSH2 0xDB6 JUMP JUMPDEST PUSH2 0x549 PUSH1 0x3 DUP4 ADD PUSH2 0xDB6 JUMP JUMPDEST SWAP2 PUSH2 0x598 PUSH1 0x4 DUP3 ADD SLOAD SWAP4 PUSH2 0x58A PUSH1 0x1 PUSH1 0x1 PUSH1 0xA0 SHL SUB PUSH1 0x6 DUP2 PUSH1 0x5 DUP8 ADD SLOAD AND SWAP6 ADD SLOAD AND SWAP5 PUSH1 0x40 MLOAD SWAP9 DUP10 SWAP9 DUP10 MSTORE PUSH1 0x20 DUP10 ADD MSTORE PUSH1 0xE0 PUSH1 0x40 DUP10 ADD MSTORE PUSH1 0xE0 DUP9 ADD SWAP1 PUSH2 0xB56 JUMP JUMPDEST SWAP1 DUP7 DUP3 SUB PUSH1 0x60 DUP9 ADD MSTORE PUSH2 0xB56 JUMP JUMPDEST SWAP3 PUSH1 0x80 DUP6 ADD MSTORE PUSH1 0xA0 DUP5 ADD MSTORE PUSH1 0xC0 DUP4 ADD MSTORE SUB SWAP1 RETURN JUMPDEST PUSH4 0x4E487B71 PUSH1 0xE0 SHL PUSH0 MSTORE PUSH1 0x32 PUSH1 0x4 MSTORE PUSH1 0x24 PUSH0 REVERT JUMPDEST CALLVALUE PUSH2 0x197 JUMPI PUSH0 CALLDATASIZE PUSH1 0x3 NOT ADD SLT PUSH2 0x197 JUMPI PUSH1 0x40 MLOAD PUSH0 PUSH1 0x1 SLOAD PUSH2 0x5E0 DUP2 PUSH2 0xBE0 JUMP JUMPDEST DUP1 DUP5 MSTORE SWAP1 PUSH1 0x1 DUP2 AND SWAP1 DUP2 ISZERO PUSH2 0x666 JUMPI POP PUSH1 0x1 EQ PUSH2 0x608 JUMPI JUMPDEST PUSH2 0x3E9 DUP4 PUSH2 0x3D5 DUP2 DUP6 SUB DUP3 PUSH2 0xC48 JUMP JUMPDEST PUSH1 0x1 PUSH0 SWAP1 DUP2 MSTORE PUSH32 0xB10E2D527612073B26EECDFD717E6A320CF44B4AFAC2B0732D9FCBE2B7FA0CF6 SWAP4 SWAP3 POP SWAP1 JUMPDEST DUP1 DUP3 LT PUSH2 0x64C JUMPI POP SWAP1 SWAP2 POP DUP2 ADD PUSH1 0x20 ADD PUSH2 0x3D5 PUSH2 0x5F8 JUMP JUMPDEST SWAP2 SWAP3 PUSH1 0x1 DUP2 PUSH1 0x20 SWAP3 SLOAD DUP4 DUP6 DUP9 ADD ADD MSTORE ADD SWAP2 ADD SWAP1 SWAP3 SWAP2 PUSH2 0x634 JUMP JUMPDEST PUSH1 0xFF NOT AND PUSH1 0x20 DUP1 DUP7 ADD SWAP2 SWAP1 SWAP2 MSTORE SWAP2 ISZERO ISZERO PUSH1 0x5 SHL DUP5 ADD SWAP1 SWAP2 ADD SWAP2 POP PUSH2 0x3D5 SWAP1 POP PUSH2 0x5F8 JUMP JUMPDEST CALLVALUE PUSH2 0x197 JUMPI PUSH0 CALLDATASIZE PUSH1 0x3 NOT ADD SLT PUSH2 0x197 JUMPI PUSH1 0x20 PUSH1 0x1 PUSH1 0x1 PUSH1 0xA0 SHL SUB PUSH1 0x7 SLOAD AND PUSH1 0x40 MLOAD SWAP1 DUP2 MSTORE RETURN JUMPDEST CALLVALUE PUSH2 0x197 JUMPI PUSH0 CALLDATASIZE PUSH1 0x3 NOT ADD SLT PUSH2 0x197 JUMPI PUSH2 0x3E9 PUSH2 0x3D5 PUSH2 0xD21 JUMP JUMPDEST CALLVALUE PUSH2 0x197 JUMPI PUSH1 0x40 CALLDATASIZE PUSH1 0x3 NOT ADD SLT PUSH2 0x197 JUMPI PUSH2 0x6E4 PUSH2 0xB7A JUMP JUMPDEST PUSH1 0x1 PUSH1 0x1 PUSH1 0xA0 SHL SUB PUSH1 0x24 CALLDATALOAD SWAP2 AND PUSH0 MSTORE PUSH1 0xC PUSH1 0x20 MSTORE PUSH1 0x40 PUSH0 KECCAK256 SWAP1 DUP2 SLOAD DUP2 LT ISZERO PUSH2 0x197 JUMPI PUSH1 0x20 SWAP2 PUSH0 MSTORE DUP2 PUSH0 KECCAK256 ADD SLOAD PUSH1 0x40 MLOAD SWAP1 DUP2 MSTORE RETURN JUMPDEST CALLVALUE PUSH2 0x197 JUMPI PUSH0 CALLDATASIZE PUSH1 0x3 NOT ADD SLT PUSH2 0x197 JUMPI PUSH2 0x730 PUSH2 0x13BF JUMP JUMPDEST PUSH0 PUSH1 0x1 PUSH1 0x1 PUSH1 0xA0 SHL SUB PUSH1 0x7 SLOAD DUP2 NOT DUP2 AND PUSH1 0x7 SSTORE AND PUSH32 0x8BE0079C531659141344CD1FD0A4F28419497F9722A3DAAFE3B4186F6B6457E0 DUP3 DUP1 LOG3 STOP JUMPDEST CALLVALUE PUSH2 0x197 JUMPI PUSH1 0x20 CALLDATASIZE PUSH1 0x3 NOT ADD SLT PUSH2 0x197 JUMPI PUSH1 0x1 PUSH1 0x1 PUSH1 0xA0 SHL SUB PUSH2 0x78B PUSH2 0xB7A JUMP JUMPDEST AND DUP1 ISZERO PUSH2 0x7A8 JUMPI PUSH0 MSTORE PUSH1 0x3 PUSH1 0x20 MSTORE PUSH1 0x20 PUSH1 0x40 PUSH0 KECCAK256 SLOAD PUSH1 0x40 MLOAD SWAP1 DUP2 MSTORE RETURN JUMPDEST PUSH4 0x22718AD9 PUSH1 0xE2 SHL PUSH0 MSTORE PUSH0 PUSH1 0x4 MSTORE PUSH1 0x24 PUSH0 REVERT JUMPDEST CALLVALUE PUSH2 0x197 JUMPI PUSH1 0x20 CALLDATASIZE PUSH1 0x3 NOT ADD SLT PUSH2 0x197 JUMPI PUSH1 0x20 PUSH2 0x7D9 PUSH1 0x4 CALLDATALOAD PUSH2 0x138C JUMP JUMPDEST PUSH1 0x1 PUSH1 0x1 PUSH1 0xA0 SHL SUB PUSH1 0x40 MLOAD SWAP2 AND DUP2 MSTORE RETURN JUMPDEST CALLVALUE PUSH2 0x197 JUMPI PUSH1 0x80 CALLDATASIZE PUSH1 0x3 NOT ADD SLT PUSH2 0x197 JUMPI PUSH2 0x803 PUSH2 0xB7A JUMP JUMPDEST PUSH1 0x24 CALLDATALOAD SWAP1 PUSH8 0xFFFFFFFFFFFFFFFF DUP3 GT PUSH2 0x197 JUMPI PUSH1 0x1 PUSH1 0x1 PUSH1 0xA0 SHL SUB PUSH2 0x82F PUSH2 0x3B4 SWAP4 CALLDATASIZE SWAP1 PUSH1 0x4 ADD PUSH2 0xEA6 JUMP JUMPDEST SWAP2 PUSH2 0x838 PUSH2 0x13BF JUMP JUMPDEST PUSH2 0x85B PUSH2 0x846 PUSH1 0x8 SLOAD PUSH2 0x105F JUMP JUMPDEST SWAP4 DUP5 PUSH1 0x8 SSTORE PUSH2 0x855 DUP6 DUP5 PUSH2 0x13E6 JUMP JUMPDEST DUP5 PUSH2 0x15F0 JUMP JUMPDEST PUSH1 0x40 MLOAD SWAP3 PUSH2 0x868 DUP5 PUSH2 0xC18 JUMP JUMPDEST DUP4 MSTORE PUSH1 0x44 CALLDATALOAD PUSH1 0x20 DUP5 ADD MSTORE PUSH2 0x87A PUSH2 0xC6A JUMP JUMPDEST PUSH1 0x40 DUP5 ADD MSTORE PUSH2 0x887 PUSH2 0xD21 JUMP JUMPDEST PUSH1 0x60 DUP5 ADD MSTORE PUSH1 0x64 CALLDATALOAD PUSH1 0x80 DUP5 ADD MSTORE AND PUSH1 0xA0 DUP3 ADD MSTORE ADDRESS PUSH1 0xC0 DUP3 ADD MSTORE PUSH2 0x1081 JUMP JUMPDEST CALLVALUE PUSH2 0x197 JUMPI PUSH2 0x3B4 PUSH2 0x8B6 CALLDATASIZE PUSH2 0xBA6 JUMP JUMPDEST SWAP1 PUSH1 0x40 MLOAD SWAP3 PUSH2 0x8C6 PUSH1 0x20 DUP6 PUSH2 0xC48 JUMP JUMPDEST PUSH0 DUP5 MSTORE PUSH2 0x453 DUP4 DUP4 DUP4 PUSH2 0xEC4 JUMP JUMPDEST CALLVALUE PUSH2 0x197 JUMPI PUSH0 CALLDATASIZE PUSH1 0x3 NOT ADD SLT PUSH2 0x197 JUMPI PUSH2 0x3E9 PUSH2 0x3D5 PUSH2 0xC6A JUMP JUMPDEST CALLVALUE PUSH2 0x197 JUMPI PUSH2 0x3B4 PUSH2 0x900 CALLDATASIZE PUSH2 0xBA6 JUMP JUMPDEST SWAP2 PUSH2 0xEC4 JUMP JUMPDEST CALLVALUE PUSH2 0x197 JUMPI PUSH1 0x40 CALLDATASIZE PUSH1 0x3 NOT ADD SLT PUSH2 0x197 JUMPI PUSH2 0x91F PUSH2 0xB7A JUMP JUMPDEST PUSH1 0x24 CALLDATALOAD PUSH2 0x92B DUP2 PUSH2 0x138C JUMP JUMPDEST CALLER ISZERO ISZERO DUP1 PUSH2 0x9DF JUMPI JUMPDEST DUP1 PUSH2 0x9AC JUMPI JUMPDEST PUSH2 0x999 JUMPI DUP2 SWAP1 PUSH1 0x1 PUSH1 0x1 PUSH1 0xA0 SHL SUB DUP1 DUP6 AND SWAP2 AND PUSH32 0x8C5BE1E5EBEC7D5BD14F71427D1E84F3DD0314C0F7B2291E5B200AC8C7C3B925 PUSH0 DUP1 LOG4 PUSH0 MSTORE PUSH1 0x4 PUSH1 0x20 MSTORE PUSH1 0x1 PUSH1 0x1 PUSH1 0xA0 SHL SUB PUSH1 0x40 PUSH0 KECCAK256 SWAP2 AND PUSH1 0x1 PUSH1 0x1 PUSH1 0xA0 SHL SUB NOT DUP3 SLOAD AND OR SWAP1 SSTORE PUSH0 DUP1 RETURN JUMPDEST PUSH4 0xA9FBF51F PUSH1 0xE0 SHL PUSH0 MSTORE CALLER PUSH1 0x4 MSTORE PUSH1 0x24 PUSH0 REVERT JUMPDEST POP PUSH1 0x1 PUSH1 0x1 PUSH1 0xA0 SHL SUB DUP2 AND PUSH0 MSTORE PUSH1 0x5 PUSH1 0x20 MSTORE PUSH1 0x40 PUSH0 KECCAK256 PUSH1 0x1 PUSH1 0x1 PUSH1 0xA0 SHL SUB CALLER AND PUSH0 MSTORE PUSH1 0x20 MSTORE PUSH1 0xFF PUSH1 0x40 PUSH0 KECCAK256 SLOAD AND ISZERO PUSH2 0x93A JUMP JUMPDEST POP CALLER PUSH1 0x1 PUSH1 0x1 PUSH1 0xA0 SHL SUB DUP3 AND EQ ISZERO PUSH2 0x934 JUMP JUMPDEST CALLVALUE PUSH2 0x197 JUMPI PUSH1 0x20 CALLDATASIZE PUSH1 0x3 NOT ADD SLT PUSH2 0x197 JUMPI PUSH1 0x4 CALLDATALOAD PUSH2 0xA0F DUP2 PUSH2 0x138C JUMP JUMPDEST POP PUSH0 MSTORE PUSH1 0x4 PUSH1 0x20 MSTORE PUSH1 0x20 PUSH1 0x1 PUSH1 0x1 PUSH1 0xA0 SHL SUB PUSH1 0x40 PUSH0 KECCAK256 SLOAD AND PUSH1 0x40 MLOAD SWAP1 DUP2 MSTORE RETURN JUMPDEST CALLVALUE PUSH2 0x197 JUMPI PUSH0 CALLDATASIZE PUSH1 0x3 NOT ADD SLT PUSH2 0x197 JUMPI PUSH1 0x40 MLOAD PUSH0 PUSH0 SLOAD PUSH2 0xA4E DUP2 PUSH2 0xBE0 JUMP JUMPDEST DUP1 DUP5 MSTORE SWAP1 PUSH1 0x1 DUP2 AND SWAP1 DUP2 ISZERO PUSH2 0x666 JUMPI POP PUSH1 0x1 EQ PUSH2 0xA75 JUMPI PUSH2 0x3E9 DUP4 PUSH2 0x3D5 DUP2 DUP6 SUB DUP3 PUSH2 0xC48 JUMP JUMPDEST PUSH0 DUP1 DUP1 MSTORE PUSH32 0x290DECD9548B62A8D60345A988386FC84BA6BC95484008F6362F93160EF3E563 SWAP4 SWAP3 POP SWAP1 JUMPDEST DUP1 DUP3 LT PUSH2 0xAB7 JUMPI POP SWAP1 SWAP2 POP DUP2 ADD PUSH1 0x20 ADD PUSH2 0x3D5 PUSH2 0x5F8 JUMP JUMPDEST SWAP2 SWAP3 PUSH1 0x1 DUP2 PUSH1 0x20 SWAP3 SLOAD DUP4 DUP6 DUP9 ADD ADD MSTORE ADD SWAP2 ADD SWAP1 SWAP3 SWAP2 PUSH2 0xA9F JUMP JUMPDEST CALLVALUE PUSH2 0x197 JUMPI PUSH1 0x20 CALLDATASIZE PUSH1 0x3 NOT ADD SLT PUSH2 0x197 JUMPI PUSH1 0x4 CALLDATALOAD SWAP1 PUSH4 0xFFFFFFFF PUSH1 0xE0 SHL DUP3 AND DUP1 SWAP3 SUB PUSH2 0x197 JUMPI PUSH1 0x20 SWAP2 PUSH4 0x24832483 PUSH1 0xE1 SHL DUP2 EQ SWAP1 DUP2 ISZERO PUSH2 0xB13 JUMPI JUMPDEST POP ISZERO ISZERO DUP2 MSTORE RETURN JUMPDEST PUSH4 0x80AC58CD PUSH1 0xE0 SHL DUP2 EQ SWAP2 POP DUP2 ISZERO PUSH2 0xB45 JUMPI JUMPDEST DUP2 ISZERO PUSH2 0xB34 JUMPI JUMPDEST POP DUP4 PUSH2 0xB0C JUMP JUMPDEST PUSH4 0x1FFC9A7 PUSH1 0xE0 SHL EQ SWAP1 POP DUP4 PUSH2 0xB2D JUMP JUMPDEST PUSH4 0x5B5E139F PUSH1 0xE0 SHL DUP2 EQ SWAP2 POP PUSH2 0xB26 JUMP JUMPDEST DUP1 MLOAD DUP1 DUP4 MSTORE PUSH1 0x20 SWAP3 SWAP2 DUP2 SWAP1 DUP5 ADD DUP5 DUP5 ADD MCOPY PUSH0 DUP3 DUP3 ADD DUP5 ADD MSTORE PUSH1 0x1F ADD PUSH1 0x1F NOT AND ADD ADD SWAP1 JUMP JUMPDEST PUSH1 0x4 CALLDATALOAD SWAP1 PUSH1 0x1 PUSH1 0x1 PUSH1 0xA0 SHL SUB DUP3 AND DUP3 SUB PUSH2 0x197 JUMPI JUMP JUMPDEST PUSH1 0x24 CALLDATALOAD SWAP1 PUSH1 0x1 PUSH1 0x1 PUSH1 0xA0 SHL SUB DUP3 AND DUP3 SUB PUSH2 0x197 JUMPI JUMP JUMPDEST PUSH1 0x60 SWAP1 PUSH1 0x3 NOT ADD SLT PUSH2 0x197 JUMPI PUSH1 0x4 CALLDATALOAD PUSH1 0x1 PUSH1 0x1 PUSH1 0xA0 SHL SUB DUP2 AND DUP2 SUB PUSH2 0x197 JUMPI SWAP1 PUSH1 0x24 CALLDATALOAD PUSH1 0x1 PUSH1 0x1 PUSH1 0xA0 SHL SUB DUP2 AND DUP2 SUB PUSH2 0x197 JUMPI SWAP1 PUSH1 0x44 CALLDATALOAD SWAP1 JUMP JUMPDEST SWAP1 PUSH1 0x1 DUP3 DUP2 SHR SWAP3 AND DUP1 ISZERO PUSH2 0xC0E JUMPI JUMPDEST PUSH1 0x20 DUP4 LT EQ PUSH2 0xBFA JUMPI JUMP JUMPDEST PUSH4 0x4E487B71 PUSH1 0xE0 SHL PUSH0 MSTORE PUSH1 0x22 PUSH1 0x4 MSTORE PUSH1 0x24 PUSH0 REVERT JUMPDEST SWAP2 PUSH1 0x7F AND SWAP2 PUSH2 0xBEF JUMP JUMPDEST PUSH1 0xE0 DUP2 ADD SWAP1 DUP2 LT PUSH8 0xFFFFFFFFFFFFFFFF DUP3 GT OR PUSH2 0xC34 JUMPI PUSH1 0x40 MSTORE JUMP JUMPDEST PUSH4 0x4E487B71 PUSH1 0xE0 SHL PUSH0 MSTORE PUSH1 0x41 PUSH1 0x4 MSTORE PUSH1 0x24 PUSH0 REVERT JUMPDEST SWAP1 PUSH1 0x1F DUP1 NOT SWAP2 ADD AND DUP2 ADD SWAP1 DUP2 LT PUSH8 0xFFFFFFFFFFFFFFFF DUP3 GT OR PUSH2 0xC34 JUMPI PUSH1 0x40 MSTORE JUMP JUMPDEST PUSH1 0x40 MLOAD SWAP1 PUSH0 DUP3 PUSH1 0x9 SLOAD SWAP2 PUSH2 0xC7D DUP4 PUSH2 0xBE0 JUMP JUMPDEST DUP1 DUP4 MSTORE SWAP3 PUSH1 0x1 DUP2 AND SWAP1 DUP2 ISZERO PUSH2 0xD02 JUMPI POP PUSH1 0x1 EQ PUSH2 0xCA3 JUMPI JUMPDEST PUSH2 0xCA1 SWAP3 POP SUB DUP4 PUSH2 0xC48 JUMP JUMPDEST JUMP JUMPDEST POP PUSH1 0x9 PUSH0 SWAP1 DUP2 MSTORE SWAP1 SWAP2 PUSH32 0x6E1540171B6C0C960B71A7020D9F60077F6AF931A8BBF590DA0223DACF75C7AF JUMPDEST DUP2 DUP4 LT PUSH2 0xCE6 JUMPI POP POP SWAP1 PUSH1 0x20 PUSH2 0xCA1 SWAP3 DUP3 ADD ADD PUSH2 0xC95 JUMP JUMPDEST PUSH1 0x20 SWAP2 SWAP4 POP DUP1 PUSH1 0x1 SWAP2 SLOAD DUP4 DUP6 DUP10 ADD ADD MSTORE ADD SWAP2 ADD SWAP1 SWAP2 DUP5 SWAP3 PUSH2 0xCCE JUMP JUMPDEST PUSH1 0x20 SWAP3 POP PUSH2 0xCA1 SWAP5 SWAP2 POP PUSH1 0xFF NOT AND DUP3 DUP5 ADD MSTORE ISZERO ISZERO PUSH1 0x5 SHL DUP3 ADD ADD PUSH2 0xC95 JUMP JUMPDEST PUSH1 0x40 MLOAD SWAP1 PUSH0 DUP3 PUSH1 0xA SLOAD SWAP2 PUSH2 0xD34 DUP4 PUSH2 0xBE0 JUMP JUMPDEST DUP1 DUP4 MSTORE SWAP3 PUSH1 0x1 DUP2 AND SWAP1 DUP2 ISZERO PUSH2 0xD02 JUMPI POP PUSH1 0x1 EQ PUSH2 0xD57 JUMPI PUSH2 0xCA1 SWAP3 POP SUB DUP4 PUSH2 0xC48 JUMP JUMPDEST POP PUSH1 0xA PUSH0 SWAP1 DUP2 MSTORE SWAP1 SWAP2 PUSH32 0xC65A7BB8D6351C1CF70C95A316CC6A92839C986682D98BC35F958F4883F9D2A8 JUMPDEST DUP2 DUP4 LT PUSH2 0xD9A JUMPI POP POP SWAP1 PUSH1 0x20 PUSH2 0xCA1 SWAP3 DUP3 ADD ADD PUSH2 0xC95 JUMP JUMPDEST PUSH1 0x20 SWAP2 SWAP4 POP DUP1 PUSH1 0x1 SWAP2 SLOAD DUP4 DUP6 DUP10 ADD ADD MSTORE ADD SWAP2 ADD SWAP1 SWAP2 DUP5 SWAP3 PUSH2 0xD82 JUMP JUMPDEST SWAP1 PUSH1 0x40 MLOAD SWAP2 DUP3 PUSH0 DUP3 SLOAD SWAP3 PUSH2 0xDC9 DUP5 PUSH2 0xBE0 JUMP JUMPDEST DUP1 DUP5 MSTORE SWAP4 PUSH1 0x1 DUP2 AND SWAP1 DUP2 ISZERO PUSH2 0xE32 JUMPI POP PUSH1 0x1 EQ PUSH2 0xDEE JUMPI JUMPDEST POP PUSH2 0xCA1 SWAP3 POP SUB DUP4 PUSH2 0xC48 JUMP JUMPDEST SWAP1 POP PUSH0 SWAP3 SWAP2 SWAP3 MSTORE PUSH1 0x20 PUSH0 KECCAK256 SWAP1 PUSH0 SWAP2 JUMPDEST DUP2 DUP4 LT PUSH2 0xE16 JUMPI POP POP SWAP1 PUSH1 0x20 PUSH2 0xCA1 SWAP3 DUP3 ADD ADD PUSH0 PUSH2 0xDE1 JUMP JUMPDEST PUSH1 0x20 SWAP2 SWAP4 POP DUP1 PUSH1 0x1 SWAP2 SLOAD DUP4 DUP6 DUP10 ADD ADD MSTORE ADD SWAP2 ADD SWAP1 SWAP2 DUP5 SWAP3 PUSH2 0xDFD JUMP JUMPDEST SWAP1 POP PUSH1 0x20 SWAP3 POP PUSH2 0xCA1 SWAP5 SWAP2 POP PUSH1 0xFF NOT AND DUP3 DUP5 ADD MSTORE ISZERO ISZERO PUSH1 0x5 SHL DUP3 ADD ADD PUSH0 PUSH2 0xDE1 JUMP JUMPDEST PUSH8 0xFFFFFFFFFFFFFFFF DUP2 GT PUSH2 0xC34 JUMPI PUSH1 0x1F ADD PUSH1 0x1F NOT AND PUSH1 0x20 ADD SWAP1 JUMP JUMPDEST SWAP3 SWAP2 SWAP3 PUSH2 0xE7C DUP3 PUSH2 0xE54 JUMP JUMPDEST SWAP2 PUSH2 0xE8A PUSH1 0x40 MLOAD SWAP4 DUP5 PUSH2 0xC48 JUMP JUMPDEST DUP3 SWAP5 DUP2 DUP5 MSTORE DUP2 DUP4 ADD GT PUSH2 0x197 JUMPI DUP3 DUP2 PUSH1 0x20 SWAP4 DUP5 PUSH0 SWAP7 ADD CALLDATACOPY ADD ADD MSTORE JUMP JUMPDEST SWAP1 DUP1 PUSH1 0x1F DUP4 ADD SLT ISZERO PUSH2 0x197 JUMPI DUP2 PUSH1 0x20 PUSH2 0xEC1 SWAP4 CALLDATALOAD SWAP2 ADD PUSH2 0xE70 JUMP JUMPDEST SWAP1 JUMP JUMPDEST SWAP2 SWAP1 PUSH1 0x1 PUSH1 0x1 PUSH1 0xA0 SHL SUB AND DUP1 ISZERO PUSH2 0x104C JUMPI DUP2 PUSH0 MSTORE PUSH1 0x2 PUSH1 0x20 MSTORE PUSH1 0x1 PUSH1 0x1 PUSH1 0xA0 SHL SUB PUSH1 0x40 PUSH0 KECCAK256 SLOAD AND SWAP3 DUP3 CALLER ISZERO ISZERO SWAP3 DUP4 PUSH2 0xFB0 JUMPI JUMPDEST PUSH1 0x1 PUSH1 0x1 PUSH1 0xA0 SHL SUB SWAP4 POP DUP6 PUSH2 0xF79 JUMPI JUMPDEST DUP1 PUSH0 MSTORE PUSH1 0x3 PUSH1 0x20 MSTORE PUSH1 0x40 PUSH0 KECCAK256 PUSH1 0x1 DUP2 SLOAD ADD SWAP1 SSTORE DUP2 PUSH0 MSTORE PUSH1 0x2 PUSH1 0x20 MSTORE PUSH1 0x40 PUSH0 KECCAK256 DUP2 DUP6 NOT DUP3 SLOAD AND OR SWAP1 SSTORE DUP6 PUSH32 0xDDF252AD1BE2C89B69C2B068FC378DAA952BA7F163C4A11628F55A4DF523B3EF PUSH0 DUP1 LOG4 AND DUP1 DUP4 SUB PUSH2 0xF61 JUMPI POP POP POP JUMP JUMPDEST PUSH4 0x64283D7B PUSH1 0xE0 SHL PUSH0 MSTORE PUSH1 0x4 MSTORE PUSH1 0x24 MSTORE PUSH1 0x44 MSTORE PUSH1 0x64 PUSH0 REVERT JUMPDEST PUSH2 0xF98 DUP3 PUSH0 MSTORE PUSH1 0x4 PUSH1 0x20 MSTORE PUSH1 0x40 PUSH0 KECCAK256 PUSH1 0x1 PUSH1 0x1 PUSH1 0xA0 SHL SUB NOT DUP2 SLOAD AND SWAP1 SSTORE JUMP JUMPDEST DUP6 PUSH0 MSTORE PUSH1 0x3 PUSH1 0x20 MSTORE PUSH1 0x40 PUSH0 KECCAK256 PUSH0 NOT DUP2 SLOAD ADD SWAP1 SSTORE PUSH2 0xF07 JUMP JUMPDEST SWAP2 SWAP3 SWAP1 POP DUP1 PUSH2 0xFF5 JUMPI JUMPDEST ISZERO PUSH2 0xFC7 JUMPI DUP3 DUP3 SWAP2 PUSH2 0xEF7 JUMP JUMPDEST DUP3 DUP5 PUSH2 0xFDF JUMPI PUSH4 0x7E273289 PUSH1 0xE0 SHL PUSH0 MSTORE PUSH1 0x4 MSTORE PUSH1 0x24 PUSH0 REVERT JUMPDEST PUSH4 0x177E802F PUSH1 0xE0 SHL PUSH0 MSTORE CALLER PUSH1 0x4 MSTORE PUSH1 0x24 MSTORE PUSH1 0x44 PUSH0 REVERT JUMPDEST POP CALLER DUP5 EQ DUP1 ISZERO PUSH2 0x1023 JUMPI JUMPDEST DUP1 PUSH2 0xFBA JUMPI POP DUP3 PUSH0 MSTORE PUSH1 0x4 PUSH1 0x20 MSTORE CALLER PUSH1 0x1 PUSH1 0x1 PUSH1 0xA0 SHL SUB PUSH1 0x40 PUSH0 KECCAK256 SLOAD AND EQ PUSH2 0xFBA JUMP JUMPDEST POP DUP4 PUSH0 MSTORE PUSH1 0x5 PUSH1 0x20 MSTORE PUSH1 0x40 PUSH0 KECCAK256 PUSH1 0x1 PUSH1 0x1 PUSH1 0xA0 SHL SUB CALLER AND PUSH0 MSTORE PUSH1 0x20 MSTORE PUSH1 0xFF PUSH1 0x40 PUSH0 KECCAK256 SLOAD AND PUSH2 0x1000 JUMP JUMPDEST PUSH4 0x32505749 PUSH1 0xE1 SHL PUSH0 MSTORE PUSH0 PUSH1 0x4 MSTORE PUSH1 0x24 PUSH0 REVERT JUMPDEST PUSH0 NOT DUP2 EQ PUSH2 0x106D JUMPI PUSH1 0x1 ADD SWAP1 JUMP JUMPDEST PUSH4 0x4E487B71 PUSH1 0xE0 SHL PUSH0 MSTORE PUSH1 0x11 PUSH1 0x4 MSTORE PUSH1 0x24 PUSH0 REVERT JUMPDEST PUSH1 0xB SLOAD PUSH9 0x10000000000000000 DUP2 LT ISZERO PUSH2 0xC34 JUMPI PUSH1 0x1 DUP2 ADD PUSH1 0xB SSTORE PUSH1 0xB SLOAD DUP2 LT ISZERO PUSH2 0x5AC JUMPI PUSH1 0xB PUSH0 MSTORE PUSH1 0x7 MUL PUSH32 0x175B7A638427703F0DBE7BB9BBF987A2551717B34E79F33B5B1008D1FA01DB9 ADD SWAP1 DUP1 MLOAD DUP3 SSTORE PUSH1 0x20 DUP2 ADD MLOAD PUSH1 0x1 DUP4 ADD SSTORE PUSH1 0x2 DUP3 ADD PUSH1 0x40 DUP3 ADD MLOAD DUP1 MLOAD SWAP1 PUSH8 0xFFFFFFFFFFFFFFFF DUP3 GT PUSH2 0xC34 JUMPI DUP2 SWAP1 PUSH2 0x1105 DUP5 SLOAD PUSH2 0xBE0 JUMP JUMPDEST PUSH1 0x1F DUP2 GT PUSH2 0x130C JUMPI JUMPDEST POP PUSH1 0x20 SWAP1 PUSH1 0x1F DUP4 GT PUSH1 0x1 EQ PUSH2 0x12A9 JUMPI PUSH0 SWAP3 PUSH2 0x129E JUMPI JUMPDEST POP POP DUP2 PUSH1 0x1 SHL SWAP2 PUSH0 NOT SWAP1 PUSH1 0x3 SHL SHR NOT AND OR SWAP1 SSTORE JUMPDEST PUSH1 0x3 DUP3 ADD PUSH1 0x60 DUP3 ADD MLOAD DUP1 MLOAD SWAP1 PUSH8 0xFFFFFFFFFFFFFFFF DUP3 GT PUSH2 0xC34 JUMPI PUSH2 0x115D DUP4 SLOAD PUSH2 0xBE0 JUMP JUMPDEST PUSH1 0x1F DUP2 GT PUSH2 0x1259 JUMPI JUMPDEST POP PUSH1 0x20 SWAP1 PUSH1 0x1F DUP4 GT PUSH1 0x1 EQ PUSH2 0x11E7 JUMPI SWAP4 PUSH1 0x6 SWAP4 DUP4 PUSH1 0x1 PUSH1 0x1 PUSH1 0xA0 SHL SUB SWAP7 SWAP5 PUSH1 0xC0 SWAP5 DUP9 SWAP7 PUSH0 SWAP3 PUSH2 0x11DC JUMPI JUMPDEST POP POP DUP2 PUSH1 0x1 SHL SWAP2 PUSH0 NOT SWAP1 PUSH1 0x3 SHL SHR NOT AND OR SWAP1 SSTORE JUMPDEST PUSH1 0x80 DUP2 ADD MLOAD PUSH1 0x4 DUP8 ADD SSTORE DUP3 PUSH1 0xA0 DUP3 ADD MLOAD AND DUP4 PUSH1 0x5 DUP9 ADD SWAP2 AND DUP5 NOT DUP3 SLOAD AND OR SWAP1 SSTORE ADD MLOAD AND SWAP3 ADD SWAP2 AND PUSH1 0x1 PUSH1 0x1 PUSH1 0xA0 SHL SUB NOT DUP3 SLOAD AND OR SWAP1 SSTORE JUMP JUMPDEST ADD MLOAD SWAP1 POP PUSH0 DUP1 PUSH2 0x1190 JUMP JUMPDEST SWAP1 PUSH1 0x1F NOT DUP4 AND SWAP2 DUP5 PUSH0 MSTORE DUP2 PUSH0 KECCAK256 SWAP3 PUSH0 JUMPDEST DUP2 DUP2 LT PUSH2 0x1241 JUMPI POP DUP5 PUSH1 0xC0 SWAP5 PUSH1 0x1 PUSH1 0x1 PUSH1 0xA0 SHL SUB SWAP9 SWAP5 PUSH1 0x6 SWAP9 SWAP5 DUP11 SWAP9 PUSH1 0x1 SWAP6 LT PUSH2 0x1229 JUMPI JUMPDEST POP POP POP DUP2 SHL ADD SWAP1 SSTORE PUSH2 0x11A4 JUMP JUMPDEST ADD MLOAD PUSH0 NOT PUSH1 0xF8 DUP5 PUSH1 0x3 SHL AND SHR NOT AND SWAP1 SSTORE PUSH0 DUP1 DUP1 PUSH2 0x121C JUMP JUMPDEST SWAP3 SWAP4 PUSH1 0x20 PUSH1 0x1 DUP2 SWAP3 DUP8 DUP7 ADD MLOAD DUP2 SSTORE ADD SWAP6 ADD SWAP4 ADD PUSH2 0x11F7 JUMP JUMPDEST DUP4 PUSH0 MSTORE PUSH1 0x20 PUSH0 KECCAK256 PUSH1 0x1F DUP5 ADD PUSH1 0x5 SHR DUP2 ADD SWAP2 PUSH1 0x20 DUP6 LT PUSH2 0x1294 JUMPI JUMPDEST PUSH1 0x1F ADD PUSH1 0x5 SHR ADD SWAP1 JUMPDEST DUP2 DUP2 LT PUSH2 0x1289 JUMPI POP PUSH2 0x1166 JUMP JUMPDEST PUSH0 DUP2 SSTORE PUSH1 0x1 ADD PUSH2 0x127C JUMP JUMPDEST SWAP1 SWAP2 POP DUP2 SWAP1 PUSH2 0x1273 JUMP JUMPDEST ADD MLOAD SWAP1 POP PUSH0 DUP1 PUSH2 0x1124 JUMP JUMPDEST PUSH0 DUP6 DUP2 MSTORE DUP3 DUP2 KECCAK256 SWAP4 POP PUSH1 0x1F NOT DUP6 AND SWAP1 JUMPDEST DUP2 DUP2 LT PUSH2 0x12F4 JUMPI POP SWAP1 DUP5 PUSH1 0x1 SWAP6 SWAP5 SWAP4 SWAP3 LT PUSH2 0x12DC JUMPI JUMPDEST POP POP POP DUP2 SHL ADD SWAP1 SSTORE PUSH2 0x1138 JUMP JUMPDEST ADD MLOAD PUSH0 NOT PUSH1 0xF8 DUP5 PUSH1 0x3 SHL AND SHR NOT AND SWAP1 SSTORE PUSH0 DUP1 DUP1 PUSH2 0x12CF JUMP JUMPDEST SWAP3 SWAP4 PUSH1 0x20 PUSH1 0x1 DUP2 SWAP3 DUP8 DUP7 ADD MLOAD DUP2 SSTORE ADD SWAP6 ADD SWAP4 ADD PUSH2 0x12B9 JUMP JUMPDEST SWAP1 SWAP2 POP DUP4 PUSH0 MSTORE PUSH1 0x20 PUSH0 KECCAK256 PUSH1 0x1F DUP5 ADD PUSH1 0x5 SHR DUP2 ADD SWAP2 PUSH1 0x20 DUP6 LT PUSH2 0x1352 JUMPI JUMPDEST SWAP1 PUSH1 0x1F DUP6 SWAP5 SWAP4 SWAP3 ADD PUSH1 0x5 SHR ADD SWAP1 JUMPDEST DUP2 DUP2 LT PUSH2 0x1344 JUMPI POP PUSH2 0x110E JUMP JUMPDEST PUSH0 DUP2 SSTORE DUP5 SWAP4 POP PUSH1 0x1 ADD PUSH2 0x1337 JUMP JUMPDEST SWAP1 SWAP2 POP DUP2 SWAP1 PUSH2 0x1329 JUMP JUMPDEST PUSH2 0x1365 DUP2 PUSH2 0x138C JUMP JUMPDEST POP PUSH0 MSTORE PUSH1 0x6 PUSH1 0x20 MSTORE PUSH2 0x1379 PUSH1 0x40 PUSH0 KECCAK256 PUSH2 0xDB6 JUMP JUMPDEST PUSH0 PUSH1 0x40 MLOAD PUSH2 0x1388 PUSH1 0x20 DUP3 PUSH2 0xC48 JUMP JUMPDEST MSTORE SWAP1 JUMP JUMPDEST DUP1 PUSH0 MSTORE PUSH1 0x2 PUSH1 0x20 MSTORE PUSH1 0x1 PUSH1 0x1 PUSH1 0xA0 SHL SUB PUSH1 0x40 PUSH0 KECCAK256 SLOAD AND SWAP1 DUP2 ISZERO PUSH2 0x13AD JUMPI POP SWAP1 JUMP JUMPDEST PUSH4 0x7E273289 PUSH1 0xE0 SHL PUSH0 MSTORE PUSH1 0x4 MSTORE PUSH1 0x24 PUSH0 REVERT JUMPDEST PUSH1 0x1 PUSH1 0x1 PUSH1 0xA0 SHL SUB PUSH1 0x7 SLOAD AND CALLER SUB PUSH2 0x13D3 JUMPI JUMP JUMPDEST PUSH4 0x118CDAA7 PUSH1 0xE0 SHL PUSH0 MSTORE CALLER PUSH1 0x4 MSTORE PUSH1 0x24 PUSH0 REVERT JUMPDEST SWAP1 PUSH1 0x20 SWAP1 PUSH1 0x40 MLOAD SWAP1 PUSH2 0x13F8 DUP4 DUP4 PUSH2 0xC48 JUMP JUMPDEST PUSH0 DUP3 MSTORE PUSH1 0x1 PUSH1 0x1 PUSH1 0xA0 SHL SUB DUP5 AND SWAP4 DUP5 ISZERO PUSH2 0x104C JUMPI DUP2 PUSH0 MSTORE PUSH1 0x2 DUP5 MSTORE PUSH1 0x1 PUSH1 0x1 PUSH1 0xA0 SHL SUB PUSH1 0x40 PUSH0 KECCAK256 SLOAD AND DUP1 ISZERO ISZERO SWAP1 DUP2 PUSH2 0x15BA JUMPI JUMPDEST DUP7 PUSH0 MSTORE PUSH1 0x3 DUP7 MSTORE PUSH1 0x40 PUSH0 KECCAK256 PUSH1 0x1 DUP2 SLOAD ADD SWAP1 SSTORE DUP4 PUSH0 MSTORE PUSH1 0x2 DUP7 MSTORE PUSH1 0x40 PUSH0 KECCAK256 DUP8 PUSH1 0x1 PUSH1 0x1 PUSH1 0xA0 SHL SUB NOT DUP3 SLOAD AND OR SWAP1 SSTORE DUP4 DUP8 DUP3 PUSH32 0xDDF252AD1BE2C89B69C2B068FC378DAA952BA7F163C4A11628F55A4DF523B3EF PUSH0 DUP1 LOG4 POP PUSH2 0x15A7 JUMPI EXTCODESIZE PUSH2 0x1490 JUMPI JUMPDEST POP POP POP POP JUMP JUMPDEST SWAP2 PUSH2 0x14CD SWAP2 DUP2 SWAP5 SWAP6 SWAP4 PUSH1 0x40 MLOAD SWAP4 DUP5 SWAP3 DUP4 SWAP3 PUSH4 0xA85BD01 PUSH1 0xE1 SHL DUP5 MSTORE CALLER PUSH1 0x4 DUP6 ADD MSTORE PUSH0 PUSH1 0x24 DUP6 ADD MSTORE PUSH1 0x44 DUP5 ADD MSTORE PUSH1 0x80 PUSH1 0x64 DUP5 ADD MSTORE PUSH1 0x84 DUP4 ADD SWAP1 PUSH2 0xB56 JUMP JUMPDEST SUB DUP2 PUSH0 DUP9 GAS CALL PUSH0 SWAP2 DUP2 PUSH2 0x1567 JUMPI JUMPDEST POP PUSH2 0x1530 JUMPI POP POP RETURNDATASIZE ISZERO PUSH2 0x1528 JUMPI RETURNDATASIZE SWAP1 PUSH2 0x14F3 DUP3 PUSH2 0xE54 JUMP JUMPDEST SWAP2 PUSH2 0x1501 PUSH1 0x40 MLOAD SWAP4 DUP5 PUSH2 0xC48 JUMP JUMPDEST DUP3 MSTORE RETURNDATASIZE PUSH0 DUP3 DUP5 ADD RETURNDATACOPY JUMPDEST DUP2 MLOAD SWAP2 DUP3 PUSH2 0x1525 JUMPI DUP4 PUSH4 0x32505749 PUSH1 0xE1 SHL PUSH0 MSTORE PUSH1 0x4 MSTORE PUSH1 0x24 PUSH0 REVERT JUMPDEST ADD REVERT JUMPDEST PUSH1 0x60 SWAP1 PUSH2 0x150A JUMP JUMPDEST SWAP1 SWAP3 SWAP2 POP PUSH1 0x1 PUSH1 0x1 PUSH1 0xE0 SHL SUB NOT AND PUSH4 0x757A42FF PUSH1 0xE1 SHL ADD PUSH2 0x1555 JUMPI POP PUSH0 DUP1 DUP1 DUP1 PUSH2 0x148A JUMP JUMPDEST PUSH4 0x32505749 PUSH1 0xE1 SHL PUSH0 MSTORE PUSH1 0x4 MSTORE PUSH1 0x24 PUSH0 REVERT JUMPDEST SWAP1 SWAP2 POP DUP4 DUP2 DUP2 RETURNDATASIZE DUP4 GT PUSH2 0x15A0 JUMPI JUMPDEST PUSH2 0x157F DUP2 DUP4 PUSH2 0xC48 JUMP JUMPDEST DUP2 ADD SUB SLT PUSH2 0x197 JUMPI MLOAD PUSH1 0x1 PUSH1 0x1 PUSH1 0xE0 SHL SUB NOT DUP2 AND DUP2 SUB PUSH2 0x197 JUMPI SWAP1 PUSH0 PUSH2 0x14DB JUMP JUMPDEST POP RETURNDATASIZE PUSH2 0x1575 JUMP JUMPDEST PUSH4 0x39E35637 PUSH1 0xE1 SHL PUSH0 MSTORE PUSH0 PUSH1 0x4 MSTORE PUSH1 0x24 PUSH0 REVERT JUMPDEST PUSH2 0x15D9 DUP5 PUSH0 MSTORE PUSH1 0x4 PUSH1 0x20 MSTORE PUSH1 0x40 PUSH0 KECCAK256 PUSH1 0x1 PUSH1 0x1 PUSH1 0xA0 SHL SUB NOT DUP2 SLOAD AND SWAP1 SSTORE JUMP JUMPDEST DUP1 PUSH0 MSTORE PUSH1 0x3 DUP7 MSTORE PUSH1 0x40 PUSH0 KECCAK256 PUSH0 NOT DUP2 SLOAD ADD SWAP1 SSTORE PUSH2 0x142B JUMP JUMPDEST SWAP2 SWAP1 SWAP2 DUP1 PUSH0 MSTORE PUSH1 0x6 PUSH1 0x20 MSTORE PUSH1 0x40 PUSH0 KECCAK256 DUP4 MLOAD PUSH8 0xFFFFFFFFFFFFFFFF DUP2 GT PUSH2 0xC34 JUMPI PUSH2 0x161A DUP3 SLOAD PUSH2 0xBE0 JUMP JUMPDEST PUSH1 0x1F DUP2 GT PUSH2 0x1712 JUMPI JUMPDEST POP PUSH1 0x20 PUSH1 0x1F DUP3 GT PUSH1 0x1 EQ PUSH2 0x168A JUMPI SWAP1 DUP1 PUSH1 0x20 SWAP5 SWAP4 SWAP3 PUSH32 0xF8E1A15ABA9398E019F0B49DF1A4FDE98EE17AE345CB5F6B5E2C27F5033E8CE7 SWAP7 SWAP8 PUSH0 SWAP3 PUSH2 0x167F JUMPI JUMPDEST POP POP DUP2 PUSH1 0x1 SHL SWAP2 PUSH0 NOT SWAP1 PUSH1 0x3 SHL SHR NOT AND OR SWAP1 SSTORE JUMPDEST PUSH1 0x40 MLOAD SWAP1 DUP2 MSTORE LOG1 JUMP JUMPDEST ADD MLOAD SWAP1 POP PUSH0 DUP1 PUSH2 0x1662 JUMP JUMPDEST PUSH1 0x1F NOT DUP3 AND SWAP6 DUP4 PUSH0 MSTORE DUP2 PUSH0 KECCAK256 SWAP7 PUSH0 JUMPDEST DUP2 DUP2 LT PUSH2 0x16FA JUMPI POP SWAP7 PUSH1 0x1 SWAP3 DUP5 SWAP3 PUSH1 0x20 SWAP8 SWAP7 SWAP6 PUSH32 0xF8E1A15ABA9398E019F0B49DF1A4FDE98EE17AE345CB5F6B5E2C27F5033E8CE7 SWAP10 SWAP11 LT PUSH2 0x16E2 JUMPI JUMPDEST POP POP POP DUP2 SHL ADD SWAP1 SSTORE PUSH2 0x1676 JUMP JUMPDEST ADD MLOAD PUSH0 NOT PUSH1 0xF8 DUP5 PUSH1 0x3 SHL AND SHR NOT AND SWAP1 SSTORE PUSH0 DUP1 DUP1 PUSH2 0x16D5 JUMP JUMPDEST DUP4 DUP4 ADD MLOAD DUP10 SSTORE PUSH1 0x1 SWAP1 SWAP9 ADD SWAP8 PUSH1 0x20 SWAP4 DUP5 ADD SWAP4 ADD PUSH2 0x1699 JUMP JUMPDEST DUP3 PUSH0 MSTORE PUSH1 0x20 PUSH0 KECCAK256 PUSH1 0x1F DUP4 ADD PUSH1 0x5 SHR DUP2 ADD SWAP2 PUSH1 0x20 DUP5 LT PUSH2 0x174D JUMPI JUMPDEST PUSH1 0x1F ADD PUSH1 0x5 SHR ADD SWAP1 JUMPDEST DUP2 DUP2 LT PUSH2 0x1742 JUMPI POP PUSH2 0x1623 JUMP JUMPDEST PUSH0 DUP2 SSTORE PUSH1 0x1 ADD PUSH2 0x1735 JUMP JUMPDEST SWAP1 SWAP2 POP DUP2 SWAP1 PUSH2 0x172C JUMP JUMPDEST SWAP4 SWAP1 SWAP3 SWAP4 DUP3 EXTCODESIZE PUSH2 0x1769 JUMPI JUMPDEST POP POP POP POP POP JUMP JUMPDEST PUSH2 0x17B0 PUSH1 0x1 PUSH1 0x1 PUSH1 0xA0 SHL SUB SWAP3 DUP4 PUSH1 0x20 SWAP6 AND SWAP7 DUP5 PUSH1 0x40 MLOAD SWAP8 DUP9 SWAP7 DUP8 SWAP7 PUSH4 0xA85BD01 PUSH1 0xE1 SHL DUP9 MSTORE AND PUSH1 0x4 DUP8 ADD MSTORE AND PUSH1 0x24 DUP6 ADD MSTORE PUSH1 0x44 DUP5 ADD MSTORE PUSH1 0x80 PUSH1 0x64 DUP5 ADD MSTORE PUSH1 0x84 DUP4 ADD SWAP1 PUSH2 0xB56 JUMP JUMPDEST SUB DUP2 PUSH0 DUP7 GAS CALL PUSH0 SWAP2 DUP2 PUSH2 0x1835 JUMPI JUMPDEST POP PUSH2 0x1813 JUMPI POP RETURNDATASIZE ISZERO PUSH2 0x180C JUMPI RETURNDATASIZE PUSH2 0x17D4 DUP2 PUSH2 0xE54 JUMP JUMPDEST SWAP1 PUSH2 0x17E2 PUSH1 0x40 MLOAD SWAP3 DUP4 PUSH2 0xC48 JUMP JUMPDEST DUP2 MSTORE RETURNDATASIZE PUSH0 PUSH1 0x20 DUP4 ADD RETURNDATACOPY JUMPDEST DUP1 MLOAD SWAP1 DUP2 PUSH2 0x1807 JUMPI DUP3 PUSH4 0x32505749 PUSH1 0xE1 SHL PUSH0 MSTORE PUSH1 0x4 MSTORE PUSH1 0x24 PUSH0 REVERT JUMPDEST PUSH1 0x20 ADD REVERT JUMPDEST PUSH1 0x60 PUSH2 0x17EC JUMP JUMPDEST PUSH1 0x1 PUSH1 0x1 PUSH1 0xE0 SHL SUB NOT AND PUSH4 0x757A42FF PUSH1 0xE1 SHL ADD PUSH2 0x1555 JUMPI POP PUSH0 DUP1 DUP1 DUP1 DUP1 PUSH2 0x1762 JUMP JUMPDEST SWAP1 SWAP2 POP PUSH1 0x20 DUP2 RETURNDATASIZE PUSH1 0x20 GT PUSH2 0x1872 JUMPI JUMPDEST DUP2 PUSH2 0x1851 PUSH1 0x20 SWAP4 DUP4 PUSH2 0xC48 JUMP JUMPDEST DUP2 ADD SUB SLT PUSH2 0x197 JUMPI MLOAD PUSH1 0x1 PUSH1 0x1 PUSH1 0xE0 SHL SUB NOT DUP2 AND DUP2 SUB PUSH2 0x197 JUMPI SWAP1 PUSH0 PUSH2 0x17BE JUMP JUMPDEST RETURNDATASIZE SWAP2 POP PUSH2 0x1844 JUMP INVALID LOG2 PUSH5 0x6970667358 0x22 SLT KECCAK256 0xE2 REVERT PUSH26 0x1EC6308D2C1A12BAD33E13B4161050BD9D485572B067AA80FB9A SAR PUSH19 0xD664736F6C634300081C003300000000000000 "
		},
		"gasEstimates": {
			"creation": {
				"codeDepositCost": "1264000",
				"executionCost": "infinite",
				"totalCost": "infinite"
			},
			"external": {
				"_scriptions(address,uint256)": "4837",
				"approve(address,uint256)": "31128",
				"balanceOf(address)": "2623",
				"ethNFTs(uint256)": "infinite",
				"getApproved(uint256)": "4621",
				"getNFTsByOwner(address)": "infinite",
				"isApprovedForAll(address,address)": "3035",
				"mint(address,string,uint256,uint256)": "infinite",
				"name()": "infinite",
				"owner()": "2560",
				"ownerOf(uint256)": "2587",
				"protocol()": "infinite",
				"renounceOwnership()": "28259",
				"safeMint(address,string)": "infinite",
				"safeTransferFrom(address,address,uint256)": "infinite",
				"safeTransferFrom(address,address,uint256,bytes)": "infinite",
				"setApprovalForAll(address,bool)": "26774",
				"supportsInterface(bytes4)": "379",
				"symbol()": "infinite",
				"tick()": "infinite",
				"tokenURI(uint256)": "infinite",
				"transferFrom(address,address,uint256)": "106346",
				"transferOwnership(address)": "28634"
			}
		},
		"methodIdentifiers": {
			"_scriptions(address,uint256)": "79207ab5",
			"approve(address,uint256)": "095ea7b3",
			"balanceOf(address)": "70a08231",
			"ethNFTs(uint256)": "a20d0c51",
			"getApproved(uint256)": "081812fc",
			"getNFTsByOwner(address)": "e2afe8b3",
			"isApprovedForAll(address,address)": "e985e9c5",
			"mint(address,string,uint256,uint256)": "4a5dc3aa",
			"name()": "06fdde03",
			"owner()": "8da5cb5b",
			"ownerOf(uint256)": "6352211e",
			"protocol()": "8ce74426",
			"renounceOwnership()": "715018a6",
			"safeMint(address,string)": "d204c45e",
			"safeTransferFrom(address,address,uint256)": "42842e0e",
			"safeTransferFrom(address,address,uint256,bytes)": "b88d4fde",
			"setApprovalForAll(address,bool)": "a22cb465",
			"supportsInterface(bytes4)": "01ffc9a7",
			"symbol()": "95d89b41",
			"tick()": "3eaf5d9f",
			"tokenURI(uint256)": "c87b56dd",
			"transferFrom(address,address,uint256)": "23b872dd",
			"transferOwnership(address)": "f2fde38b"
		}
	},
	"abi": [
		{
			"inputs": [
				{
					"internalType": "string",
					"name": "_tick",
					"type": "string"
				},
				{
					"internalType": "string",
					"name": "_protocol",
					"type": "string"
				}
			],
			"stateMutability": "nonpayable",
			"type": "constructor"
		},
		{
			"inputs": [
				{
					"internalType": "address",
					"name": "sender",
					"type": "address"
				},
				{
					"internalType": "uint256",
					"name": "tokenId",
					"type": "uint256"
				},
				{
					"internalType": "address",
					"name": "owner",
					"type": "address"
				}
			],
			"name": "ERC721IncorrectOwner",
			"type": "error"
		},
		{
			"inputs": [
				{
					"internalType": "address",
					"name": "operator",
					"type": "address"
				},
				{
					"internalType": "uint256",
					"name": "tokenId",
					"type": "uint256"
				}
			],
			"name": "ERC721InsufficientApproval",
			"type": "error"
		},
		{
			"inputs": [
				{
					"internalType": "address",
					"name": "approver",
					"type": "address"
				}
			],
			"name": "ERC721InvalidApprover",
			"type": "error"
		},
		{
			"inputs": [
				{
					"internalType": "address",
					"name": "operator",
					"type": "address"
				}
			],
			"name": "ERC721InvalidOperator",
			"type": "error"
		},
		{
			"inputs": [
				{
					"internalType": "address",
					"name": "owner",
					"type": "address"
				}
			],
			"name": "ERC721InvalidOwner",
			"type": "error"
		},
		{
			"inputs": [
				{
					"internalType": "address",
					"name": "receiver",
					"type": "address"
				}
			],
			"name": "ERC721InvalidReceiver",
			"type": "error"
		},
		{
			"inputs": [
				{
					"internalType": "address",
					"name": "sender",
					"type": "address"
				}
			],
			"name": "ERC721InvalidSender",
			"type": "error"
		},
		{
			"inputs": [
				{
					"internalType": "uint256",
					"name": "tokenId",
					"type": "uint256"
				}
			],
			"name": "ERC721NonexistentToken",
			"type": "error"
		},
		{
			"inputs": [
				{
					"internalType": "address",
					"name": "owner",
					"type": "address"
				}
			],
			"name": "OwnableInvalidOwner",
			"type": "error"
		},
		{
			"inputs": [
				{
					"internalType": "address",
					"name": "account",
					"type": "address"
				}
			],
			"name": "OwnableUnauthorizedAccount",
			"type": "error"
		},
		{
			"anonymous": false,
			"inputs": [
				{
					"indexed": true,
					"internalType": "address",
					"name": "owner",
					"type": "address"
				},
				{
					"indexed": true,
					"internalType": "address",
					"name": "approved",
					"type": "address"
				},
				{
					"indexed": true,
					"internalType": "uint256",
					"name": "tokenId",
					"type": "uint256"
				}
			],
			"name": "Approval",
			"type": "event"
		},
		{
			"anonymous": false,
			"inputs": [
				{
					"indexed": true,
					"internalType": "address",
					"name": "owner",
					"type": "address"
				},
				{
					"indexed": true,
					"internalType": "address",
					"name": "operator",
					"type": "address"
				},
				{
					"indexed": false,
					"internalType": "bool",
					"name": "approved",
					"type": "bool"
				}
			],
			"name": "ApprovalForAll",
			"type": "event"
		},
		{
			"anonymous": false,
			"inputs": [
				{
					"indexed": false,
					"internalType": "uint256",
					"name": "_fromTokenId",
					"type": "uint256"
				},
				{
					"indexed": false,
					"internalType": "uint256",
					"name": "_toTokenId",
					"type": "uint256"
				}
			],
			"name": "BatchMetadataUpdate",
			"type": "event"
		},
		{
			"anonymous": false,
			"inputs": [
				{
					"indexed": false,
					"internalType": "uint256",
					"name": "_tokenId",
					"type": "uint256"
				}
			],
			"name": "MetadataUpdate",
			"type": "event"
		},
		{
			"anonymous": false,
			"inputs": [
				{
					"indexed": true,
					"internalType": "address",
					"name": "previousOwner",
					"type": "address"
				},
				{
					"indexed": true,
					"internalType": "address",
					"name": "newOwner",
					"type": "address"
				}
			],
			"name": "OwnershipTransferred",
			"type": "event"
		},
		{
			"anonymous": false,
			"inputs": [
				{
					"indexed": true,
					"internalType": "address",
					"name": "from",
					"type": "address"
				},
				{
					"indexed": true,
					"internalType": "address",
					"name": "to",
					"type": "address"
				},
				{
					"indexed": true,
					"internalType": "uint256",
					"name": "tokenId",
					"type": "uint256"
				}
			],
			"name": "Transfer",
			"type": "event"
		},
		{
			"inputs": [
				{
					"internalType": "address",
					"name": "",
					"type": "address"
				},
				{
					"internalType": "uint256",
					"name": "",
					"type": "uint256"
				}
			],
			"name": "_scriptions",
			"outputs": [
				{
					"internalType": "uint256",
					"name": "",
					"type": "uint256"
				}
			],
			"stateMutability": "view",
			"type": "function"
		},
		{
			"inputs": [
				{
					"internalType": "address",
					"name": "to",
					"type": "address"
				},
				{
					"internalType": "uint256",
					"name": "tokenId",
					"type": "uint256"
				}
			],
			"name": "approve",
			"outputs": [],
			"stateMutability": "nonpayable",
			"type": "function"
		},
		{
			"inputs": [
				{
					"internalType": "address",
					"name": "owner",
					"type": "address"
				}
			],
			"name": "balanceOf",
			"outputs": [
				{
					"internalType": "uint256",
					"name": "",
					"type": "uint256"
				}
			],
			"stateMutability": "view",
			"type": "function"
		},
		{
			"inputs": [
				{
					"internalType": "uint256",
					"name": "",
					"type": "uint256"
				}
			],
			"name": "ethNFTs",
			"outputs": [
				{
					"internalType": "uint256",
					"name": "tokenId",
					"type": "uint256"
				},
				{
					"internalType": "uint256",
					"name": "chainId",
					"type": "uint256"
				},
				{
					"internalType": "string",
					"name": "tick",
					"type": "string"
				},
				{
					"internalType": "string",
					"name": "protocol",
					"type": "string"
				},
				{
					"internalType": "uint256",
					"name": "amount",
					"type": "uint256"
				},
				{
					"internalType": "address",
					"name": "owner",
					"type": "address"
				},
				{
					"internalType": "address",
					"name": "contractAddr",
					"type": "address"
				}
			],
			"stateMutability": "view",
			"type": "function"
		},
		{
			"inputs": [
				{
					"internalType": "uint256",
					"name": "tokenId",
					"type": "uint256"
				}
			],
			"name": "getApproved",
			"outputs": [
				{
					"internalType": "address",
					"name": "",
					"type": "address"
				}
			],
			"stateMutability": "view",
			"type": "function"
		},
		{
			"inputs": [
				{
					"internalType": "address",
					"name": "_owner",
					"type": "address"
				}
			],
			"name": "getNFTsByOwner",
			"outputs": [
				{
					"components": [
						{
							"internalType": "uint256",
							"name": "tokenId",
							"type": "uint256"
						},
						{
							"internalType": "uint256",
							"name": "chainId",
							"type": "uint256"
						},
						{
							"internalType": "string",
							"name": "tick",
							"type": "string"
						},
						{
							"internalType": "string",
							"name": "protocol",
							"type": "string"
						},
						{
							"internalType": "uint256",
							"name": "amount",
							"type": "uint256"
						},
						{
							"internalType": "address",
							"name": "owner",
							"type": "address"
						},
						{
							"internalType": "address",
							"name": "contractAddr",
							"type": "address"
						}
					],
					"internalType": "struct MyNFT.EthNFT[]",
					"name": "",
					"type": "tuple[]"
				}
			],
			"stateMutability": "view",
			"type": "function"
		},
		{
			"inputs": [
				{
					"internalType": "address",
					"name": "owner",
					"type": "address"
				},
				{
					"internalType": "address",
					"name": "operator",
					"type": "address"
				}
			],
			"name": "isApprovedForAll",
			"outputs": [
				{
					"internalType": "bool",
					"name": "",
					"type": "bool"
				}
			],
			"stateMutability": "view",
			"type": "function"
		},
		{
			"inputs": [
				{
					"internalType": "address",
					"name": "_to",
					"type": "address"
				},
				{
					"internalType": "string",
					"name": "_uri",
					"type": "string"
				},
				{
					"internalType": "uint256",
					"name": "chainId",
					"type": "uint256"
				},
				{
					"internalType": "uint256",
					"name": "amount",
					"type": "uint256"
				}
			],
			"name": "mint",
			"outputs": [],
			"stateMutability": "nonpayable",
			"type": "function"
		},
		{
			"inputs": [],
			"name": "name",
			"outputs": [
				{
					"internalType": "string",
					"name": "",
					"type": "string"
				}
			],
			"stateMutability": "view",
			"type": "function"
		},
		{
			"inputs": [],
			"name": "owner",
			"outputs": [
				{
					"internalType": "address",
					"name": "",
					"type": "address"
				}
			],
			"stateMutability": "view",
			"type": "function"
		},
		{
			"inputs": [
				{
					"internalType": "uint256",
					"name": "tokenId",
					"type": "uint256"
				}
			],
			"name": "ownerOf",
			"outputs": [
				{
					"internalType": "address",
					"name": "",
					"type": "address"
				}
			],
			"stateMutability": "view",
			"type": "function"
		},
		{
			"inputs": [],
			"name": "protocol",
			"outputs": [
				{
					"internalType": "string",
					"name": "",
					"type": "string"
				}
			],
			"stateMutability": "view",
			"type": "function"
		},
		{
			"inputs": [],
			"name": "renounceOwnership",
			"outputs": [],
			"stateMutability": "nonpayable",
			"type": "function"
		},
		{
			"inputs": [
				{
					"internalType": "address",
					"name": "to",
					"type": "address"
				},
				{
					"internalType": "string",
					"name": "uri",
					"type": "string"
				}
			],
			"name": "safeMint",
			"outputs": [],
			"stateMutability": "nonpayable",
			"type": "function"
		},
		{
			"inputs": [
				{
					"internalType": "address",
					"name": "from",
					"type": "address"
				},
				{
					"internalType": "address",
					"name": "to",
					"type": "address"
				},
				{
					"internalType": "uint256",
					"name": "tokenId",
					"type": "uint256"
				}
			],
			"name": "safeTransferFrom",
			"outputs": [],
			"stateMutability": "nonpayable",
			"type": "function"
		},
		{
			"inputs": [
				{
					"internalType": "address",
					"name": "from",
					"type": "address"
				},
				{
					"internalType": "address",
					"name": "to",
					"type": "address"
				},
				{
					"internalType": "uint256",
					"name": "tokenId",
					"type": "uint256"
				},
				{
					"internalType": "bytes",
					"name": "data",
					"type": "bytes"
				}
			],
			"name": "safeTransferFrom",
			"outputs": [],
			"stateMutability": "nonpayable",
			"type": "function"
		},
		{
			"inputs": [
				{
					"internalType": "address",
					"name": "operator",
					"type": "address"
				},
				{
					"internalType": "bool",
					"name": "approved",
					"type": "bool"
				}
			],
			"name": "setApprovalForAll",
			"outputs": [],
			"stateMutability": "nonpayable",
			"type": "function"
		},
		{
			"inputs": [
				{
					"internalType": "bytes4",
					"name": "interfaceId",
					"type": "bytes4"
				}
			],
			"name": "supportsInterface",
			"outputs": [
				{
					"internalType": "bool",
					"name": "",
					"type": "bool"
				}
			],
			"stateMutability": "view",
			"type": "function"
		},
		{
			"inputs": [],
			"name": "symbol",
			"outputs": [
				{
					"internalType": "string",
					"name": "",
					"type": "string"
				}
			],
			"stateMutability": "view",
			"type": "function"
		},
		{
			"inputs": [],
			"name": "tick",
			"outputs": [
				{
					"internalType": "string",
					"name": "",
					"type": "string"
				}
			],
			"stateMutability": "view",
			"type": "function"
		},
		{
			"inputs": [
				{
					"internalType": "uint256",
					"name": "tokenId",
					"type": "uint256"
				}
			],
			"name": "tokenURI",
			"outputs": [
				{
					"internalType": "string",
					"name": "",
					"type": "string"
				}
			],
			"stateMutability": "view",
			"type": "function"
		},
		{
			"inputs": [
				{
					"internalType": "address",
					"name": "from",
					"type": "address"
				},
				{
					"internalType": "address",
					"name": "to",
					"type": "address"
				},
				{
					"internalType": "uint256",
					"name": "tokenId",
					"type": "uint256"
				}
			],
			"name": "transferFrom",
			"outputs": [],
			"stateMutability": "nonpayable",
			"type": "function"
		},
		{
			"inputs": [
				{
					"internalType": "address",
					"name": "newOwner",
					"type": "address"
				}
			],
			"name": "transferOwnership",
			"outputs": [],
			"stateMutability": "nonpayable",
			"type": "function"
		}
	]
}