{
	"data": {
		"bytecode": {
			"linkReferences": {},
			"object": "6080604052346102d6576100116102da565b6100196102da565b81516001600160401b0381116101ec575f54600181811c911680156102cc575b60208210146101ce57601f811161026a575b50602092601f821160011461020b57928192935f92610200575b50508160011b915f199060031b1c1916175f555b80516001600160401b0381116101ec57600154600181811c911680156101e2575b60208210146101ce57601f811161016b575b50602091601f821160011461010b579181925f92610100575b50508160011b915f199060031b1c1916176001555b6001600a55600680546001600160a01b0319163317905560405161162c908161030c8239f35b015190505f806100c5565b601f1982169260015f52805f20915f5b8581106101535750836001951061013b575b505050811b016001556100da565b01515f1960f88460031b161c191690555f808061012d565b9192602060018192868501518155019401920161011b565b60015f527fb10e2d527612073b26eecdfd717e6a320cf44b4afac2b0732d9fcbe2b7fa0cf6601f830160051c810191602084106101c4575b601f0160051c01905b8181106101b957506100ac565b5f81556001016101ac565b90915081906101a3565b634e487b7160e01b5f52602260045260245ffd5b90607f169061009a565b634e487b7160e01b5f52604160045260245ffd5b015190505f80610065565b601f198216935f8052805f20915f5b868110610252575083600195961061023a575b505050811b015f55610079565b01515f1960f88460031b161c191690555f808061022d565b9192602060018192868501518155019401920161021a565b5f80527f290decd9548b62a8d60345a988386fc84ba6bc95484008f6362f93160ef3e563601f830160051c810191602084106102c2575b601f0160051c01905b8181106102b7575061004b565b5f81556001016102aa565b90915081906102a1565b90607f1690610039565b5f80fd5b60408051919082016001600160401b038111838210176101ec576040526005825264135e53919560da1b602083015256fe60808060405260043610156100ec575b5036156100ea57346100e6576020361461002557005b5f356100318133611171565b61008e57335f52600760205260405f2080546801000000000000000081101561007a5761006391600182018155611039565b819291549060031b91821b915f19901b1916179055005b634e487b7160e01b5f52604160045260245ffd5b60405162461bcd60e51b815260206004820152602a60248201527f736372697074696f6e20616c7265616479207265636f7264656420666f7220746044820152693434b99039b2b73232b960b11b6064820152608490fd5b5f80fd5b005b5f905f3560e01c90816301ffc9a714610f445750806306fdde0314610e8c578063081812fc14610e4f578063095ea7b314610d635780631b77c35614610d3c57806323b872dd14610d2557806342842e0e14610cfc57806356f802b914610cd55780636352211e14610ca657806370a0823114610c5557806379207ab514610c0f5780637b11833e14610bab57806383f5f3ba146109455780638da5cb5b1461091f57806395d89b4114610817578063a22cb4651461077c578063a36956311461074d578063b88d4fde146106c5578063c87b56dd14610670578063caa0f92a14610652578063cc22ef8b146105c8578063e5a136ea1461057f578063e985e9c51461052c578063f08af4da146105095763f5946b620361000f573461050657610215366110d3565b61021e81611597565b6104d157815b81518110156102935761024161023a828461115d565b513361139b565b1561024e57600101610224565b60405162461bcd60e51b815260206004820152601760248201527f736372697074696f6e20646f65736e27742065786973740000000000000000006044820152606490fd5b50600a5480835260086020526040832082519067ffffffffffffffff82116104bd5768010000000000000000821161007a578054828255808310610497575b506020840190855260208520855b8381106104835750505050825b8184526008602052604084205481101561033b5760019082855260086020526103198160408720611039565b90549060031b1c85526009602052604085208260ff19825416179055016102ed565b50331561046f57805f5260026020526001600160a01b0360405f2054168015159182610438575b335f52600360205260405f2060018154019055805f52600260205260405f206001600160a01b0333166001600160a01b031982541617905533827fddf252ad1be2c89b69c2b068fc378daa952ba7f163c4a11628f55a4df523b3ef5f80a45061042457600a546001810180911161041057600a556040517f911308ef3a33a3f360e0d79ec5e0cfade28ce5b02bf52e2e255560a98fe38cf491819061040a9042903384611432565b0390a180f35b634e487b7160e01b83526011600452602483fd5b6339e3563760e11b82526004829052602482fd5b610457815f52600460205260405f206001600160a01b03198154169055565b815f52600360205260405f205f198154019055610362565b633250574960e11b83526004839052602483fd5b6001906020845194019381840155016102e0565b815f528260205f2091820191015b8181106104b257506102d2565b5f81556001016104a5565b634e487b7160e01b85526041600452602485fd5b60405162461bcd60e51b815260206004820152600d60248201526c6d696e746564206265666f726560981b6044820152606490fd5b80fd5b503461050657602061052261051d366110d3565b611597565b6040519015158152f35b5034610506576040366003190112610506576001600160a01b036040610550610fd3565b928261055a610fe9565b9416815260056020522091165f52602052602060ff60405f2054166040519015158152f35b5034610506576040366003190112610506576024359060043581526008602052604081209081548310156105065760206105b98484611039565b90549060031b1c604051908152f35b5034610506576020366003190112610506576001600160a01b036105ea610fd3565b168152600760205260408120604051918260208354918281520192825260208220915b81811061063c576106388561062481870382611095565b604051918291602083526020830190611062565b0390f35b825484526020909301926001928301920161060d565b50346105065780600319360112610506576020600a54604051908152f35b346100e65760203660031901126100e65761068c6004356115d5565b505f60405161069c602082611095565b526106386040516106ae602082611095565b5f8152604051918291602083526020830190610faf565b346100e65760803660031901126100e6576106de610fd3565b6106e6610fe9565b6064359167ffffffffffffffff83116100e657366023840112156100e657826004013591610713836110b7565b926107216040519485611095565b80845236602482870101116100e6576020815f9260246100ea980183880137850101526044359161145d565b346100e65760203660031901126100e6576004355f526009602052602060ff60405f2054166040519015158152f35b346100e65760403660031901126100e657610795610fd3565b602435908115158092036100e6576001600160a01b031690811561080457335f52600560205260405f20825f5260205260405f2060ff1981541660ff83161790556040519081527f17307eab39ab6107e8899845ad3d59bd9653f200f220920489ca2b5937696c3160203392a3005b50630b61174360e31b5f5260045260245ffd5b346100e6575f3660031901126100e6576040515f6001548060011c90600181168015610915575b602083108114610901578285529081156108dd575060011461087f575b6106388361086b81850382611095565b604051918291602083526020830190610faf565b91905060015f527fb10e2d527612073b26eecdfd717e6a320cf44b4afac2b0732d9fcbe2b7fa0cf6915f905b8082106108c35750909150810160200161086b61085b565b9192600181602092548385880101520191019092916108ab565b60ff191660208086019190915291151560051b8401909101915061086b905061085b565b634e487b7160e01b5f52602260045260245ffd5b91607f169161083e565b346100e6575f3660031901126100e65760206001600160a01b0360065416604051908152f35b346100e65760203660031901126100e657600435600a54811015610b665761096c816115d5565b6001600160a01b0333911603610b2157805f52600860205260405f2090604051808360208295549384815201905f5260205f20925f5b818110610b085750506109b792500383611095565b805f52600860205260405f208054905f815581610aea575b50505f5b8251811015610a0357806109e96001928561115d565b515f52600960205260405f2060ff198154169055016109d3565b50805f5260026020526001600160a01b0360405f2054168015908115610ab3575b825f52600260205260405f206001600160a01b03198154169055825f827fddf252ad1be2c89b69c2b068fc378daa952ba7f163c4a11628f55a4df523b3ef8280a450610aa1576040517f4f1967a44e420d84b2d475c96521037a4fa31a2c9c52207d768a4f6cdc5e13ef9080610a9c42863384611432565b0390a1005b637e27328960e01b5f5260045260245ffd5b610ad2835f52600460205260405f206001600160a01b03198154169055565b805f52600360205260405f205f198154019055610a24565b5f5260205f20908101905b818110156109cf575f8155600101610af5565b84548352600194850194879450602090930192016109a2565b60405162461bcd60e51b815260206004820152601160248201527f696e76616c6964204e4654206f776e65720000000000000000000000000000006044820152606490fd5b60405162461bcd60e51b815260206004820152601260248201527f6e6f6e6520657869737420746f6b656e496400000000000000000000000000006044820152606490fd5b346100e65760203660031901126100e6576004355f52600860205260405f206040519081602082549182815201915f5260205f20905f5b818110610bf9576106388561062481870382611095565b8254845260209093019260019283019201610be2565b346100e65760403660031901126100e657610c28610fd3565b6001600160a01b0360243591165f52600760205260405f2080548210156100e6576020916105b991611039565b346100e65760203660031901126100e6576001600160a01b03610c76610fd3565b168015610c93575f526003602052602060405f2054604051908152f35b6322718ad960e21b5f525f60045260245ffd5b346100e65760203660031901126100e6576020610cc46004356115d5565b6001600160a01b0360405191168152f35b346100e65760403660031901126100e6576020610522610cf3610fd3565b6024359061139b565b346100e6576100ea610d0d36610fff565b9060405192610d1d602085611095565b5f845261145d565b346100e6576100ea610d3636610fff565b91611200565b346100e65760403660031901126100e6576020610522610d5a610fd3565b60243590611171565b346100e65760403660031901126100e657610d7c610fd3565b602435610d88816115d5565b33151580610e3c575b80610e09575b610df65781906001600160a01b0380851691167f8c5be1e5ebec7d5bd14f71427d1e84f3dd0314c0f7b2291e5b200ac8c7c3b9255f80a45f5260046020526001600160a01b0360405f2091166001600160a01b03198254161790555f80f35b63a9fbf51f60e01b5f523360045260245ffd5b506001600160a01b0381165f52600560205260405f206001600160a01b0333165f5260205260ff60405f20541615610d97565b50336001600160a01b0382161415610d91565b346100e65760203660031901126100e657600435610e6c816115d5565b505f52600460205260206001600160a01b0360405f205416604051908152f35b346100e6575f3660031901126100e6576040515f5f548060011c90600181168015610f3a575b602083108114610901578285529081156108dd5750600114610ede576106388361086b81850382611095565b5f8080527f290decd9548b62a8d60345a988386fc84ba6bc95484008f6362f93160ef3e563939250905b808210610f205750909150810160200161086b61085b565b919260018160209254838588010152019101909291610f08565b91607f1691610eb2565b346100e65760203660031901126100e6576004359063ffffffff60e01b82168092036100e6576020916380ac58cd60e01b8114908115610f9e575b8115610f8d575b5015158152f35b6301ffc9a760e01b14905083610f86565b635b5e139f60e01b81149150610f7f565b805180835260209291819084018484015e5f828201840152601f01601f1916010190565b600435906001600160a01b03821682036100e657565b602435906001600160a01b03821682036100e657565b60609060031901126100e6576004356001600160a01b03811681036100e657906024356001600160a01b03811681036100e6579060443590565b805482101561104e575f5260205f2001905f90565b634e487b7160e01b5f52603260045260245ffd5b90602080835192838152019201905f5b81811061107f5750505090565b8251845260209384019390920191600101611072565b90601f8019910116810190811067ffffffffffffffff82111761007a57604052565b67ffffffffffffffff811161007a57601f01601f191660200190565b60206003198201126100e6576004359067ffffffffffffffff82116100e657806023830112156100e65781600401359167ffffffffffffffff831161007a578260051b90604051936111286020840186611095565b8452602460208501928201019283116100e657602401905b82821061114d5750505090565b8135815260209182019101611140565b805182101561104e5760209160051b010190565b6001600160a01b03165f52600760205260405f2090604051808360208295549384815201905f5260205f20925f5b8181106111e75750506111b492500383611095565b5f5b82518110156111e057816111ca828561115d565b51146111d8576001016111b6565b505050600190565b5050505f90565b845483526001948501948794506020909301920161119f565b91906001600160a01b0316801561138857815f5260026020526001600160a01b0360405f205416928233151592836112ec575b6001600160a01b039350856112b5575b805f52600360205260405f2060018154019055815f52600260205260405f20818519825416179055857fddf252ad1be2c89b69c2b068fc378daa952ba7f163c4a11628f55a4df523b3ef5f80a41680830361129d57505050565b6364283d7b60e01b5f5260045260245260445260645ffd5b6112d4825f52600460205260405f206001600160a01b03198154169055565b855f52600360205260405f205f198154019055611243565b9192905080611331575b1561130357828291611233565b828461131b57637e27328960e01b5f5260045260245ffd5b63177e802f60e01b5f523360045260245260445ffd5b50338414801561135f575b806112f65750825f526004602052336001600160a01b0360405f205416146112f6565b50835f52600560205260405f206001600160a01b0333165f5260205260ff60405f20541661133c565b633250574960e11b5f525f60045260245ffd5b6001600160a01b0390929192165f52600760205260405f2091604051808460208296549384815201905f5260205f20925f5b8181106114195750506113e292500384611095565b5f915f5b845181101561141257826113fa828761115d565b5114611409575b6001016113e6565b60019350611401565b5092505090565b84548352600194850194889450602090930192016113cd565b939291611458906001600160a01b03604093168652606060208701526060860190611062565b930152565b90611469838284611200565b803b611476575b50505050565b6020916114bc6001600160a01b03809316956040519586948594630a85bd0160e11b86523360048701521660248501526044840152608060648401526084830190610faf565b03815f865af15f9181611552575b5061151f57503d15611518573d6114e0816110b7565b906114ee6040519283611095565b81523d5f602083013e5b805190816115135782633250574960e11b5f5260045260245ffd5b602001fd5b60606114f8565b6001600160e01b03191663757a42ff60e11b0161154057505f808080611470565b633250574960e11b5f5260045260245ffd5b9091506020813d60201161158f575b8161156e60209383611095565b810103126100e657516001600160e01b0319811681036100e657905f6114ca565b3d9150611561565b5f5b81518110156115cf576115ac818361115d565b515f52600960205260ff60405f2054166115c857600101611599565b5050600190565b50505f90565b805f5260026020526001600160a01b0360405f205416908115610aa157509056fea264697066735822122044518b67267c4bab0e44f56f2f557df24238a64cc45b7eef041de32cf16bcd2c64736f6c634300081c0033",
			"opcodes": "PUSH1 0x80 PUSH1 0x40 MSTORE CALLVALUE PUSH2 0x2D6 JUMPI PUSH2 0x11 PUSH2 0x2DA JUMP JUMPDEST PUSH2 0x19 PUSH2 0x2DA JUMP JUMPDEST DUP2 MLOAD PUSH1 0x1 PUSH1 0x1 PUSH1 0x40 SHL SUB DUP2 GT PUSH2 0x1EC JUMPI PUSH0 SLOAD PUSH1 0x1 DUP2 DUP2 SHR SWAP2 AND DUP1 ISZERO PUSH2 0x2CC JUMPI JUMPDEST PUSH1 0x20 DUP3 LT EQ PUSH2 0x1CE JUMPI PUSH1 0x1F DUP2 GT PUSH2 0x26A JUMPI JUMPDEST POP PUSH1 0x20 SWAP3 PUSH1 0x1F DUP3 GT PUSH1 0x1 EQ PUSH2 0x20B JUMPI SWAP3 DUP2 SWAP3 SWAP4 PUSH0 SWAP3 PUSH2 0x200 JUMPI JUMPDEST POP POP DUP2 PUSH1 0x1 SHL SWAP2 PUSH0 NOT SWAP1 PUSH1 0x3 SHL SHR NOT AND OR PUSH0 SSTORE JUMPDEST DUP1 MLOAD PUSH1 0x1 PUSH1 0x1 PUSH1 0x40 SHL SUB DUP2 GT PUSH2 0x1EC JUMPI PUSH1 0x1 SLOAD PUSH1 0x1 DUP2 DUP2 SHR SWAP2 AND DUP1 ISZERO PUSH2 0x1E2 JUMPI JUMPDEST PUSH1 0x20 DUP3 LT EQ PUSH2 0x1CE JUMPI PUSH1 0x1F DUP2 GT PUSH2 0x16B JUMPI JUMPDEST POP PUSH1 0x20 SWAP2 PUSH1 0x1F DUP3 GT PUSH1 0x1 EQ PUSH2 0x10B JUMPI SWAP2 DUP2 SWAP3 PUSH0 SWAP3 PUSH2 0x100 JUMPI JUMPDEST POP POP DUP2 PUSH1 0x1 SHL SWAP2 PUSH0 NOT SWAP1 PUSH1 0x3 SHL SHR NOT AND OR PUSH1 0x1 SSTORE JUMPDEST PUSH1 0x1 PUSH1 0xA SSTORE PUSH1 0x6 DUP1 SLOAD PUSH1 0x1 PUSH1 0x1 PUSH1 0xA0 SHL SUB NOT AND CALLER OR SWAP1 SSTORE PUSH1 0x40 MLOAD PUSH2 0x162C SWAP1 DUP2 PUSH2 0x30C DUP3 CODECOPY RETURN JUMPDEST ADD MLOAD SWAP1 POP PUSH0 DUP1 PUSH2 0xC5 JUMP JUMPDEST PUSH1 0x1F NOT DUP3 AND SWAP3 PUSH1 0x1 PUSH0 MSTORE DUP1 PUSH0 KECCAK256 SWAP2 PUSH0 JUMPDEST DUP6 DUP2 LT PUSH2 0x153 JUMPI POP DUP4 PUSH1 0x1 SWAP6 LT PUSH2 0x13B JUMPI JUMPDEST POP POP POP DUP2 SHL ADD PUSH1 0x1 SSTORE PUSH2 0xDA JUMP JUMPDEST ADD MLOAD PUSH0 NOT PUSH1 0xF8 DUP5 PUSH1 0x3 SHL AND SHR NOT AND SWAP1 SSTORE PUSH0 DUP1 DUP1 PUSH2 0x12D JUMP JUMPDEST SWAP2 SWAP3 PUSH1 0x20 PUSH1 0x1 DUP2 SWAP3 DUP7 DUP6 ADD MLOAD DUP2 SSTORE ADD SWAP5 ADD SWAP3 ADD PUSH2 0x11B JUMP JUMPDEST PUSH1 0x1 PUSH0 MSTORE PUSH32 0xB10E2D527612073B26EECDFD717E6A320CF44B4AFAC2B0732D9FCBE2B7FA0CF6 PUSH1 0x1F DUP4 ADD PUSH1 0x5 SHR DUP2 ADD SWAP2 PUSH1 0x20 DUP5 LT PUSH2 0x1C4 JUMPI JUMPDEST PUSH1 0x1F ADD PUSH1 0x5 SHR ADD SWAP1 JUMPDEST DUP2 DUP2 LT PUSH2 0x1B9 JUMPI POP PUSH2 0xAC JUMP JUMPDEST PUSH0 DUP2 SSTORE PUSH1 0x1 ADD PUSH2 0x1AC JUMP JUMPDEST SWAP1 SWAP2 POP DUP2 SWAP1 PUSH2 0x1A3 JUMP JUMPDEST PUSH4 0x4E487B71 PUSH1 0xE0 SHL PUSH0 MSTORE PUSH1 0x22 PUSH1 0x4 MSTORE PUSH1 0x24 PUSH0 REVERT JUMPDEST SWAP1 PUSH1 0x7F AND SWAP1 PUSH2 0x9A JUMP JUMPDEST PUSH4 0x4E487B71 PUSH1 0xE0 SHL PUSH0 MSTORE PUSH1 0x41 PUSH1 0x4 MSTORE PUSH1 0x24 PUSH0 REVERT JUMPDEST ADD MLOAD SWAP1 POP PUSH0 DUP1 PUSH2 0x65 JUMP JUMPDEST PUSH1 0x1F NOT DUP3 AND SWAP4 PUSH0 DUP1 MSTORE DUP1 PUSH0 KECCAK256 SWAP2 PUSH0 JUMPDEST DUP7 DUP2 LT PUSH2 0x252 JUMPI POP DUP4 PUSH1 0x1 SWAP6 SWAP7 LT PUSH2 0x23A JUMPI JUMPDEST POP POP POP DUP2 SHL ADD PUSH0 SSTORE PUSH2 0x79 JUMP JUMPDEST ADD MLOAD PUSH0 NOT PUSH1 0xF8 DUP5 PUSH1 0x3 SHL AND SHR NOT AND SWAP1 SSTORE PUSH0 DUP1 DUP1 PUSH2 0x22D JUMP JUMPDEST SWAP2 SWAP3 PUSH1 0x20 PUSH1 0x1 DUP2 SWAP3 DUP7 DUP6 ADD MLOAD DUP2 SSTORE ADD SWAP5 ADD SWAP3 ADD PUSH2 0x21A JUMP JUMPDEST PUSH0 DUP1 MSTORE PUSH32 0x290DECD9548B62A8D60345A988386FC84BA6BC95484008F6362F93160EF3E563 PUSH1 0x1F DUP4 ADD PUSH1 0x5 SHR DUP2 ADD SWAP2 PUSH1 0x20 DUP5 LT PUSH2 0x2C2 JUMPI JUMPDEST PUSH1 0x1F ADD PUSH1 0x5 SHR ADD SWAP1 JUMPDEST DUP2 DUP2 LT PUSH2 0x2B7 JUMPI POP PUSH2 0x4B JUMP JUMPDEST PUSH0 DUP2 SSTORE PUSH1 0x1 ADD PUSH2 0x2AA JUMP JUMPDEST SWAP1 SWAP2 POP DUP2 SWAP1 PUSH2 0x2A1 JUMP JUMPDEST SWAP1 PUSH1 0x7F AND SWAP1 PUSH2 0x39 JUMP JUMPDEST PUSH0 DUP1 REVERT JUMPDEST PUSH1 0x40 DUP1 MLOAD SWAP2 SWAP1 DUP3 ADD PUSH1 0x1 PUSH1 0x1 PUSH1 0x40 SHL SUB DUP2 GT DUP4 DUP3 LT OR PUSH2 0x1EC JUMPI PUSH1 0x40 MSTORE PUSH1 0x5 DUP3 MSTORE PUSH5 0x135E539195 PUSH1 0xDA SHL PUSH1 0x20 DUP4 ADD MSTORE JUMP INVALID PUSH1 0x80 DUP1 PUSH1 0x40 MSTORE PUSH1 0x4 CALLDATASIZE LT ISZERO PUSH2 0xEC JUMPI JUMPDEST POP CALLDATASIZE ISZERO PUSH2 0xEA JUMPI CALLVALUE PUSH2 0xE6 JUMPI PUSH1 0x20 CALLDATASIZE EQ PUSH2 0x25 JUMPI STOP JUMPDEST PUSH0 CALLDATALOAD PUSH2 0x31 DUP2 CALLER PUSH2 0x1171 JUMP JUMPDEST PUSH2 0x8E JUMPI CALLER PUSH0 MSTORE PUSH1 0x7 PUSH1 0x20 MSTORE PUSH1 0x40 PUSH0 KECCAK256 DUP1 SLOAD PUSH9 0x10000000000000000 DUP2 LT ISZERO PUSH2 0x7A JUMPI PUSH2 0x63 SWAP2 PUSH1 0x1 DUP3 ADD DUP2 SSTORE PUSH2 0x1039 JUMP JUMPDEST DUP2 SWAP3 SWAP2 SLOAD SWAP1 PUSH1 0x3 SHL SWAP2 DUP3 SHL SWAP2 PUSH0 NOT SWAP1 SHL NOT AND OR SWAP1 SSTORE STOP JUMPDEST PUSH4 0x4E487B71 PUSH1 0xE0 SHL PUSH0 MSTORE PUSH1 0x41 PUSH1 0x4 MSTORE PUSH1 0x24 PUSH0 REVERT JUMPDEST PUSH1 0x40 MLOAD PUSH3 0x461BCD PUSH1 0xE5 SHL DUP2 MSTORE PUSH1 0x20 PUSH1 0x4 DUP3 ADD MSTORE PUSH1 0x2A PUSH1 0x24 DUP3 ADD MSTORE PUSH32 0x736372697074696F6E20616C7265616479207265636F7264656420666F722074 PUSH1 0x44 DUP3 ADD MSTORE PUSH10 0x3434B99039B2B73232B9 PUSH1 0xB1 SHL PUSH1 0x64 DUP3 ADD MSTORE PUSH1 0x84 SWAP1 REVERT JUMPDEST PUSH0 DUP1 REVERT JUMPDEST STOP JUMPDEST PUSH0 SWAP1 PUSH0 CALLDATALOAD PUSH1 0xE0 SHR SWAP1 DUP2 PUSH4 0x1FFC9A7 EQ PUSH2 0xF44 JUMPI POP DUP1 PUSH4 0x6FDDE03 EQ PUSH2 0xE8C JUMPI DUP1 PUSH4 0x81812FC EQ PUSH2 0xE4F JUMPI DUP1 PUSH4 0x95EA7B3 EQ PUSH2 0xD63 JUMPI DUP1 PUSH4 0x1B77C356 EQ PUSH2 0xD3C JUMPI DUP1 PUSH4 0x23B872DD EQ PUSH2 0xD25 JUMPI DUP1 PUSH4 0x42842E0E EQ PUSH2 0xCFC JUMPI DUP1 PUSH4 0x56F802B9 EQ PUSH2 0xCD5 JUMPI DUP1 PUSH4 0x6352211E EQ PUSH2 0xCA6 JUMPI DUP1 PUSH4 0x70A08231 EQ PUSH2 0xC55 JUMPI DUP1 PUSH4 0x79207AB5 EQ PUSH2 0xC0F JUMPI DUP1 PUSH4 0x7B11833E EQ PUSH2 0xBAB JUMPI DUP1 PUSH4 0x83F5F3BA EQ PUSH2 0x945 JUMPI DUP1 PUSH4 0x8DA5CB5B EQ PUSH2 0x91F JUMPI DUP1 PUSH4 0x95D89B41 EQ PUSH2 0x817 JUMPI DUP1 PUSH4 0xA22CB465 EQ PUSH2 0x77C JUMPI DUP1 PUSH4 0xA3695631 EQ PUSH2 0x74D JUMPI DUP1 PUSH4 0xB88D4FDE EQ PUSH2 0x6C5 JUMPI DUP1 PUSH4 0xC87B56DD EQ PUSH2 0x670 JUMPI DUP1 PUSH4 0xCAA0F92A EQ PUSH2 0x652 JUMPI DUP1 PUSH4 0xCC22EF8B EQ PUSH2 0x5C8 JUMPI DUP1 PUSH4 0xE5A136EA EQ PUSH2 0x57F JUMPI DUP1 PUSH4 0xE985E9C5 EQ PUSH2 0x52C JUMPI DUP1 PUSH4 0xF08AF4DA EQ PUSH2 0x509 JUMPI PUSH4 0xF5946B62 SUB PUSH2 0xF JUMPI CALLVALUE PUSH2 0x506 JUMPI PUSH2 0x215 CALLDATASIZE PUSH2 0x10D3 JUMP JUMPDEST PUSH2 0x21E DUP2 PUSH2 0x1597 JUMP JUMPDEST PUSH2 0x4D1 JUMPI DUP2 JUMPDEST DUP2 MLOAD DUP2 LT ISZERO PUSH2 0x293 JUMPI PUSH2 0x241 PUSH2 0x23A DUP3 DUP5 PUSH2 0x115D JUMP JUMPDEST MLOAD CALLER PUSH2 0x139B JUMP JUMPDEST ISZERO PUSH2 0x24E JUMPI PUSH1 0x1 ADD PUSH2 0x224 JUMP JUMPDEST PUSH1 0x40 MLOAD PUSH3 0x461BCD PUSH1 0xE5 SHL DUP2 MSTORE PUSH1 0x20 PUSH1 0x4 DUP3 ADD MSTORE PUSH1 0x17 PUSH1 0x24 DUP3 ADD MSTORE PUSH32 0x736372697074696F6E20646F65736E2774206578697374000000000000000000 PUSH1 0x44 DUP3 ADD MSTORE PUSH1 0x64 SWAP1 REVERT JUMPDEST POP PUSH1 0xA SLOAD DUP1 DUP4 MSTORE PUSH1 0x8 PUSH1 0x20 MSTORE PUSH1 0x40 DUP4 KECCAK256 DUP3 MLOAD SWAP1 PUSH8 0xFFFFFFFFFFFFFFFF DUP3 GT PUSH2 0x4BD JUMPI PUSH9 0x10000000000000000 DUP3 GT PUSH2 0x7A JUMPI DUP1 SLOAD DUP3 DUP3 SSTORE DUP1 DUP4 LT PUSH2 0x497 JUMPI JUMPDEST POP PUSH1 0x20 DUP5 ADD SWAP1 DUP6 MSTORE PUSH1 0x20 DUP6 KECCAK256 DUP6 JUMPDEST DUP4 DUP2 LT PUSH2 0x483 JUMPI POP POP POP POP DUP3 JUMPDEST DUP2 DUP5 MSTORE PUSH1 0x8 PUSH1 0x20 MSTORE PUSH1 0x40 DUP5 KECCAK256 SLOAD DUP2 LT ISZERO PUSH2 0x33B JUMPI PUSH1 0x1 SWAP1 DUP3 DUP6 MSTORE PUSH1 0x8 PUSH1 0x20 MSTORE PUSH2 0x319 DUP2 PUSH1 0x40 DUP8 KECCAK256 PUSH2 0x1039 JUMP JUMPDEST SWAP1 SLOAD SWAP1 PUSH1 0x3 SHL SHR DUP6 MSTORE PUSH1 0x9 PUSH1 0x20 MSTORE PUSH1 0x40 DUP6 KECCAK256 DUP3 PUSH1 0xFF NOT DUP3 SLOAD AND OR SWAP1 SSTORE ADD PUSH2 0x2ED JUMP JUMPDEST POP CALLER ISZERO PUSH2 0x46F JUMPI DUP1 PUSH0 MSTORE PUSH1 0x2 PUSH1 0x20 MSTORE PUSH1 0x1 PUSH1 0x1 PUSH1 0xA0 SHL SUB PUSH1 0x40 PUSH0 KECCAK256 SLOAD AND DUP1 ISZERO ISZERO SWAP2 DUP3 PUSH2 0x438 JUMPI JUMPDEST CALLER PUSH0 MSTORE PUSH1 0x3 PUSH1 0x20 MSTORE PUSH1 0x40 PUSH0 KECCAK256 PUSH1 0x1 DUP2 SLOAD ADD SWAP1 SSTORE DUP1 PUSH0 MSTORE PUSH1 0x2 PUSH1 0x20 MSTORE PUSH1 0x40 PUSH0 KECCAK256 PUSH1 0x1 PUSH1 0x1 PUSH1 0xA0 SHL SUB CALLER AND PUSH1 0x1 PUSH1 0x1 PUSH1 0xA0 SHL SUB NOT DUP3 SLOAD AND OR SWAP1 SSTORE CALLER DUP3 PUSH32 0xDDF252AD1BE2C89B69C2B068FC378DAA952BA7F163C4A11628F55A4DF523B3EF PUSH0 DUP1 LOG4 POP PUSH2 0x424 JUMPI PUSH1 0xA SLOAD PUSH1 0x1 DUP2 ADD DUP1 SWAP2 GT PUSH2 0x410 JUMPI PUSH1 0xA SSTORE PUSH1 0x40 MLOAD PUSH32 0x911308EF3A33A3F360E0D79EC5E0CFADE28CE5B02BF52E2E255560A98FE38CF4 SWAP2 DUP2 SWAP1 PUSH2 0x40A SWAP1 TIMESTAMP SWAP1 CALLER DUP5 PUSH2 0x1432 JUMP JUMPDEST SUB SWAP1 LOG1 DUP1 RETURN JUMPDEST PUSH4 0x4E487B71 PUSH1 0xE0 SHL DUP4 MSTORE PUSH1 0x11 PUSH1 0x4 MSTORE PUSH1 0x24 DUP4 REVERT JUMPDEST PUSH4 0x39E35637 PUSH1 0xE1 SHL DUP3 MSTORE PUSH1 0x4 DUP3 SWAP1 MSTORE PUSH1 0x24 DUP3 REVERT JUMPDEST PUSH2 0x457 DUP2 PUSH0 MSTORE PUSH1 0x4 PUSH1 0x20 MSTORE PUSH1 0x40 PUSH0 KECCAK256 PUSH1 0x1 PUSH1 0x1 PUSH1 0xA0 SHL SUB NOT DUP2 SLOAD AND SWAP1 SSTORE JUMP JUMPDEST DUP2 PUSH0 MSTORE PUSH1 0x3 PUSH1 0x20 MSTORE PUSH1 0x40 PUSH0 KECCAK256 PUSH0 NOT DUP2 SLOAD ADD SWAP1 SSTORE PUSH2 0x362 JUMP JUMPDEST PUSH4 0x32505749 PUSH1 0xE1 SHL DUP4 MSTORE PUSH1 0x4 DUP4 SWAP1 MSTORE PUSH1 0x24 DUP4 REVERT JUMPDEST PUSH1 0x1 SWAP1 PUSH1 0x20 DUP5 MLOAD SWAP5 ADD SWAP4 DUP2 DUP5 ADD SSTORE ADD PUSH2 0x2E0 JUMP JUMPDEST DUP2 PUSH0 MSTORE DUP3 PUSH1 0x20 PUSH0 KECCAK256 SWAP2 DUP3 ADD SWAP2 ADD JUMPDEST DUP2 DUP2 LT PUSH2 0x4B2 JUMPI POP PUSH2 0x2D2 JUMP JUMPDEST PUSH0 DUP2 SSTORE PUSH1 0x1 ADD PUSH2 0x4A5 JUMP JUMPDEST PUSH4 0x4E487B71 PUSH1 0xE0 SHL DUP6 MSTORE PUSH1 0x41 PUSH1 0x4 MSTORE PUSH1 0x24 DUP6 REVERT JUMPDEST PUSH1 0x40 MLOAD PUSH3 0x461BCD PUSH1 0xE5 SHL DUP2 MSTORE PUSH1 0x20 PUSH1 0x4 DUP3 ADD MSTORE PUSH1 0xD PUSH1 0x24 DUP3 ADD MSTORE PUSH13 0x6D696E746564206265666F7265 PUSH1 0x98 SHL PUSH1 0x44 DUP3 ADD MSTORE PUSH1 0x64 SWAP1 REVERT JUMPDEST DUP1 REVERT JUMPDEST POP CALLVALUE PUSH2 0x506 JUMPI PUSH1 0x20 PUSH2 0x522 PUSH2 0x51D CALLDATASIZE PUSH2 0x10D3 JUMP JUMPDEST PUSH2 0x1597 JUMP JUMPDEST PUSH1 0x40 MLOAD SWAP1 ISZERO ISZERO DUP2 MSTORE RETURN JUMPDEST POP CALLVALUE PUSH2 0x506 JUMPI PUSH1 0x40 CALLDATASIZE PUSH1 0x3 NOT ADD SLT PUSH2 0x506 JUMPI PUSH1 0x1 PUSH1 0x1 PUSH1 0xA0 SHL SUB PUSH1 0x40 PUSH2 0x550 PUSH2 0xFD3 JUMP JUMPDEST SWAP3 DUP3 PUSH2 0x55A PUSH2 0xFE9 JUMP JUMPDEST SWAP5 AND DUP2 MSTORE PUSH1 0x5 PUSH1 0x20 MSTORE KECCAK256 SWAP2 AND PUSH0 MSTORE PUSH1 0x20 MSTORE PUSH1 0x20 PUSH1 0xFF PUSH1 0x40 PUSH0 KECCAK256 SLOAD AND PUSH1 0x40 MLOAD SWAP1 ISZERO ISZERO DUP2 MSTORE RETURN JUMPDEST POP CALLVALUE PUSH2 0x506 JUMPI PUSH1 0x40 CALLDATASIZE PUSH1 0x3 NOT ADD SLT PUSH2 0x506 JUMPI PUSH1 0x24 CALLDATALOAD SWAP1 PUSH1 0x4 CALLDATALOAD DUP2 MSTORE PUSH1 0x8 PUSH1 0x20 MSTORE PUSH1 0x40 DUP2 KECCAK256 SWAP1 DUP2 SLOAD DUP4 LT ISZERO PUSH2 0x506 JUMPI PUSH1 0x20 PUSH2 0x5B9 DUP5 DUP5 PUSH2 0x1039 JUMP JUMPDEST SWAP1 SLOAD SWAP1 PUSH1 0x3 SHL SHR PUSH1 0x40 MLOAD SWAP1 DUP2 MSTORE RETURN JUMPDEST POP CALLVALUE PUSH2 0x506 JUMPI PUSH1 0x20 CALLDATASIZE PUSH1 0x3 NOT ADD SLT PUSH2 0x506 JUMPI PUSH1 0x1 PUSH1 0x1 PUSH1 0xA0 SHL SUB PUSH2 0x5EA PUSH2 0xFD3 JUMP JUMPDEST AND DUP2 MSTORE PUSH1 0x7 PUSH1 0x20 MSTORE PUSH1 0x40 DUP2 KECCAK256 PUSH1 0x40 MLOAD SWAP2 DUP3 PUSH1 0x20 DUP4 SLOAD SWAP2 DUP3 DUP2 MSTORE ADD SWAP3 DUP3 MSTORE PUSH1 0x20 DUP3 KECCAK256 SWAP2 JUMPDEST DUP2 DUP2 LT PUSH2 0x63C JUMPI PUSH2 0x638 DUP6 PUSH2 0x624 DUP2 DUP8 SUB DUP3 PUSH2 0x1095 JUMP JUMPDEST PUSH1 0x40 MLOAD SWAP2 DUP3 SWAP2 PUSH1 0x20 DUP4 MSTORE PUSH1 0x20 DUP4 ADD SWAP1 PUSH2 0x1062 JUMP JUMPDEST SUB SWAP1 RETURN JUMPDEST DUP3 SLOAD DUP5 MSTORE PUSH1 0x20 SWAP1 SWAP4 ADD SWAP3 PUSH1 0x1 SWAP3 DUP4 ADD SWAP3 ADD PUSH2 0x60D JUMP JUMPDEST POP CALLVALUE PUSH2 0x506 JUMPI DUP1 PUSH1 0x3 NOT CALLDATASIZE ADD SLT PUSH2 0x506 JUMPI PUSH1 0x20 PUSH1 0xA SLOAD PUSH1 0x40 MLOAD SWAP1 DUP2 MSTORE RETURN JUMPDEST CALLVALUE PUSH2 0xE6 JUMPI PUSH1 0x20 CALLDATASIZE PUSH1 0x3 NOT ADD SLT PUSH2 0xE6 JUMPI PUSH2 0x68C PUSH1 0x4 CALLDATALOAD PUSH2 0x15D5 JUMP JUMPDEST POP PUSH0 PUSH1 0x40 MLOAD PUSH2 0x69C PUSH1 0x20 DUP3 PUSH2 0x1095 JUMP JUMPDEST MSTORE PUSH2 0x638 PUSH1 0x40 MLOAD PUSH2 0x6AE PUSH1 0x20 DUP3 PUSH2 0x1095 JUMP JUMPDEST PUSH0 DUP2 MSTORE PUSH1 0x40 MLOAD SWAP2 DUP3 SWAP2 PUSH1 0x20 DUP4 MSTORE PUSH1 0x20 DUP4 ADD SWAP1 PUSH2 0xFAF JUMP JUMPDEST CALLVALUE PUSH2 0xE6 JUMPI PUSH1 0x80 CALLDATASIZE PUSH1 0x3 NOT ADD SLT PUSH2 0xE6 JUMPI PUSH2 0x6DE PUSH2 0xFD3 JUMP JUMPDEST PUSH2 0x6E6 PUSH2 0xFE9 JUMP JUMPDEST PUSH1 0x64 CALLDATALOAD SWAP2 PUSH8 0xFFFFFFFFFFFFFFFF DUP4 GT PUSH2 0xE6 JUMPI CALLDATASIZE PUSH1 0x23 DUP5 ADD SLT ISZERO PUSH2 0xE6 JUMPI DUP3 PUSH1 0x4 ADD CALLDATALOAD SWAP2 PUSH2 0x713 DUP4 PUSH2 0x10B7 JUMP JUMPDEST SWAP3 PUSH2 0x721 PUSH1 0x40 MLOAD SWAP5 DUP6 PUSH2 0x1095 JUMP JUMPDEST DUP1 DUP5 MSTORE CALLDATASIZE PUSH1 0x24 DUP3 DUP8 ADD ADD GT PUSH2 0xE6 JUMPI PUSH1 0x20 DUP2 PUSH0 SWAP3 PUSH1 0x24 PUSH2 0xEA SWAP9 ADD DUP4 DUP9 ADD CALLDATACOPY DUP6 ADD ADD MSTORE PUSH1 0x44 CALLDATALOAD SWAP2 PUSH2 0x145D JUMP JUMPDEST CALLVALUE PUSH2 0xE6 JUMPI PUSH1 0x20 CALLDATASIZE PUSH1 0x3 NOT ADD SLT PUSH2 0xE6 JUMPI PUSH1 0x4 CALLDATALOAD PUSH0 MSTORE PUSH1 0x9 PUSH1 0x20 MSTORE PUSH1 0x20 PUSH1 0xFF PUSH1 0x40 PUSH0 KECCAK256 SLOAD AND PUSH1 0x40 MLOAD SWAP1 ISZERO ISZERO DUP2 MSTORE RETURN JUMPDEST CALLVALUE PUSH2 0xE6 JUMPI PUSH1 0x40 CALLDATASIZE PUSH1 0x3 NOT ADD SLT PUSH2 0xE6 JUMPI PUSH2 0x795 PUSH2 0xFD3 JUMP JUMPDEST PUSH1 0x24 CALLDATALOAD SWAP1 DUP2 ISZERO ISZERO DUP1 SWAP3 SUB PUSH2 0xE6 JUMPI PUSH1 0x1 PUSH1 0x1 PUSH1 0xA0 SHL SUB AND SWAP1 DUP2 ISZERO PUSH2 0x804 JUMPI CALLER PUSH0 MSTORE PUSH1 0x5 PUSH1 0x20 MSTORE PUSH1 0x40 PUSH0 KECCAK256 DUP3 PUSH0 MSTORE PUSH1 0x20 MSTORE PUSH1 0x40 PUSH0 KECCAK256 PUSH1 0xFF NOT DUP2 SLOAD AND PUSH1 0xFF DUP4 AND OR SWAP1 SSTORE PUSH1 0x40 MLOAD SWAP1 DUP2 MSTORE PUSH32 0x17307EAB39AB6107E8899845AD3D59BD9653F200F220920489CA2B5937696C31 PUSH1 0x20 CALLER SWAP3 LOG3 STOP JUMPDEST POP PUSH4 0xB611743 PUSH1 0xE3 SHL PUSH0 MSTORE PUSH1 0x4 MSTORE PUSH1 0x24 PUSH0 REVERT JUMPDEST CALLVALUE PUSH2 0xE6 JUMPI PUSH0 CALLDATASIZE PUSH1 0x3 NOT ADD SLT PUSH2 0xE6 JUMPI PUSH1 0x40 MLOAD PUSH0 PUSH1 0x1 SLOAD DUP1 PUSH1 0x1 SHR SWAP1 PUSH1 0x1 DUP2 AND DUP1 ISZERO PUSH2 0x915 JUMPI JUMPDEST PUSH1 0x20 DUP4 LT DUP2 EQ PUSH2 0x901 JUMPI DUP3 DUP6 MSTORE SWAP1 DUP2 ISZERO PUSH2 0x8DD JUMPI POP PUSH1 0x1 EQ PUSH2 0x87F JUMPI JUMPDEST PUSH2 0x638 DUP4 PUSH2 0x86B DUP2 DUP6 SUB DUP3 PUSH2 0x1095 JUMP JUMPDEST PUSH1 0x40 MLOAD SWAP2 DUP3 SWAP2 PUSH1 0x20 DUP4 MSTORE PUSH1 0x20 DUP4 ADD SWAP1 PUSH2 0xFAF JUMP JUMPDEST SWAP2 SWAP1 POP PUSH1 0x1 PUSH0 MSTORE PUSH32 0xB10E2D527612073B26EECDFD717E6A320CF44B4AFAC2B0732D9FCBE2B7FA0CF6 SWAP2 PUSH0 SWAP1 JUMPDEST DUP1 DUP3 LT PUSH2 0x8C3 JUMPI POP SWAP1 SWAP2 POP DUP2 ADD PUSH1 0x20 ADD PUSH2 0x86B PUSH2 0x85B JUMP JUMPDEST SWAP2 SWAP3 PUSH1 0x1 DUP2 PUSH1 0x20 SWAP3 SLOAD DUP4 DUP6 DUP9 ADD ADD MSTORE ADD SWAP2 ADD SWAP1 SWAP3 SWAP2 PUSH2 0x8AB JUMP JUMPDEST PUSH1 0xFF NOT AND PUSH1 0x20 DUP1 DUP7 ADD SWAP2 SWAP1 SWAP2 MSTORE SWAP2 ISZERO ISZERO PUSH1 0x5 SHL DUP5 ADD SWAP1 SWAP2 ADD SWAP2 POP PUSH2 0x86B SWAP1 POP PUSH2 0x85B JUMP JUMPDEST PUSH4 0x4E487B71 PUSH1 0xE0 SHL PUSH0 MSTORE PUSH1 0x22 PUSH1 0x4 MSTORE PUSH1 0x24 PUSH0 REVERT JUMPDEST SWAP2 PUSH1 0x7F AND SWAP2 PUSH2 0x83E JUMP JUMPDEST CALLVALUE PUSH2 0xE6 JUMPI PUSH0 CALLDATASIZE PUSH1 0x3 NOT ADD SLT PUSH2 0xE6 JUMPI PUSH1 0x20 PUSH1 0x1 PUSH1 0x1 PUSH1 0xA0 SHL SUB PUSH1 0x6 SLOAD AND PUSH1 0x40 MLOAD SWAP1 DUP2 MSTORE RETURN JUMPDEST CALLVALUE PUSH2 0xE6 JUMPI PUSH1 0x20 CALLDATASIZE PUSH1 0x3 NOT ADD SLT PUSH2 0xE6 JUMPI PUSH1 0x4 CALLDATALOAD PUSH1 0xA SLOAD DUP2 LT ISZERO PUSH2 0xB66 JUMPI PUSH2 0x96C DUP2 PUSH2 0x15D5 JUMP JUMPDEST PUSH1 0x1 PUSH1 0x1 PUSH1 0xA0 SHL SUB CALLER SWAP2 AND SUB PUSH2 0xB21 JUMPI DUP1 PUSH0 MSTORE PUSH1 0x8 PUSH1 0x20 MSTORE PUSH1 0x40 PUSH0 KECCAK256 SWAP1 PUSH1 0x40 MLOAD DUP1 DUP4 PUSH1 0x20 DUP3 SWAP6 SLOAD SWAP4 DUP5 DUP2 MSTORE ADD SWAP1 PUSH0 MSTORE PUSH1 0x20 PUSH0 KECCAK256 SWAP3 PUSH0 JUMPDEST DUP2 DUP2 LT PUSH2 0xB08 JUMPI POP POP PUSH2 0x9B7 SWAP3 POP SUB DUP4 PUSH2 0x1095 JUMP JUMPDEST DUP1 PUSH0 MSTORE PUSH1 0x8 PUSH1 0x20 MSTORE PUSH1 0x40 PUSH0 KECCAK256 DUP1 SLOAD SWAP1 PUSH0 DUP2 SSTORE DUP2 PUSH2 0xAEA JUMPI JUMPDEST POP POP PUSH0 JUMPDEST DUP3 MLOAD DUP2 LT ISZERO PUSH2 0xA03 JUMPI DUP1 PUSH2 0x9E9 PUSH1 0x1 SWAP3 DUP6 PUSH2 0x115D JUMP JUMPDEST MLOAD PUSH0 MSTORE PUSH1 0x9 PUSH1 0x20 MSTORE PUSH1 0x40 PUSH0 KECCAK256 PUSH1 0xFF NOT DUP2 SLOAD AND SWAP1 SSTORE ADD PUSH2 0x9D3 JUMP JUMPDEST POP DUP1 PUSH0 MSTORE PUSH1 0x2 PUSH1 0x20 MSTORE PUSH1 0x1 PUSH1 0x1 PUSH1 0xA0 SHL SUB PUSH1 0x40 PUSH0 KECCAK256 SLOAD AND DUP1 ISZERO SWAP1 DUP2 ISZERO PUSH2 0xAB3 JUMPI JUMPDEST DUP3 PUSH0 MSTORE PUSH1 0x2 PUSH1 0x20 MSTORE PUSH1 0x40 PUSH0 KECCAK256 PUSH1 0x1 PUSH1 0x1 PUSH1 0xA0 SHL SUB NOT DUP2 SLOAD AND SWAP1 SSTORE DUP3 PUSH0 DUP3 PUSH32 0xDDF252AD1BE2C89B69C2B068FC378DAA952BA7F163C4A11628F55A4DF523B3EF DUP3 DUP1 LOG4 POP PUSH2 0xAA1 JUMPI PUSH1 0x40 MLOAD PUSH32 0x4F1967A44E420D84B2D475C96521037A4FA31A2C9C52207D768A4F6CDC5E13EF SWAP1 DUP1 PUSH2 0xA9C TIMESTAMP DUP7 CALLER DUP5 PUSH2 0x1432 JUMP JUMPDEST SUB SWAP1 LOG1 STOP JUMPDEST PUSH4 0x7E273289 PUSH1 0xE0 SHL PUSH0 MSTORE PUSH1 0x4 MSTORE PUSH1 0x24 PUSH0 REVERT JUMPDEST PUSH2 0xAD2 DUP4 PUSH0 MSTORE PUSH1 0x4 PUSH1 0x20 MSTORE PUSH1 0x40 PUSH0 KECCAK256 PUSH1 0x1 PUSH1 0x1 PUSH1 0xA0 SHL SUB NOT DUP2 SLOAD AND SWAP1 SSTORE JUMP JUMPDEST DUP1 PUSH0 MSTORE PUSH1 0x3 PUSH1 0x20 MSTORE PUSH1 0x40 PUSH0 KECCAK256 PUSH0 NOT DUP2 SLOAD ADD SWAP1 SSTORE PUSH2 0xA24 JUMP JUMPDEST PUSH0 MSTORE PUSH1 0x20 PUSH0 KECCAK256 SWAP1 DUP2 ADD SWAP1 JUMPDEST DUP2 DUP2 LT ISZERO PUSH2 0x9CF JUMPI PUSH0 DUP2 SSTORE PUSH1 0x1 ADD PUSH2 0xAF5 JUMP JUMPDEST DUP5 SLOAD DUP4 MSTORE PUSH1 0x1 SWAP5 DUP6 ADD SWAP5 DUP8 SWAP5 POP PUSH1 0x20 SWAP1 SWAP4 ADD SWAP3 ADD PUSH2 0x9A2 JUMP JUMPDEST PUSH1 0x40 MLOAD PUSH3 0x461BCD PUSH1 0xE5 SHL DUP2 MSTORE PUSH1 0x20 PUSH1 0x4 DUP3 ADD MSTORE PUSH1 0x11 PUSH1 0x24 DUP3 ADD MSTORE PUSH32 0x696E76616C6964204E4654206F776E6572000000000000000000000000000000 PUSH1 0x44 DUP3 ADD MSTORE PUSH1 0x64 SWAP1 REVERT JUMPDEST PUSH1 0x40 MLOAD PUSH3 0x461BCD PUSH1 0xE5 SHL DUP2 MSTORE PUSH1 0x20 PUSH1 0x4 DUP3 ADD MSTORE PUSH1 0x12 PUSH1 0x24 DUP3 ADD MSTORE PUSH32 0x6E6F6E6520657869737420746F6B656E49640000000000000000000000000000 PUSH1 0x44 DUP3 ADD MSTORE PUSH1 0x64 SWAP1 REVERT JUMPDEST CALLVALUE PUSH2 0xE6 JUMPI PUSH1 0x20 CALLDATASIZE PUSH1 0x3 NOT ADD SLT PUSH2 0xE6 JUMPI PUSH1 0x4 CALLDATALOAD PUSH0 MSTORE PUSH1 0x8 PUSH1 0x20 MSTORE PUSH1 0x40 PUSH0 KECCAK256 PUSH1 0x40 MLOAD SWAP1 DUP2 PUSH1 0x20 DUP3 SLOAD SWAP2 DUP3 DUP2 MSTORE ADD SWAP2 PUSH0 MSTORE PUSH1 0x20 PUSH0 KECCAK256 SWAP1 PUSH0 JUMPDEST DUP2 DUP2 LT PUSH2 0xBF9 JUMPI PUSH2 0x638 DUP6 PUSH2 0x624 DUP2 DUP8 SUB DUP3 PUSH2 0x1095 JUMP JUMPDEST DUP3 SLOAD DUP5 MSTORE PUSH1 0x20 SWAP1 SWAP4 ADD SWAP3 PUSH1 0x1 SWAP3 DUP4 ADD SWAP3 ADD PUSH2 0xBE2 JUMP JUMPDEST CALLVALUE PUSH2 0xE6 JUMPI PUSH1 0x40 CALLDATASIZE PUSH1 0x3 NOT ADD SLT PUSH2 0xE6 JUMPI PUSH2 0xC28 PUSH2 0xFD3 JUMP JUMPDEST PUSH1 0x1 PUSH1 0x1 PUSH1 0xA0 SHL SUB PUSH1 0x24 CALLDATALOAD SWAP2 AND PUSH0 MSTORE PUSH1 0x7 PUSH1 0x20 MSTORE PUSH1 0x40 PUSH0 KECCAK256 DUP1 SLOAD DUP3 LT ISZERO PUSH2 0xE6 JUMPI PUSH1 0x20 SWAP2 PUSH2 0x5B9 SWAP2 PUSH2 0x1039 JUMP JUMPDEST CALLVALUE PUSH2 0xE6 JUMPI PUSH1 0x20 CALLDATASIZE PUSH1 0x3 NOT ADD SLT PUSH2 0xE6 JUMPI PUSH1 0x1 PUSH1 0x1 PUSH1 0xA0 SHL SUB PUSH2 0xC76 PUSH2 0xFD3 JUMP JUMPDEST AND DUP1 ISZERO PUSH2 0xC93 JUMPI PUSH0 MSTORE PUSH1 0x3 PUSH1 0x20 MSTORE PUSH1 0x20 PUSH1 0x40 PUSH0 KECCAK256 SLOAD PUSH1 0x40 MLOAD SWAP1 DUP2 MSTORE RETURN JUMPDEST PUSH4 0x22718AD9 PUSH1 0xE2 SHL PUSH0 MSTORE PUSH0 PUSH1 0x4 MSTORE PUSH1 0x24 PUSH0 REVERT JUMPDEST CALLVALUE PUSH2 0xE6 JUMPI PUSH1 0x20 CALLDATASIZE PUSH1 0x3 NOT ADD SLT PUSH2 0xE6 JUMPI PUSH1 0x20 PUSH2 0xCC4 PUSH1 0x4 CALLDATALOAD PUSH2 0x15D5 JUMP JUMPDEST PUSH1 0x1 PUSH1 0x1 PUSH1 0xA0 SHL SUB PUSH1 0x40 MLOAD SWAP2 AND DUP2 MSTORE RETURN JUMPDEST CALLVALUE PUSH2 0xE6 JUMPI PUSH1 0x40 CALLDATASIZE PUSH1 0x3 NOT ADD SLT PUSH2 0xE6 JUMPI PUSH1 0x20 PUSH2 0x522 PUSH2 0xCF3 PUSH2 0xFD3 JUMP JUMPDEST PUSH1 0x24 CALLDATALOAD SWAP1 PUSH2 0x139B JUMP JUMPDEST CALLVALUE PUSH2 0xE6 JUMPI PUSH2 0xEA PUSH2 0xD0D CALLDATASIZE PUSH2 0xFFF JUMP JUMPDEST SWAP1 PUSH1 0x40 MLOAD SWAP3 PUSH2 0xD1D PUSH1 0x20 DUP6 PUSH2 0x1095 JUMP JUMPDEST PUSH0 DUP5 MSTORE PUSH2 0x145D JUMP JUMPDEST CALLVALUE PUSH2 0xE6 JUMPI PUSH2 0xEA PUSH2 0xD36 CALLDATASIZE PUSH2 0xFFF JUMP JUMPDEST SWAP2 PUSH2 0x1200 JUMP JUMPDEST CALLVALUE PUSH2 0xE6 JUMPI PUSH1 0x40 CALLDATASIZE PUSH1 0x3 NOT ADD SLT PUSH2 0xE6 JUMPI PUSH1 0x20 PUSH2 0x522 PUSH2 0xD5A PUSH2 0xFD3 JUMP JUMPDEST PUSH1 0x24 CALLDATALOAD SWAP1 PUSH2 0x1171 JUMP JUMPDEST CALLVALUE PUSH2 0xE6 JUMPI PUSH1 0x40 CALLDATASIZE PUSH1 0x3 NOT ADD SLT PUSH2 0xE6 JUMPI PUSH2 0xD7C PUSH2 0xFD3 JUMP JUMPDEST PUSH1 0x24 CALLDATALOAD PUSH2 0xD88 DUP2 PUSH2 0x15D5 JUMP JUMPDEST CALLER ISZERO ISZERO DUP1 PUSH2 0xE3C JUMPI JUMPDEST DUP1 PUSH2 0xE09 JUMPI JUMPDEST PUSH2 0xDF6 JUMPI DUP2 SWAP1 PUSH1 0x1 PUSH1 0x1 PUSH1 0xA0 SHL SUB DUP1 DUP6 AND SWAP2 AND PUSH32 0x8C5BE1E5EBEC7D5BD14F71427D1E84F3DD0314C0F7B2291E5B200AC8C7C3B925 PUSH0 DUP1 LOG4 PUSH0 MSTORE PUSH1 0x4 PUSH1 0x20 MSTORE PUSH1 0x1 PUSH1 0x1 PUSH1 0xA0 SHL SUB PUSH1 0x40 PUSH0 KECCAK256 SWAP2 AND PUSH1 0x1 PUSH1 0x1 PUSH1 0xA0 SHL SUB NOT DUP3 SLOAD AND OR SWAP1 SSTORE PUSH0 DUP1 RETURN JUMPDEST PUSH4 0xA9FBF51F PUSH1 0xE0 SHL PUSH0 MSTORE CALLER PUSH1 0x4 MSTORE PUSH1 0x24 PUSH0 REVERT JUMPDEST POP PUSH1 0x1 PUSH1 0x1 PUSH1 0xA0 SHL SUB DUP2 AND PUSH0 MSTORE PUSH1 0x5 PUSH1 0x20 MSTORE PUSH1 0x40 PUSH0 KECCAK256 PUSH1 0x1 PUSH1 0x1 PUSH1 0xA0 SHL SUB CALLER AND PUSH0 MSTORE PUSH1 0x20 MSTORE PUSH1 0xFF PUSH1 0x40 PUSH0 KECCAK256 SLOAD AND ISZERO PUSH2 0xD97 JUMP JUMPDEST POP CALLER PUSH1 0x1 PUSH1 0x1 PUSH1 0xA0 SHL SUB DUP3 AND EQ ISZERO PUSH2 0xD91 JUMP JUMPDEST CALLVALUE PUSH2 0xE6 JUMPI PUSH1 0x20 CALLDATASIZE PUSH1 0x3 NOT ADD SLT PUSH2 0xE6 JUMPI PUSH1 0x4 CALLDATALOAD PUSH2 0xE6C DUP2 PUSH2 0x15D5 JUMP JUMPDEST POP PUSH0 MSTORE PUSH1 0x4 PUSH1 0x20 MSTORE PUSH1 0x20 PUSH1 0x1 PUSH1 0x1 PUSH1 0xA0 SHL SUB PUSH1 0x40 PUSH0 KECCAK256 SLOAD AND PUSH1 0x40 MLOAD SWAP1 DUP2 MSTORE RETURN JUMPDEST CALLVALUE PUSH2 0xE6 JUMPI PUSH0 CALLDATASIZE PUSH1 0x3 NOT ADD SLT PUSH2 0xE6 JUMPI PUSH1 0x40 MLOAD PUSH0 PUSH0 SLOAD DUP1 PUSH1 0x1 SHR SWAP1 PUSH1 0x1 DUP2 AND DUP1 ISZERO PUSH2 0xF3A JUMPI JUMPDEST PUSH1 0x20 DUP4 LT DUP2 EQ PUSH2 0x901 JUMPI DUP3 DUP6 MSTORE SWAP1 DUP2 ISZERO PUSH2 0x8DD JUMPI POP PUSH1 0x1 EQ PUSH2 0xEDE JUMPI PUSH2 0x638 DUP4 PUSH2 0x86B DUP2 DUP6 SUB DUP3 PUSH2 0x1095 JUMP JUMPDEST PUSH0 DUP1 DUP1 MSTORE PUSH32 0x290DECD9548B62A8D60345A988386FC84BA6BC95484008F6362F93160EF3E563 SWAP4 SWAP3 POP SWAP1 JUMPDEST DUP1 DUP3 LT PUSH2 0xF20 JUMPI POP SWAP1 SWAP2 POP DUP2 ADD PUSH1 0x20 ADD PUSH2 0x86B PUSH2 0x85B JUMP JUMPDEST SWAP2 SWAP3 PUSH1 0x1 DUP2 PUSH1 0x20 SWAP3 SLOAD DUP4 DUP6 DUP9 ADD ADD MSTORE ADD SWAP2 ADD SWAP1 SWAP3 SWAP2 PUSH2 0xF08 JUMP JUMPDEST SWAP2 PUSH1 0x7F AND SWAP2 PUSH2 0xEB2 JUMP JUMPDEST CALLVALUE PUSH2 0xE6 JUMPI PUSH1 0x20 CALLDATASIZE PUSH1 0x3 NOT ADD SLT PUSH2 0xE6 JUMPI PUSH1 0x4 CALLDATALOAD SWAP1 PUSH4 0xFFFFFFFF PUSH1 0xE0 SHL DUP3 AND DUP1 SWAP3 SUB PUSH2 0xE6 JUMPI PUSH1 0x20 SWAP2 PUSH4 0x80AC58CD PUSH1 0xE0 SHL DUP2 EQ SWAP1 DUP2 ISZERO PUSH2 0xF9E JUMPI JUMPDEST DUP2 ISZERO PUSH2 0xF8D JUMPI JUMPDEST POP ISZERO ISZERO DUP2 MSTORE RETURN JUMPDEST PUSH4 0x1FFC9A7 PUSH1 0xE0 SHL EQ SWAP1 POP DUP4 PUSH2 0xF86 JUMP JUMPDEST PUSH4 0x5B5E139F PUSH1 0xE0 SHL DUP2 EQ SWAP2 POP PUSH2 0xF7F JUMP JUMPDEST DUP1 MLOAD DUP1 DUP4 MSTORE PUSH1 0x20 SWAP3 SWAP2 DUP2 SWAP1 DUP5 ADD DUP5 DUP5 ADD MCOPY PUSH0 DUP3 DUP3 ADD DUP5 ADD MSTORE PUSH1 0x1F ADD PUSH1 0x1F NOT AND ADD ADD SWAP1 JUMP JUMPDEST PUSH1 0x4 CALLDATALOAD SWAP1 PUSH1 0x1 PUSH1 0x1 PUSH1 0xA0 SHL SUB DUP3 AND DUP3 SUB PUSH2 0xE6 JUMPI JUMP JUMPDEST PUSH1 0x24 CALLDATALOAD SWAP1 PUSH1 0x1 PUSH1 0x1 PUSH1 0xA0 SHL SUB DUP3 AND DUP3 SUB PUSH2 0xE6 JUMPI JUMP JUMPDEST PUSH1 0x60 SWAP1 PUSH1 0x3 NOT ADD SLT PUSH2 0xE6 JUMPI PUSH1 0x4 CALLDATALOAD PUSH1 0x1 PUSH1 0x1 PUSH1 0xA0 SHL SUB DUP2 AND DUP2 SUB PUSH2 0xE6 JUMPI SWAP1 PUSH1 0x24 CALLDATALOAD PUSH1 0x1 PUSH1 0x1 PUSH1 0xA0 SHL SUB DUP2 AND DUP2 SUB PUSH2 0xE6 JUMPI SWAP1 PUSH1 0x44 CALLDATALOAD SWAP1 JUMP JUMPDEST DUP1 SLOAD DUP3 LT ISZERO PUSH2 0x104E JUMPI PUSH0 MSTORE PUSH1 0x20 PUSH0 KECCAK256 ADD SWAP1 PUSH0 SWAP1 JUMP JUMPDEST PUSH4 0x4E487B71 PUSH1 0xE0 SHL PUSH0 MSTORE PUSH1 0x32 PUSH1 0x4 MSTORE PUSH1 0x24 PUSH0 REVERT JUMPDEST SWAP1 PUSH1 0x20 DUP1 DUP4 MLOAD SWAP3 DUP4 DUP2 MSTORE ADD SWAP3 ADD SWAP1 PUSH0 JUMPDEST DUP2 DUP2 LT PUSH2 0x107F JUMPI POP POP POP SWAP1 JUMP JUMPDEST DUP3 MLOAD DUP5 MSTORE PUSH1 0x20 SWAP4 DUP5 ADD SWAP4 SWAP1 SWAP3 ADD SWAP2 PUSH1 0x1 ADD PUSH2 0x1072 JUMP JUMPDEST SWAP1 PUSH1 0x1F DUP1 NOT SWAP2 ADD AND DUP2 ADD SWAP1 DUP2 LT PUSH8 0xFFFFFFFFFFFFFFFF DUP3 GT OR PUSH2 0x7A JUMPI PUSH1 0x40 MSTORE JUMP JUMPDEST PUSH8 0xFFFFFFFFFFFFFFFF DUP2 GT PUSH2 0x7A JUMPI PUSH1 0x1F ADD PUSH1 0x1F NOT AND PUSH1 0x20 ADD SWAP1 JUMP JUMPDEST PUSH1 0x20 PUSH1 0x3 NOT DUP3 ADD SLT PUSH2 0xE6 JUMPI PUSH1 0x4 CALLDATALOAD SWAP1 PUSH8 0xFFFFFFFFFFFFFFFF DUP3 GT PUSH2 0xE6 JUMPI DUP1 PUSH1 0x23 DUP4 ADD SLT ISZERO PUSH2 0xE6 JUMPI DUP2 PUSH1 0x4 ADD CALLDATALOAD SWAP2 PUSH8 0xFFFFFFFFFFFFFFFF DUP4 GT PUSH2 0x7A JUMPI DUP3 PUSH1 0x5 SHL SWAP1 PUSH1 0x40 MLOAD SWAP4 PUSH2 0x1128 PUSH1 0x20 DUP5 ADD DUP7 PUSH2 0x1095 JUMP JUMPDEST DUP5 MSTORE PUSH1 0x24 PUSH1 0x20 DUP6 ADD SWAP3 DUP3 ADD ADD SWAP3 DUP4 GT PUSH2 0xE6 JUMPI PUSH1 0x24 ADD SWAP1 JUMPDEST DUP3 DUP3 LT PUSH2 0x114D JUMPI POP POP POP SWAP1 JUMP JUMPDEST DUP2 CALLDATALOAD DUP2 MSTORE PUSH1 0x20 SWAP2 DUP3 ADD SWAP2 ADD PUSH2 0x1140 JUMP JUMPDEST DUP1 MLOAD DUP3 LT ISZERO PUSH2 0x104E JUMPI PUSH1 0x20 SWAP2 PUSH1 0x5 SHL ADD ADD SWAP1 JUMP JUMPDEST PUSH1 0x1 PUSH1 0x1 PUSH1 0xA0 SHL SUB AND PUSH0 MSTORE PUSH1 0x7 PUSH1 0x20 MSTORE PUSH1 0x40 PUSH0 KECCAK256 SWAP1 PUSH1 0x40 MLOAD DUP1 DUP4 PUSH1 0x20 DUP3 SWAP6 SLOAD SWAP4 DUP5 DUP2 MSTORE ADD SWAP1 PUSH0 MSTORE PUSH1 0x20 PUSH0 KECCAK256 SWAP3 PUSH0 JUMPDEST DUP2 DUP2 LT PUSH2 0x11E7 JUMPI POP POP PUSH2 0x11B4 SWAP3 POP SUB DUP4 PUSH2 0x1095 JUMP JUMPDEST PUSH0 JUMPDEST DUP3 MLOAD DUP2 LT ISZERO PUSH2 0x11E0 JUMPI DUP2 PUSH2 0x11CA DUP3 DUP6 PUSH2 0x115D JUMP JUMPDEST MLOAD EQ PUSH2 0x11D8 JUMPI PUSH1 0x1 ADD PUSH2 0x11B6 JUMP JUMPDEST POP POP POP PUSH1 0x1 SWAP1 JUMP JUMPDEST POP POP POP PUSH0 SWAP1 JUMP JUMPDEST DUP5 SLOAD DUP4 MSTORE PUSH1 0x1 SWAP5 DUP6 ADD SWAP5 DUP8 SWAP5 POP PUSH1 0x20 SWAP1 SWAP4 ADD SWAP3 ADD PUSH2 0x119F JUMP JUMPDEST SWAP2 SWAP1 PUSH1 0x1 PUSH1 0x1 PUSH1 0xA0 SHL SUB AND DUP1 ISZERO PUSH2 0x1388 JUMPI DUP2 PUSH0 MSTORE PUSH1 0x2 PUSH1 0x20 MSTORE PUSH1 0x1 PUSH1 0x1 PUSH1 0xA0 SHL SUB PUSH1 0x40 PUSH0 KECCAK256 SLOAD AND SWAP3 DUP3 CALLER ISZERO ISZERO SWAP3 DUP4 PUSH2 0x12EC JUMPI JUMPDEST PUSH1 0x1 PUSH1 0x1 PUSH1 0xA0 SHL SUB SWAP4 POP DUP6 PUSH2 0x12B5 JUMPI JUMPDEST DUP1 PUSH0 MSTORE PUSH1 0x3 PUSH1 0x20 MSTORE PUSH1 0x40 PUSH0 KECCAK256 PUSH1 0x1 DUP2 SLOAD ADD SWAP1 SSTORE DUP2 PUSH0 MSTORE PUSH1 0x2 PUSH1 0x20 MSTORE PUSH1 0x40 PUSH0 KECCAK256 DUP2 DUP6 NOT DUP3 SLOAD AND OR SWAP1 SSTORE DUP6 PUSH32 0xDDF252AD1BE2C89B69C2B068FC378DAA952BA7F163C4A11628F55A4DF523B3EF PUSH0 DUP1 LOG4 AND DUP1 DUP4 SUB PUSH2 0x129D JUMPI POP POP POP JUMP JUMPDEST PUSH4 0x64283D7B PUSH1 0xE0 SHL PUSH0 MSTORE PUSH1 0x4 MSTORE PUSH1 0x24 MSTORE PUSH1 0x44 MSTORE PUSH1 0x64 PUSH0 REVERT JUMPDEST PUSH2 0x12D4 DUP3 PUSH0 MSTORE PUSH1 0x4 PUSH1 0x20 MSTORE PUSH1 0x40 PUSH0 KECCAK256 PUSH1 0x1 PUSH1 0x1 PUSH1 0xA0 SHL SUB NOT DUP2 SLOAD AND SWAP1 SSTORE JUMP JUMPDEST DUP6 PUSH0 MSTORE PUSH1 0x3 PUSH1 0x20 MSTORE PUSH1 0x40 PUSH0 KECCAK256 PUSH0 NOT DUP2 SLOAD ADD SWAP1 SSTORE PUSH2 0x1243 JUMP JUMPDEST SWAP2 SWAP3 SWAP1 POP DUP1 PUSH2 0x1331 JUMPI JUMPDEST ISZERO PUSH2 0x1303 JUMPI DUP3 DUP3 SWAP2 PUSH2 0x1233 JUMP JUMPDEST DUP3 DUP5 PUSH2 0x131B JUMPI PUSH4 0x7E273289 PUSH1 0xE0 SHL PUSH0 MSTORE PUSH1 0x4 MSTORE PUSH1 0x24 PUSH0 REVERT JUMPDEST PUSH4 0x177E802F PUSH1 0xE0 SHL PUSH0 MSTORE CALLER PUSH1 0x4 MSTORE PUSH1 0x24 MSTORE PUSH1 0x44 PUSH0 REVERT JUMPDEST POP CALLER DUP5 EQ DUP1 ISZERO PUSH2 0x135F JUMPI JUMPDEST DUP1 PUSH2 0x12F6 JUMPI POP DUP3 PUSH0 MSTORE PUSH1 0x4 PUSH1 0x20 MSTORE CALLER PUSH1 0x1 PUSH1 0x1 PUSH1 0xA0 SHL SUB PUSH1 0x40 PUSH0 KECCAK256 SLOAD AND EQ PUSH2 0x12F6 JUMP JUMPDEST POP DUP4 PUSH0 MSTORE PUSH1 0x5 PUSH1 0x20 MSTORE PUSH1 0x40 PUSH0 KECCAK256 PUSH1 0x1 PUSH1 0x1 PUSH1 0xA0 SHL SUB CALLER AND PUSH0 MSTORE PUSH1 0x20 MSTORE PUSH1 0xFF PUSH1 0x40 PUSH0 KECCAK256 SLOAD AND PUSH2 0x133C JUMP JUMPDEST PUSH4 0x32505749 PUSH1 0xE1 SHL PUSH0 MSTORE PUSH0 PUSH1 0x4 MSTORE PUSH1 0x24 PUSH0 REVERT JUMPDEST PUSH1 0x1 PUSH1 0x1 PUSH1 0xA0 SHL SUB SWAP1 SWAP3 SWAP2 SWAP3 AND PUSH0 MSTORE PUSH1 0x7 PUSH1 0x20 MSTORE PUSH1 0x40 PUSH0 KECCAK256 SWAP2 PUSH1 0x40 MLOAD DUP1 DUP5 PUSH1 0x20 DUP3 SWAP7 SLOAD SWAP4 DUP5 DUP2 MSTORE ADD SWAP1 PUSH0 MSTORE PUSH1 0x20 PUSH0 KECCAK256 SWAP3 PUSH0 JUMPDEST DUP2 DUP2 LT PUSH2 0x1419 JUMPI POP POP PUSH2 0x13E2 SWAP3 POP SUB DUP5 PUSH2 0x1095 JUMP JUMPDEST PUSH0 SWAP2 PUSH0 JUMPDEST DUP5 MLOAD DUP2 LT ISZERO PUSH2 0x1412 JUMPI DUP3 PUSH2 0x13FA DUP3 DUP8 PUSH2 0x115D JUMP JUMPDEST MLOAD EQ PUSH2 0x1409 JUMPI JUMPDEST PUSH1 0x1 ADD PUSH2 0x13E6 JUMP JUMPDEST PUSH1 0x1 SWAP4 POP PUSH2 0x1401 JUMP JUMPDEST POP SWAP3 POP POP SWAP1 JUMP JUMPDEST DUP5 SLOAD DUP4 MSTORE PUSH1 0x1 SWAP5 DUP6 ADD SWAP5 DUP9 SWAP5 POP PUSH1 0x20 SWAP1 SWAP4 ADD SWAP3 ADD PUSH2 0x13CD JUMP JUMPDEST SWAP4 SWAP3 SWAP2 PUSH2 0x1458 SWAP1 PUSH1 0x1 PUSH1 0x1 PUSH1 0xA0 SHL SUB PUSH1 0x40 SWAP4 AND DUP7 MSTORE PUSH1 0x60 PUSH1 0x20 DUP8 ADD MSTORE PUSH1 0x60 DUP7 ADD SWAP1 PUSH2 0x1062 JUMP JUMPDEST SWAP4 ADD MSTORE JUMP JUMPDEST SWAP1 PUSH2 0x1469 DUP4 DUP3 DUP5 PUSH2 0x1200 JUMP JUMPDEST DUP1 EXTCODESIZE PUSH2 0x1476 JUMPI JUMPDEST POP POP POP POP JUMP JUMPDEST PUSH1 0x20 SWAP2 PUSH2 0x14BC PUSH1 0x1 PUSH1 0x1 PUSH1 0xA0 SHL SUB DUP1 SWAP4 AND SWAP6 PUSH1 0x40 MLOAD SWAP6 DUP7 SWAP5 DUP6 SWAP5 PUSH4 0xA85BD01 PUSH1 0xE1 SHL DUP7 MSTORE CALLER PUSH1 0x4 DUP8 ADD MSTORE AND PUSH1 0x24 DUP6 ADD MSTORE PUSH1 0x44 DUP5 ADD MSTORE PUSH1 0x80 PUSH1 0x64 DUP5 ADD MSTORE PUSH1 0x84 DUP4 ADD SWAP1 PUSH2 0xFAF JUMP JUMPDEST SUB DUP2 PUSH0 DUP7 GAS CALL PUSH0 SWAP2 DUP2 PUSH2 0x1552 JUMPI JUMPDEST POP PUSH2 0x151F JUMPI POP RETURNDATASIZE ISZERO PUSH2 0x1518 JUMPI RETURNDATASIZE PUSH2 0x14E0 DUP2 PUSH2 0x10B7 JUMP JUMPDEST SWAP1 PUSH2 0x14EE PUSH1 0x40 MLOAD SWAP3 DUP4 PUSH2 0x1095 JUMP JUMPDEST DUP2 MSTORE RETURNDATASIZE PUSH0 PUSH1 0x20 DUP4 ADD RETURNDATACOPY JUMPDEST DUP1 MLOAD SWAP1 DUP2 PUSH2 0x1513 JUMPI DUP3 PUSH4 0x32505749 PUSH1 0xE1 SHL PUSH0 MSTORE PUSH1 0x4 MSTORE PUSH1 0x24 PUSH0 REVERT JUMPDEST PUSH1 0x20 ADD REVERT JUMPDEST PUSH1 0x60 PUSH2 0x14F8 JUMP JUMPDEST PUSH1 0x1 PUSH1 0x1 PUSH1 0xE0 SHL SUB NOT AND PUSH4 0x757A42FF PUSH1 0xE1 SHL ADD PUSH2 0x1540 JUMPI POP PUSH0 DUP1 DUP1 DUP1 PUSH2 0x1470 JUMP JUMPDEST PUSH4 0x32505749 PUSH1 0xE1 SHL PUSH0 MSTORE PUSH1 0x4 MSTORE PUSH1 0x24 PUSH0 REVERT JUMPDEST SWAP1 SWAP2 POP PUSH1 0x20 DUP2 RETURNDATASIZE PUSH1 0x20 GT PUSH2 0x158F JUMPI JUMPDEST DUP2 PUSH2 0x156E PUSH1 0x20 SWAP4 DUP4 PUSH2 0x1095 JUMP JUMPDEST DUP2 ADD SUB SLT PUSH2 0xE6 JUMPI MLOAD PUSH1 0x1 PUSH1 0x1 PUSH1 0xE0 SHL SUB NOT DUP2 AND DUP2 SUB PUSH2 0xE6 JUMPI SWAP1 PUSH0 PUSH2 0x14CA JUMP JUMPDEST RETURNDATASIZE SWAP2 POP PUSH2 0x1561 JUMP JUMPDEST PUSH0 JUMPDEST DUP2 MLOAD DUP2 LT ISZERO PUSH2 0x15CF JUMPI PUSH2 0x15AC DUP2 DUP4 PUSH2 0x115D JUMP JUMPDEST MLOAD PUSH0 MSTORE PUSH1 0x9 PUSH1 0x20 MSTORE PUSH1 0xFF PUSH1 0x40 PUSH0 KECCAK256 SLOAD AND PUSH2 0x15C8 JUMPI PUSH1 0x1 ADD PUSH2 0x1599 JUMP JUMPDEST POP POP PUSH1 0x1 SWAP1 JUMP JUMPDEST POP POP PUSH0 SWAP1 JUMP JUMPDEST DUP1 PUSH0 MSTORE PUSH1 0x2 PUSH1 0x20 MSTORE PUSH1 0x1 PUSH1 0x1 PUSH1 0xA0 SHL SUB PUSH1 0x40 PUSH0 KECCAK256 SLOAD AND SWAP1 DUP2 ISZERO PUSH2 0xAA1 JUMPI POP SWAP1 JUMP INVALID LOG2 PUSH5 0x6970667358 0x22 SLT KECCAK256 PREVRANDAO MLOAD DUP12 PUSH8 0x267C4BAB0E44F56F 0x2F SSTORE PUSH30 0xF24238A64CC45B7EEF041DE32CF16BCD2C64736F6C634300081C00330000 "
		},
		"gasEstimates": {
			"creation": {
				"codeDepositCost": "1135200",
				"executionCost": "infinite",
				"totalCost": "infinite"
			},
			"external": {
				"": "infinite",
				"_isScriptionDuplicated(address,bytes32)": "infinite",
				"_isScriptionExist(address,bytes32)": "infinite",
				"_isScriptionMintedToNFT(bytes32[])": "infinite",
				"_scriptions(address,uint256)": "6992",
				"approve(address,uint256)": "31133",
				"balanceOf(address)": "2628",
				"burnScriptionNFT(uint256)": "infinite",
				"getApproved(uint256)": "4626",
				"getNFTScriptions(uint256)": "infinite",
				"getNextTokenId()": "2682",
				"getUserScriptions(address)": "infinite",
				"isApprovedForAll(address,address)": "3054",
				"mintScriptionToNFT(bytes32[])": "infinite",
				"mintedScriptions(bytes32)": "2690",
				"name()": "infinite",
				"nftToScriptions(uint256,uint256)": "7156",
				"owner()": "2565",
				"ownerOf(uint256)": "2592",
				"safeTransferFrom(address,address,uint256)": "infinite",
				"safeTransferFrom(address,address,uint256,bytes)": "infinite",
				"setApprovalForAll(address,bool)": "26757",
				"supportsInterface(bytes4)": "327",
				"symbol()": "infinite",
				"tokenURI(uint256)": "infinite",
				"transferFrom(address,address,uint256)": "106373"
			}
		},
		"methodIdentifiers": {
			"_isScriptionDuplicated(address,bytes32)": "1b77c356",
			"_isScriptionExist(address,bytes32)": "56f802b9",
			"_isScriptionMintedToNFT(bytes32[])": "f08af4da",
			"_scriptions(address,uint256)": "79207ab5",
			"approve(address,uint256)": "095ea7b3",
			"balanceOf(address)": "70a08231",
			"burnScriptionNFT(uint256)": "83f5f3ba",
			"getApproved(uint256)": "081812fc",
			"getNFTScriptions(uint256)": "7b11833e",
			"getNextTokenId()": "caa0f92a",
			"getUserScriptions(address)": "cc22ef8b",
			"isApprovedForAll(address,address)": "e985e9c5",
			"mintScriptionToNFT(bytes32[])": "f5946b62",
			"mintedScriptions(bytes32)": "a3695631",
			"name()": "06fdde03",
			"nftToScriptions(uint256,uint256)": "e5a136ea",
			"owner()": "8da5cb5b",
			"ownerOf(uint256)": "6352211e",
			"safeTransferFrom(address,address,uint256)": "42842e0e",
			"safeTransferFrom(address,address,uint256,bytes)": "b88d4fde",
			"setApprovalForAll(address,bool)": "a22cb465",
			"supportsInterface(bytes4)": "01ffc9a7",
			"symbol()": "95d89b41",
			"tokenURI(uint256)": "c87b56dd",
			"transferFrom(address,address,uint256)": "23b872dd"
		}
	},
	"abi": [
		{
			"inputs": [],
			"stateMutability": "nonpayable",
			"type": "constructor"
		},
		{
			"inputs": [
				{
					"internalType": "address",
					"name": "sender",
					"type": "address"
				},
				{
					"internalType": "uint256",
					"name": "tokenId",
					"type": "uint256"
				},
				{
					"internalType": "address",
					"name": "owner",
					"type": "address"
				}
			],
			"name": "ERC721IncorrectOwner",
			"type": "error"
		},
		{
			"inputs": [
				{
					"internalType": "address",
					"name": "operator",
					"type": "address"
				},
				{
					"internalType": "uint256",
					"name": "tokenId",
					"type": "uint256"
				}
			],
			"name": "ERC721InsufficientApproval",
			"type": "error"
		},
		{
			"inputs": [
				{
					"internalType": "address",
					"name": "approver",
					"type": "address"
				}
			],
			"name": "ERC721InvalidApprover",
			"type": "error"
		},
		{
			"inputs": [
				{
					"internalType": "address",
					"name": "operator",
					"type": "address"
				}
			],
			"name": "ERC721InvalidOperator",
			"type": "error"
		},
		{
			"inputs": [
				{
					"internalType": "address",
					"name": "owner",
					"type": "address"
				}
			],
			"name": "ERC721InvalidOwner",
			"type": "error"
		},
		{
			"inputs": [
				{
					"internalType": "address",
					"name": "receiver",
					"type": "address"
				}
			],
			"name": "ERC721InvalidReceiver",
			"type": "error"
		},
		{
			"inputs": [
				{
					"internalType": "address",
					"name": "sender",
					"type": "address"
				}
			],
			"name": "ERC721InvalidSender",
			"type": "error"
		},
		{
			"inputs": [
				{
					"internalType": "uint256",
					"name": "tokenId",
					"type": "uint256"
				}
			],
			"name": "ERC721NonexistentToken",
			"type": "error"
		},
		{
			"anonymous": false,
			"inputs": [
				{
					"indexed": true,
					"internalType": "address",
					"name": "owner",
					"type": "address"
				},
				{
					"indexed": true,
					"internalType": "address",
					"name": "approved",
					"type": "address"
				},
				{
					"indexed": true,
					"internalType": "uint256",
					"name": "tokenId",
					"type": "uint256"
				}
			],
			"name": "Approval",
			"type": "event"
		},
		{
			"anonymous": false,
			"inputs": [
				{
					"indexed": true,
					"internalType": "address",
					"name": "owner",
					"type": "address"
				},
				{
					"indexed": true,
					"internalType": "address",
					"name": "operator",
					"type": "address"
				},
				{
					"indexed": false,
					"internalType": "bool",
					"name": "approved",
					"type": "bool"
				}
			],
			"name": "ApprovalForAll",
			"type": "event"
		},
		{
			"anonymous": false,
			"inputs": [
				{
					"indexed": true,
					"internalType": "address",
					"name": "from",
					"type": "address"
				},
				{
					"indexed": true,
					"internalType": "address",
					"name": "to",
					"type": "address"
				},
				{
					"indexed": true,
					"internalType": "uint256",
					"name": "tokenId",
					"type": "uint256"
				}
			],
			"name": "Transfer",
			"type": "event"
		},
		{
			"anonymous": false,
			"inputs": [
				{
					"indexed": false,
					"internalType": "address",
					"name": "_owner",
					"type": "address"
				},
				{
					"indexed": false,
					"internalType": "bytes32[]",
					"name": "scriptions",
					"type": "bytes32[]"
				},
				{
					"indexed": false,
					"internalType": "uint256",
					"name": "time",
					"type": "uint256"
				}
			],
			"name": "burnScriptionNFTEvent",
			"type": "event"
		},
		{
			"anonymous": false,
			"inputs": [
				{
					"indexed": false,
					"internalType": "address",
					"name": "_owner",
					"type": "address"
				},
				{
					"indexed": false,
					"internalType": "bytes32[]",
					"name": "scriptions",
					"type": "bytes32[]"
				},
				{
					"indexed": false,
					"internalType": "uint256",
					"name": "time",
					"type": "uint256"
				}
			],
			"name": "mintScriptionToNFTEvent",
			"type": "event"
		},
		{
			"stateMutability": "nonpayable",
			"type": "fallback"
		},
		{
			"inputs": [
				{
					"internalType": "address",
					"name": "_addr",
					"type": "address"
				},
				{
					"internalType": "bytes32",
					"name": "_txHash",
					"type": "bytes32"
				}
			],
			"name": "_isScriptionDuplicated",
			"outputs": [
				{
					"internalType": "bool",
					"name": "",
					"type": "bool"
				}
			],
			"stateMutability": "view",
			"type": "function"
		},
		{
			"inputs": [
				{
					"internalType": "address",
					"name": "_owner",
					"type": "address"
				},
				{
					"internalType": "bytes32",
					"name": "scriptions",
					"type": "bytes32"
				}
			],
			"name": "_isScriptionExist",
			"outputs": [
				{
					"internalType": "bool",
					"name": "",
					"type": "bool"
				}
			],
			"stateMutability": "view",
			"type": "function"
		},
		{
			"inputs": [
				{
					"internalType": "bytes32[]",
					"name": "scriptions",
					"type": "bytes32[]"
				}
			],
			"name": "_isScriptionMintedToNFT",
			"outputs": [
				{
					"internalType": "bool",
					"name": "",
					"type": "bool"
				}
			],
			"stateMutability": "view",
			"type": "function"
		},
		{
			"inputs": [
				{
					"internalType": "address",
					"name": "",
					"type": "address"
				},
				{
					"internalType": "uint256",
					"name": "",
					"type": "uint256"
				}
			],
			"name": "_scriptions",
			"outputs": [
				{
					"internalType": "bytes32",
					"name": "",
					"type": "bytes32"
				}
			],
			"stateMutability": "view",
			"type": "function"
		},
		{
			"inputs": [
				{
					"internalType": "address",
					"name": "to",
					"type": "address"
				},
				{
					"internalType": "uint256",
					"name": "tokenId",
					"type": "uint256"
				}
			],
			"name": "approve",
			"outputs": [],
			"stateMutability": "nonpayable",
			"type": "function"
		},
		{
			"inputs": [
				{
					"internalType": "address",
					"name": "owner",
					"type": "address"
				}
			],
			"name": "balanceOf",
			"outputs": [
				{
					"internalType": "uint256",
					"name": "",
					"type": "uint256"
				}
			],
			"stateMutability": "view",
			"type": "function"
		},
		{
			"inputs": [
				{
					"internalType": "uint256",
					"name": "_tokenId",
					"type": "uint256"
				}
			],
			"name": "burnScriptionNFT",
			"outputs": [],
			"stateMutability": "nonpayable",
			"type": "function"
		},
		{
			"inputs": [
				{
					"internalType": "uint256",
					"name": "tokenId",
					"type": "uint256"
				}
			],
			"name": "getApproved",
			"outputs": [
				{
					"internalType": "address",
					"name": "",
					"type": "address"
				}
			],
			"stateMutability": "view",
			"type": "function"
		},
		{
			"inputs": [
				{
					"internalType": "uint256",
					"name": "tokenId",
					"type": "uint256"
				}
			],
			"name": "getNFTScriptions",
			"outputs": [
				{
					"internalType": "bytes32[]",
					"name": "",
					"type": "bytes32[]"
				}
			],
			"stateMutability": "view",
			"type": "function"
		},
		{
			"inputs": [],
			"name": "getNextTokenId",
			"outputs": [
				{
					"internalType": "uint256",
					"name": "",
					"type": "uint256"
				}
			],
			"stateMutability": "view",
			"type": "function"
		},
		{
			"inputs": [
				{
					"internalType": "address",
					"name": "user",
					"type": "address"
				}
			],
			"name": "getUserScriptions",
			"outputs": [
				{
					"internalType": "bytes32[]",
					"name": "",
					"type": "bytes32[]"
				}
			],
			"stateMutability": "view",
			"type": "function"
		},
		{
			"inputs": [
				{
					"internalType": "address",
					"name": "owner",
					"type": "address"
				},
				{
					"internalType": "address",
					"name": "operator",
					"type": "address"
				}
			],
			"name": "isApprovedForAll",
			"outputs": [
				{
					"internalType": "bool",
					"name": "",
					"type": "bool"
				}
			],
			"stateMutability": "view",
			"type": "function"
		},
		{
			"inputs": [
				{
					"internalType": "bytes32[]",
					"name": "scriptions",
					"type": "bytes32[]"
				}
			],
			"name": "mintScriptionToNFT",
			"outputs": [],
			"stateMutability": "nonpayable",
			"type": "function"
		},
		{
			"inputs": [
				{
					"internalType": "bytes32",
					"name": "",
					"type": "bytes32"
				}
			],
			"name": "mintedScriptions",
			"outputs": [
				{
					"internalType": "bool",
					"name": "",
					"type": "bool"
				}
			],
			"stateMutability": "view",
			"type": "function"
		},
		{
			"inputs": [],
			"name": "name",
			"outputs": [
				{
					"internalType": "string",
					"name": "",
					"type": "string"
				}
			],
			"stateMutability": "view",
			"type": "function"
		},
		{
			"inputs": [
				{
					"internalType": "uint256",
					"name": "",
					"type": "uint256"
				},
				{
					"internalType": "uint256",
					"name": "",
					"type": "uint256"
				}
			],
			"name": "nftToScriptions",
			"outputs": [
				{
					"internalType": "bytes32",
					"name": "",
					"type": "bytes32"
				}
			],
			"stateMutability": "view",
			"type": "function"
		},
		{
			"inputs": [],
			"name": "owner",
			"outputs": [
				{
					"internalType": "address",
					"name": "",
					"type": "address"
				}
			],
			"stateMutability": "view",
			"type": "function"
		},
		{
			"inputs": [
				{
					"internalType": "uint256",
					"name": "tokenId",
					"type": "uint256"
				}
			],
			"name": "ownerOf",
			"outputs": [
				{
					"internalType": "address",
					"name": "",
					"type": "address"
				}
			],
			"stateMutability": "view",
			"type": "function"
		},
		{
			"inputs": [
				{
					"internalType": "address",
					"name": "from",
					"type": "address"
				},
				{
					"internalType": "address",
					"name": "to",
					"type": "address"
				},
				{
					"internalType": "uint256",
					"name": "tokenId",
					"type": "uint256"
				}
			],
			"name": "safeTransferFrom",
			"outputs": [],
			"stateMutability": "nonpayable",
			"type": "function"
		},
		{
			"inputs": [
				{
					"internalType": "address",
					"name": "from",
					"type": "address"
				},
				{
					"internalType": "address",
					"name": "to",
					"type": "address"
				},
				{
					"internalType": "uint256",
					"name": "tokenId",
					"type": "uint256"
				},
				{
					"internalType": "bytes",
					"name": "data",
					"type": "bytes"
				}
			],
			"name": "safeTransferFrom",
			"outputs": [],
			"stateMutability": "nonpayable",
			"type": "function"
		},
		{
			"inputs": [
				{
					"internalType": "address",
					"name": "operator",
					"type": "address"
				},
				{
					"internalType": "bool",
					"name": "approved",
					"type": "bool"
				}
			],
			"name": "setApprovalForAll",
			"outputs": [],
			"stateMutability": "nonpayable",
			"type": "function"
		},
		{
			"inputs": [
				{
					"internalType": "bytes4",
					"name": "interfaceId",
					"type": "bytes4"
				}
			],
			"name": "supportsInterface",
			"outputs": [
				{
					"internalType": "bool",
					"name": "",
					"type": "bool"
				}
			],
			"stateMutability": "view",
			"type": "function"
		},
		{
			"inputs": [],
			"name": "symbol",
			"outputs": [
				{
					"internalType": "string",
					"name": "",
					"type": "string"
				}
			],
			"stateMutability": "view",
			"type": "function"
		},
		{
			"inputs": [
				{
					"internalType": "uint256",
					"name": "tokenId",
					"type": "uint256"
				}
			],
			"name": "tokenURI",
			"outputs": [
				{
					"internalType": "string",
					"name": "",
					"type": "string"
				}
			],
			"stateMutability": "view",
			"type": "function"
		},
		{
			"inputs": [
				{
					"internalType": "address",
					"name": "from",
					"type": "address"
				},
				{
					"internalType": "address",
					"name": "to",
					"type": "address"
				},
				{
					"internalType": "uint256",
					"name": "tokenId",
					"type": "uint256"
				}
			],
			"name": "transferFrom",
			"outputs": [],
			"stateMutability": "nonpayable",
			"type": "function"
		},
		{
			"stateMutability": "payable",
			"type": "receive"
		}
	]
}