{
	"data": {
		"bytecode": {
			"linkReferences": {},
			"object": "60a080604052346105e257613599803803809161001c82856105e6565b83398101610100828203126105e25781516001600160401b0381116105e25781610047918401610609565b60208301519092906001600160401b0381116105e25782610069918301610609565b906100766040820161065e565b60608201519094906001600160401b0381116105e25782019380601f860112156105e2578451946001600160401b038611610293578560051b90604051966100c160208401896105e6565b87526020808801928201019283116105e257602001905b8282106105ca575050506100ee6080830161065e565b9460a08301519360e060c08501519401519280519060018060401b038211610293575f5490600182811c921680156105c0575b60208310146104c75781601f849311610553575b50602090601f83116001146104f0575f926104e5575b50508160011b915f199060031b1c1916175f555b8051906001600160401b0382116102935760015490600182811c921680156104db575b60208310146104c75781601f849311610459575b50602090601f83116001146103f3575f926103e8575b50508160011b915f199060031b1c1916176001555b60016016555f5b85518110156102ec5760018060a01b0360208260051b880101511690815f52600760205260ff60405f2054166102a757600654916801000000000000000083101561029357600183018060065583101561027f577ff652222313e28459528d920b65115c16c04f3efc82aaedc97be59f3f377c0d3f90920180546001600160a01b031916831790555f918252600760209081526040808420805460ff191660019081179091556008909252909220819055016101c8565b634e487b7160e01b5f52603260045260245ffd5b634e487b7160e01b5f52604160045260245ffd5b60405162461bcd60e51b815260206004820152601360248201527f4475706c6963617465206578697374656e6365000000000000000000000000006044820152606490fd5b508560018060a01b03165f52600a60205260405f20600160ff1982541617905560018060a01b031660018060a01b03196009541617600955600d5560409160016020845161033a86826105e6565b82815201603160f81b815220835160208101917f8b73c3c69bb8fe3d512ecc4cf759cc79239f7b179b0ffacaa9a75d522b39400f83527f558df9f1711c6650ea151ca581e5cdf95e95feebd67b3f74b5b7d9976b3414a18683015260608201524660808201523060a082015260a081526103b560c0826105e6565b519020608052600f5560105560ff196011541660115551612f2690816106738239608051818181610c070152611d2c0152f35b015190505f806101ac565b60015f9081528281209350601f198516905b8181106104415750908460019594939210610429575b505050811b016001556101c1565b01515f1960f88460031b161c191690555f808061041b565b92936020600181928786015181550195019301610405565b60015f529091507fb10e2d527612073b26eecdfd717e6a320cf44b4afac2b0732d9fcbe2b7fa0cf6601f840160051c810191602085106104bd575b90601f859493920160051c01905b8181106104af5750610196565b5f81558493506001016104a2565b9091508190610494565b634e487b7160e01b5f52602260045260245ffd5b91607f1691610182565b015190505f8061014b565b5f8080528281209350601f198516905b81811061053b5750908460019594939210610523575b505050811b015f5561015f565b01515f1960f88460031b161c191690555f8080610516565b92936020600181928786015181550195019301610500565b5f80529091507f290decd9548b62a8d60345a988386fc84ba6bc95484008f6362f93160ef3e563601f840160051c810191602085106105b6575b90601f859493920160051c01905b8181106105a85750610135565b5f815584935060010161059b565b909150819061058d565b91607f1691610121565b602080916105d78461065e565b8152019101906100d8565b5f80fd5b601f909101601f19168101906001600160401b0382119082101761029357604052565b81601f820112156105e2578051906001600160401b038211610293576040519261063d601f8401601f1916602001856105e6565b828452602083830101116105e257815f9260208093018386015e8301015290565b51906001600160a01b03821682036105e25756fe60806040526004361015610021575b361561001f573461001b57005b5f80fd5b005b5f3560e01c806301ffc9a71461033b57806302a860df146103365780630583e9f81461033157806306fdde031461032c578063081812fc14610327578063095ea7b3146103225780630beb96ba1461031d5780630e316ab71461031857806314e08463146103135780631b8a5c5d1461030e57806320606b701461030957806323b872dd146103045780632b651e09146102ff5780632c737a85146102fa578063353d9f24146102f55780633644e515146102f05780634279b461146102eb57806342842e0e146102e6578063482f7467146102e15780634838d165146102dc5780636352211e146102d757806368092bd9146102d25780636f5b218c146102cd57806370a08231146102c8578063796f077b146102c35780637d10c0401461029b5780637d1d25db146102be5780637f0ac018146102b9578063864360ae146102b45780638da5cb5b146102af57806395d89b41146102aa5780639bd0e9e9146102a5578063a22cb465146102a0578063a5b4cd3c1461029b578063a7fc7a0714610296578063b61a2af714610291578063b88d4fde1461028c578063c13aa7b514610287578063c26e252914610282578063c3e1b1f01461027d578063c50cd32614610278578063c7432b0e14610273578063c803b7ed1461026e578063c87b56dd14610269578063ca0f9fd814610264578063d19c31041461025f578063e985e9c51461025a578063eb12d61e14610255578063f6a74ed7146102505763f9f411d80361000e57611bf6565b611b53565b611a8c565b611a2e565b6119f6565b6119d9565b611984565b611799565b61175c565b6116c3565b611658565b6114f3565b6114b6565b611467565b61144a565b61138e565b610ea9565b6112f1565b61123c565b611197565b611171565b611157565b610fca565b610ee1565b610e6f565b610e1e565b610dfc565b610db5565b610d86565b610d49565b610ca1565b610c47565b610c2a565b610bf0565b610bc1565b610b68565b610aea565b610ad3565b610a5f565b610a42565b6109fb565b610855565b61080b565b6105a5565b610528565b610451565b6103ef565b6103c0565b610352565b6001600160e01b031981160361001b57565b3461001b57602036600319011261001b57602060043561037181610340565b63ffffffff60e01b166380ac58cd60e01b81149081156103af575b811561039e575b506040519015158152f35b6301ffc9a760e01b1490505f610393565b635b5e139f60e01b8114915061038c565b3461001b57602036600319011261001b576004356103ea6001600160a01b03600954163314611c4b565b601055005b3461001b57602036600319011261001b576004355f52600c602052602060405f2054604051908152f35b805180835260209291819084018484015e5f828201840152601f01601f1916010190565b90602061044e928181520190610419565b90565b3461001b575f36600319011261001b576040515f5f5461047081611530565b808452906001811690811561050457506001146104a8575b6104a483610498818503826106dc565b6040519182918261043d565b0390f35b5f8080527f290decd9548b62a8d60345a988386fc84ba6bc95484008f6362f93160ef3e563939250905b8082106104ea57509091508101602001610498610488565b9192600181602092548385880101520191019092916104d2565b60ff191660208086019190915291151560051b840190910191506104989050610488565b3461001b57602036600319011261001b5760043561054581612762565b505f52600460205260206001600160a01b0360405f205416604051908152f35b600435906001600160a01b038216820361001b57565b602435906001600160a01b038216820361001b57565b35906001600160a01b038216820361001b57565b3461001b57604036600319011261001b576105be610565565b602435906105cb82612762565b33151580610694575b80610654575b610641578261001f93610626926001600160a01b0380861691167f8c5be1e5ebec7d5bd14f71427d1e84f3dd0314c0f7b2291e5b200ac8c7c3b9255f80a45f52600460205260405f2090565b906001600160a01b03166001600160a01b0319825416179055565b63a9fbf51f60e01b5f523360045260245ffd5b5060ff61068c33610676846001600160a01b03165f52600560205260405f2090565b906001600160a01b03165f5260205260405f2090565b5416156105da565b50336001600160a01b03821614156105d4565b634e487b7160e01b5f52604160045260245ffd5b60e0810190811067ffffffffffffffff8211176106d757604052565b6106a7565b90601f8019910116810190811067ffffffffffffffff8211176106d757604052565b6040519061070d60e0836106dc565b565b67ffffffffffffffff81116106d757601f01601f191660200190565b81601f8201121561001b576020813591016107458261070f565b9261075360405194856106dc565b8284528282011161001b57815f92602092838601378301015290565b91909160e08184031261001b576107846106fe565b928135845260208201356020850152604082013567ffffffffffffffff811161001b57816107b391840161072b565b604085015260608201359167ffffffffffffffff831161001b576107de60c09261080494830161072b565b6060860152608081013560808601526107f960a08201610591565b60a086015201610591565b60c0830152565b3461001b57606036600319011261001b5760043567ffffffffffffffff811161001b5761084d610841602092369060040161076f565b60243560443591611c83565b604051908152f35b3461001b57602036600319011261001b5761086e610565565b6108846001600160a01b03600954163314611c4b565b6001600160a01b0381165f52600760205260ff60405f205416156109985761093f816108c25f936001600160a01b03165f52600860205260405f2090565b546108d1600654809210611d67565b6108f66108ef836001600160a01b03165f52600860205260405f2090565b5491611dc7565b808203610942575b505061092861091e826001600160a01b03165f52600760205260405f2090565b805460ff19169055565b6001600160a01b03165f52600860205260405f2090565b55005b61096461095161099092610b36565b90546001600160a01b039160031b1c1690565b6109288161097185610b36565b9091906001600160a01b038084549260031b9316831b921b1916179055565b555f806108fe565b60405162461bcd60e51b815260206004820152600c60248201526b139bdb88195e1a5cdd195b9d60a21b6044820152606490fd5b604090600319011261001b576004356001600160a01b038116810361001b5790602435801515810361001b5790565b3461001b5761001f6001600160a01b03610a14366109cc565b9190610a2582600954163314611c4b565b165f52600760205260405f209060ff801983541691151516179055565b3461001b575f36600319011261001b576020600f54604051908152f35b3461001b575f36600319011261001b5760206040517f8b73c3c69bb8fe3d512ecc4cf759cc79239f7b179b0ffacaa9a75d522b39400f8152f35b606090600319011261001b576004356001600160a01b038116810361001b57906024356001600160a01b038116810361001b579060443590565b3461001b5761001f610ae436610a99565b91611de7565b3461001b57602036600319011261001b576001600160a01b03610b0b610565565b165f526015602052602060405f2054604051908152f35b634e487b7160e01b5f52603260045260245ffd5b600654811015610b4e5760065f5260205f2001905f90565b610b22565b8054821015610b4e575f5260205f2001905f90565b3461001b57602036600319011261001b5760043560065481101561001b576001600160a01b0360209160065f527ff652222313e28459528d920b65115c16c04f3efc82aaedc97be59f3f377c0d3f015416604051908152f35b3461001b57602036600319011261001b57600435610beb6001600160a01b03600954163314611c4b565b600d55005b3461001b575f36600319011261001b5760206040517f00000000000000000000000000000000000000000000000000000000000000008152f35b3461001b575f36600319011261001b576020601054604051908152f35b3461001b5761001f610c5836610a99565b9060405192610c686020856106dc565b5f845261226c565b9181601f8401121561001b5782359167ffffffffffffffff831161001b576020808501948460051b01011161001b57565b3461001b5760c036600319011261001b5760043567ffffffffffffffff811161001b57610cd290369060040161076f565b6024356044359160643567ffffffffffffffff811161001b57610cf9903690600401610c70565b9060843567ffffffffffffffff811161001b57610d1a903690600401610c70565b92909160a4359667ffffffffffffffff881161001b57610d4161001f983690600401610c70565b979096611f54565b3461001b57602036600319011261001b576001600160a01b03610d6a610565565b165f526012602052602060ff60405f2054166040519015158152f35b3461001b57602036600319011261001b576020610da4600435612762565b6001600160a01b0360405191168152f35b3461001b5761001f6001600160a01b03610dce366109cc565b9190610ddf82600954163314611c4b565b165f52601260205260405f209060ff801983541691151516179055565b3461001b575f36600319011261001b57602060ff601154166040519015158152f35b3461001b57602036600319011261001b576001600160a01b03610e3f610565565b168015610e5c575f526003602052602060405f2054604051908152f35b6322718ad960e21b5f525f60045260245ffd5b3461001b575f36600319011261001b5760206040517f558df9f1711c6650ea151ca581e5cdf95e95feebd67b3f74b5b7d9976b3414a18152f35b3461001b57602036600319011261001b576001600160a01b03610eca610565565b165f526014602052602060405f2054604051908152f35b3461001b57602036600319011261001b57600435610f0b6001600160a01b03600954163314611c4b565b600f55005b602081016020825282518091526040820191602060408360051b8301019401925f915b838310610f4257505050505090565b9091929394602080600192603f1985820301865288519081518152828201518382015260c06001600160a01b0381610f9e610f8c604087015160e0604088015260e0870190610419565b60608701518682036060880152610419565b94608081015160808601528260a08201511660a086015201511691015297019301930191939290610f33565b3461001b57602036600319011261001b576001600160a01b03610feb610565565b165f52600b60205260405f20604051808260208294549384815201905f5260205f20925f5b81811061108c575050611025925003826106dc565b61102f815161215a565b905f5b815181101561107e578061106261105d61104e600194866121d4565b515f52601360205260405f2090565b6121e8565b61106c82866121d4565b5261107781856121d4565b5001611032565b604051806104a48582610f10565b8454835260019485019486945060209093019201611010565b60405160208101907f536372697074696f6e546f4e46542875696e7432353620636861696e49642c7382527f7472696e67207469636b2c737472696e672070726f746f636f6c2c616464726560408201527f7373206f776e65722c75696e7432353620616d6f756e742c75696e743235362060608201527f6e6f6e63652c75696e7432353620626c6f636b486569676874290000000000006080820152607a8152611151609a826106dc565b51902090565b3461001b575f36600319011261001b57602061084d6110a5565b3461001b575f36600319011261001b5760206001600160a01b0360095416604051908152f35b3461001b575f36600319011261001b576040515f6001546111b781611530565b808452906001811690811561050457506001146111de576104a483610498818503826106dc565b60015f9081527fb10e2d527612073b26eecdfd717e6a320cf44b4afac2b0732d9fcbe2b7fa0cf6939250905b80821061122257509091508101602001610498610488565b91926001816020925483858801015201910190929161120a565b3461001b57602036600319011261001b5760043567ffffffffffffffff811161001b5761126d90369060040161072b565b60418151036112ac5760208101516104a4606060408401519301515f1a6040519384938491604091949360ff9160608501968552602085015216910152565b60405162461bcd60e51b815260206004820152601060248201527f5369676e6174757265496e76616c6964000000000000000000000000000000006044820152606490fd5b3461001b576112ff366109cc565b6001600160a01b03821691821561137b578161133a61134b92335f52600560205260405f20906001600160a01b03165f5260205260405f2090565b9060ff801983541691151516179055565b60405190151581527f17307eab39ab6107e8899845ad3d59bd9653f200f220920489ca2b5937696c3160203392a3005b82630b61174360e31b5f5260045260245ffd5b3461001b57602036600319011261001b576113a7610565565b6113bd6001600160a01b03600954163314611c4b565b6001600160a01b0381165f52600a60205260ff60405f205416611405576113f861001f916001600160a01b03165f52600a60205260405f2090565b805460ff19166001179055565b60405162461bcd60e51b815260206004820152601560248201527f636f6e74726f6c6c6572206475706c69636174656400000000000000000000006044820152606490fd5b3461001b575f36600319011261001b576020600e54604051908152f35b3461001b57608036600319011261001b57611480610565565b61148861057b565b906044356064359267ffffffffffffffff841161001b576114b061001f94369060040161072b565b9261226c565b3461001b57602036600319011261001b576001600160a01b036114d7610565565b165f52600a602052602060ff60405f2054166040519015158152f35b3461001b57602036600319011261001b576001600160a01b03611514610565565b165f526007602052602060ff60405f2054166040519015158152f35b90600182811c9216801561155e575b602083101461154a57565b634e487b7160e01b5f52602260045260245ffd5b91607f169161153f565b9060405191825f82549261157b84611530565b80845293600181169081156115e457506001146115a0575b5061070d925003836106dc565b90505f9291925260205f20905f915b8183106115c857505090602061070d928201015f611593565b60209193508060019154838589010152019101909184926115af565b90506020925061070d94915060ff191682840152151560051b8201015f611593565b95906001600160a01b039461163860c0979a99958795611646948b5260208b015260e060408b015260e08a0190610419565b9088820360608a0152610419565b9760808701521660a085015216910152565b3461001b57602036600319011261001b576004355f52601360205260405f2080546104a460018301549261168e60028201611568565b9061169b60038201611568565b6004820154906001600160a01b03600681600586015416940154169360405197889788611606565b3461001b57608036600319011261001b5760243567ffffffffffffffff811161001b576116f4903690600401610c70565b60443567ffffffffffffffff811161001b57611714903690600401610c70565b9190926064359267ffffffffffffffff841161001b576104a49461173f61174a953690600401610c70565b949093600435612493565b60405190151581529081906020820190565b3461001b575f36600319011261001b576117826001600160a01b03600954163314611c4b565b60115460ff80821615169060ff1916176011555f80f35b3461001b57604036600319011261001b576004356117b561057b565b335f52600a6020526117cd60ff60405f205416611f08565b60165482101561193f5781611919608061181361105d7ff07993dae7dc7202c13533603360d9afa11563fac65950c849657f4a87faa0fb965f52601360205260405f2090565b61182d611828855f52601360205260405f2090565b612685565b019161184461183f8451600f54611dda565b600f55565b611906611862856001600160a01b03165f52600b60205260405f2090565b611874835f52600c60205260405f2090565b5461190061189c611896896001600160a01b03165f52600b60205260405f2090565b54611dc7565b6118f26118d06118c6836118c18d6001600160a01b03165f52600b60205260405f2090565b610b53565b90549060031b1c90565b6118da8587610b53565b90919082549060031b91821b915f19901b1916179055565b5f52600c60205260405f2090565b556126ba565b5f818152600c6020526040812055612cc8565b51604080516001600160a01b0393909316835260208301919091524290820152606090a1005b60405162461bcd60e51b815260206004820152601260248201527f6e6f6e6520657869737420746f6b656e496400000000000000000000000000006044820152606490fd5b3461001b57602036600319011261001b576119a0600435612762565b505f6040516119b06020826106dc565b526104a46040516119c26020826106dc565b5f8152604051918291602083526020830190610419565b3461001b575f36600319011261001b576020600d54604051908152f35b3461001b57602036600319011261001b576001600160a01b03611a17610565565b165f526008602052602060405f2054604051908152f35b3461001b57604036600319011261001b57602060ff611a80611a4e610565565b6001600160a01b03611a5e61057b565b91165f526005845260405f20906001600160a01b03165f5260205260405f2090565b54166040519015158152f35b3461001b57602036600319011261001b57611aa5610565565b611abb6001600160a01b03600954163314611c4b565b6001600160a01b0381165f52600760205260ff60405f205416611b1e5761001f90600654611afa826001600160a01b03165f52600860205260405f2090565b55611b196113f8826001600160a01b03165f52600760205260405f2090565b6126f5565b60405162461bcd60e51b815260206004820152600d60248201526c139bdd081c99595b9d1c985b9d609a1b6044820152606490fd5b3461001b57602036600319011261001b576001600160a01b03611b74610565565b611b8382600954163314611c4b565b16805f52600a60205260ff60405f20541615611bb1575f52600a60205261001f60405f2060ff198154169055565b60405162461bcd60e51b815260206004820152601460248201527f636f6e74726f6c6c6572206e6f742065786973740000000000000000000000006044820152606490fd5b3461001b57604036600319011261001b57611c0f610565565b6001600160a01b0360243591165f52600b60205260405f20805482101561001b57602091611c3c91610b53565b90549060031b1c604051908152f35b15611c5257565b60405162461bcd60e51b81526020600482015260096024820152683737ba1037bbb732b960b91b6044820152606490fd5b91611d1790611c906110a5565b936020810151916040820151946060830151611cf360806001600160a01b0360a08701511695015191611ce1604051998a9860208a019c8d5260408a015261010060608a0152610120890190610419565b878103601f1901608089015290610419565b9360a086015260c085015260e084015261010083015203601f1981018352826106dc565b51902060405161190160f01b602082019081527f000000000000000000000000000000000000000000000000000000000000000060228301526042808301939093529181526111516062826106dc565b15611d6e57565b60405162461bcd60e51b815260206004820152601260248201527f496e646578206f7574206f662072616e676500000000000000000000000000006044820152606490fd5b634e487b7160e01b5f52601160045260245ffd5b5f19810191908211611dd557565b611db3565b91908203918211611dd557565b9190916001600160a01b038316908115611ef5576001600160a01b0391835f52600260205283611e2260405f206001600160a01b0390541690565b9133611ee5575b611e6a8584169788611eb5575b611e51816001600160a01b03165f52600360205260405f2090565b60018154019055610626845f52600260205260405f2090565b867fddf252ad1be2c89b69c2b068fc378daa952ba7f163c4a11628f55a4df523b3ef5f80a45016808303611e9d57505050565b6364283d7b60e01b5f5260045260245260445260645ffd5b611ebe84612d67565b611ed9856001600160a01b03165f52600360205260405f2090565b80545f19019055611e36565b611ef0823385612d89565b611e29565b633250574960e11b5f525f60045260245ffd5b15611f0f57565b60405162461bcd60e51b815260206004820152601260248201527f496e76616c696420636f6e74726f6c6c657200000000000000000000000000006044820152606490fd5b969092959791949397335f52600a602052611f7560ff60405f205416611f08565b600e54600f54106120e257335f52601260205260ff60405f20541661209d5760808801519460105486116120585761070d9961203c9861203798611fbb60115460ff1690565b612041575b505050505050505061202361200c60a0860143611ffe611fe783516001600160a01b031690565b6001600160a01b03165f52601560205260405f2090565b55516001600160a01b031690565b6001600160a01b03165f52601460205260405f2090565b61202d8154612127565b9055600e54612135565b600e55565b612b44565b61204b978c6127e1565b5f80808080808080611fc0565b60405162461bcd60e51b815260206004820152601c60248201527f6578656365656420736372697074696f6e206d696e74206c696d6974000000006044820152606490fd5b60405162461bcd60e51b815260206004820152601160248201527f7065726d697373696f6e2064656e6965640000000000000000000000000000006044820152606490fd5b60405162461bcd60e51b815260206004820152601660248201527f65786365656420736372697074696f6e206c696d6974000000000000000000006044820152606490fd5b9060018201809211611dd557565b91908201809211611dd557565b67ffffffffffffffff81116106d75760051b60200190565b9061216482612142565b61217160405191826106dc565b8281528092612182601f1991612142565b01905f5b82811061219257505050565b6020906040516121a1816106bb565b5f81525f83820152606060408201526060808201525f60808201525f60a08201525f60c082015282828501015201612186565b8051821015610b4e5760209160051b010190565b9061070d6040516121f8816106bb565b60c061225e60068396805485526001810154602086015261221b60028201611568565b604086015261222c60038201611568565b6060860152600481015460808601526001600160a01b03806005830154161660a086015201546001600160a01b031690565b6001600160a01b0316910152565b90929161227a818584611de7565b833b612287575b50505050565b6020916122a96040519485938493630a85bd0160e11b85523360048601612c6b565b03815f6001600160a01b0387165af15f9181612336575b506122fa57506122ce612c99565b80519190826122f357633250574960e11b5f526001600160a01b03821660045260245ffd5b6020915001fd5b6001600160e01b03191663757a42ff60e11b0161231b57505f808080612281565b633250574960e11b5f526001600160a01b031660045260245ffd5b61235991925060203d602011612360575b61235181836106dc565b810190612c56565b905f6122c0565b503d612347565b1561236e57565b60405162461bcd60e51b815260206004820152601860248201527f496e76616c6964207369676e6174757265206c656e67746800000000000000006044820152606490fd5b906123bd82612142565b6123ca60405191826106dc565b82815280926123db601f1991612142565b0190602036910137565b9190811015610b4e5760051b0190565b3560ff8116810361001b5790565b6040513d5f823e3d90fd5b1561241557565b60405162461bcd60e51b815260206004820152600e60248201527f496e76616c6964207369676e65720000000000000000000000000000000000006044820152606490fd5b1561246157565b60405162461bcd60e51b815260206004820152600a602482015269111d5c1b1a58d85d195960b21b6044820152606490fd5b9194969590936006549586151580612607575b806125fe575b806125f5575b6124bb90612367565b6124c4876123b3565b955f5b8881106124dd5750600199505050505050505050565b60205f8c89612539612511868b61250a828d6125046124ff8f8f9085916123e5565b6123f5565b976123e5565b35956123e5565b356040519384938d859094939260ff6060936080840197845216602083015260408201520152565b838052039060015afa156125f0575f5161257661257161256a836001600160a01b03165f52600760205260405f2090565b5460ff1690565b61240e565b6001600160a01b0381165f5b8a8482106125b3576125ad92508460019594925061259f916121d4565b906001600160a01b03169052565b016124c7565b906125ea836125e36125d76125ca856001976121d4565b516001600160a01b031690565b6001600160a01b031690565b141561245a565b01612582565b612403565b508683146124b2565b508187146124ac565b508087146124a6565b81811061261b575050565b5f8155600101612610565b6126308154611530565b908161263a575050565b81601f5f931160011461264b575055565b8183526020832061266791601f0160051c810190600101612610565b808252602082209081548360011b9084198560031b1c191617905555565b60065f9182815582600182015561269e60028201612626565b6126aa60038201612626565b8260048201558260058201550155565b805480156126e1575f1901906126d08282610b53565b8154905f199060031b1b1916905555565b634e487b7160e01b5f52603160045260245ffd5b60065490680100000000000000008210156106d75760018201600655600654821015610b4e5760065f527ff652222313e28459528d920b65115c16c04f3efc82aaedc97be59f3f377c0d3f90910180546001600160a01b0319166001600160a01b03909216919091179055565b805f5260026020526001600160a01b0360405f205416908115612783575090565b637e27328960e01b5f5260045260245ffd5b1561279c57565b60405162461bcd60e51b815260206004820152601160248201527f7369676e617475726520657870697265640000000000000000000000000000006044820152606490fd5b979593919796949290966128026127fa600d548b612135565b431115612795565b60a0810161281a61200c82516001600160a01b031690565b54891090811561287f575b5061284a57612844986128409861283b92611c83565b612493565b1590565b6112ac57565b60405162461bcd60e51b815260206004820152600d60248201526c139bdb98d95cd25b9d985b1a59609a1b6044820152606490fd5b5161289391506001600160a01b031661200c565b548814155f612825565b9190601f81116128ac57505050565b61070d925f5260205f20906020601f840160051c830193106128d6575b601f0160051c0190612610565b90915081906128c9565b919091825167ffffffffffffffff81116106d757612908816129028454611530565b8461289d565b6020601f82116001146129475781906129389394955f9261293c575b50508160011b915f199060031b1c19161790565b9055565b015190505f80612924565b601f1982169061295a845f5260205f2090565b915f5b8181106129945750958360019596971061297c575b505050811b019055565b01515f1960f88460031b161c191690555f8080612972565b9192602060018192868b01518155019401920161295d565b90805182556020810151600183015560028201604082015180519067ffffffffffffffff82116106d7576129ea826129e48554611530565b8561289d565b602090601f8311600114612aa55793600693612a2684612a889560c09561070d9a995f9261293c5750508160011b915f199060031b1c19161790565b90555b612a3a6060820151600387016128e0565b60808101516004860155612a7a612a5b60a08301516001600160a01b031690565b60058701906001600160a01b03166001600160a01b0319825416179055565b01516001600160a01b031690565b9101906001600160a01b03166001600160a01b0319825416179055565b90601f19831691612ab9855f5260205f2090565b925f5b818110612b0457508460c09461070d99989460069894612a889860019510612aec575b505050811b019055612a29565b01515f1960f88460031b161c191690555f8080612adf565b92936020600181928786015181550195019301612abc565b90815491680100000000000000008310156106d757826118da91600161070d95018155610b53565b7f2e83f4f466dfdfab2eb19137115f64f1d65f108fbfdd93e8a34e25164a8747b4906080612c2f6016548084526001600160a01b03301660c0850152612b9b84612b96835f52601360205260405f2090565b6129ac565b612bb960a0850191612bb483516001600160a01b031690565b612e61565b612bf0612be7612bd083516001600160a01b031690565b6001600160a01b03165f52600b60205260405f2090565b60165490612b1c565b612c07611896612bd083516001600160a01b031690565b612c1b6016545f52600c60205260405f2090565b556125ca612c2a601654612127565b601655565b910151604080516001600160a01b03909316835260208301919091524290820152606090a1565b9081602091031261001b575161044e81610340565b90926001600160a01b036080938161044e979616845216602083015260408201528160608201520190610419565b3d15612cc3573d90612caa8261070f565b91612cb860405193846106dc565b82523d5f602084013e565b606090565b805f5260026020526001600160a01b0360405f2054168015908115612d37575b612cfa835f52600260205260405f2090565b80546001600160a01b0319169055825f827fddf252ad1be2c89b69c2b068fc378daa952ba7f163c4a11628f55a4df523b3ef8280a4506127835750565b612d4083612d67565b612d5b816001600160a01b03165f52600360205260405f2090565b80545f19019055612ce8565b612d79905f52600460205260405f2090565b80546001600160a01b0319169055565b919091612da76001600160a01b0384168015159081612def57501590565b612db057505050565b6001600160a01b0316612dcf57637e27328960e01b5f5260045260245ffd5b63177e802f60e01b5f526001600160a01b0390911660045260245260445ffd5b6001600160a01b03841680821492508215612e2e575b508115612e1157501590565b9050835f5260046020526001600160a01b0360405f205416141590565b9091505f52600560205260ff612e588660405f20906001600160a01b03165f5260205260405f2090565b5416905f612e05565b906001600160a01b038216908115611ef557805f5260026020526001600160a01b0360405f20541691612eb18315159485611eb557611e51816001600160a01b03165f52600360205260405f2090565b827fddf252ad1be2c89b69c2b068fc378daa952ba7f163c4a11628f55a4df523b3ef5f80a450612edd57565b6339e3563760e11b5f525f60045260245ffdfea2646970667358221220db15bb729fa19950953d15ff9203c5ede7956f557b59e4aec83ae3bf91da5c7264736f6c634300081c0033",
			"opcodes": "PUSH1 0xA0 DUP1 PUSH1 0x40 MSTORE CALLVALUE PUSH2 0x5E2 JUMPI PUSH2 0x3599 DUP1 CODESIZE SUB DUP1 SWAP2 PUSH2 0x1C DUP3 DUP6 PUSH2 0x5E6 JUMP JUMPDEST DUP4 CODECOPY DUP2 ADD PUSH2 0x100 DUP3 DUP3 SUB SLT PUSH2 0x5E2 JUMPI DUP2 MLOAD PUSH1 0x1 PUSH1 0x1 PUSH1 0x40 SHL SUB DUP2 GT PUSH2 0x5E2 JUMPI DUP2 PUSH2 0x47 SWAP2 DUP5 ADD PUSH2 0x609 JUMP JUMPDEST PUSH1 0x20 DUP4 ADD MLOAD SWAP1 SWAP3 SWAP1 PUSH1 0x1 PUSH1 0x1 PUSH1 0x40 SHL SUB DUP2 GT PUSH2 0x5E2 JUMPI DUP3 PUSH2 0x69 SWAP2 DUP4 ADD PUSH2 0x609 JUMP JUMPDEST SWAP1 PUSH2 0x76 PUSH1 0x40 DUP3 ADD PUSH2 0x65E JUMP JUMPDEST PUSH1 0x60 DUP3 ADD MLOAD SWAP1 SWAP5 SWAP1 PUSH1 0x1 PUSH1 0x1 PUSH1 0x40 SHL SUB DUP2 GT PUSH2 0x5E2 JUMPI DUP3 ADD SWAP4 DUP1 PUSH1 0x1F DUP7 ADD SLT ISZERO PUSH2 0x5E2 JUMPI DUP5 MLOAD SWAP5 PUSH1 0x1 PUSH1 0x1 PUSH1 0x40 SHL SUB DUP7 GT PUSH2 0x293 JUMPI DUP6 PUSH1 0x5 SHL SWAP1 PUSH1 0x40 MLOAD SWAP7 PUSH2 0xC1 PUSH1 0x20 DUP5 ADD DUP10 PUSH2 0x5E6 JUMP JUMPDEST DUP8 MSTORE PUSH1 0x20 DUP1 DUP9 ADD SWAP3 DUP3 ADD ADD SWAP3 DUP4 GT PUSH2 0x5E2 JUMPI PUSH1 0x20 ADD SWAP1 JUMPDEST DUP3 DUP3 LT PUSH2 0x5CA JUMPI POP POP POP PUSH2 0xEE PUSH1 0x80 DUP4 ADD PUSH2 0x65E JUMP JUMPDEST SWAP5 PUSH1 0xA0 DUP4 ADD MLOAD SWAP4 PUSH1 0xE0 PUSH1 0xC0 DUP6 ADD MLOAD SWAP5 ADD MLOAD SWAP3 DUP1 MLOAD SWAP1 PUSH1 0x1 DUP1 PUSH1 0x40 SHL SUB DUP3 GT PUSH2 0x293 JUMPI PUSH0 SLOAD SWAP1 PUSH1 0x1 DUP3 DUP2 SHR SWAP3 AND DUP1 ISZERO PUSH2 0x5C0 JUMPI JUMPDEST PUSH1 0x20 DUP4 LT EQ PUSH2 0x4C7 JUMPI DUP2 PUSH1 0x1F DUP5 SWAP4 GT PUSH2 0x553 JUMPI JUMPDEST POP PUSH1 0x20 SWAP1 PUSH1 0x1F DUP4 GT PUSH1 0x1 EQ PUSH2 0x4F0 JUMPI PUSH0 SWAP3 PUSH2 0x4E5 JUMPI JUMPDEST POP POP DUP2 PUSH1 0x1 SHL SWAP2 PUSH0 NOT SWAP1 PUSH1 0x3 SHL SHR NOT AND OR PUSH0 SSTORE JUMPDEST DUP1 MLOAD SWAP1 PUSH1 0x1 PUSH1 0x1 PUSH1 0x40 SHL SUB DUP3 GT PUSH2 0x293 JUMPI PUSH1 0x1 SLOAD SWAP1 PUSH1 0x1 DUP3 DUP2 SHR SWAP3 AND DUP1 ISZERO PUSH2 0x4DB JUMPI JUMPDEST PUSH1 0x20 DUP4 LT EQ PUSH2 0x4C7 JUMPI DUP2 PUSH1 0x1F DUP5 SWAP4 GT PUSH2 0x459 JUMPI JUMPDEST POP PUSH1 0x20 SWAP1 PUSH1 0x1F DUP4 GT PUSH1 0x1 EQ PUSH2 0x3F3 JUMPI PUSH0 SWAP3 PUSH2 0x3E8 JUMPI JUMPDEST POP POP DUP2 PUSH1 0x1 SHL SWAP2 PUSH0 NOT SWAP1 PUSH1 0x3 SHL SHR NOT AND OR PUSH1 0x1 SSTORE JUMPDEST PUSH1 0x1 PUSH1 0x16 SSTORE PUSH0 JUMPDEST DUP6 MLOAD DUP2 LT ISZERO PUSH2 0x2EC JUMPI PUSH1 0x1 DUP1 PUSH1 0xA0 SHL SUB PUSH1 0x20 DUP3 PUSH1 0x5 SHL DUP9 ADD ADD MLOAD AND SWAP1 DUP2 PUSH0 MSTORE PUSH1 0x7 PUSH1 0x20 MSTORE PUSH1 0xFF PUSH1 0x40 PUSH0 KECCAK256 SLOAD AND PUSH2 0x2A7 JUMPI PUSH1 0x6 SLOAD SWAP2 PUSH9 0x10000000000000000 DUP4 LT ISZERO PUSH2 0x293 JUMPI PUSH1 0x1 DUP4 ADD DUP1 PUSH1 0x6 SSTORE DUP4 LT ISZERO PUSH2 0x27F JUMPI PUSH32 0xF652222313E28459528D920B65115C16C04F3EFC82AAEDC97BE59F3F377C0D3F SWAP1 SWAP3 ADD DUP1 SLOAD PUSH1 0x1 PUSH1 0x1 PUSH1 0xA0 SHL SUB NOT AND DUP4 OR SWAP1 SSTORE PUSH0 SWAP2 DUP3 MSTORE PUSH1 0x7 PUSH1 0x20 SWAP1 DUP2 MSTORE PUSH1 0x40 DUP1 DUP5 KECCAK256 DUP1 SLOAD PUSH1 0xFF NOT AND PUSH1 0x1 SWAP1 DUP2 OR SWAP1 SWAP2 SSTORE PUSH1 0x8 SWAP1 SWAP3 MSTORE SWAP1 SWAP3 KECCAK256 DUP2 SWAP1 SSTORE ADD PUSH2 0x1C8 JUMP JUMPDEST PUSH4 0x4E487B71 PUSH1 0xE0 SHL PUSH0 MSTORE PUSH1 0x32 PUSH1 0x4 MSTORE PUSH1 0x24 PUSH0 REVERT JUMPDEST PUSH4 0x4E487B71 PUSH1 0xE0 SHL PUSH0 MSTORE PUSH1 0x41 PUSH1 0x4 MSTORE PUSH1 0x24 PUSH0 REVERT JUMPDEST PUSH1 0x40 MLOAD PUSH3 0x461BCD PUSH1 0xE5 SHL DUP2 MSTORE PUSH1 0x20 PUSH1 0x4 DUP3 ADD MSTORE PUSH1 0x13 PUSH1 0x24 DUP3 ADD MSTORE PUSH32 0x4475706C6963617465206578697374656E636500000000000000000000000000 PUSH1 0x44 DUP3 ADD MSTORE PUSH1 0x64 SWAP1 REVERT JUMPDEST POP DUP6 PUSH1 0x1 DUP1 PUSH1 0xA0 SHL SUB AND PUSH0 MSTORE PUSH1 0xA PUSH1 0x20 MSTORE PUSH1 0x40 PUSH0 KECCAK256 PUSH1 0x1 PUSH1 0xFF NOT DUP3 SLOAD AND OR SWAP1 SSTORE PUSH1 0x1 DUP1 PUSH1 0xA0 SHL SUB AND PUSH1 0x1 DUP1 PUSH1 0xA0 SHL SUB NOT PUSH1 0x9 SLOAD AND OR PUSH1 0x9 SSTORE PUSH1 0xD SSTORE PUSH1 0x40 SWAP2 PUSH1 0x1 PUSH1 0x20 DUP5 MLOAD PUSH2 0x33A DUP7 DUP3 PUSH2 0x5E6 JUMP JUMPDEST DUP3 DUP2 MSTORE ADD PUSH1 0x31 PUSH1 0xF8 SHL DUP2 MSTORE KECCAK256 DUP4 MLOAD PUSH1 0x20 DUP2 ADD SWAP2 PUSH32 0x8B73C3C69BB8FE3D512ECC4CF759CC79239F7B179B0FFACAA9A75D522B39400F DUP4 MSTORE PUSH32 0x558DF9F1711C6650EA151CA581E5CDF95E95FEEBD67B3F74B5B7D9976B3414A1 DUP7 DUP4 ADD MSTORE PUSH1 0x60 DUP3 ADD MSTORE CHAINID PUSH1 0x80 DUP3 ADD MSTORE ADDRESS PUSH1 0xA0 DUP3 ADD MSTORE PUSH1 0xA0 DUP2 MSTORE PUSH2 0x3B5 PUSH1 0xC0 DUP3 PUSH2 0x5E6 JUMP JUMPDEST MLOAD SWAP1 KECCAK256 PUSH1 0x80 MSTORE PUSH1 0xF SSTORE PUSH1 0x10 SSTORE PUSH1 0xFF NOT PUSH1 0x11 SLOAD AND PUSH1 0x11 SSTORE MLOAD PUSH2 0x2F26 SWAP1 DUP2 PUSH2 0x673 DUP3 CODECOPY PUSH1 0x80 MLOAD DUP2 DUP2 DUP2 PUSH2 0xC07 ADD MSTORE PUSH2 0x1D2C ADD MSTORE RETURN JUMPDEST ADD MLOAD SWAP1 POP PUSH0 DUP1 PUSH2 0x1AC JUMP JUMPDEST PUSH1 0x1 PUSH0 SWAP1 DUP2 MSTORE DUP3 DUP2 KECCAK256 SWAP4 POP PUSH1 0x1F NOT DUP6 AND SWAP1 JUMPDEST DUP2 DUP2 LT PUSH2 0x441 JUMPI POP SWAP1 DUP5 PUSH1 0x1 SWAP6 SWAP5 SWAP4 SWAP3 LT PUSH2 0x429 JUMPI JUMPDEST POP POP POP DUP2 SHL ADD PUSH1 0x1 SSTORE PUSH2 0x1C1 JUMP JUMPDEST ADD MLOAD PUSH0 NOT PUSH1 0xF8 DUP5 PUSH1 0x3 SHL AND SHR NOT AND SWAP1 SSTORE PUSH0 DUP1 DUP1 PUSH2 0x41B JUMP JUMPDEST SWAP3 SWAP4 PUSH1 0x20 PUSH1 0x1 DUP2 SWAP3 DUP8 DUP7 ADD MLOAD DUP2 SSTORE ADD SWAP6 ADD SWAP4 ADD PUSH2 0x405 JUMP JUMPDEST PUSH1 0x1 PUSH0 MSTORE SWAP1 SWAP2 POP PUSH32 0xB10E2D527612073B26EECDFD717E6A320CF44B4AFAC2B0732D9FCBE2B7FA0CF6 PUSH1 0x1F DUP5 ADD PUSH1 0x5 SHR DUP2 ADD SWAP2 PUSH1 0x20 DUP6 LT PUSH2 0x4BD JUMPI JUMPDEST SWAP1 PUSH1 0x1F DUP6 SWAP5 SWAP4 SWAP3 ADD PUSH1 0x5 SHR ADD SWAP1 JUMPDEST DUP2 DUP2 LT PUSH2 0x4AF JUMPI POP PUSH2 0x196 JUMP JUMPDEST PUSH0 DUP2 SSTORE DUP5 SWAP4 POP PUSH1 0x1 ADD PUSH2 0x4A2 JUMP JUMPDEST SWAP1 SWAP2 POP DUP2 SWAP1 PUSH2 0x494 JUMP JUMPDEST PUSH4 0x4E487B71 PUSH1 0xE0 SHL PUSH0 MSTORE PUSH1 0x22 PUSH1 0x4 MSTORE PUSH1 0x24 PUSH0 REVERT JUMPDEST SWAP2 PUSH1 0x7F AND SWAP2 PUSH2 0x182 JUMP JUMPDEST ADD MLOAD SWAP1 POP PUSH0 DUP1 PUSH2 0x14B JUMP JUMPDEST PUSH0 DUP1 DUP1 MSTORE DUP3 DUP2 KECCAK256 SWAP4 POP PUSH1 0x1F NOT DUP6 AND SWAP1 JUMPDEST DUP2 DUP2 LT PUSH2 0x53B JUMPI POP SWAP1 DUP5 PUSH1 0x1 SWAP6 SWAP5 SWAP4 SWAP3 LT PUSH2 0x523 JUMPI JUMPDEST POP POP POP DUP2 SHL ADD PUSH0 SSTORE PUSH2 0x15F JUMP JUMPDEST ADD MLOAD PUSH0 NOT PUSH1 0xF8 DUP5 PUSH1 0x3 SHL AND SHR NOT AND SWAP1 SSTORE PUSH0 DUP1 DUP1 PUSH2 0x516 JUMP JUMPDEST SWAP3 SWAP4 PUSH1 0x20 PUSH1 0x1 DUP2 SWAP3 DUP8 DUP7 ADD MLOAD DUP2 SSTORE ADD SWAP6 ADD SWAP4 ADD PUSH2 0x500 JUMP JUMPDEST PUSH0 DUP1 MSTORE SWAP1 SWAP2 POP PUSH32 0x290DECD9548B62A8D60345A988386FC84BA6BC95484008F6362F93160EF3E563 PUSH1 0x1F DUP5 ADD PUSH1 0x5 SHR DUP2 ADD SWAP2 PUSH1 0x20 DUP6 LT PUSH2 0x5B6 JUMPI JUMPDEST SWAP1 PUSH1 0x1F DUP6 SWAP5 SWAP4 SWAP3 ADD PUSH1 0x5 SHR ADD SWAP1 JUMPDEST DUP2 DUP2 LT PUSH2 0x5A8 JUMPI POP PUSH2 0x135 JUMP JUMPDEST PUSH0 DUP2 SSTORE DUP5 SWAP4 POP PUSH1 0x1 ADD PUSH2 0x59B JUMP JUMPDEST SWAP1 SWAP2 POP DUP2 SWAP1 PUSH2 0x58D JUMP JUMPDEST SWAP2 PUSH1 0x7F AND SWAP2 PUSH2 0x121 JUMP JUMPDEST PUSH1 0x20 DUP1 SWAP2 PUSH2 0x5D7 DUP5 PUSH2 0x65E JUMP JUMPDEST DUP2 MSTORE ADD SWAP2 ADD SWAP1 PUSH2 0xD8 JUMP JUMPDEST PUSH0 DUP1 REVERT JUMPDEST PUSH1 0x1F SWAP1 SWAP2 ADD PUSH1 0x1F NOT AND DUP2 ADD SWAP1 PUSH1 0x1 PUSH1 0x1 PUSH1 0x40 SHL SUB DUP3 GT SWAP1 DUP3 LT OR PUSH2 0x293 JUMPI PUSH1 0x40 MSTORE JUMP JUMPDEST DUP2 PUSH1 0x1F DUP3 ADD SLT ISZERO PUSH2 0x5E2 JUMPI DUP1 MLOAD SWAP1 PUSH1 0x1 PUSH1 0x1 PUSH1 0x40 SHL SUB DUP3 GT PUSH2 0x293 JUMPI PUSH1 0x40 MLOAD SWAP3 PUSH2 0x63D PUSH1 0x1F DUP5 ADD PUSH1 0x1F NOT AND PUSH1 0x20 ADD DUP6 PUSH2 0x5E6 JUMP JUMPDEST DUP3 DUP5 MSTORE PUSH1 0x20 DUP4 DUP4 ADD ADD GT PUSH2 0x5E2 JUMPI DUP2 PUSH0 SWAP3 PUSH1 0x20 DUP1 SWAP4 ADD DUP4 DUP7 ADD MCOPY DUP4 ADD ADD MSTORE SWAP1 JUMP JUMPDEST MLOAD SWAP1 PUSH1 0x1 PUSH1 0x1 PUSH1 0xA0 SHL SUB DUP3 AND DUP3 SUB PUSH2 0x5E2 JUMPI JUMP INVALID PUSH1 0x80 PUSH1 0x40 MSTORE PUSH1 0x4 CALLDATASIZE LT ISZERO PUSH2 0x21 JUMPI JUMPDEST CALLDATASIZE ISZERO PUSH2 0x1F JUMPI CALLVALUE PUSH2 0x1B JUMPI STOP JUMPDEST PUSH0 DUP1 REVERT JUMPDEST STOP JUMPDEST PUSH0 CALLDATALOAD PUSH1 0xE0 SHR DUP1 PUSH4 0x1FFC9A7 EQ PUSH2 0x33B JUMPI DUP1 PUSH4 0x2A860DF EQ PUSH2 0x336 JUMPI DUP1 PUSH4 0x583E9F8 EQ PUSH2 0x331 JUMPI DUP1 PUSH4 0x6FDDE03 EQ PUSH2 0x32C JUMPI DUP1 PUSH4 0x81812FC EQ PUSH2 0x327 JUMPI DUP1 PUSH4 0x95EA7B3 EQ PUSH2 0x322 JUMPI DUP1 PUSH4 0xBEB96BA EQ PUSH2 0x31D JUMPI DUP1 PUSH4 0xE316AB7 EQ PUSH2 0x318 JUMPI DUP1 PUSH4 0x14E08463 EQ PUSH2 0x313 JUMPI DUP1 PUSH4 0x1B8A5C5D EQ PUSH2 0x30E JUMPI DUP1 PUSH4 0x20606B70 EQ PUSH2 0x309 JUMPI DUP1 PUSH4 0x23B872DD EQ PUSH2 0x304 JUMPI DUP1 PUSH4 0x2B651E09 EQ PUSH2 0x2FF JUMPI DUP1 PUSH4 0x2C737A85 EQ PUSH2 0x2FA JUMPI DUP1 PUSH4 0x353D9F24 EQ PUSH2 0x2F5 JUMPI DUP1 PUSH4 0x3644E515 EQ PUSH2 0x2F0 JUMPI DUP1 PUSH4 0x4279B461 EQ PUSH2 0x2EB JUMPI DUP1 PUSH4 0x42842E0E EQ PUSH2 0x2E6 JUMPI DUP1 PUSH4 0x482F7467 EQ PUSH2 0x2E1 JUMPI DUP1 PUSH4 0x4838D165 EQ PUSH2 0x2DC JUMPI DUP1 PUSH4 0x6352211E EQ PUSH2 0x2D7 JUMPI DUP1 PUSH4 0x68092BD9 EQ PUSH2 0x2D2 JUMPI DUP1 PUSH4 0x6F5B218C EQ PUSH2 0x2CD JUMPI DUP1 PUSH4 0x70A08231 EQ PUSH2 0x2C8 JUMPI DUP1 PUSH4 0x796F077B EQ PUSH2 0x2C3 JUMPI DUP1 PUSH4 0x7D10C040 EQ PUSH2 0x29B JUMPI DUP1 PUSH4 0x7D1D25DB EQ PUSH2 0x2BE JUMPI DUP1 PUSH4 0x7F0AC018 EQ PUSH2 0x2B9 JUMPI DUP1 PUSH4 0x864360AE EQ PUSH2 0x2B4 JUMPI DUP1 PUSH4 0x8DA5CB5B EQ PUSH2 0x2AF JUMPI DUP1 PUSH4 0x95D89B41 EQ PUSH2 0x2AA JUMPI DUP1 PUSH4 0x9BD0E9E9 EQ PUSH2 0x2A5 JUMPI DUP1 PUSH4 0xA22CB465 EQ PUSH2 0x2A0 JUMPI DUP1 PUSH4 0xA5B4CD3C EQ PUSH2 0x29B JUMPI DUP1 PUSH4 0xA7FC7A07 EQ PUSH2 0x296 JUMPI DUP1 PUSH4 0xB61A2AF7 EQ PUSH2 0x291 JUMPI DUP1 PUSH4 0xB88D4FDE EQ PUSH2 0x28C JUMPI DUP1 PUSH4 0xC13AA7B5 EQ PUSH2 0x287 JUMPI DUP1 PUSH4 0xC26E2529 EQ PUSH2 0x282 JUMPI DUP1 PUSH4 0xC3E1B1F0 EQ PUSH2 0x27D JUMPI DUP1 PUSH4 0xC50CD326 EQ PUSH2 0x278 JUMPI DUP1 PUSH4 0xC7432B0E EQ PUSH2 0x273 JUMPI DUP1 PUSH4 0xC803B7ED EQ PUSH2 0x26E JUMPI DUP1 PUSH4 0xC87B56DD EQ PUSH2 0x269 JUMPI DUP1 PUSH4 0xCA0F9FD8 EQ PUSH2 0x264 JUMPI DUP1 PUSH4 0xD19C3104 EQ PUSH2 0x25F JUMPI DUP1 PUSH4 0xE985E9C5 EQ PUSH2 0x25A JUMPI DUP1 PUSH4 0xEB12D61E EQ PUSH2 0x255 JUMPI DUP1 PUSH4 0xF6A74ED7 EQ PUSH2 0x250 JUMPI PUSH4 0xF9F411D8 SUB PUSH2 0xE JUMPI PUSH2 0x1BF6 JUMP JUMPDEST PUSH2 0x1B53 JUMP JUMPDEST PUSH2 0x1A8C JUMP JUMPDEST PUSH2 0x1A2E JUMP JUMPDEST PUSH2 0x19F6 JUMP JUMPDEST PUSH2 0x19D9 JUMP JUMPDEST PUSH2 0x1984 JUMP JUMPDEST PUSH2 0x1799 JUMP JUMPDEST PUSH2 0x175C JUMP JUMPDEST PUSH2 0x16C3 JUMP JUMPDEST PUSH2 0x1658 JUMP JUMPDEST PUSH2 0x14F3 JUMP JUMPDEST PUSH2 0x14B6 JUMP JUMPDEST PUSH2 0x1467 JUMP JUMPDEST PUSH2 0x144A JUMP JUMPDEST PUSH2 0x138E JUMP JUMPDEST PUSH2 0xEA9 JUMP JUMPDEST PUSH2 0x12F1 JUMP JUMPDEST PUSH2 0x123C JUMP JUMPDEST PUSH2 0x1197 JUMP JUMPDEST PUSH2 0x1171 JUMP JUMPDEST PUSH2 0x1157 JUMP JUMPDEST PUSH2 0xFCA JUMP JUMPDEST PUSH2 0xEE1 JUMP JUMPDEST PUSH2 0xE6F JUMP JUMPDEST PUSH2 0xE1E JUMP JUMPDEST PUSH2 0xDFC JUMP JUMPDEST PUSH2 0xDB5 JUMP JUMPDEST PUSH2 0xD86 JUMP JUMPDEST PUSH2 0xD49 JUMP JUMPDEST PUSH2 0xCA1 JUMP JUMPDEST PUSH2 0xC47 JUMP JUMPDEST PUSH2 0xC2A JUMP JUMPDEST PUSH2 0xBF0 JUMP JUMPDEST PUSH2 0xBC1 JUMP JUMPDEST PUSH2 0xB68 JUMP JUMPDEST PUSH2 0xAEA JUMP JUMPDEST PUSH2 0xAD3 JUMP JUMPDEST PUSH2 0xA5F JUMP JUMPDEST PUSH2 0xA42 JUMP JUMPDEST PUSH2 0x9FB JUMP JUMPDEST PUSH2 0x855 JUMP JUMPDEST PUSH2 0x80B JUMP JUMPDEST PUSH2 0x5A5 JUMP JUMPDEST PUSH2 0x528 JUMP JUMPDEST PUSH2 0x451 JUMP JUMPDEST PUSH2 0x3EF JUMP JUMPDEST PUSH2 0x3C0 JUMP JUMPDEST PUSH2 0x352 JUMP JUMPDEST PUSH1 0x1 PUSH1 0x1 PUSH1 0xE0 SHL SUB NOT DUP2 AND SUB PUSH2 0x1B JUMPI JUMP JUMPDEST CALLVALUE PUSH2 0x1B JUMPI PUSH1 0x20 CALLDATASIZE PUSH1 0x3 NOT ADD SLT PUSH2 0x1B JUMPI PUSH1 0x20 PUSH1 0x4 CALLDATALOAD PUSH2 0x371 DUP2 PUSH2 0x340 JUMP JUMPDEST PUSH4 0xFFFFFFFF PUSH1 0xE0 SHL AND PUSH4 0x80AC58CD PUSH1 0xE0 SHL DUP2 EQ SWAP1 DUP2 ISZERO PUSH2 0x3AF JUMPI JUMPDEST DUP2 ISZERO PUSH2 0x39E JUMPI JUMPDEST POP PUSH1 0x40 MLOAD SWAP1 ISZERO ISZERO DUP2 MSTORE RETURN JUMPDEST PUSH4 0x1FFC9A7 PUSH1 0xE0 SHL EQ SWAP1 POP PUSH0 PUSH2 0x393 JUMP JUMPDEST PUSH4 0x5B5E139F PUSH1 0xE0 SHL DUP2 EQ SWAP2 POP PUSH2 0x38C JUMP JUMPDEST CALLVALUE PUSH2 0x1B JUMPI PUSH1 0x20 CALLDATASIZE PUSH1 0x3 NOT ADD SLT PUSH2 0x1B JUMPI PUSH1 0x4 CALLDATALOAD PUSH2 0x3EA PUSH1 0x1 PUSH1 0x1 PUSH1 0xA0 SHL SUB PUSH1 0x9 SLOAD AND CALLER EQ PUSH2 0x1C4B JUMP JUMPDEST PUSH1 0x10 SSTORE STOP JUMPDEST CALLVALUE PUSH2 0x1B JUMPI PUSH1 0x20 CALLDATASIZE PUSH1 0x3 NOT ADD SLT PUSH2 0x1B JUMPI PUSH1 0x4 CALLDATALOAD PUSH0 MSTORE PUSH1 0xC PUSH1 0x20 MSTORE PUSH1 0x20 PUSH1 0x40 PUSH0 KECCAK256 SLOAD PUSH1 0x40 MLOAD SWAP1 DUP2 MSTORE RETURN JUMPDEST DUP1 MLOAD DUP1 DUP4 MSTORE PUSH1 0x20 SWAP3 SWAP2 DUP2 SWAP1 DUP5 ADD DUP5 DUP5 ADD MCOPY PUSH0 DUP3 DUP3 ADD DUP5 ADD MSTORE PUSH1 0x1F ADD PUSH1 0x1F NOT AND ADD ADD SWAP1 JUMP JUMPDEST SWAP1 PUSH1 0x20 PUSH2 0x44E SWAP3 DUP2 DUP2 MSTORE ADD SWAP1 PUSH2 0x419 JUMP JUMPDEST SWAP1 JUMP JUMPDEST CALLVALUE PUSH2 0x1B JUMPI PUSH0 CALLDATASIZE PUSH1 0x3 NOT ADD SLT PUSH2 0x1B JUMPI PUSH1 0x40 MLOAD PUSH0 PUSH0 SLOAD PUSH2 0x470 DUP2 PUSH2 0x1530 JUMP JUMPDEST DUP1 DUP5 MSTORE SWAP1 PUSH1 0x1 DUP2 AND SWAP1 DUP2 ISZERO PUSH2 0x504 JUMPI POP PUSH1 0x1 EQ PUSH2 0x4A8 JUMPI JUMPDEST PUSH2 0x4A4 DUP4 PUSH2 0x498 DUP2 DUP6 SUB DUP3 PUSH2 0x6DC JUMP JUMPDEST PUSH1 0x40 MLOAD SWAP2 DUP3 SWAP2 DUP3 PUSH2 0x43D JUMP JUMPDEST SUB SWAP1 RETURN JUMPDEST PUSH0 DUP1 DUP1 MSTORE PUSH32 0x290DECD9548B62A8D60345A988386FC84BA6BC95484008F6362F93160EF3E563 SWAP4 SWAP3 POP SWAP1 JUMPDEST DUP1 DUP3 LT PUSH2 0x4EA JUMPI POP SWAP1 SWAP2 POP DUP2 ADD PUSH1 0x20 ADD PUSH2 0x498 PUSH2 0x488 JUMP JUMPDEST SWAP2 SWAP3 PUSH1 0x1 DUP2 PUSH1 0x20 SWAP3 SLOAD DUP4 DUP6 DUP9 ADD ADD MSTORE ADD SWAP2 ADD SWAP1 SWAP3 SWAP2 PUSH2 0x4D2 JUMP JUMPDEST PUSH1 0xFF NOT AND PUSH1 0x20 DUP1 DUP7 ADD SWAP2 SWAP1 SWAP2 MSTORE SWAP2 ISZERO ISZERO PUSH1 0x5 SHL DUP5 ADD SWAP1 SWAP2 ADD SWAP2 POP PUSH2 0x498 SWAP1 POP PUSH2 0x488 JUMP JUMPDEST CALLVALUE PUSH2 0x1B JUMPI PUSH1 0x20 CALLDATASIZE PUSH1 0x3 NOT ADD SLT PUSH2 0x1B JUMPI PUSH1 0x4 CALLDATALOAD PUSH2 0x545 DUP2 PUSH2 0x2762 JUMP JUMPDEST POP PUSH0 MSTORE PUSH1 0x4 PUSH1 0x20 MSTORE PUSH1 0x20 PUSH1 0x1 PUSH1 0x1 PUSH1 0xA0 SHL SUB PUSH1 0x40 PUSH0 KECCAK256 SLOAD AND PUSH1 0x40 MLOAD SWAP1 DUP2 MSTORE RETURN JUMPDEST PUSH1 0x4 CALLDATALOAD SWAP1 PUSH1 0x1 PUSH1 0x1 PUSH1 0xA0 SHL SUB DUP3 AND DUP3 SUB PUSH2 0x1B JUMPI JUMP JUMPDEST PUSH1 0x24 CALLDATALOAD SWAP1 PUSH1 0x1 PUSH1 0x1 PUSH1 0xA0 SHL SUB DUP3 AND DUP3 SUB PUSH2 0x1B JUMPI JUMP JUMPDEST CALLDATALOAD SWAP1 PUSH1 0x1 PUSH1 0x1 PUSH1 0xA0 SHL SUB DUP3 AND DUP3 SUB PUSH2 0x1B JUMPI JUMP JUMPDEST CALLVALUE PUSH2 0x1B JUMPI PUSH1 0x40 CALLDATASIZE PUSH1 0x3 NOT ADD SLT PUSH2 0x1B JUMPI PUSH2 0x5BE PUSH2 0x565 JUMP JUMPDEST PUSH1 0x24 CALLDATALOAD SWAP1 PUSH2 0x5CB DUP3 PUSH2 0x2762 JUMP JUMPDEST CALLER ISZERO ISZERO DUP1 PUSH2 0x694 JUMPI JUMPDEST DUP1 PUSH2 0x654 JUMPI JUMPDEST PUSH2 0x641 JUMPI DUP3 PUSH2 0x1F SWAP4 PUSH2 0x626 SWAP3 PUSH1 0x1 PUSH1 0x1 PUSH1 0xA0 SHL SUB DUP1 DUP7 AND SWAP2 AND PUSH32 0x8C5BE1E5EBEC7D5BD14F71427D1E84F3DD0314C0F7B2291E5B200AC8C7C3B925 PUSH0 DUP1 LOG4 PUSH0 MSTORE PUSH1 0x4 PUSH1 0x20 MSTORE PUSH1 0x40 PUSH0 KECCAK256 SWAP1 JUMP JUMPDEST SWAP1 PUSH1 0x1 PUSH1 0x1 PUSH1 0xA0 SHL SUB AND PUSH1 0x1 PUSH1 0x1 PUSH1 0xA0 SHL SUB NOT DUP3 SLOAD AND OR SWAP1 SSTORE JUMP JUMPDEST PUSH4 0xA9FBF51F PUSH1 0xE0 SHL PUSH0 MSTORE CALLER PUSH1 0x4 MSTORE PUSH1 0x24 PUSH0 REVERT JUMPDEST POP PUSH1 0xFF PUSH2 0x68C CALLER PUSH2 0x676 DUP5 PUSH1 0x1 PUSH1 0x1 PUSH1 0xA0 SHL SUB AND PUSH0 MSTORE PUSH1 0x5 PUSH1 0x20 MSTORE PUSH1 0x40 PUSH0 KECCAK256 SWAP1 JUMP JUMPDEST SWAP1 PUSH1 0x1 PUSH1 0x1 PUSH1 0xA0 SHL SUB AND PUSH0 MSTORE PUSH1 0x20 MSTORE PUSH1 0x40 PUSH0 KECCAK256 SWAP1 JUMP JUMPDEST SLOAD AND ISZERO PUSH2 0x5DA JUMP JUMPDEST POP CALLER PUSH1 0x1 PUSH1 0x1 PUSH1 0xA0 SHL SUB DUP3 AND EQ ISZERO PUSH2 0x5D4 JUMP JUMPDEST PUSH4 0x4E487B71 PUSH1 0xE0 SHL PUSH0 MSTORE PUSH1 0x41 PUSH1 0x4 MSTORE PUSH1 0x24 PUSH0 REVERT JUMPDEST PUSH1 0xE0 DUP2 ADD SWAP1 DUP2 LT PUSH8 0xFFFFFFFFFFFFFFFF DUP3 GT OR PUSH2 0x6D7 JUMPI PUSH1 0x40 MSTORE JUMP JUMPDEST PUSH2 0x6A7 JUMP JUMPDEST SWAP1 PUSH1 0x1F DUP1 NOT SWAP2 ADD AND DUP2 ADD SWAP1 DUP2 LT PUSH8 0xFFFFFFFFFFFFFFFF DUP3 GT OR PUSH2 0x6D7 JUMPI PUSH1 0x40 MSTORE JUMP JUMPDEST PUSH1 0x40 MLOAD SWAP1 PUSH2 0x70D PUSH1 0xE0 DUP4 PUSH2 0x6DC JUMP JUMPDEST JUMP JUMPDEST PUSH8 0xFFFFFFFFFFFFFFFF DUP2 GT PUSH2 0x6D7 JUMPI PUSH1 0x1F ADD PUSH1 0x1F NOT AND PUSH1 0x20 ADD SWAP1 JUMP JUMPDEST DUP2 PUSH1 0x1F DUP3 ADD SLT ISZERO PUSH2 0x1B JUMPI PUSH1 0x20 DUP2 CALLDATALOAD SWAP2 ADD PUSH2 0x745 DUP3 PUSH2 0x70F JUMP JUMPDEST SWAP3 PUSH2 0x753 PUSH1 0x40 MLOAD SWAP5 DUP6 PUSH2 0x6DC JUMP JUMPDEST DUP3 DUP5 MSTORE DUP3 DUP3 ADD GT PUSH2 0x1B JUMPI DUP2 PUSH0 SWAP3 PUSH1 0x20 SWAP3 DUP4 DUP7 ADD CALLDATACOPY DUP4 ADD ADD MSTORE SWAP1 JUMP JUMPDEST SWAP2 SWAP1 SWAP2 PUSH1 0xE0 DUP2 DUP5 SUB SLT PUSH2 0x1B JUMPI PUSH2 0x784 PUSH2 0x6FE JUMP JUMPDEST SWAP3 DUP2 CALLDATALOAD DUP5 MSTORE PUSH1 0x20 DUP3 ADD CALLDATALOAD PUSH1 0x20 DUP6 ADD MSTORE PUSH1 0x40 DUP3 ADD CALLDATALOAD PUSH8 0xFFFFFFFFFFFFFFFF DUP2 GT PUSH2 0x1B JUMPI DUP2 PUSH2 0x7B3 SWAP2 DUP5 ADD PUSH2 0x72B JUMP JUMPDEST PUSH1 0x40 DUP6 ADD MSTORE PUSH1 0x60 DUP3 ADD CALLDATALOAD SWAP2 PUSH8 0xFFFFFFFFFFFFFFFF DUP4 GT PUSH2 0x1B JUMPI PUSH2 0x7DE PUSH1 0xC0 SWAP3 PUSH2 0x804 SWAP5 DUP4 ADD PUSH2 0x72B JUMP JUMPDEST PUSH1 0x60 DUP7 ADD MSTORE PUSH1 0x80 DUP2 ADD CALLDATALOAD PUSH1 0x80 DUP7 ADD MSTORE PUSH2 0x7F9 PUSH1 0xA0 DUP3 ADD PUSH2 0x591 JUMP JUMPDEST PUSH1 0xA0 DUP7 ADD MSTORE ADD PUSH2 0x591 JUMP JUMPDEST PUSH1 0xC0 DUP4 ADD MSTORE JUMP JUMPDEST CALLVALUE PUSH2 0x1B JUMPI PUSH1 0x60 CALLDATASIZE PUSH1 0x3 NOT ADD SLT PUSH2 0x1B JUMPI PUSH1 0x4 CALLDATALOAD PUSH8 0xFFFFFFFFFFFFFFFF DUP2 GT PUSH2 0x1B JUMPI PUSH2 0x84D PUSH2 0x841 PUSH1 0x20 SWAP3 CALLDATASIZE SWAP1 PUSH1 0x4 ADD PUSH2 0x76F JUMP JUMPDEST PUSH1 0x24 CALLDATALOAD PUSH1 0x44 CALLDATALOAD SWAP2 PUSH2 0x1C83 JUMP JUMPDEST PUSH1 0x40 MLOAD SWAP1 DUP2 MSTORE RETURN JUMPDEST CALLVALUE PUSH2 0x1B JUMPI PUSH1 0x20 CALLDATASIZE PUSH1 0x3 NOT ADD SLT PUSH2 0x1B JUMPI PUSH2 0x86E PUSH2 0x565 JUMP JUMPDEST PUSH2 0x884 PUSH1 0x1 PUSH1 0x1 PUSH1 0xA0 SHL SUB PUSH1 0x9 SLOAD AND CALLER EQ PUSH2 0x1C4B JUMP JUMPDEST PUSH1 0x1 PUSH1 0x1 PUSH1 0xA0 SHL SUB DUP2 AND PUSH0 MSTORE PUSH1 0x7 PUSH1 0x20 MSTORE PUSH1 0xFF PUSH1 0x40 PUSH0 KECCAK256 SLOAD AND ISZERO PUSH2 0x998 JUMPI PUSH2 0x93F DUP2 PUSH2 0x8C2 PUSH0 SWAP4 PUSH1 0x1 PUSH1 0x1 PUSH1 0xA0 SHL SUB AND PUSH0 MSTORE PUSH1 0x8 PUSH1 0x20 MSTORE PUSH1 0x40 PUSH0 KECCAK256 SWAP1 JUMP JUMPDEST SLOAD PUSH2 0x8D1 PUSH1 0x6 SLOAD DUP1 SWAP3 LT PUSH2 0x1D67 JUMP JUMPDEST PUSH2 0x8F6 PUSH2 0x8EF DUP4 PUSH1 0x1 PUSH1 0x1 PUSH1 0xA0 SHL SUB AND PUSH0 MSTORE PUSH1 0x8 PUSH1 0x20 MSTORE PUSH1 0x40 PUSH0 KECCAK256 SWAP1 JUMP JUMPDEST SLOAD SWAP2 PUSH2 0x1DC7 JUMP JUMPDEST DUP1 DUP3 SUB PUSH2 0x942 JUMPI JUMPDEST POP POP PUSH2 0x928 PUSH2 0x91E DUP3 PUSH1 0x1 PUSH1 0x1 PUSH1 0xA0 SHL SUB AND PUSH0 MSTORE PUSH1 0x7 PUSH1 0x20 MSTORE PUSH1 0x40 PUSH0 KECCAK256 SWAP1 JUMP JUMPDEST DUP1 SLOAD PUSH1 0xFF NOT AND SWAP1 SSTORE JUMP JUMPDEST PUSH1 0x1 PUSH1 0x1 PUSH1 0xA0 SHL SUB AND PUSH0 MSTORE PUSH1 0x8 PUSH1 0x20 MSTORE PUSH1 0x40 PUSH0 KECCAK256 SWAP1 JUMP JUMPDEST SSTORE STOP JUMPDEST PUSH2 0x964 PUSH2 0x951 PUSH2 0x990 SWAP3 PUSH2 0xB36 JUMP JUMPDEST SWAP1 SLOAD PUSH1 0x1 PUSH1 0x1 PUSH1 0xA0 SHL SUB SWAP2 PUSH1 0x3 SHL SHR AND SWAP1 JUMP JUMPDEST PUSH2 0x928 DUP2 PUSH2 0x971 DUP6 PUSH2 0xB36 JUMP JUMPDEST SWAP1 SWAP2 SWAP1 PUSH1 0x1 PUSH1 0x1 PUSH1 0xA0 SHL SUB DUP1 DUP5 SLOAD SWAP3 PUSH1 0x3 SHL SWAP4 AND DUP4 SHL SWAP3 SHL NOT AND OR SWAP1 SSTORE JUMP JUMPDEST SSTORE PUSH0 DUP1 PUSH2 0x8FE JUMP JUMPDEST PUSH1 0x40 MLOAD PUSH3 0x461BCD PUSH1 0xE5 SHL DUP2 MSTORE PUSH1 0x20 PUSH1 0x4 DUP3 ADD MSTORE PUSH1 0xC PUSH1 0x24 DUP3 ADD MSTORE PUSH12 0x139BDB88195E1A5CDD195B9D PUSH1 0xA2 SHL PUSH1 0x44 DUP3 ADD MSTORE PUSH1 0x64 SWAP1 REVERT JUMPDEST PUSH1 0x40 SWAP1 PUSH1 0x3 NOT ADD SLT PUSH2 0x1B JUMPI PUSH1 0x4 CALLDATALOAD PUSH1 0x1 PUSH1 0x1 PUSH1 0xA0 SHL SUB DUP2 AND DUP2 SUB PUSH2 0x1B JUMPI SWAP1 PUSH1 0x24 CALLDATALOAD DUP1 ISZERO ISZERO DUP2 SUB PUSH2 0x1B JUMPI SWAP1 JUMP JUMPDEST CALLVALUE PUSH2 0x1B JUMPI PUSH2 0x1F PUSH1 0x1 PUSH1 0x1 PUSH1 0xA0 SHL SUB PUSH2 0xA14 CALLDATASIZE PUSH2 0x9CC JUMP JUMPDEST SWAP2 SWAP1 PUSH2 0xA25 DUP3 PUSH1 0x9 SLOAD AND CALLER EQ PUSH2 0x1C4B JUMP JUMPDEST AND PUSH0 MSTORE PUSH1 0x7 PUSH1 0x20 MSTORE PUSH1 0x40 PUSH0 KECCAK256 SWAP1 PUSH1 0xFF DUP1 NOT DUP4 SLOAD AND SWAP2 ISZERO ISZERO AND OR SWAP1 SSTORE JUMP JUMPDEST CALLVALUE PUSH2 0x1B JUMPI PUSH0 CALLDATASIZE PUSH1 0x3 NOT ADD SLT PUSH2 0x1B JUMPI PUSH1 0x20 PUSH1 0xF SLOAD PUSH1 0x40 MLOAD SWAP1 DUP2 MSTORE RETURN JUMPDEST CALLVALUE PUSH2 0x1B JUMPI PUSH0 CALLDATASIZE PUSH1 0x3 NOT ADD SLT PUSH2 0x1B JUMPI PUSH1 0x20 PUSH1 0x40 MLOAD PUSH32 0x8B73C3C69BB8FE3D512ECC4CF759CC79239F7B179B0FFACAA9A75D522B39400F DUP2 MSTORE RETURN JUMPDEST PUSH1 0x60 SWAP1 PUSH1 0x3 NOT ADD SLT PUSH2 0x1B JUMPI PUSH1 0x4 CALLDATALOAD PUSH1 0x1 PUSH1 0x1 PUSH1 0xA0 SHL SUB DUP2 AND DUP2 SUB PUSH2 0x1B JUMPI SWAP1 PUSH1 0x24 CALLDATALOAD PUSH1 0x1 PUSH1 0x1 PUSH1 0xA0 SHL SUB DUP2 AND DUP2 SUB PUSH2 0x1B JUMPI SWAP1 PUSH1 0x44 CALLDATALOAD SWAP1 JUMP JUMPDEST CALLVALUE PUSH2 0x1B JUMPI PUSH2 0x1F PUSH2 0xAE4 CALLDATASIZE PUSH2 0xA99 JUMP JUMPDEST SWAP2 PUSH2 0x1DE7 JUMP JUMPDEST CALLVALUE PUSH2 0x1B JUMPI PUSH1 0x20 CALLDATASIZE PUSH1 0x3 NOT ADD SLT PUSH2 0x1B JUMPI PUSH1 0x1 PUSH1 0x1 PUSH1 0xA0 SHL SUB PUSH2 0xB0B PUSH2 0x565 JUMP JUMPDEST AND PUSH0 MSTORE PUSH1 0x15 PUSH1 0x20 MSTORE PUSH1 0x20 PUSH1 0x40 PUSH0 KECCAK256 SLOAD PUSH1 0x40 MLOAD SWAP1 DUP2 MSTORE RETURN JUMPDEST PUSH4 0x4E487B71 PUSH1 0xE0 SHL PUSH0 MSTORE PUSH1 0x32 PUSH1 0x4 MSTORE PUSH1 0x24 PUSH0 REVERT JUMPDEST PUSH1 0x6 SLOAD DUP2 LT ISZERO PUSH2 0xB4E JUMPI PUSH1 0x6 PUSH0 MSTORE PUSH1 0x20 PUSH0 KECCAK256 ADD SWAP1 PUSH0 SWAP1 JUMP JUMPDEST PUSH2 0xB22 JUMP JUMPDEST DUP1 SLOAD DUP3 LT ISZERO PUSH2 0xB4E JUMPI PUSH0 MSTORE PUSH1 0x20 PUSH0 KECCAK256 ADD SWAP1 PUSH0 SWAP1 JUMP JUMPDEST CALLVALUE PUSH2 0x1B JUMPI PUSH1 0x20 CALLDATASIZE PUSH1 0x3 NOT ADD SLT PUSH2 0x1B JUMPI PUSH1 0x4 CALLDATALOAD PUSH1 0x6 SLOAD DUP2 LT ISZERO PUSH2 0x1B JUMPI PUSH1 0x1 PUSH1 0x1 PUSH1 0xA0 SHL SUB PUSH1 0x20 SWAP2 PUSH1 0x6 PUSH0 MSTORE PUSH32 0xF652222313E28459528D920B65115C16C04F3EFC82AAEDC97BE59F3F377C0D3F ADD SLOAD AND PUSH1 0x40 MLOAD SWAP1 DUP2 MSTORE RETURN JUMPDEST CALLVALUE PUSH2 0x1B JUMPI PUSH1 0x20 CALLDATASIZE PUSH1 0x3 NOT ADD SLT PUSH2 0x1B JUMPI PUSH1 0x4 CALLDATALOAD PUSH2 0xBEB PUSH1 0x1 PUSH1 0x1 PUSH1 0xA0 SHL SUB PUSH1 0x9 SLOAD AND CALLER EQ PUSH2 0x1C4B JUMP JUMPDEST PUSH1 0xD SSTORE STOP JUMPDEST CALLVALUE PUSH2 0x1B JUMPI PUSH0 CALLDATASIZE PUSH1 0x3 NOT ADD SLT PUSH2 0x1B JUMPI PUSH1 0x20 PUSH1 0x40 MLOAD PUSH32 0x0 DUP2 MSTORE RETURN JUMPDEST CALLVALUE PUSH2 0x1B JUMPI PUSH0 CALLDATASIZE PUSH1 0x3 NOT ADD SLT PUSH2 0x1B JUMPI PUSH1 0x20 PUSH1 0x10 SLOAD PUSH1 0x40 MLOAD SWAP1 DUP2 MSTORE RETURN JUMPDEST CALLVALUE PUSH2 0x1B JUMPI PUSH2 0x1F PUSH2 0xC58 CALLDATASIZE PUSH2 0xA99 JUMP JUMPDEST SWAP1 PUSH1 0x40 MLOAD SWAP3 PUSH2 0xC68 PUSH1 0x20 DUP6 PUSH2 0x6DC JUMP JUMPDEST PUSH0 DUP5 MSTORE PUSH2 0x226C JUMP JUMPDEST SWAP2 DUP2 PUSH1 0x1F DUP5 ADD SLT ISZERO PUSH2 0x1B JUMPI DUP3 CALLDATALOAD SWAP2 PUSH8 0xFFFFFFFFFFFFFFFF DUP4 GT PUSH2 0x1B JUMPI PUSH1 0x20 DUP1 DUP6 ADD SWAP5 DUP5 PUSH1 0x5 SHL ADD ADD GT PUSH2 0x1B JUMPI JUMP JUMPDEST CALLVALUE PUSH2 0x1B JUMPI PUSH1 0xC0 CALLDATASIZE PUSH1 0x3 NOT ADD SLT PUSH2 0x1B JUMPI PUSH1 0x4 CALLDATALOAD PUSH8 0xFFFFFFFFFFFFFFFF DUP2 GT PUSH2 0x1B JUMPI PUSH2 0xCD2 SWAP1 CALLDATASIZE SWAP1 PUSH1 0x4 ADD PUSH2 0x76F JUMP JUMPDEST PUSH1 0x24 CALLDATALOAD PUSH1 0x44 CALLDATALOAD SWAP2 PUSH1 0x64 CALLDATALOAD PUSH8 0xFFFFFFFFFFFFFFFF DUP2 GT PUSH2 0x1B JUMPI PUSH2 0xCF9 SWAP1 CALLDATASIZE SWAP1 PUSH1 0x4 ADD PUSH2 0xC70 JUMP JUMPDEST SWAP1 PUSH1 0x84 CALLDATALOAD PUSH8 0xFFFFFFFFFFFFFFFF DUP2 GT PUSH2 0x1B JUMPI PUSH2 0xD1A SWAP1 CALLDATASIZE SWAP1 PUSH1 0x4 ADD PUSH2 0xC70 JUMP JUMPDEST SWAP3 SWAP1 SWAP2 PUSH1 0xA4 CALLDATALOAD SWAP7 PUSH8 0xFFFFFFFFFFFFFFFF DUP9 GT PUSH2 0x1B JUMPI PUSH2 0xD41 PUSH2 0x1F SWAP9 CALLDATASIZE SWAP1 PUSH1 0x4 ADD PUSH2 0xC70 JUMP JUMPDEST SWAP8 SWAP1 SWAP7 PUSH2 0x1F54 JUMP JUMPDEST CALLVALUE PUSH2 0x1B JUMPI PUSH1 0x20 CALLDATASIZE PUSH1 0x3 NOT ADD SLT PUSH2 0x1B JUMPI PUSH1 0x1 PUSH1 0x1 PUSH1 0xA0 SHL SUB PUSH2 0xD6A PUSH2 0x565 JUMP JUMPDEST AND PUSH0 MSTORE PUSH1 0x12 PUSH1 0x20 MSTORE PUSH1 0x20 PUSH1 0xFF PUSH1 0x40 PUSH0 KECCAK256 SLOAD AND PUSH1 0x40 MLOAD SWAP1 ISZERO ISZERO DUP2 MSTORE RETURN JUMPDEST CALLVALUE PUSH2 0x1B JUMPI PUSH1 0x20 CALLDATASIZE PUSH1 0x3 NOT ADD SLT PUSH2 0x1B JUMPI PUSH1 0x20 PUSH2 0xDA4 PUSH1 0x4 CALLDATALOAD PUSH2 0x2762 JUMP JUMPDEST PUSH1 0x1 PUSH1 0x1 PUSH1 0xA0 SHL SUB PUSH1 0x40 MLOAD SWAP2 AND DUP2 MSTORE RETURN JUMPDEST CALLVALUE PUSH2 0x1B JUMPI PUSH2 0x1F PUSH1 0x1 PUSH1 0x1 PUSH1 0xA0 SHL SUB PUSH2 0xDCE CALLDATASIZE PUSH2 0x9CC JUMP JUMPDEST SWAP2 SWAP1 PUSH2 0xDDF DUP3 PUSH1 0x9 SLOAD AND CALLER EQ PUSH2 0x1C4B JUMP JUMPDEST AND PUSH0 MSTORE PUSH1 0x12 PUSH1 0x20 MSTORE PUSH1 0x40 PUSH0 KECCAK256 SWAP1 PUSH1 0xFF DUP1 NOT DUP4 SLOAD AND SWAP2 ISZERO ISZERO AND OR SWAP1 SSTORE JUMP JUMPDEST CALLVALUE PUSH2 0x1B JUMPI PUSH0 CALLDATASIZE PUSH1 0x3 NOT ADD SLT PUSH2 0x1B JUMPI PUSH1 0x20 PUSH1 0xFF PUSH1 0x11 SLOAD AND PUSH1 0x40 MLOAD SWAP1 ISZERO ISZERO DUP2 MSTORE RETURN JUMPDEST CALLVALUE PUSH2 0x1B JUMPI PUSH1 0x20 CALLDATASIZE PUSH1 0x3 NOT ADD SLT PUSH2 0x1B JUMPI PUSH1 0x1 PUSH1 0x1 PUSH1 0xA0 SHL SUB PUSH2 0xE3F PUSH2 0x565 JUMP JUMPDEST AND DUP1 ISZERO PUSH2 0xE5C JUMPI PUSH0 MSTORE PUSH1 0x3 PUSH1 0x20 MSTORE PUSH1 0x20 PUSH1 0x40 PUSH0 KECCAK256 SLOAD PUSH1 0x40 MLOAD SWAP1 DUP2 MSTORE RETURN JUMPDEST PUSH4 0x22718AD9 PUSH1 0xE2 SHL PUSH0 MSTORE PUSH0 PUSH1 0x4 MSTORE PUSH1 0x24 PUSH0 REVERT JUMPDEST CALLVALUE PUSH2 0x1B JUMPI PUSH0 CALLDATASIZE PUSH1 0x3 NOT ADD SLT PUSH2 0x1B JUMPI PUSH1 0x20 PUSH1 0x40 MLOAD PUSH32 0x558DF9F1711C6650EA151CA581E5CDF95E95FEEBD67B3F74B5B7D9976B3414A1 DUP2 MSTORE RETURN JUMPDEST CALLVALUE PUSH2 0x1B JUMPI PUSH1 0x20 CALLDATASIZE PUSH1 0x3 NOT ADD SLT PUSH2 0x1B JUMPI PUSH1 0x1 PUSH1 0x1 PUSH1 0xA0 SHL SUB PUSH2 0xECA PUSH2 0x565 JUMP JUMPDEST AND PUSH0 MSTORE PUSH1 0x14 PUSH1 0x20 MSTORE PUSH1 0x20 PUSH1 0x40 PUSH0 KECCAK256 SLOAD PUSH1 0x40 MLOAD SWAP1 DUP2 MSTORE RETURN JUMPDEST CALLVALUE PUSH2 0x1B JUMPI PUSH1 0x20 CALLDATASIZE PUSH1 0x3 NOT ADD SLT PUSH2 0x1B JUMPI PUSH1 0x4 CALLDATALOAD PUSH2 0xF0B PUSH1 0x1 PUSH1 0x1 PUSH1 0xA0 SHL SUB PUSH1 0x9 SLOAD AND CALLER EQ PUSH2 0x1C4B JUMP JUMPDEST PUSH1 0xF SSTORE STOP JUMPDEST PUSH1 0x20 DUP2 ADD PUSH1 0x20 DUP3 MSTORE DUP3 MLOAD DUP1 SWAP2 MSTORE PUSH1 0x40 DUP3 ADD SWAP2 PUSH1 0x20 PUSH1 0x40 DUP4 PUSH1 0x5 SHL DUP4 ADD ADD SWAP5 ADD SWAP3 PUSH0 SWAP2 JUMPDEST DUP4 DUP4 LT PUSH2 0xF42 JUMPI POP POP POP POP POP SWAP1 JUMP JUMPDEST SWAP1 SWAP2 SWAP3 SWAP4 SWAP5 PUSH1 0x20 DUP1 PUSH1 0x1 SWAP3 PUSH1 0x3F NOT DUP6 DUP3 SUB ADD DUP7 MSTORE DUP9 MLOAD SWAP1 DUP2 MLOAD DUP2 MSTORE DUP3 DUP3 ADD MLOAD DUP4 DUP3 ADD MSTORE PUSH1 0xC0 PUSH1 0x1 PUSH1 0x1 PUSH1 0xA0 SHL SUB DUP2 PUSH2 0xF9E PUSH2 0xF8C PUSH1 0x40 DUP8 ADD MLOAD PUSH1 0xE0 PUSH1 0x40 DUP9 ADD MSTORE PUSH1 0xE0 DUP8 ADD SWAP1 PUSH2 0x419 JUMP JUMPDEST PUSH1 0x60 DUP8 ADD MLOAD DUP7 DUP3 SUB PUSH1 0x60 DUP9 ADD MSTORE PUSH2 0x419 JUMP JUMPDEST SWAP5 PUSH1 0x80 DUP2 ADD MLOAD PUSH1 0x80 DUP7 ADD MSTORE DUP3 PUSH1 0xA0 DUP3 ADD MLOAD AND PUSH1 0xA0 DUP7 ADD MSTORE ADD MLOAD AND SWAP2 ADD MSTORE SWAP8 ADD SWAP4 ADD SWAP4 ADD SWAP2 SWAP4 SWAP3 SWAP1 PUSH2 0xF33 JUMP JUMPDEST CALLVALUE PUSH2 0x1B JUMPI PUSH1 0x20 CALLDATASIZE PUSH1 0x3 NOT ADD SLT PUSH2 0x1B JUMPI PUSH1 0x1 PUSH1 0x1 PUSH1 0xA0 SHL SUB PUSH2 0xFEB PUSH2 0x565 JUMP JUMPDEST AND PUSH0 MSTORE PUSH1 0xB PUSH1 0x20 MSTORE PUSH1 0x40 PUSH0 KECCAK256 PUSH1 0x40 MLOAD DUP1 DUP3 PUSH1 0x20 DUP3 SWAP5 SLOAD SWAP4 DUP5 DUP2 MSTORE ADD SWAP1 PUSH0 MSTORE PUSH1 0x20 PUSH0 KECCAK256 SWAP3 PUSH0 JUMPDEST DUP2 DUP2 LT PUSH2 0x108C JUMPI POP POP PUSH2 0x1025 SWAP3 POP SUB DUP3 PUSH2 0x6DC JUMP JUMPDEST PUSH2 0x102F DUP2 MLOAD PUSH2 0x215A JUMP JUMPDEST SWAP1 PUSH0 JUMPDEST DUP2 MLOAD DUP2 LT ISZERO PUSH2 0x107E JUMPI DUP1 PUSH2 0x1062 PUSH2 0x105D PUSH2 0x104E PUSH1 0x1 SWAP5 DUP7 PUSH2 0x21D4 JUMP JUMPDEST MLOAD PUSH0 MSTORE PUSH1 0x13 PUSH1 0x20 MSTORE PUSH1 0x40 PUSH0 KECCAK256 SWAP1 JUMP JUMPDEST PUSH2 0x21E8 JUMP JUMPDEST PUSH2 0x106C DUP3 DUP7 PUSH2 0x21D4 JUMP JUMPDEST MSTORE PUSH2 0x1077 DUP2 DUP6 PUSH2 0x21D4 JUMP JUMPDEST POP ADD PUSH2 0x1032 JUMP JUMPDEST PUSH1 0x40 MLOAD DUP1 PUSH2 0x4A4 DUP6 DUP3 PUSH2 0xF10 JUMP JUMPDEST DUP5 SLOAD DUP4 MSTORE PUSH1 0x1 SWAP5 DUP6 ADD SWAP5 DUP7 SWAP5 POP PUSH1 0x20 SWAP1 SWAP4 ADD SWAP3 ADD PUSH2 0x1010 JUMP JUMPDEST PUSH1 0x40 MLOAD PUSH1 0x20 DUP2 ADD SWAP1 PUSH32 0x536372697074696F6E546F4E46542875696E7432353620636861696E49642C73 DUP3 MSTORE PUSH32 0x7472696E67207469636B2C737472696E672070726F746F636F6C2C6164647265 PUSH1 0x40 DUP3 ADD MSTORE PUSH32 0x7373206F776E65722C75696E7432353620616D6F756E742C75696E7432353620 PUSH1 0x60 DUP3 ADD MSTORE PUSH32 0x6E6F6E63652C75696E7432353620626C6F636B48656967687429000000000000 PUSH1 0x80 DUP3 ADD MSTORE PUSH1 0x7A DUP2 MSTORE PUSH2 0x1151 PUSH1 0x9A DUP3 PUSH2 0x6DC JUMP JUMPDEST MLOAD SWAP1 KECCAK256 SWAP1 JUMP JUMPDEST CALLVALUE PUSH2 0x1B JUMPI PUSH0 CALLDATASIZE PUSH1 0x3 NOT ADD SLT PUSH2 0x1B JUMPI PUSH1 0x20 PUSH2 0x84D PUSH2 0x10A5 JUMP JUMPDEST CALLVALUE PUSH2 0x1B JUMPI PUSH0 CALLDATASIZE PUSH1 0x3 NOT ADD SLT PUSH2 0x1B JUMPI PUSH1 0x20 PUSH1 0x1 PUSH1 0x1 PUSH1 0xA0 SHL SUB PUSH1 0x9 SLOAD AND PUSH1 0x40 MLOAD SWAP1 DUP2 MSTORE RETURN JUMPDEST CALLVALUE PUSH2 0x1B JUMPI PUSH0 CALLDATASIZE PUSH1 0x3 NOT ADD SLT PUSH2 0x1B JUMPI PUSH1 0x40 MLOAD PUSH0 PUSH1 0x1 SLOAD PUSH2 0x11B7 DUP2 PUSH2 0x1530 JUMP JUMPDEST DUP1 DUP5 MSTORE SWAP1 PUSH1 0x1 DUP2 AND SWAP1 DUP2 ISZERO PUSH2 0x504 JUMPI POP PUSH1 0x1 EQ PUSH2 0x11DE JUMPI PUSH2 0x4A4 DUP4 PUSH2 0x498 DUP2 DUP6 SUB DUP3 PUSH2 0x6DC JUMP JUMPDEST PUSH1 0x1 PUSH0 SWAP1 DUP2 MSTORE PUSH32 0xB10E2D527612073B26EECDFD717E6A320CF44B4AFAC2B0732D9FCBE2B7FA0CF6 SWAP4 SWAP3 POP SWAP1 JUMPDEST DUP1 DUP3 LT PUSH2 0x1222 JUMPI POP SWAP1 SWAP2 POP DUP2 ADD PUSH1 0x20 ADD PUSH2 0x498 PUSH2 0x488 JUMP JUMPDEST SWAP2 SWAP3 PUSH1 0x1 DUP2 PUSH1 0x20 SWAP3 SLOAD DUP4 DUP6 DUP9 ADD ADD MSTORE ADD SWAP2 ADD SWAP1 SWAP3 SWAP2 PUSH2 0x120A JUMP JUMPDEST CALLVALUE PUSH2 0x1B JUMPI PUSH1 0x20 CALLDATASIZE PUSH1 0x3 NOT ADD SLT PUSH2 0x1B JUMPI PUSH1 0x4 CALLDATALOAD PUSH8 0xFFFFFFFFFFFFFFFF DUP2 GT PUSH2 0x1B JUMPI PUSH2 0x126D SWAP1 CALLDATASIZE SWAP1 PUSH1 0x4 ADD PUSH2 0x72B JUMP JUMPDEST PUSH1 0x41 DUP2 MLOAD SUB PUSH2 0x12AC JUMPI PUSH1 0x20 DUP2 ADD MLOAD PUSH2 0x4A4 PUSH1 0x60 PUSH1 0x40 DUP5 ADD MLOAD SWAP4 ADD MLOAD PUSH0 BYTE PUSH1 0x40 MLOAD SWAP4 DUP5 SWAP4 DUP5 SWAP2 PUSH1 0x40 SWAP2 SWAP5 SWAP4 PUSH1 0xFF SWAP2 PUSH1 0x60 DUP6 ADD SWAP7 DUP6 MSTORE PUSH1 0x20 DUP6 ADD MSTORE AND SWAP2 ADD MSTORE JUMP JUMPDEST PUSH1 0x40 MLOAD PUSH3 0x461BCD PUSH1 0xE5 SHL DUP2 MSTORE PUSH1 0x20 PUSH1 0x4 DUP3 ADD MSTORE PUSH1 0x10 PUSH1 0x24 DUP3 ADD MSTORE PUSH32 0x5369676E6174757265496E76616C696400000000000000000000000000000000 PUSH1 0x44 DUP3 ADD MSTORE PUSH1 0x64 SWAP1 REVERT JUMPDEST CALLVALUE PUSH2 0x1B JUMPI PUSH2 0x12FF CALLDATASIZE PUSH2 0x9CC JUMP JUMPDEST PUSH1 0x1 PUSH1 0x1 PUSH1 0xA0 SHL SUB DUP3 AND SWAP2 DUP3 ISZERO PUSH2 0x137B JUMPI DUP2 PUSH2 0x133A PUSH2 0x134B SWAP3 CALLER PUSH0 MSTORE PUSH1 0x5 PUSH1 0x20 MSTORE PUSH1 0x40 PUSH0 KECCAK256 SWAP1 PUSH1 0x1 PUSH1 0x1 PUSH1 0xA0 SHL SUB AND PUSH0 MSTORE PUSH1 0x20 MSTORE PUSH1 0x40 PUSH0 KECCAK256 SWAP1 JUMP JUMPDEST SWAP1 PUSH1 0xFF DUP1 NOT DUP4 SLOAD AND SWAP2 ISZERO ISZERO AND OR SWAP1 SSTORE JUMP JUMPDEST PUSH1 0x40 MLOAD SWAP1 ISZERO ISZERO DUP2 MSTORE PUSH32 0x17307EAB39AB6107E8899845AD3D59BD9653F200F220920489CA2B5937696C31 PUSH1 0x20 CALLER SWAP3 LOG3 STOP JUMPDEST DUP3 PUSH4 0xB611743 PUSH1 0xE3 SHL PUSH0 MSTORE PUSH1 0x4 MSTORE PUSH1 0x24 PUSH0 REVERT JUMPDEST CALLVALUE PUSH2 0x1B JUMPI PUSH1 0x20 CALLDATASIZE PUSH1 0x3 NOT ADD SLT PUSH2 0x1B JUMPI PUSH2 0x13A7 PUSH2 0x565 JUMP JUMPDEST PUSH2 0x13BD PUSH1 0x1 PUSH1 0x1 PUSH1 0xA0 SHL SUB PUSH1 0x9 SLOAD AND CALLER EQ PUSH2 0x1C4B JUMP JUMPDEST PUSH1 0x1 PUSH1 0x1 PUSH1 0xA0 SHL SUB DUP2 AND PUSH0 MSTORE PUSH1 0xA PUSH1 0x20 MSTORE PUSH1 0xFF PUSH1 0x40 PUSH0 KECCAK256 SLOAD AND PUSH2 0x1405 JUMPI PUSH2 0x13F8 PUSH2 0x1F SWAP2 PUSH1 0x1 PUSH1 0x1 PUSH1 0xA0 SHL SUB AND PUSH0 MSTORE PUSH1 0xA PUSH1 0x20 MSTORE PUSH1 0x40 PUSH0 KECCAK256 SWAP1 JUMP JUMPDEST DUP1 SLOAD PUSH1 0xFF NOT AND PUSH1 0x1 OR SWAP1 SSTORE JUMP JUMPDEST PUSH1 0x40 MLOAD PUSH3 0x461BCD PUSH1 0xE5 SHL DUP2 MSTORE PUSH1 0x20 PUSH1 0x4 DUP3 ADD MSTORE PUSH1 0x15 PUSH1 0x24 DUP3 ADD MSTORE PUSH32 0x636F6E74726F6C6C6572206475706C6963617465640000000000000000000000 PUSH1 0x44 DUP3 ADD MSTORE PUSH1 0x64 SWAP1 REVERT JUMPDEST CALLVALUE PUSH2 0x1B JUMPI PUSH0 CALLDATASIZE PUSH1 0x3 NOT ADD SLT PUSH2 0x1B JUMPI PUSH1 0x20 PUSH1 0xE SLOAD PUSH1 0x40 MLOAD SWAP1 DUP2 MSTORE RETURN JUMPDEST CALLVALUE PUSH2 0x1B JUMPI PUSH1 0x80 CALLDATASIZE PUSH1 0x3 NOT ADD SLT PUSH2 0x1B JUMPI PUSH2 0x1480 PUSH2 0x565 JUMP JUMPDEST PUSH2 0x1488 PUSH2 0x57B JUMP JUMPDEST SWAP1 PUSH1 0x44 CALLDATALOAD PUSH1 0x64 CALLDATALOAD SWAP3 PUSH8 0xFFFFFFFFFFFFFFFF DUP5 GT PUSH2 0x1B JUMPI PUSH2 0x14B0 PUSH2 0x1F SWAP5 CALLDATASIZE SWAP1 PUSH1 0x4 ADD PUSH2 0x72B JUMP JUMPDEST SWAP3 PUSH2 0x226C JUMP JUMPDEST CALLVALUE PUSH2 0x1B JUMPI PUSH1 0x20 CALLDATASIZE PUSH1 0x3 NOT ADD SLT PUSH2 0x1B JUMPI PUSH1 0x1 PUSH1 0x1 PUSH1 0xA0 SHL SUB PUSH2 0x14D7 PUSH2 0x565 JUMP JUMPDEST AND PUSH0 MSTORE PUSH1 0xA PUSH1 0x20 MSTORE PUSH1 0x20 PUSH1 0xFF PUSH1 0x40 PUSH0 KECCAK256 SLOAD AND PUSH1 0x40 MLOAD SWAP1 ISZERO ISZERO DUP2 MSTORE RETURN JUMPDEST CALLVALUE PUSH2 0x1B JUMPI PUSH1 0x20 CALLDATASIZE PUSH1 0x3 NOT ADD SLT PUSH2 0x1B JUMPI PUSH1 0x1 PUSH1 0x1 PUSH1 0xA0 SHL SUB PUSH2 0x1514 PUSH2 0x565 JUMP JUMPDEST AND PUSH0 MSTORE PUSH1 0x7 PUSH1 0x20 MSTORE PUSH1 0x20 PUSH1 0xFF PUSH1 0x40 PUSH0 KECCAK256 SLOAD AND PUSH1 0x40 MLOAD SWAP1 ISZERO ISZERO DUP2 MSTORE RETURN JUMPDEST SWAP1 PUSH1 0x1 DUP3 DUP2 SHR SWAP3 AND DUP1 ISZERO PUSH2 0x155E JUMPI JUMPDEST PUSH1 0x20 DUP4 LT EQ PUSH2 0x154A JUMPI JUMP JUMPDEST PUSH4 0x4E487B71 PUSH1 0xE0 SHL PUSH0 MSTORE PUSH1 0x22 PUSH1 0x4 MSTORE PUSH1 0x24 PUSH0 REVERT JUMPDEST SWAP2 PUSH1 0x7F AND SWAP2 PUSH2 0x153F JUMP JUMPDEST SWAP1 PUSH1 0x40 MLOAD SWAP2 DUP3 PUSH0 DUP3 SLOAD SWAP3 PUSH2 0x157B DUP5 PUSH2 0x1530 JUMP JUMPDEST DUP1 DUP5 MSTORE SWAP4 PUSH1 0x1 DUP2 AND SWAP1 DUP2 ISZERO PUSH2 0x15E4 JUMPI POP PUSH1 0x1 EQ PUSH2 0x15A0 JUMPI JUMPDEST POP PUSH2 0x70D SWAP3 POP SUB DUP4 PUSH2 0x6DC JUMP JUMPDEST SWAP1 POP PUSH0 SWAP3 SWAP2 SWAP3 MSTORE PUSH1 0x20 PUSH0 KECCAK256 SWAP1 PUSH0 SWAP2 JUMPDEST DUP2 DUP4 LT PUSH2 0x15C8 JUMPI POP POP SWAP1 PUSH1 0x20 PUSH2 0x70D SWAP3 DUP3 ADD ADD PUSH0 PUSH2 0x1593 JUMP JUMPDEST PUSH1 0x20 SWAP2 SWAP4 POP DUP1 PUSH1 0x1 SWAP2 SLOAD DUP4 DUP6 DUP10 ADD ADD MSTORE ADD SWAP2 ADD SWAP1 SWAP2 DUP5 SWAP3 PUSH2 0x15AF JUMP JUMPDEST SWAP1 POP PUSH1 0x20 SWAP3 POP PUSH2 0x70D SWAP5 SWAP2 POP PUSH1 0xFF NOT AND DUP3 DUP5 ADD MSTORE ISZERO ISZERO PUSH1 0x5 SHL DUP3 ADD ADD PUSH0 PUSH2 0x1593 JUMP JUMPDEST SWAP6 SWAP1 PUSH1 0x1 PUSH1 0x1 PUSH1 0xA0 SHL SUB SWAP5 PUSH2 0x1638 PUSH1 0xC0 SWAP8 SWAP11 SWAP10 SWAP6 DUP8 SWAP6 PUSH2 0x1646 SWAP5 DUP12 MSTORE PUSH1 0x20 DUP12 ADD MSTORE PUSH1 0xE0 PUSH1 0x40 DUP12 ADD MSTORE PUSH1 0xE0 DUP11 ADD SWAP1 PUSH2 0x419 JUMP JUMPDEST SWAP1 DUP9 DUP3 SUB PUSH1 0x60 DUP11 ADD MSTORE PUSH2 0x419 JUMP JUMPDEST SWAP8 PUSH1 0x80 DUP8 ADD MSTORE AND PUSH1 0xA0 DUP6 ADD MSTORE AND SWAP2 ADD MSTORE JUMP JUMPDEST CALLVALUE PUSH2 0x1B JUMPI PUSH1 0x20 CALLDATASIZE PUSH1 0x3 NOT ADD SLT PUSH2 0x1B JUMPI PUSH1 0x4 CALLDATALOAD PUSH0 MSTORE PUSH1 0x13 PUSH1 0x20 MSTORE PUSH1 0x40 PUSH0 KECCAK256 DUP1 SLOAD PUSH2 0x4A4 PUSH1 0x1 DUP4 ADD SLOAD SWAP3 PUSH2 0x168E PUSH1 0x2 DUP3 ADD PUSH2 0x1568 JUMP JUMPDEST SWAP1 PUSH2 0x169B PUSH1 0x3 DUP3 ADD PUSH2 0x1568 JUMP JUMPDEST PUSH1 0x4 DUP3 ADD SLOAD SWAP1 PUSH1 0x1 PUSH1 0x1 PUSH1 0xA0 SHL SUB PUSH1 0x6 DUP2 PUSH1 0x5 DUP7 ADD SLOAD AND SWAP5 ADD SLOAD AND SWAP4 PUSH1 0x40 MLOAD SWAP8 DUP9 SWAP8 DUP9 PUSH2 0x1606 JUMP JUMPDEST CALLVALUE PUSH2 0x1B JUMPI PUSH1 0x80 CALLDATASIZE PUSH1 0x3 NOT ADD SLT PUSH2 0x1B JUMPI PUSH1 0x24 CALLDATALOAD PUSH8 0xFFFFFFFFFFFFFFFF DUP2 GT PUSH2 0x1B JUMPI PUSH2 0x16F4 SWAP1 CALLDATASIZE SWAP1 PUSH1 0x4 ADD PUSH2 0xC70 JUMP JUMPDEST PUSH1 0x44 CALLDATALOAD PUSH8 0xFFFFFFFFFFFFFFFF DUP2 GT PUSH2 0x1B JUMPI PUSH2 0x1714 SWAP1 CALLDATASIZE SWAP1 PUSH1 0x4 ADD PUSH2 0xC70 JUMP JUMPDEST SWAP2 SWAP1 SWAP3 PUSH1 0x64 CALLDATALOAD SWAP3 PUSH8 0xFFFFFFFFFFFFFFFF DUP5 GT PUSH2 0x1B JUMPI PUSH2 0x4A4 SWAP5 PUSH2 0x173F PUSH2 0x174A SWAP6 CALLDATASIZE SWAP1 PUSH1 0x4 ADD PUSH2 0xC70 JUMP JUMPDEST SWAP5 SWAP1 SWAP4 PUSH1 0x4 CALLDATALOAD PUSH2 0x2493 JUMP JUMPDEST PUSH1 0x40 MLOAD SWAP1 ISZERO ISZERO DUP2 MSTORE SWAP1 DUP2 SWAP1 PUSH1 0x20 DUP3 ADD SWAP1 JUMP JUMPDEST CALLVALUE PUSH2 0x1B JUMPI PUSH0 CALLDATASIZE PUSH1 0x3 NOT ADD SLT PUSH2 0x1B JUMPI PUSH2 0x1782 PUSH1 0x1 PUSH1 0x1 PUSH1 0xA0 SHL SUB PUSH1 0x9 SLOAD AND CALLER EQ PUSH2 0x1C4B JUMP JUMPDEST PUSH1 0x11 SLOAD PUSH1 0xFF DUP1 DUP3 AND ISZERO AND SWAP1 PUSH1 0xFF NOT AND OR PUSH1 0x11 SSTORE PUSH0 DUP1 RETURN JUMPDEST CALLVALUE PUSH2 0x1B JUMPI PUSH1 0x40 CALLDATASIZE PUSH1 0x3 NOT ADD SLT PUSH2 0x1B JUMPI PUSH1 0x4 CALLDATALOAD PUSH2 0x17B5 PUSH2 0x57B JUMP JUMPDEST CALLER PUSH0 MSTORE PUSH1 0xA PUSH1 0x20 MSTORE PUSH2 0x17CD PUSH1 0xFF PUSH1 0x40 PUSH0 KECCAK256 SLOAD AND PUSH2 0x1F08 JUMP JUMPDEST PUSH1 0x16 SLOAD DUP3 LT ISZERO PUSH2 0x193F JUMPI DUP2 PUSH2 0x1919 PUSH1 0x80 PUSH2 0x1813 PUSH2 0x105D PUSH32 0xF07993DAE7DC7202C13533603360D9AFA11563FAC65950C849657F4A87FAA0FB SWAP7 PUSH0 MSTORE PUSH1 0x13 PUSH1 0x20 MSTORE PUSH1 0x40 PUSH0 KECCAK256 SWAP1 JUMP JUMPDEST PUSH2 0x182D PUSH2 0x1828 DUP6 PUSH0 MSTORE PUSH1 0x13 PUSH1 0x20 MSTORE PUSH1 0x40 PUSH0 KECCAK256 SWAP1 JUMP JUMPDEST PUSH2 0x2685 JUMP JUMPDEST ADD SWAP2 PUSH2 0x1844 PUSH2 0x183F DUP5 MLOAD PUSH1 0xF SLOAD PUSH2 0x1DDA JUMP JUMPDEST PUSH1 0xF SSTORE JUMP JUMPDEST PUSH2 0x1906 PUSH2 0x1862 DUP6 PUSH1 0x1 PUSH1 0x1 PUSH1 0xA0 SHL SUB AND PUSH0 MSTORE PUSH1 0xB PUSH1 0x20 MSTORE PUSH1 0x40 PUSH0 KECCAK256 SWAP1 JUMP JUMPDEST PUSH2 0x1874 DUP4 PUSH0 MSTORE PUSH1 0xC PUSH1 0x20 MSTORE PUSH1 0x40 PUSH0 KECCAK256 SWAP1 JUMP JUMPDEST SLOAD PUSH2 0x1900 PUSH2 0x189C PUSH2 0x1896 DUP10 PUSH1 0x1 PUSH1 0x1 PUSH1 0xA0 SHL SUB AND PUSH0 MSTORE PUSH1 0xB PUSH1 0x20 MSTORE PUSH1 0x40 PUSH0 KECCAK256 SWAP1 JUMP JUMPDEST SLOAD PUSH2 0x1DC7 JUMP JUMPDEST PUSH2 0x18F2 PUSH2 0x18D0 PUSH2 0x18C6 DUP4 PUSH2 0x18C1 DUP14 PUSH1 0x1 PUSH1 0x1 PUSH1 0xA0 SHL SUB AND PUSH0 MSTORE PUSH1 0xB PUSH1 0x20 MSTORE PUSH1 0x40 PUSH0 KECCAK256 SWAP1 JUMP JUMPDEST PUSH2 0xB53 JUMP JUMPDEST SWAP1 SLOAD SWAP1 PUSH1 0x3 SHL SHR SWAP1 JUMP JUMPDEST PUSH2 0x18DA DUP6 DUP8 PUSH2 0xB53 JUMP JUMPDEST SWAP1 SWAP2 SWAP1 DUP3 SLOAD SWAP1 PUSH1 0x3 SHL SWAP2 DUP3 SHL SWAP2 PUSH0 NOT SWAP1 SHL NOT AND OR SWAP1 SSTORE JUMP JUMPDEST PUSH0 MSTORE PUSH1 0xC PUSH1 0x20 MSTORE PUSH1 0x40 PUSH0 KECCAK256 SWAP1 JUMP JUMPDEST SSTORE PUSH2 0x26BA JUMP JUMPDEST PUSH0 DUP2 DUP2 MSTORE PUSH1 0xC PUSH1 0x20 MSTORE PUSH1 0x40 DUP2 KECCAK256 SSTORE PUSH2 0x2CC8 JUMP JUMPDEST MLOAD PUSH1 0x40 DUP1 MLOAD PUSH1 0x1 PUSH1 0x1 PUSH1 0xA0 SHL SUB SWAP4 SWAP1 SWAP4 AND DUP4 MSTORE PUSH1 0x20 DUP4 ADD SWAP2 SWAP1 SWAP2 MSTORE TIMESTAMP SWAP1 DUP3 ADD MSTORE PUSH1 0x60 SWAP1 LOG1 STOP JUMPDEST PUSH1 0x40 MLOAD PUSH3 0x461BCD PUSH1 0xE5 SHL DUP2 MSTORE PUSH1 0x20 PUSH1 0x4 DUP3 ADD MSTORE PUSH1 0x12 PUSH1 0x24 DUP3 ADD MSTORE PUSH32 0x6E6F6E6520657869737420746F6B656E49640000000000000000000000000000 PUSH1 0x44 DUP3 ADD MSTORE PUSH1 0x64 SWAP1 REVERT JUMPDEST CALLVALUE PUSH2 0x1B JUMPI PUSH1 0x20 CALLDATASIZE PUSH1 0x3 NOT ADD SLT PUSH2 0x1B JUMPI PUSH2 0x19A0 PUSH1 0x4 CALLDATALOAD PUSH2 0x2762 JUMP JUMPDEST POP PUSH0 PUSH1 0x40 MLOAD PUSH2 0x19B0 PUSH1 0x20 DUP3 PUSH2 0x6DC JUMP JUMPDEST MSTORE PUSH2 0x4A4 PUSH1 0x40 MLOAD PUSH2 0x19C2 PUSH1 0x20 DUP3 PUSH2 0x6DC JUMP JUMPDEST PUSH0 DUP2 MSTORE PUSH1 0x40 MLOAD SWAP2 DUP3 SWAP2 PUSH1 0x20 DUP4 MSTORE PUSH1 0x20 DUP4 ADD SWAP1 PUSH2 0x419 JUMP JUMPDEST CALLVALUE PUSH2 0x1B JUMPI PUSH0 CALLDATASIZE PUSH1 0x3 NOT ADD SLT PUSH2 0x1B JUMPI PUSH1 0x20 PUSH1 0xD SLOAD PUSH1 0x40 MLOAD SWAP1 DUP2 MSTORE RETURN JUMPDEST CALLVALUE PUSH2 0x1B JUMPI PUSH1 0x20 CALLDATASIZE PUSH1 0x3 NOT ADD SLT PUSH2 0x1B JUMPI PUSH1 0x1 PUSH1 0x1 PUSH1 0xA0 SHL SUB PUSH2 0x1A17 PUSH2 0x565 JUMP JUMPDEST AND PUSH0 MSTORE PUSH1 0x8 PUSH1 0x20 MSTORE PUSH1 0x20 PUSH1 0x40 PUSH0 KECCAK256 SLOAD PUSH1 0x40 MLOAD SWAP1 DUP2 MSTORE RETURN JUMPDEST CALLVALUE PUSH2 0x1B JUMPI PUSH1 0x40 CALLDATASIZE PUSH1 0x3 NOT ADD SLT PUSH2 0x1B JUMPI PUSH1 0x20 PUSH1 0xFF PUSH2 0x1A80 PUSH2 0x1A4E PUSH2 0x565 JUMP JUMPDEST PUSH1 0x1 PUSH1 0x1 PUSH1 0xA0 SHL SUB PUSH2 0x1A5E PUSH2 0x57B JUMP JUMPDEST SWAP2 AND PUSH0 MSTORE PUSH1 0x5 DUP5 MSTORE PUSH1 0x40 PUSH0 KECCAK256 SWAP1 PUSH1 0x1 PUSH1 0x1 PUSH1 0xA0 SHL SUB AND PUSH0 MSTORE PUSH1 0x20 MSTORE PUSH1 0x40 PUSH0 KECCAK256 SWAP1 JUMP JUMPDEST SLOAD AND PUSH1 0x40 MLOAD SWAP1 ISZERO ISZERO DUP2 MSTORE RETURN JUMPDEST CALLVALUE PUSH2 0x1B JUMPI PUSH1 0x20 CALLDATASIZE PUSH1 0x3 NOT ADD SLT PUSH2 0x1B JUMPI PUSH2 0x1AA5 PUSH2 0x565 JUMP JUMPDEST PUSH2 0x1ABB PUSH1 0x1 PUSH1 0x1 PUSH1 0xA0 SHL SUB PUSH1 0x9 SLOAD AND CALLER EQ PUSH2 0x1C4B JUMP JUMPDEST PUSH1 0x1 PUSH1 0x1 PUSH1 0xA0 SHL SUB DUP2 AND PUSH0 MSTORE PUSH1 0x7 PUSH1 0x20 MSTORE PUSH1 0xFF PUSH1 0x40 PUSH0 KECCAK256 SLOAD AND PUSH2 0x1B1E JUMPI PUSH2 0x1F SWAP1 PUSH1 0x6 SLOAD PUSH2 0x1AFA DUP3 PUSH1 0x1 PUSH1 0x1 PUSH1 0xA0 SHL SUB AND PUSH0 MSTORE PUSH1 0x8 PUSH1 0x20 MSTORE PUSH1 0x40 PUSH0 KECCAK256 SWAP1 JUMP JUMPDEST SSTORE PUSH2 0x1B19 PUSH2 0x13F8 DUP3 PUSH1 0x1 PUSH1 0x1 PUSH1 0xA0 SHL SUB AND PUSH0 MSTORE PUSH1 0x7 PUSH1 0x20 MSTORE PUSH1 0x40 PUSH0 KECCAK256 SWAP1 JUMP JUMPDEST PUSH2 0x26F5 JUMP JUMPDEST PUSH1 0x40 MLOAD PUSH3 0x461BCD PUSH1 0xE5 SHL DUP2 MSTORE PUSH1 0x20 PUSH1 0x4 DUP3 ADD MSTORE PUSH1 0xD PUSH1 0x24 DUP3 ADD MSTORE PUSH13 0x139BDD081C99595B9D1C985B9D PUSH1 0x9A SHL PUSH1 0x44 DUP3 ADD MSTORE PUSH1 0x64 SWAP1 REVERT JUMPDEST CALLVALUE PUSH2 0x1B JUMPI PUSH1 0x20 CALLDATASIZE PUSH1 0x3 NOT ADD SLT PUSH2 0x1B JUMPI PUSH1 0x1 PUSH1 0x1 PUSH1 0xA0 SHL SUB PUSH2 0x1B74 PUSH2 0x565 JUMP JUMPDEST PUSH2 0x1B83 DUP3 PUSH1 0x9 SLOAD AND CALLER EQ PUSH2 0x1C4B JUMP JUMPDEST AND DUP1 PUSH0 MSTORE PUSH1 0xA PUSH1 0x20 MSTORE PUSH1 0xFF PUSH1 0x40 PUSH0 KECCAK256 SLOAD AND ISZERO PUSH2 0x1BB1 JUMPI PUSH0 MSTORE PUSH1 0xA PUSH1 0x20 MSTORE PUSH2 0x1F PUSH1 0x40 PUSH0 KECCAK256 PUSH1 0xFF NOT DUP2 SLOAD AND SWAP1 SSTORE JUMP JUMPDEST PUSH1 0x40 MLOAD PUSH3 0x461BCD PUSH1 0xE5 SHL DUP2 MSTORE PUSH1 0x20 PUSH1 0x4 DUP3 ADD MSTORE PUSH1 0x14 PUSH1 0x24 DUP3 ADD MSTORE PUSH32 0x636F6E74726F6C6C6572206E6F74206578697374000000000000000000000000 PUSH1 0x44 DUP3 ADD MSTORE PUSH1 0x64 SWAP1 REVERT JUMPDEST CALLVALUE PUSH2 0x1B JUMPI PUSH1 0x40 CALLDATASIZE PUSH1 0x3 NOT ADD SLT PUSH2 0x1B JUMPI PUSH2 0x1C0F PUSH2 0x565 JUMP JUMPDEST PUSH1 0x1 PUSH1 0x1 PUSH1 0xA0 SHL SUB PUSH1 0x24 CALLDATALOAD SWAP2 AND PUSH0 MSTORE PUSH1 0xB PUSH1 0x20 MSTORE PUSH1 0x40 PUSH0 KECCAK256 DUP1 SLOAD DUP3 LT ISZERO PUSH2 0x1B JUMPI PUSH1 0x20 SWAP2 PUSH2 0x1C3C SWAP2 PUSH2 0xB53 JUMP JUMPDEST SWAP1 SLOAD SWAP1 PUSH1 0x3 SHL SHR PUSH1 0x40 MLOAD SWAP1 DUP2 MSTORE RETURN JUMPDEST ISZERO PUSH2 0x1C52 JUMPI JUMP JUMPDEST PUSH1 0x40 MLOAD PUSH3 0x461BCD PUSH1 0xE5 SHL DUP2 MSTORE PUSH1 0x20 PUSH1 0x4 DUP3 ADD MSTORE PUSH1 0x9 PUSH1 0x24 DUP3 ADD MSTORE PUSH9 0x3737BA1037BBB732B9 PUSH1 0xB9 SHL PUSH1 0x44 DUP3 ADD MSTORE PUSH1 0x64 SWAP1 REVERT JUMPDEST SWAP2 PUSH2 0x1D17 SWAP1 PUSH2 0x1C90 PUSH2 0x10A5 JUMP JUMPDEST SWAP4 PUSH1 0x20 DUP2 ADD MLOAD SWAP2 PUSH1 0x40 DUP3 ADD MLOAD SWAP5 PUSH1 0x60 DUP4 ADD MLOAD PUSH2 0x1CF3 PUSH1 0x80 PUSH1 0x1 PUSH1 0x1 PUSH1 0xA0 SHL SUB PUSH1 0xA0 DUP8 ADD MLOAD AND SWAP6 ADD MLOAD SWAP2 PUSH2 0x1CE1 PUSH1 0x40 MLOAD SWAP10 DUP11 SWAP9 PUSH1 0x20 DUP11 ADD SWAP13 DUP14 MSTORE PUSH1 0x40 DUP11 ADD MSTORE PUSH2 0x100 PUSH1 0x60 DUP11 ADD MSTORE PUSH2 0x120 DUP10 ADD SWAP1 PUSH2 0x419 JUMP JUMPDEST DUP8 DUP2 SUB PUSH1 0x1F NOT ADD PUSH1 0x80 DUP10 ADD MSTORE SWAP1 PUSH2 0x419 JUMP JUMPDEST SWAP4 PUSH1 0xA0 DUP7 ADD MSTORE PUSH1 0xC0 DUP6 ADD MSTORE PUSH1 0xE0 DUP5 ADD MSTORE PUSH2 0x100 DUP4 ADD MSTORE SUB PUSH1 0x1F NOT DUP2 ADD DUP4 MSTORE DUP3 PUSH2 0x6DC JUMP JUMPDEST MLOAD SWAP1 KECCAK256 PUSH1 0x40 MLOAD PUSH2 0x1901 PUSH1 0xF0 SHL PUSH1 0x20 DUP3 ADD SWAP1 DUP2 MSTORE PUSH32 0x0 PUSH1 0x22 DUP4 ADD MSTORE PUSH1 0x42 DUP1 DUP4 ADD SWAP4 SWAP1 SWAP4 MSTORE SWAP2 DUP2 MSTORE PUSH2 0x1151 PUSH1 0x62 DUP3 PUSH2 0x6DC JUMP JUMPDEST ISZERO PUSH2 0x1D6E JUMPI JUMP JUMPDEST PUSH1 0x40 MLOAD PUSH3 0x461BCD PUSH1 0xE5 SHL DUP2 MSTORE PUSH1 0x20 PUSH1 0x4 DUP3 ADD MSTORE PUSH1 0x12 PUSH1 0x24 DUP3 ADD MSTORE PUSH32 0x496E646578206F7574206F662072616E67650000000000000000000000000000 PUSH1 0x44 DUP3 ADD MSTORE PUSH1 0x64 SWAP1 REVERT JUMPDEST PUSH4 0x4E487B71 PUSH1 0xE0 SHL PUSH0 MSTORE PUSH1 0x11 PUSH1 0x4 MSTORE PUSH1 0x24 PUSH0 REVERT JUMPDEST PUSH0 NOT DUP2 ADD SWAP2 SWAP1 DUP3 GT PUSH2 0x1DD5 JUMPI JUMP JUMPDEST PUSH2 0x1DB3 JUMP JUMPDEST SWAP2 SWAP1 DUP3 SUB SWAP2 DUP3 GT PUSH2 0x1DD5 JUMPI JUMP JUMPDEST SWAP2 SWAP1 SWAP2 PUSH1 0x1 PUSH1 0x1 PUSH1 0xA0 SHL SUB DUP4 AND SWAP1 DUP2 ISZERO PUSH2 0x1EF5 JUMPI PUSH1 0x1 PUSH1 0x1 PUSH1 0xA0 SHL SUB SWAP2 DUP4 PUSH0 MSTORE PUSH1 0x2 PUSH1 0x20 MSTORE DUP4 PUSH2 0x1E22 PUSH1 0x40 PUSH0 KECCAK256 PUSH1 0x1 PUSH1 0x1 PUSH1 0xA0 SHL SUB SWAP1 SLOAD AND SWAP1 JUMP JUMPDEST SWAP2 CALLER PUSH2 0x1EE5 JUMPI JUMPDEST PUSH2 0x1E6A DUP6 DUP5 AND SWAP8 DUP9 PUSH2 0x1EB5 JUMPI JUMPDEST PUSH2 0x1E51 DUP2 PUSH1 0x1 PUSH1 0x1 PUSH1 0xA0 SHL SUB AND PUSH0 MSTORE PUSH1 0x3 PUSH1 0x20 MSTORE PUSH1 0x40 PUSH0 KECCAK256 SWAP1 JUMP JUMPDEST PUSH1 0x1 DUP2 SLOAD ADD SWAP1 SSTORE PUSH2 0x626 DUP5 PUSH0 MSTORE PUSH1 0x2 PUSH1 0x20 MSTORE PUSH1 0x40 PUSH0 KECCAK256 SWAP1 JUMP JUMPDEST DUP7 PUSH32 0xDDF252AD1BE2C89B69C2B068FC378DAA952BA7F163C4A11628F55A4DF523B3EF PUSH0 DUP1 LOG4 POP AND DUP1 DUP4 SUB PUSH2 0x1E9D JUMPI POP POP POP JUMP JUMPDEST PUSH4 0x64283D7B PUSH1 0xE0 SHL PUSH0 MSTORE PUSH1 0x4 MSTORE PUSH1 0x24 MSTORE PUSH1 0x44 MSTORE PUSH1 0x64 PUSH0 REVERT JUMPDEST PUSH2 0x1EBE DUP5 PUSH2 0x2D67 JUMP JUMPDEST PUSH2 0x1ED9 DUP6 PUSH1 0x1 PUSH1 0x1 PUSH1 0xA0 SHL SUB AND PUSH0 MSTORE PUSH1 0x3 PUSH1 0x20 MSTORE PUSH1 0x40 PUSH0 KECCAK256 SWAP1 JUMP JUMPDEST DUP1 SLOAD PUSH0 NOT ADD SWAP1 SSTORE PUSH2 0x1E36 JUMP JUMPDEST PUSH2 0x1EF0 DUP3 CALLER DUP6 PUSH2 0x2D89 JUMP JUMPDEST PUSH2 0x1E29 JUMP JUMPDEST PUSH4 0x32505749 PUSH1 0xE1 SHL PUSH0 MSTORE PUSH0 PUSH1 0x4 MSTORE PUSH1 0x24 PUSH0 REVERT JUMPDEST ISZERO PUSH2 0x1F0F JUMPI JUMP JUMPDEST PUSH1 0x40 MLOAD PUSH3 0x461BCD PUSH1 0xE5 SHL DUP2 MSTORE PUSH1 0x20 PUSH1 0x4 DUP3 ADD MSTORE PUSH1 0x12 PUSH1 0x24 DUP3 ADD MSTORE PUSH32 0x496E76616C696420636F6E74726F6C6C65720000000000000000000000000000 PUSH1 0x44 DUP3 ADD MSTORE PUSH1 0x64 SWAP1 REVERT JUMPDEST SWAP7 SWAP1 SWAP3 SWAP6 SWAP8 SWAP2 SWAP5 SWAP4 SWAP8 CALLER PUSH0 MSTORE PUSH1 0xA PUSH1 0x20 MSTORE PUSH2 0x1F75 PUSH1 0xFF PUSH1 0x40 PUSH0 KECCAK256 SLOAD AND PUSH2 0x1F08 JUMP JUMPDEST PUSH1 0xE SLOAD PUSH1 0xF SLOAD LT PUSH2 0x20E2 JUMPI CALLER PUSH0 MSTORE PUSH1 0x12 PUSH1 0x20 MSTORE PUSH1 0xFF PUSH1 0x40 PUSH0 KECCAK256 SLOAD AND PUSH2 0x209D JUMPI PUSH1 0x80 DUP9 ADD MLOAD SWAP5 PUSH1 0x10 SLOAD DUP7 GT PUSH2 0x2058 JUMPI PUSH2 0x70D SWAP10 PUSH2 0x203C SWAP9 PUSH2 0x2037 SWAP9 PUSH2 0x1FBB PUSH1 0x11 SLOAD PUSH1 0xFF AND SWAP1 JUMP JUMPDEST PUSH2 0x2041 JUMPI JUMPDEST POP POP POP POP POP POP POP POP PUSH2 0x2023 PUSH2 0x200C PUSH1 0xA0 DUP7 ADD NUMBER PUSH2 0x1FFE PUSH2 0x1FE7 DUP4 MLOAD PUSH1 0x1 PUSH1 0x1 PUSH1 0xA0 SHL SUB AND SWAP1 JUMP JUMPDEST PUSH1 0x1 PUSH1 0x1 PUSH1 0xA0 SHL SUB AND PUSH0 MSTORE PUSH1 0x15 PUSH1 0x20 MSTORE PUSH1 0x40 PUSH0 KECCAK256 SWAP1 JUMP JUMPDEST SSTORE MLOAD PUSH1 0x1 PUSH1 0x1 PUSH1 0xA0 SHL SUB AND SWAP1 JUMP JUMPDEST PUSH1 0x1 PUSH1 0x1 PUSH1 0xA0 SHL SUB AND PUSH0 MSTORE PUSH1 0x14 PUSH1 0x20 MSTORE PUSH1 0x40 PUSH0 KECCAK256 SWAP1 JUMP JUMPDEST PUSH2 0x202D DUP2 SLOAD PUSH2 0x2127 JUMP JUMPDEST SWAP1 SSTORE PUSH1 0xE SLOAD PUSH2 0x2135 JUMP JUMPDEST PUSH1 0xE SSTORE JUMP JUMPDEST PUSH2 0x2B44 JUMP JUMPDEST PUSH2 0x204B SWAP8 DUP13 PUSH2 0x27E1 JUMP JUMPDEST PUSH0 DUP1 DUP1 DUP1 DUP1 DUP1 DUP1 DUP1 PUSH2 0x1FC0 JUMP JUMPDEST PUSH1 0x40 MLOAD PUSH3 0x461BCD PUSH1 0xE5 SHL DUP2 MSTORE PUSH1 0x20 PUSH1 0x4 DUP3 ADD MSTORE PUSH1 0x1C PUSH1 0x24 DUP3 ADD MSTORE PUSH32 0x6578656365656420736372697074696F6E206D696E74206C696D697400000000 PUSH1 0x44 DUP3 ADD MSTORE PUSH1 0x64 SWAP1 REVERT JUMPDEST PUSH1 0x40 MLOAD PUSH3 0x461BCD PUSH1 0xE5 SHL DUP2 MSTORE PUSH1 0x20 PUSH1 0x4 DUP3 ADD MSTORE PUSH1 0x11 PUSH1 0x24 DUP3 ADD MSTORE PUSH32 0x7065726D697373696F6E2064656E696564000000000000000000000000000000 PUSH1 0x44 DUP3 ADD MSTORE PUSH1 0x64 SWAP1 REVERT JUMPDEST PUSH1 0x40 MLOAD PUSH3 0x461BCD PUSH1 0xE5 SHL DUP2 MSTORE PUSH1 0x20 PUSH1 0x4 DUP3 ADD MSTORE PUSH1 0x16 PUSH1 0x24 DUP3 ADD MSTORE PUSH32 0x65786365656420736372697074696F6E206C696D697400000000000000000000 PUSH1 0x44 DUP3 ADD MSTORE PUSH1 0x64 SWAP1 REVERT JUMPDEST SWAP1 PUSH1 0x1 DUP3 ADD DUP1 SWAP3 GT PUSH2 0x1DD5 JUMPI JUMP JUMPDEST SWAP2 SWAP1 DUP3 ADD DUP1 SWAP3 GT PUSH2 0x1DD5 JUMPI JUMP JUMPDEST PUSH8 0xFFFFFFFFFFFFFFFF DUP2 GT PUSH2 0x6D7 JUMPI PUSH1 0x5 SHL PUSH1 0x20 ADD SWAP1 JUMP JUMPDEST SWAP1 PUSH2 0x2164 DUP3 PUSH2 0x2142 JUMP JUMPDEST PUSH2 0x2171 PUSH1 0x40 MLOAD SWAP2 DUP3 PUSH2 0x6DC JUMP JUMPDEST DUP3 DUP2 MSTORE DUP1 SWAP3 PUSH2 0x2182 PUSH1 0x1F NOT SWAP2 PUSH2 0x2142 JUMP JUMPDEST ADD SWAP1 PUSH0 JUMPDEST DUP3 DUP2 LT PUSH2 0x2192 JUMPI POP POP POP JUMP JUMPDEST PUSH1 0x20 SWAP1 PUSH1 0x40 MLOAD PUSH2 0x21A1 DUP2 PUSH2 0x6BB JUMP JUMPDEST PUSH0 DUP2 MSTORE PUSH0 DUP4 DUP3 ADD MSTORE PUSH1 0x60 PUSH1 0x40 DUP3 ADD MSTORE PUSH1 0x60 DUP1 DUP3 ADD MSTORE PUSH0 PUSH1 0x80 DUP3 ADD MSTORE PUSH0 PUSH1 0xA0 DUP3 ADD MSTORE PUSH0 PUSH1 0xC0 DUP3 ADD MSTORE DUP3 DUP3 DUP6 ADD ADD MSTORE ADD PUSH2 0x2186 JUMP JUMPDEST DUP1 MLOAD DUP3 LT ISZERO PUSH2 0xB4E JUMPI PUSH1 0x20 SWAP2 PUSH1 0x5 SHL ADD ADD SWAP1 JUMP JUMPDEST SWAP1 PUSH2 0x70D PUSH1 0x40 MLOAD PUSH2 0x21F8 DUP2 PUSH2 0x6BB JUMP JUMPDEST PUSH1 0xC0 PUSH2 0x225E PUSH1 0x6 DUP4 SWAP7 DUP1 SLOAD DUP6 MSTORE PUSH1 0x1 DUP2 ADD SLOAD PUSH1 0x20 DUP7 ADD MSTORE PUSH2 0x221B PUSH1 0x2 DUP3 ADD PUSH2 0x1568 JUMP JUMPDEST PUSH1 0x40 DUP7 ADD MSTORE PUSH2 0x222C PUSH1 0x3 DUP3 ADD PUSH2 0x1568 JUMP JUMPDEST PUSH1 0x60 DUP7 ADD MSTORE PUSH1 0x4 DUP2 ADD SLOAD PUSH1 0x80 DUP7 ADD MSTORE PUSH1 0x1 PUSH1 0x1 PUSH1 0xA0 SHL SUB DUP1 PUSH1 0x5 DUP4 ADD SLOAD AND AND PUSH1 0xA0 DUP7 ADD MSTORE ADD SLOAD PUSH1 0x1 PUSH1 0x1 PUSH1 0xA0 SHL SUB AND SWAP1 JUMP JUMPDEST PUSH1 0x1 PUSH1 0x1 PUSH1 0xA0 SHL SUB AND SWAP2 ADD MSTORE JUMP JUMPDEST SWAP1 SWAP3 SWAP2 PUSH2 0x227A DUP2 DUP6 DUP5 PUSH2 0x1DE7 JUMP JUMPDEST DUP4 EXTCODESIZE PUSH2 0x2287 JUMPI JUMPDEST POP POP POP POP JUMP JUMPDEST PUSH1 0x20 SWAP2 PUSH2 0x22A9 PUSH1 0x40 MLOAD SWAP5 DUP6 SWAP4 DUP5 SWAP4 PUSH4 0xA85BD01 PUSH1 0xE1 SHL DUP6 MSTORE CALLER PUSH1 0x4 DUP7 ADD PUSH2 0x2C6B JUMP JUMPDEST SUB DUP2 PUSH0 PUSH1 0x1 PUSH1 0x1 PUSH1 0xA0 SHL SUB DUP8 AND GAS CALL PUSH0 SWAP2 DUP2 PUSH2 0x2336 JUMPI JUMPDEST POP PUSH2 0x22FA JUMPI POP PUSH2 0x22CE PUSH2 0x2C99 JUMP JUMPDEST DUP1 MLOAD SWAP2 SWAP1 DUP3 PUSH2 0x22F3 JUMPI PUSH4 0x32505749 PUSH1 0xE1 SHL PUSH0 MSTORE PUSH1 0x1 PUSH1 0x1 PUSH1 0xA0 SHL SUB DUP3 AND PUSH1 0x4 MSTORE PUSH1 0x24 PUSH0 REVERT JUMPDEST PUSH1 0x20 SWAP2 POP ADD REVERT JUMPDEST PUSH1 0x1 PUSH1 0x1 PUSH1 0xE0 SHL SUB NOT AND PUSH4 0x757A42FF PUSH1 0xE1 SHL ADD PUSH2 0x231B JUMPI POP PUSH0 DUP1 DUP1 DUP1 PUSH2 0x2281 JUMP JUMPDEST PUSH4 0x32505749 PUSH1 0xE1 SHL PUSH0 MSTORE PUSH1 0x1 PUSH1 0x1 PUSH1 0xA0 SHL SUB AND PUSH1 0x4 MSTORE PUSH1 0x24 PUSH0 REVERT JUMPDEST PUSH2 0x2359 SWAP2 SWAP3 POP PUSH1 0x20 RETURNDATASIZE PUSH1 0x20 GT PUSH2 0x2360 JUMPI JUMPDEST PUSH2 0x2351 DUP2 DUP4 PUSH2 0x6DC JUMP JUMPDEST DUP2 ADD SWAP1 PUSH2 0x2C56 JUMP JUMPDEST SWAP1 PUSH0 PUSH2 0x22C0 JUMP JUMPDEST POP RETURNDATASIZE PUSH2 0x2347 JUMP JUMPDEST ISZERO PUSH2 0x236E JUMPI JUMP JUMPDEST PUSH1 0x40 MLOAD PUSH3 0x461BCD PUSH1 0xE5 SHL DUP2 MSTORE PUSH1 0x20 PUSH1 0x4 DUP3 ADD MSTORE PUSH1 0x18 PUSH1 0x24 DUP3 ADD MSTORE PUSH32 0x496E76616C6964207369676E6174757265206C656E6774680000000000000000 PUSH1 0x44 DUP3 ADD MSTORE PUSH1 0x64 SWAP1 REVERT JUMPDEST SWAP1 PUSH2 0x23BD DUP3 PUSH2 0x2142 JUMP JUMPDEST PUSH2 0x23CA PUSH1 0x40 MLOAD SWAP2 DUP3 PUSH2 0x6DC JUMP JUMPDEST DUP3 DUP2 MSTORE DUP1 SWAP3 PUSH2 0x23DB PUSH1 0x1F NOT SWAP2 PUSH2 0x2142 JUMP JUMPDEST ADD SWAP1 PUSH1 0x20 CALLDATASIZE SWAP2 ADD CALLDATACOPY JUMP JUMPDEST SWAP2 SWAP1 DUP2 LT ISZERO PUSH2 0xB4E JUMPI PUSH1 0x5 SHL ADD SWAP1 JUMP JUMPDEST CALLDATALOAD PUSH1 0xFF DUP2 AND DUP2 SUB PUSH2 0x1B JUMPI SWAP1 JUMP JUMPDEST PUSH1 0x40 MLOAD RETURNDATASIZE PUSH0 DUP3 RETURNDATACOPY RETURNDATASIZE SWAP1 REVERT JUMPDEST ISZERO PUSH2 0x2415 JUMPI JUMP JUMPDEST PUSH1 0x40 MLOAD PUSH3 0x461BCD PUSH1 0xE5 SHL DUP2 MSTORE PUSH1 0x20 PUSH1 0x4 DUP3 ADD MSTORE PUSH1 0xE PUSH1 0x24 DUP3 ADD MSTORE PUSH32 0x496E76616C6964207369676E6572000000000000000000000000000000000000 PUSH1 0x44 DUP3 ADD MSTORE PUSH1 0x64 SWAP1 REVERT JUMPDEST ISZERO PUSH2 0x2461 JUMPI JUMP JUMPDEST PUSH1 0x40 MLOAD PUSH3 0x461BCD PUSH1 0xE5 SHL DUP2 MSTORE PUSH1 0x20 PUSH1 0x4 DUP3 ADD MSTORE PUSH1 0xA PUSH1 0x24 DUP3 ADD MSTORE PUSH10 0x111D5C1B1A58D85D1959 PUSH1 0xB2 SHL PUSH1 0x44 DUP3 ADD MSTORE PUSH1 0x64 SWAP1 REVERT JUMPDEST SWAP2 SWAP5 SWAP7 SWAP6 SWAP1 SWAP4 PUSH1 0x6 SLOAD SWAP6 DUP7 ISZERO ISZERO DUP1 PUSH2 0x2607 JUMPI JUMPDEST DUP1 PUSH2 0x25FE JUMPI JUMPDEST DUP1 PUSH2 0x25F5 JUMPI JUMPDEST PUSH2 0x24BB SWAP1 PUSH2 0x2367 JUMP JUMPDEST PUSH2 0x24C4 DUP8 PUSH2 0x23B3 JUMP JUMPDEST SWAP6 PUSH0 JUMPDEST DUP9 DUP2 LT PUSH2 0x24DD JUMPI POP PUSH1 0x1 SWAP10 POP POP POP POP POP POP POP POP POP JUMP JUMPDEST PUSH1 0x20 PUSH0 DUP13 DUP10 PUSH2 0x2539 PUSH2 0x2511 DUP7 DUP12 PUSH2 0x250A DUP3 DUP14 PUSH2 0x2504 PUSH2 0x24FF DUP16 DUP16 SWAP1 DUP6 SWAP2 PUSH2 0x23E5 JUMP JUMPDEST PUSH2 0x23F5 JUMP JUMPDEST SWAP8 PUSH2 0x23E5 JUMP JUMPDEST CALLDATALOAD SWAP6 PUSH2 0x23E5 JUMP JUMPDEST CALLDATALOAD PUSH1 0x40 MLOAD SWAP4 DUP5 SWAP4 DUP14 DUP6 SWAP1 SWAP5 SWAP4 SWAP3 PUSH1 0xFF PUSH1 0x60 SWAP4 PUSH1 0x80 DUP5 ADD SWAP8 DUP5 MSTORE AND PUSH1 0x20 DUP4 ADD MSTORE PUSH1 0x40 DUP3 ADD MSTORE ADD MSTORE JUMP JUMPDEST DUP4 DUP1 MSTORE SUB SWAP1 PUSH1 0x1 GAS STATICCALL ISZERO PUSH2 0x25F0 JUMPI PUSH0 MLOAD PUSH2 0x2576 PUSH2 0x2571 PUSH2 0x256A DUP4 PUSH1 0x1 PUSH1 0x1 PUSH1 0xA0 SHL SUB AND PUSH0 MSTORE PUSH1 0x7 PUSH1 0x20 MSTORE PUSH1 0x40 PUSH0 KECCAK256 SWAP1 JUMP JUMPDEST SLOAD PUSH1 0xFF AND SWAP1 JUMP JUMPDEST PUSH2 0x240E JUMP JUMPDEST PUSH1 0x1 PUSH1 0x1 PUSH1 0xA0 SHL SUB DUP2 AND PUSH0 JUMPDEST DUP11 DUP5 DUP3 LT PUSH2 0x25B3 JUMPI PUSH2 0x25AD SWAP3 POP DUP5 PUSH1 0x1 SWAP6 SWAP5 SWAP3 POP PUSH2 0x259F SWAP2 PUSH2 0x21D4 JUMP JUMPDEST SWAP1 PUSH1 0x1 PUSH1 0x1 PUSH1 0xA0 SHL SUB AND SWAP1 MSTORE JUMP JUMPDEST ADD PUSH2 0x24C7 JUMP JUMPDEST SWAP1 PUSH2 0x25EA DUP4 PUSH2 0x25E3 PUSH2 0x25D7 PUSH2 0x25CA DUP6 PUSH1 0x1 SWAP8 PUSH2 0x21D4 JUMP JUMPDEST MLOAD PUSH1 0x1 PUSH1 0x1 PUSH1 0xA0 SHL SUB AND SWAP1 JUMP JUMPDEST PUSH1 0x1 PUSH1 0x1 PUSH1 0xA0 SHL SUB AND SWAP1 JUMP JUMPDEST EQ ISZERO PUSH2 0x245A JUMP JUMPDEST ADD PUSH2 0x2582 JUMP JUMPDEST PUSH2 0x2403 JUMP JUMPDEST POP DUP7 DUP4 EQ PUSH2 0x24B2 JUMP JUMPDEST POP DUP2 DUP8 EQ PUSH2 0x24AC JUMP JUMPDEST POP DUP1 DUP8 EQ PUSH2 0x24A6 JUMP JUMPDEST DUP2 DUP2 LT PUSH2 0x261B JUMPI POP POP JUMP JUMPDEST PUSH0 DUP2 SSTORE PUSH1 0x1 ADD PUSH2 0x2610 JUMP JUMPDEST PUSH2 0x2630 DUP2 SLOAD PUSH2 0x1530 JUMP JUMPDEST SWAP1 DUP2 PUSH2 0x263A JUMPI POP POP JUMP JUMPDEST DUP2 PUSH1 0x1F PUSH0 SWAP4 GT PUSH1 0x1 EQ PUSH2 0x264B JUMPI POP SSTORE JUMP JUMPDEST DUP2 DUP4 MSTORE PUSH1 0x20 DUP4 KECCAK256 PUSH2 0x2667 SWAP2 PUSH1 0x1F ADD PUSH1 0x5 SHR DUP2 ADD SWAP1 PUSH1 0x1 ADD PUSH2 0x2610 JUMP JUMPDEST DUP1 DUP3 MSTORE PUSH1 0x20 DUP3 KECCAK256 SWAP1 DUP2 SLOAD DUP4 PUSH1 0x1 SHL SWAP1 DUP5 NOT DUP6 PUSH1 0x3 SHL SHR NOT AND OR SWAP1 SSTORE SSTORE JUMP JUMPDEST PUSH1 0x6 PUSH0 SWAP2 DUP3 DUP2 SSTORE DUP3 PUSH1 0x1 DUP3 ADD SSTORE PUSH2 0x269E PUSH1 0x2 DUP3 ADD PUSH2 0x2626 JUMP JUMPDEST PUSH2 0x26AA PUSH1 0x3 DUP3 ADD PUSH2 0x2626 JUMP JUMPDEST DUP3 PUSH1 0x4 DUP3 ADD SSTORE DUP3 PUSH1 0x5 DUP3 ADD SSTORE ADD SSTORE JUMP JUMPDEST DUP1 SLOAD DUP1 ISZERO PUSH2 0x26E1 JUMPI PUSH0 NOT ADD SWAP1 PUSH2 0x26D0 DUP3 DUP3 PUSH2 0xB53 JUMP JUMPDEST DUP2 SLOAD SWAP1 PUSH0 NOT SWAP1 PUSH1 0x3 SHL SHL NOT AND SWAP1 SSTORE SSTORE JUMP JUMPDEST PUSH4 0x4E487B71 PUSH1 0xE0 SHL PUSH0 MSTORE PUSH1 0x31 PUSH1 0x4 MSTORE PUSH1 0x24 PUSH0 REVERT JUMPDEST PUSH1 0x6 SLOAD SWAP1 PUSH9 0x10000000000000000 DUP3 LT ISZERO PUSH2 0x6D7 JUMPI PUSH1 0x1 DUP3 ADD PUSH1 0x6 SSTORE PUSH1 0x6 SLOAD DUP3 LT ISZERO PUSH2 0xB4E JUMPI PUSH1 0x6 PUSH0 MSTORE PUSH32 0xF652222313E28459528D920B65115C16C04F3EFC82AAEDC97BE59F3F377C0D3F SWAP1 SWAP2 ADD DUP1 SLOAD PUSH1 0x1 PUSH1 0x1 PUSH1 0xA0 SHL SUB NOT AND PUSH1 0x1 PUSH1 0x1 PUSH1 0xA0 SHL SUB SWAP1 SWAP3 AND SWAP2 SWAP1 SWAP2 OR SWAP1 SSTORE JUMP JUMPDEST DUP1 PUSH0 MSTORE PUSH1 0x2 PUSH1 0x20 MSTORE PUSH1 0x1 PUSH1 0x1 PUSH1 0xA0 SHL SUB PUSH1 0x40 PUSH0 KECCAK256 SLOAD AND SWAP1 DUP2 ISZERO PUSH2 0x2783 JUMPI POP SWAP1 JUMP JUMPDEST PUSH4 0x7E273289 PUSH1 0xE0 SHL PUSH0 MSTORE PUSH1 0x4 MSTORE PUSH1 0x24 PUSH0 REVERT JUMPDEST ISZERO PUSH2 0x279C JUMPI JUMP JUMPDEST PUSH1 0x40 MLOAD PUSH3 0x461BCD PUSH1 0xE5 SHL DUP2 MSTORE PUSH1 0x20 PUSH1 0x4 DUP3 ADD MSTORE PUSH1 0x11 PUSH1 0x24 DUP3 ADD MSTORE PUSH32 0x7369676E61747572652065787069726564000000000000000000000000000000 PUSH1 0x44 DUP3 ADD MSTORE PUSH1 0x64 SWAP1 REVERT JUMPDEST SWAP8 SWAP6 SWAP4 SWAP2 SWAP8 SWAP7 SWAP5 SWAP3 SWAP1 SWAP7 PUSH2 0x2802 PUSH2 0x27FA PUSH1 0xD SLOAD DUP12 PUSH2 0x2135 JUMP JUMPDEST NUMBER GT ISZERO PUSH2 0x2795 JUMP JUMPDEST PUSH1 0xA0 DUP2 ADD PUSH2 0x281A PUSH2 0x200C DUP3 MLOAD PUSH1 0x1 PUSH1 0x1 PUSH1 0xA0 SHL SUB AND SWAP1 JUMP JUMPDEST SLOAD DUP10 LT SWAP1 DUP2 ISZERO PUSH2 0x287F JUMPI JUMPDEST POP PUSH2 0x284A JUMPI PUSH2 0x2844 SWAP9 PUSH2 0x2840 SWAP9 PUSH2 0x283B SWAP3 PUSH2 0x1C83 JUMP JUMPDEST PUSH2 0x2493 JUMP JUMPDEST ISZERO SWAP1 JUMP JUMPDEST PUSH2 0x12AC JUMPI JUMP JUMPDEST PUSH1 0x40 MLOAD PUSH3 0x461BCD PUSH1 0xE5 SHL DUP2 MSTORE PUSH1 0x20 PUSH1 0x4 DUP3 ADD MSTORE PUSH1 0xD PUSH1 0x24 DUP3 ADD MSTORE PUSH13 0x139BDB98D95CD25B9D985B1A59 PUSH1 0x9A SHL PUSH1 0x44 DUP3 ADD MSTORE PUSH1 0x64 SWAP1 REVERT JUMPDEST MLOAD PUSH2 0x2893 SWAP2 POP PUSH1 0x1 PUSH1 0x1 PUSH1 0xA0 SHL SUB AND PUSH2 0x200C JUMP JUMPDEST SLOAD DUP9 EQ ISZERO PUSH0 PUSH2 0x2825 JUMP JUMPDEST SWAP2 SWAP1 PUSH1 0x1F DUP2 GT PUSH2 0x28AC JUMPI POP POP POP JUMP JUMPDEST PUSH2 0x70D SWAP3 PUSH0 MSTORE PUSH1 0x20 PUSH0 KECCAK256 SWAP1 PUSH1 0x20 PUSH1 0x1F DUP5 ADD PUSH1 0x5 SHR DUP4 ADD SWAP4 LT PUSH2 0x28D6 JUMPI JUMPDEST PUSH1 0x1F ADD PUSH1 0x5 SHR ADD SWAP1 PUSH2 0x2610 JUMP JUMPDEST SWAP1 SWAP2 POP DUP2 SWAP1 PUSH2 0x28C9 JUMP JUMPDEST SWAP2 SWAP1 SWAP2 DUP3 MLOAD PUSH8 0xFFFFFFFFFFFFFFFF DUP2 GT PUSH2 0x6D7 JUMPI PUSH2 0x2908 DUP2 PUSH2 0x2902 DUP5 SLOAD PUSH2 0x1530 JUMP JUMPDEST DUP5 PUSH2 0x289D JUMP JUMPDEST PUSH1 0x20 PUSH1 0x1F DUP3 GT PUSH1 0x1 EQ PUSH2 0x2947 JUMPI DUP2 SWAP1 PUSH2 0x2938 SWAP4 SWAP5 SWAP6 PUSH0 SWAP3 PUSH2 0x293C JUMPI JUMPDEST POP POP DUP2 PUSH1 0x1 SHL SWAP2 PUSH0 NOT SWAP1 PUSH1 0x3 SHL SHR NOT AND OR SWAP1 JUMP JUMPDEST SWAP1 SSTORE JUMP JUMPDEST ADD MLOAD SWAP1 POP PUSH0 DUP1 PUSH2 0x2924 JUMP JUMPDEST PUSH1 0x1F NOT DUP3 AND SWAP1 PUSH2 0x295A DUP5 PUSH0 MSTORE PUSH1 0x20 PUSH0 KECCAK256 SWAP1 JUMP JUMPDEST SWAP2 PUSH0 JUMPDEST DUP2 DUP2 LT PUSH2 0x2994 JUMPI POP SWAP6 DUP4 PUSH1 0x1 SWAP6 SWAP7 SWAP8 LT PUSH2 0x297C JUMPI JUMPDEST POP POP POP DUP2 SHL ADD SWAP1 SSTORE JUMP JUMPDEST ADD MLOAD PUSH0 NOT PUSH1 0xF8 DUP5 PUSH1 0x3 SHL AND SHR NOT AND SWAP1 SSTORE PUSH0 DUP1 DUP1 PUSH2 0x2972 JUMP JUMPDEST SWAP2 SWAP3 PUSH1 0x20 PUSH1 0x1 DUP2 SWAP3 DUP7 DUP12 ADD MLOAD DUP2 SSTORE ADD SWAP5 ADD SWAP3 ADD PUSH2 0x295D JUMP JUMPDEST SWAP1 DUP1 MLOAD DUP3 SSTORE PUSH1 0x20 DUP2 ADD MLOAD PUSH1 0x1 DUP4 ADD SSTORE PUSH1 0x2 DUP3 ADD PUSH1 0x40 DUP3 ADD MLOAD DUP1 MLOAD SWAP1 PUSH8 0xFFFFFFFFFFFFFFFF DUP3 GT PUSH2 0x6D7 JUMPI PUSH2 0x29EA DUP3 PUSH2 0x29E4 DUP6 SLOAD PUSH2 0x1530 JUMP JUMPDEST DUP6 PUSH2 0x289D JUMP JUMPDEST PUSH1 0x20 SWAP1 PUSH1 0x1F DUP4 GT PUSH1 0x1 EQ PUSH2 0x2AA5 JUMPI SWAP4 PUSH1 0x6 SWAP4 PUSH2 0x2A26 DUP5 PUSH2 0x2A88 SWAP6 PUSH1 0xC0 SWAP6 PUSH2 0x70D SWAP11 SWAP10 PUSH0 SWAP3 PUSH2 0x293C JUMPI POP POP DUP2 PUSH1 0x1 SHL SWAP2 PUSH0 NOT SWAP1 PUSH1 0x3 SHL SHR NOT AND OR SWAP1 JUMP JUMPDEST SWAP1 SSTORE JUMPDEST PUSH2 0x2A3A PUSH1 0x60 DUP3 ADD MLOAD PUSH1 0x3 DUP8 ADD PUSH2 0x28E0 JUMP JUMPDEST PUSH1 0x80 DUP2 ADD MLOAD PUSH1 0x4 DUP7 ADD SSTORE PUSH2 0x2A7A PUSH2 0x2A5B PUSH1 0xA0 DUP4 ADD MLOAD PUSH1 0x1 PUSH1 0x1 PUSH1 0xA0 SHL SUB AND SWAP1 JUMP JUMPDEST PUSH1 0x5 DUP8 ADD SWAP1 PUSH1 0x1 PUSH1 0x1 PUSH1 0xA0 SHL SUB AND PUSH1 0x1 PUSH1 0x1 PUSH1 0xA0 SHL SUB NOT DUP3 SLOAD AND OR SWAP1 SSTORE JUMP JUMPDEST ADD MLOAD PUSH1 0x1 PUSH1 0x1 PUSH1 0xA0 SHL SUB AND SWAP1 JUMP JUMPDEST SWAP2 ADD SWAP1 PUSH1 0x1 PUSH1 0x1 PUSH1 0xA0 SHL SUB AND PUSH1 0x1 PUSH1 0x1 PUSH1 0xA0 SHL SUB NOT DUP3 SLOAD AND OR SWAP1 SSTORE JUMP JUMPDEST SWAP1 PUSH1 0x1F NOT DUP4 AND SWAP2 PUSH2 0x2AB9 DUP6 PUSH0 MSTORE PUSH1 0x20 PUSH0 KECCAK256 SWAP1 JUMP JUMPDEST SWAP3 PUSH0 JUMPDEST DUP2 DUP2 LT PUSH2 0x2B04 JUMPI POP DUP5 PUSH1 0xC0 SWAP5 PUSH2 0x70D SWAP10 SWAP9 SWAP5 PUSH1 0x6 SWAP9 SWAP5 PUSH2 0x2A88 SWAP9 PUSH1 0x1 SWAP6 LT PUSH2 0x2AEC JUMPI JUMPDEST POP POP POP DUP2 SHL ADD SWAP1 SSTORE PUSH2 0x2A29 JUMP JUMPDEST ADD MLOAD PUSH0 NOT PUSH1 0xF8 DUP5 PUSH1 0x3 SHL AND SHR NOT AND SWAP1 SSTORE PUSH0 DUP1 DUP1 PUSH2 0x2ADF JUMP JUMPDEST SWAP3 SWAP4 PUSH1 0x20 PUSH1 0x1 DUP2 SWAP3 DUP8 DUP7 ADD MLOAD DUP2 SSTORE ADD SWAP6 ADD SWAP4 ADD PUSH2 0x2ABC JUMP JUMPDEST SWAP1 DUP2 SLOAD SWAP2 PUSH9 0x10000000000000000 DUP4 LT ISZERO PUSH2 0x6D7 JUMPI DUP3 PUSH2 0x18DA SWAP2 PUSH1 0x1 PUSH2 0x70D SWAP6 ADD DUP2 SSTORE PUSH2 0xB53 JUMP JUMPDEST PUSH32 0x2E83F4F466DFDFAB2EB19137115F64F1D65F108FBFDD93E8A34E25164A8747B4 SWAP1 PUSH1 0x80 PUSH2 0x2C2F PUSH1 0x16 SLOAD DUP1 DUP5 MSTORE PUSH1 0x1 PUSH1 0x1 PUSH1 0xA0 SHL SUB ADDRESS AND PUSH1 0xC0 DUP6 ADD MSTORE PUSH2 0x2B9B DUP5 PUSH2 0x2B96 DUP4 PUSH0 MSTORE PUSH1 0x13 PUSH1 0x20 MSTORE PUSH1 0x40 PUSH0 KECCAK256 SWAP1 JUMP JUMPDEST PUSH2 0x29AC JUMP JUMPDEST PUSH2 0x2BB9 PUSH1 0xA0 DUP6 ADD SWAP2 PUSH2 0x2BB4 DUP4 MLOAD PUSH1 0x1 PUSH1 0x1 PUSH1 0xA0 SHL SUB AND SWAP1 JUMP JUMPDEST PUSH2 0x2E61 JUMP JUMPDEST PUSH2 0x2BF0 PUSH2 0x2BE7 PUSH2 0x2BD0 DUP4 MLOAD PUSH1 0x1 PUSH1 0x1 PUSH1 0xA0 SHL SUB AND SWAP1 JUMP JUMPDEST PUSH1 0x1 PUSH1 0x1 PUSH1 0xA0 SHL SUB AND PUSH0 MSTORE PUSH1 0xB PUSH1 0x20 MSTORE PUSH1 0x40 PUSH0 KECCAK256 SWAP1 JUMP JUMPDEST PUSH1 0x16 SLOAD SWAP1 PUSH2 0x2B1C JUMP JUMPDEST PUSH2 0x2C07 PUSH2 0x1896 PUSH2 0x2BD0 DUP4 MLOAD PUSH1 0x1 PUSH1 0x1 PUSH1 0xA0 SHL SUB AND SWAP1 JUMP JUMPDEST PUSH2 0x2C1B PUSH1 0x16 SLOAD PUSH0 MSTORE PUSH1 0xC PUSH1 0x20 MSTORE PUSH1 0x40 PUSH0 KECCAK256 SWAP1 JUMP JUMPDEST SSTORE PUSH2 0x25CA PUSH2 0x2C2A PUSH1 0x16 SLOAD PUSH2 0x2127 JUMP JUMPDEST PUSH1 0x16 SSTORE JUMP JUMPDEST SWAP2 ADD MLOAD PUSH1 0x40 DUP1 MLOAD PUSH1 0x1 PUSH1 0x1 PUSH1 0xA0 SHL SUB SWAP1 SWAP4 AND DUP4 MSTORE PUSH1 0x20 DUP4 ADD SWAP2 SWAP1 SWAP2 MSTORE TIMESTAMP SWAP1 DUP3 ADD MSTORE PUSH1 0x60 SWAP1 LOG1 JUMP JUMPDEST SWAP1 DUP2 PUSH1 0x20 SWAP2 SUB SLT PUSH2 0x1B JUMPI MLOAD PUSH2 0x44E DUP2 PUSH2 0x340 JUMP JUMPDEST SWAP1 SWAP3 PUSH1 0x1 PUSH1 0x1 PUSH1 0xA0 SHL SUB PUSH1 0x80 SWAP4 DUP2 PUSH2 0x44E SWAP8 SWAP7 AND DUP5 MSTORE AND PUSH1 0x20 DUP4 ADD MSTORE PUSH1 0x40 DUP3 ADD MSTORE DUP2 PUSH1 0x60 DUP3 ADD MSTORE ADD SWAP1 PUSH2 0x419 JUMP JUMPDEST RETURNDATASIZE ISZERO PUSH2 0x2CC3 JUMPI RETURNDATASIZE SWAP1 PUSH2 0x2CAA DUP3 PUSH2 0x70F JUMP JUMPDEST SWAP2 PUSH2 0x2CB8 PUSH1 0x40 MLOAD SWAP4 DUP5 PUSH2 0x6DC JUMP JUMPDEST DUP3 MSTORE RETURNDATASIZE PUSH0 PUSH1 0x20 DUP5 ADD RETURNDATACOPY JUMP JUMPDEST PUSH1 0x60 SWAP1 JUMP JUMPDEST DUP1 PUSH0 MSTORE PUSH1 0x2 PUSH1 0x20 MSTORE PUSH1 0x1 PUSH1 0x1 PUSH1 0xA0 SHL SUB PUSH1 0x40 PUSH0 KECCAK256 SLOAD AND DUP1 ISZERO SWAP1 DUP2 ISZERO PUSH2 0x2D37 JUMPI JUMPDEST PUSH2 0x2CFA DUP4 PUSH0 MSTORE PUSH1 0x2 PUSH1 0x20 MSTORE PUSH1 0x40 PUSH0 KECCAK256 SWAP1 JUMP JUMPDEST DUP1 SLOAD PUSH1 0x1 PUSH1 0x1 PUSH1 0xA0 SHL SUB NOT AND SWAP1 SSTORE DUP3 PUSH0 DUP3 PUSH32 0xDDF252AD1BE2C89B69C2B068FC378DAA952BA7F163C4A11628F55A4DF523B3EF DUP3 DUP1 LOG4 POP PUSH2 0x2783 JUMPI POP JUMP JUMPDEST PUSH2 0x2D40 DUP4 PUSH2 0x2D67 JUMP JUMPDEST PUSH2 0x2D5B DUP2 PUSH1 0x1 PUSH1 0x1 PUSH1 0xA0 SHL SUB AND PUSH0 MSTORE PUSH1 0x3 PUSH1 0x20 MSTORE PUSH1 0x40 PUSH0 KECCAK256 SWAP1 JUMP JUMPDEST DUP1 SLOAD PUSH0 NOT ADD SWAP1 SSTORE PUSH2 0x2CE8 JUMP JUMPDEST PUSH2 0x2D79 SWAP1 PUSH0 MSTORE PUSH1 0x4 PUSH1 0x20 MSTORE PUSH1 0x40 PUSH0 KECCAK256 SWAP1 JUMP JUMPDEST DUP1 SLOAD PUSH1 0x1 PUSH1 0x1 PUSH1 0xA0 SHL SUB NOT AND SWAP1 SSTORE JUMP JUMPDEST SWAP2 SWAP1 SWAP2 PUSH2 0x2DA7 PUSH1 0x1 PUSH1 0x1 PUSH1 0xA0 SHL SUB DUP5 AND DUP1 ISZERO ISZERO SWAP1 DUP2 PUSH2 0x2DEF JUMPI POP ISZERO SWAP1 JUMP JUMPDEST PUSH2 0x2DB0 JUMPI POP POP POP JUMP JUMPDEST PUSH1 0x1 PUSH1 0x1 PUSH1 0xA0 SHL SUB AND PUSH2 0x2DCF JUMPI PUSH4 0x7E273289 PUSH1 0xE0 SHL PUSH0 MSTORE PUSH1 0x4 MSTORE PUSH1 0x24 PUSH0 REVERT JUMPDEST PUSH4 0x177E802F PUSH1 0xE0 SHL PUSH0 MSTORE PUSH1 0x1 PUSH1 0x1 PUSH1 0xA0 SHL SUB SWAP1 SWAP2 AND PUSH1 0x4 MSTORE PUSH1 0x24 MSTORE PUSH1 0x44 PUSH0 REVERT JUMPDEST PUSH1 0x1 PUSH1 0x1 PUSH1 0xA0 SHL SUB DUP5 AND DUP1 DUP3 EQ SWAP3 POP DUP3 ISZERO PUSH2 0x2E2E JUMPI JUMPDEST POP DUP2 ISZERO PUSH2 0x2E11 JUMPI POP ISZERO SWAP1 JUMP JUMPDEST SWAP1 POP DUP4 PUSH0 MSTORE PUSH1 0x4 PUSH1 0x20 MSTORE PUSH1 0x1 PUSH1 0x1 PUSH1 0xA0 SHL SUB PUSH1 0x40 PUSH0 KECCAK256 SLOAD AND EQ ISZERO SWAP1 JUMP JUMPDEST SWAP1 SWAP2 POP PUSH0 MSTORE PUSH1 0x5 PUSH1 0x20 MSTORE PUSH1 0xFF PUSH2 0x2E58 DUP7 PUSH1 0x40 PUSH0 KECCAK256 SWAP1 PUSH1 0x1 PUSH1 0x1 PUSH1 0xA0 SHL SUB AND PUSH0 MSTORE PUSH1 0x20 MSTORE PUSH1 0x40 PUSH0 KECCAK256 SWAP1 JUMP JUMPDEST SLOAD AND SWAP1 PUSH0 PUSH2 0x2E05 JUMP JUMPDEST SWAP1 PUSH1 0x1 PUSH1 0x1 PUSH1 0xA0 SHL SUB DUP3 AND SWAP1 DUP2 ISZERO PUSH2 0x1EF5 JUMPI DUP1 PUSH0 MSTORE PUSH1 0x2 PUSH1 0x20 MSTORE PUSH1 0x1 PUSH1 0x1 PUSH1 0xA0 SHL SUB PUSH1 0x40 PUSH0 KECCAK256 SLOAD AND SWAP2 PUSH2 0x2EB1 DUP4 ISZERO ISZERO SWAP5 DUP6 PUSH2 0x1EB5 JUMPI PUSH2 0x1E51 DUP2 PUSH1 0x1 PUSH1 0x1 PUSH1 0xA0 SHL SUB AND PUSH0 MSTORE PUSH1 0x3 PUSH1 0x20 MSTORE PUSH1 0x40 PUSH0 KECCAK256 SWAP1 JUMP JUMPDEST DUP3 PUSH32 0xDDF252AD1BE2C89B69C2B068FC378DAA952BA7F163C4A11628F55A4DF523B3EF PUSH0 DUP1 LOG4 POP PUSH2 0x2EDD JUMPI JUMP JUMPDEST PUSH4 0x39E35637 PUSH1 0xE1 SHL PUSH0 MSTORE PUSH0 PUSH1 0x4 MSTORE PUSH1 0x24 PUSH0 REVERT INVALID LOG2 PUSH5 0x6970667358 0x22 SLT KECCAK256 0xDB ISZERO 0xBB PUSH19 0x9FA19950953D15FF9203C5EDE7956F557B59E4 0xAE 0xC8 GASPRICE 0xE3 0xBF SWAP2 0xDA TLOAD PUSH19 0x64736F6C634300081C00330000000000000000 "
		},
		"gasEstimates": {
			"creation": {
				"codeDepositCost": "2414000",
				"executionCost": "infinite",
				"totalCost": "infinite"
			},
			"external": {
				"": "1191",
				"BLOCK_NUMBER_VALID_RANGE()": "3228",
				"DOMAIN_NAME()": "685",
				"DOMAIN_SEPARATOR()": "infinite",
				"DOMAIN_TYPEHASH()": "377",
				"SCRIPTION_TO_NFT()": "1053",
				"_splitSignature(bytes)": "infinite",
				"addController(address)": "29652",
				"addSigner(address)": "104916",
				"approve(address,uint256)": "31237",
				"balanceOf(address)": "2935",
				"blackList(address)": "2840",
				"buildScriptionToNFTSeparator((uint256,uint256,string,string,uint256,address,address),uint256,uint256)": "infinite",
				"burnScriptionNFT(uint256,address)": "infinite",
				"controller(address)": "3236",
				"getApproved(uint256)": "4669",
				"getUserMintTokens(address)": "infinite",
				"getUserMintTxNonce(address)": "3136",
				"isApprovedForAll(address,address)": "3604",
				"mintScriptionToNFT((uint256,uint256,string,string,uint256,address,address),uint256,uint256,uint8[],bytes32[],bytes32[])": "infinite",
				"mintedScription()": "3030",
				"name()": "infinite",
				"nftToScriptions(uint256)": "infinite",
				"owner()": "2916",
				"ownerOf(uint256)": "2855",
				"recover(bytes32,uint8[],bytes32[],bytes32[])": "infinite",
				"removeController(address)": "29909",
				"removeSigner(address)": "infinite",
				"safeTransferFrom(address,address,uint256)": "infinite",
				"safeTransferFrom(address,address,uint256,bytes)": "infinite",
				"scriptionLimit()": "2458",
				"scriptionMintLimit()": "2612",
				"setApprovalForAll(address,bool)": "27199",
				"setBlackList(address,bool)": "27196",
				"setScriptionLimtation(uint256)": "24981",
				"setScriptionMintLimatation(uint256)": "24431",
				"setSignerAnthorization(address,bool)": "26910",
				"sigRequired()": "2756",
				"signatureRequiredSwitch()": "27445",
				"signerAuthorized(address)": "3258",
				"signerIndexes(address)": "3400",
				"supportsInterface(bytes4)": "372",
				"symbol()": "infinite",
				"tokenIndex(uint256)": "2369",
				"tokenURI(uint256)": "infinite",
				"transferFrom(address,address,uint256)": "106806",
				"trustedVerifier(uint256)": "4710",
				"updateBlockNumberValidRange(uint256)": "24717",
				"userMintNonce(address)": "2960",
				"userMintOnBlockNumber(address)": "2674",
				"userTokens(address,uint256)": "7845"
			},
			"internal": {
				"_mintScriptionToNFT(struct ScriptionToNFT._scription memory)": "infinite",
				"_notExeceedScriptionMintLimit(uint256)": "infinite",
				"_verifyMintHash(struct ScriptionToNFT._scription memory,uint256,uint256,uint8[] calldata,bytes32[] calldata,bytes32[] calldata)": "infinite"
			}
		},
		"methodIdentifiers": {
			"BLOCK_NUMBER_VALID_RANGE()": "ca0f9fd8",
			"DOMAIN_NAME()": "796f077b",
			"DOMAIN_SEPARATOR()": "3644e515",
			"DOMAIN_TYPEHASH()": "20606b70",
			"SCRIPTION_TO_NFT()": "864360ae",
			"_splitSignature(bytes)": "9bd0e9e9",
			"addController(address)": "a7fc7a07",
			"addSigner(address)": "eb12d61e",
			"approve(address,uint256)": "095ea7b3",
			"balanceOf(address)": "70a08231",
			"blackList(address)": "4838d165",
			"buildScriptionToNFTSeparator((uint256,uint256,string,string,uint256,address,address),uint256,uint256)": "0beb96ba",
			"burnScriptionNFT(uint256,address)": "c803b7ed",
			"controller(address)": "c13aa7b5",
			"getApproved(uint256)": "081812fc",
			"getUserMintTokens(address)": "7f0ac018",
			"getUserMintTxNonce(address)": "a5b4cd3c",
			"isApprovedForAll(address,address)": "e985e9c5",
			"mintScriptionToNFT((uint256,uint256,string,string,uint256,address,address),uint256,uint256,uint8[],bytes32[],bytes32[])": "482f7467",
			"mintedScription()": "b61a2af7",
			"name()": "06fdde03",
			"nftToScriptions(uint256)": "c3e1b1f0",
			"owner()": "8da5cb5b",
			"ownerOf(uint256)": "6352211e",
			"recover(bytes32,uint8[],bytes32[],bytes32[])": "c50cd326",
			"removeController(address)": "f6a74ed7",
			"removeSigner(address)": "0e316ab7",
			"safeTransferFrom(address,address,uint256)": "42842e0e",
			"safeTransferFrom(address,address,uint256,bytes)": "b88d4fde",
			"scriptionLimit()": "1b8a5c5d",
			"scriptionMintLimit()": "4279b461",
			"setApprovalForAll(address,bool)": "a22cb465",
			"setBlackList(address,bool)": "68092bd9",
			"setScriptionLimtation(uint256)": "7d1d25db",
			"setScriptionMintLimatation(uint256)": "02a860df",
			"setSignerAnthorization(address,bool)": "14e08463",
			"sigRequired()": "6f5b218c",
			"signatureRequiredSwitch()": "c7432b0e",
			"signerAuthorized(address)": "c26e2529",
			"signerIndexes(address)": "d19c3104",
			"supportsInterface(bytes4)": "01ffc9a7",
			"symbol()": "95d89b41",
			"tokenIndex(uint256)": "0583e9f8",
			"tokenURI(uint256)": "c87b56dd",
			"transferFrom(address,address,uint256)": "23b872dd",
			"trustedVerifier(uint256)": "2c737a85",
			"updateBlockNumberValidRange(uint256)": "353d9f24",
			"userMintNonce(address)": "7d10c040",
			"userMintOnBlockNumber(address)": "2b651e09",
			"userTokens(address,uint256)": "f9f411d8"
		}
	},
	"abi": [
		{
			"inputs": [
				{
					"internalType": "string",
					"name": "_name",
					"type": "string"
				},
				{
					"internalType": "string",
					"name": "_symbol",
					"type": "string"
				},
				{
					"internalType": "address",
					"name": "_owner",
					"type": "address"
				},
				{
					"internalType": "address[]",
					"name": "_verifiers",
					"type": "address[]"
				},
				{
					"internalType": "address",
					"name": "_controller",
					"type": "address"
				},
				{
					"internalType": "uint256",
					"name": "_scriptionLimit",
					"type": "uint256"
				},
				{
					"internalType": "uint256",
					"name": "_scriptionMintLimit",
					"type": "uint256"
				},
				{
					"internalType": "uint256",
					"name": "_blockNumberValidRange",
					"type": "uint256"
				}
			],
			"stateMutability": "nonpayable",
			"type": "constructor"
		},
		{
			"inputs": [
				{
					"internalType": "address",
					"name": "sender",
					"type": "address"
				},
				{
					"internalType": "uint256",
					"name": "tokenId",
					"type": "uint256"
				},
				{
					"internalType": "address",
					"name": "owner",
					"type": "address"
				}
			],
			"name": "ERC721IncorrectOwner",
			"type": "error"
		},
		{
			"inputs": [
				{
					"internalType": "address",
					"name": "operator",
					"type": "address"
				},
				{
					"internalType": "uint256",
					"name": "tokenId",
					"type": "uint256"
				}
			],
			"name": "ERC721InsufficientApproval",
			"type": "error"
		},
		{
			"inputs": [
				{
					"internalType": "address",
					"name": "approver",
					"type": "address"
				}
			],
			"name": "ERC721InvalidApprover",
			"type": "error"
		},
		{
			"inputs": [
				{
					"internalType": "address",
					"name": "operator",
					"type": "address"
				}
			],
			"name": "ERC721InvalidOperator",
			"type": "error"
		},
		{
			"inputs": [
				{
					"internalType": "address",
					"name": "owner",
					"type": "address"
				}
			],
			"name": "ERC721InvalidOwner",
			"type": "error"
		},
		{
			"inputs": [
				{
					"internalType": "address",
					"name": "receiver",
					"type": "address"
				}
			],
			"name": "ERC721InvalidReceiver",
			"type": "error"
		},
		{
			"inputs": [
				{
					"internalType": "address",
					"name": "sender",
					"type": "address"
				}
			],
			"name": "ERC721InvalidSender",
			"type": "error"
		},
		{
			"inputs": [
				{
					"internalType": "uint256",
					"name": "tokenId",
					"type": "uint256"
				}
			],
			"name": "ERC721NonexistentToken",
			"type": "error"
		},
		{
			"anonymous": false,
			"inputs": [
				{
					"indexed": true,
					"internalType": "address",
					"name": "owner",
					"type": "address"
				},
				{
					"indexed": true,
					"internalType": "address",
					"name": "approved",
					"type": "address"
				},
				{
					"indexed": true,
					"internalType": "uint256",
					"name": "tokenId",
					"type": "uint256"
				}
			],
			"name": "Approval",
			"type": "event"
		},
		{
			"anonymous": false,
			"inputs": [
				{
					"indexed": true,
					"internalType": "address",
					"name": "owner",
					"type": "address"
				},
				{
					"indexed": true,
					"internalType": "address",
					"name": "operator",
					"type": "address"
				},
				{
					"indexed": false,
					"internalType": "bool",
					"name": "approved",
					"type": "bool"
				}
			],
			"name": "ApprovalForAll",
			"type": "event"
		},
		{
			"anonymous": false,
			"inputs": [
				{
					"indexed": true,
					"internalType": "address",
					"name": "from",
					"type": "address"
				},
				{
					"indexed": true,
					"internalType": "address",
					"name": "to",
					"type": "address"
				},
				{
					"indexed": true,
					"internalType": "uint256",
					"name": "tokenId",
					"type": "uint256"
				}
			],
			"name": "Transfer",
			"type": "event"
		},
		{
			"anonymous": false,
			"inputs": [
				{
					"indexed": false,
					"internalType": "address",
					"name": "_owner",
					"type": "address"
				},
				{
					"indexed": false,
					"internalType": "uint256",
					"name": "balance",
					"type": "uint256"
				},
				{
					"indexed": false,
					"internalType": "uint256",
					"name": "time",
					"type": "uint256"
				}
			],
			"name": "burnScriptionNFTEvent",
			"type": "event"
		},
		{
			"anonymous": false,
			"inputs": [
				{
					"indexed": false,
					"internalType": "address",
					"name": "_owner",
					"type": "address"
				},
				{
					"indexed": false,
					"internalType": "uint256",
					"name": "amount",
					"type": "uint256"
				},
				{
					"indexed": false,
					"internalType": "uint256",
					"name": "time",
					"type": "uint256"
				}
			],
			"name": "mintScriptionToNFTEvent",
			"type": "event"
		},
		{
			"stateMutability": "nonpayable",
			"type": "fallback"
		},
		{
			"inputs": [],
			"name": "BLOCK_NUMBER_VALID_RANGE",
			"outputs": [
				{
					"internalType": "uint256",
					"name": "",
					"type": "uint256"
				}
			],
			"stateMutability": "view",
			"type": "function"
		},
		{
			"inputs": [],
			"name": "DOMAIN_NAME",
			"outputs": [
				{
					"internalType": "bytes32",
					"name": "",
					"type": "bytes32"
				}
			],
			"stateMutability": "view",
			"type": "function"
		},
		{
			"inputs": [],
			"name": "DOMAIN_SEPARATOR",
			"outputs": [
				{
					"internalType": "bytes32",
					"name": "",
					"type": "bytes32"
				}
			],
			"stateMutability": "view",
			"type": "function"
		},
		{
			"inputs": [],
			"name": "DOMAIN_TYPEHASH",
			"outputs": [
				{
					"internalType": "bytes32",
					"name": "",
					"type": "bytes32"
				}
			],
			"stateMutability": "view",
			"type": "function"
		},
		{
			"inputs": [],
			"name": "SCRIPTION_TO_NFT",
			"outputs": [
				{
					"internalType": "bytes32",
					"name": "",
					"type": "bytes32"
				}
			],
			"stateMutability": "view",
			"type": "function"
		},
		{
			"inputs": [
				{
					"internalType": "bytes",
					"name": "signature",
					"type": "bytes"
				}
			],
			"name": "_splitSignature",
			"outputs": [
				{
					"internalType": "bytes32",
					"name": "r",
					"type": "bytes32"
				},
				{
					"internalType": "bytes32",
					"name": "s",
					"type": "bytes32"
				},
				{
					"internalType": "uint8",
					"name": "v",
					"type": "uint8"
				}
			],
			"stateMutability": "pure",
			"type": "function"
		},
		{
			"inputs": [
				{
					"internalType": "address",
					"name": "_controller",
					"type": "address"
				}
			],
			"name": "addController",
			"outputs": [],
			"stateMutability": "nonpayable",
			"type": "function"
		},
		{
			"inputs": [
				{
					"internalType": "address",
					"name": "_account",
					"type": "address"
				}
			],
			"name": "addSigner",
			"outputs": [],
			"stateMutability": "nonpayable",
			"type": "function"
		},
		{
			"inputs": [
				{
					"internalType": "address",
					"name": "to",
					"type": "address"
				},
				{
					"internalType": "uint256",
					"name": "tokenId",
					"type": "uint256"
				}
			],
			"name": "approve",
			"outputs": [],
			"stateMutability": "nonpayable",
			"type": "function"
		},
		{
			"inputs": [
				{
					"internalType": "address",
					"name": "owner",
					"type": "address"
				}
			],
			"name": "balanceOf",
			"outputs": [
				{
					"internalType": "uint256",
					"name": "",
					"type": "uint256"
				}
			],
			"stateMutability": "view",
			"type": "function"
		},
		{
			"inputs": [
				{
					"internalType": "address",
					"name": "",
					"type": "address"
				}
			],
			"name": "blackList",
			"outputs": [
				{
					"internalType": "bool",
					"name": "",
					"type": "bool"
				}
			],
			"stateMutability": "view",
			"type": "function"
		},
		{
			"inputs": [
				{
					"components": [
						{
							"internalType": "uint256",
							"name": "tokenId",
							"type": "uint256"
						},
						{
							"internalType": "uint256",
							"name": "chainID",
							"type": "uint256"
						},
						{
							"internalType": "string",
							"name": "tick",
							"type": "string"
						},
						{
							"internalType": "string",
							"name": "protocol",
							"type": "string"
						},
						{
							"internalType": "uint256",
							"name": "amount",
							"type": "uint256"
						},
						{
							"internalType": "address",
							"name": "owner",
							"type": "address"
						},
						{
							"internalType": "address",
							"name": "contractAddr",
							"type": "address"
						}
					],
					"internalType": "struct ScriptionToNFT._scription",
					"name": "scriptionData",
					"type": "tuple"
				},
				{
					"internalType": "uint256",
					"name": "_nonce",
					"type": "uint256"
				},
				{
					"internalType": "uint256",
					"name": "_blockHeight",
					"type": "uint256"
				}
			],
			"name": "buildScriptionToNFTSeparator",
			"outputs": [
				{
					"internalType": "bytes32",
					"name": "",
					"type": "bytes32"
				}
			],
			"stateMutability": "view",
			"type": "function"
		},
		{
			"inputs": [
				{
					"internalType": "uint256",
					"name": "_tokenId",
					"type": "uint256"
				},
				{
					"internalType": "address",
					"name": "_owner",
					"type": "address"
				}
			],
			"name": "burnScriptionNFT",
			"outputs": [],
			"stateMutability": "nonpayable",
			"type": "function"
		},
		{
			"inputs": [
				{
					"internalType": "address",
					"name": "",
					"type": "address"
				}
			],
			"name": "controller",
			"outputs": [
				{
					"internalType": "bool",
					"name": "",
					"type": "bool"
				}
			],
			"stateMutability": "view",
			"type": "function"
		},
		{
			"inputs": [
				{
					"internalType": "uint256",
					"name": "tokenId",
					"type": "uint256"
				}
			],
			"name": "getApproved",
			"outputs": [
				{
					"internalType": "address",
					"name": "",
					"type": "address"
				}
			],
			"stateMutability": "view",
			"type": "function"
		},
		{
			"inputs": [
				{
					"internalType": "address",
					"name": "_owner",
					"type": "address"
				}
			],
			"name": "getUserMintTokens",
			"outputs": [
				{
					"components": [
						{
							"internalType": "uint256",
							"name": "tokenId",
							"type": "uint256"
						},
						{
							"internalType": "uint256",
							"name": "chainID",
							"type": "uint256"
						},
						{
							"internalType": "string",
							"name": "tick",
							"type": "string"
						},
						{
							"internalType": "string",
							"name": "protocol",
							"type": "string"
						},
						{
							"internalType": "uint256",
							"name": "amount",
							"type": "uint256"
						},
						{
							"internalType": "address",
							"name": "owner",
							"type": "address"
						},
						{
							"internalType": "address",
							"name": "contractAddr",
							"type": "address"
						}
					],
					"internalType": "struct ScriptionToNFT._scription[]",
					"name": "_userTokens",
					"type": "tuple[]"
				}
			],
			"stateMutability": "view",
			"type": "function"
		},
		{
			"inputs": [
				{
					"internalType": "address",
					"name": "_owner",
					"type": "address"
				}
			],
			"name": "getUserMintTxNonce",
			"outputs": [
				{
					"internalType": "uint256",
					"name": "",
					"type": "uint256"
				}
			],
			"stateMutability": "view",
			"type": "function"
		},
		{
			"inputs": [
				{
					"internalType": "address",
					"name": "owner",
					"type": "address"
				},
				{
					"internalType": "address",
					"name": "operator",
					"type": "address"
				}
			],
			"name": "isApprovedForAll",
			"outputs": [
				{
					"internalType": "bool",
					"name": "",
					"type": "bool"
				}
			],
			"stateMutability": "view",
			"type": "function"
		},
		{
			"inputs": [
				{
					"components": [
						{
							"internalType": "uint256",
							"name": "tokenId",
							"type": "uint256"
						},
						{
							"internalType": "uint256",
							"name": "chainID",
							"type": "uint256"
						},
						{
							"internalType": "string",
							"name": "tick",
							"type": "string"
						},
						{
							"internalType": "string",
							"name": "protocol",
							"type": "string"
						},
						{
							"internalType": "uint256",
							"name": "amount",
							"type": "uint256"
						},
						{
							"internalType": "address",
							"name": "owner",
							"type": "address"
						},
						{
							"internalType": "address",
							"name": "contractAddr",
							"type": "address"
						}
					],
					"internalType": "struct ScriptionToNFT._scription",
					"name": "scriptionData",
					"type": "tuple"
				},
				{
					"internalType": "uint256",
					"name": "_nonce",
					"type": "uint256"
				},
				{
					"internalType": "uint256",
					"name": "_blockHeight",
					"type": "uint256"
				},
				{
					"internalType": "uint8[]",
					"name": "v",
					"type": "uint8[]"
				},
				{
					"internalType": "bytes32[]",
					"name": "r",
					"type": "bytes32[]"
				},
				{
					"internalType": "bytes32[]",
					"name": "s",
					"type": "bytes32[]"
				}
			],
			"name": "mintScriptionToNFT",
			"outputs": [],
			"stateMutability": "nonpayable",
			"type": "function"
		},
		{
			"inputs": [],
			"name": "mintedScription",
			"outputs": [
				{
					"internalType": "uint256",
					"name": "",
					"type": "uint256"
				}
			],
			"stateMutability": "view",
			"type": "function"
		},
		{
			"inputs": [],
			"name": "name",
			"outputs": [
				{
					"internalType": "string",
					"name": "",
					"type": "string"
				}
			],
			"stateMutability": "view",
			"type": "function"
		},
		{
			"inputs": [
				{
					"internalType": "uint256",
					"name": "",
					"type": "uint256"
				}
			],
			"name": "nftToScriptions",
			"outputs": [
				{
					"internalType": "uint256",
					"name": "tokenId",
					"type": "uint256"
				},
				{
					"internalType": "uint256",
					"name": "chainID",
					"type": "uint256"
				},
				{
					"internalType": "string",
					"name": "tick",
					"type": "string"
				},
				{
					"internalType": "string",
					"name": "protocol",
					"type": "string"
				},
				{
					"internalType": "uint256",
					"name": "amount",
					"type": "uint256"
				},
				{
					"internalType": "address",
					"name": "owner",
					"type": "address"
				},
				{
					"internalType": "address",
					"name": "contractAddr",
					"type": "address"
				}
			],
			"stateMutability": "view",
			"type": "function"
		},
		{
			"inputs": [],
			"name": "owner",
			"outputs": [
				{
					"internalType": "address",
					"name": "",
					"type": "address"
				}
			],
			"stateMutability": "view",
			"type": "function"
		},
		{
			"inputs": [
				{
					"internalType": "uint256",
					"name": "tokenId",
					"type": "uint256"
				}
			],
			"name": "ownerOf",
			"outputs": [
				{
					"internalType": "address",
					"name": "",
					"type": "address"
				}
			],
			"stateMutability": "view",
			"type": "function"
		},
		{
			"inputs": [
				{
					"internalType": "bytes32",
					"name": "hash",
					"type": "bytes32"
				},
				{
					"internalType": "uint8[]",
					"name": "v",
					"type": "uint8[]"
				},
				{
					"internalType": "bytes32[]",
					"name": "r",
					"type": "bytes32[]"
				},
				{
					"internalType": "bytes32[]",
					"name": "s",
					"type": "bytes32[]"
				}
			],
			"name": "recover",
			"outputs": [
				{
					"internalType": "bool",
					"name": "",
					"type": "bool"
				}
			],
			"stateMutability": "view",
			"type": "function"
		},
		{
			"inputs": [
				{
					"internalType": "address",
					"name": "_controller",
					"type": "address"
				}
			],
			"name": "removeController",
			"outputs": [],
			"stateMutability": "nonpayable",
			"type": "function"
		},
		{
			"inputs": [
				{
					"internalType": "address",
					"name": "_account",
					"type": "address"
				}
			],
			"name": "removeSigner",
			"outputs": [],
			"stateMutability": "nonpayable",
			"type": "function"
		},
		{
			"inputs": [
				{
					"internalType": "address",
					"name": "from",
					"type": "address"
				},
				{
					"internalType": "address",
					"name": "to",
					"type": "address"
				},
				{
					"internalType": "uint256",
					"name": "tokenId",
					"type": "uint256"
				}
			],
			"name": "safeTransferFrom",
			"outputs": [],
			"stateMutability": "nonpayable",
			"type": "function"
		},
		{
			"inputs": [
				{
					"internalType": "address",
					"name": "from",
					"type": "address"
				},
				{
					"internalType": "address",
					"name": "to",
					"type": "address"
				},
				{
					"internalType": "uint256",
					"name": "tokenId",
					"type": "uint256"
				},
				{
					"internalType": "bytes",
					"name": "data",
					"type": "bytes"
				}
			],
			"name": "safeTransferFrom",
			"outputs": [],
			"stateMutability": "nonpayable",
			"type": "function"
		},
		{
			"inputs": [],
			"name": "scriptionLimit",
			"outputs": [
				{
					"internalType": "uint256",
					"name": "",
					"type": "uint256"
				}
			],
			"stateMutability": "view",
			"type": "function"
		},
		{
			"inputs": [],
			"name": "scriptionMintLimit",
			"outputs": [
				{
					"internalType": "uint256",
					"name": "",
					"type": "uint256"
				}
			],
			"stateMutability": "view",
			"type": "function"
		},
		{
			"inputs": [
				{
					"internalType": "address",
					"name": "operator",
					"type": "address"
				},
				{
					"internalType": "bool",
					"name": "approved",
					"type": "bool"
				}
			],
			"name": "setApprovalForAll",
			"outputs": [],
			"stateMutability": "nonpayable",
			"type": "function"
		},
		{
			"inputs": [
				{
					"internalType": "address",
					"name": "_user",
					"type": "address"
				},
				{
					"internalType": "bool",
					"name": "_status",
					"type": "bool"
				}
			],
			"name": "setBlackList",
			"outputs": [],
			"stateMutability": "nonpayable",
			"type": "function"
		},
		{
			"inputs": [
				{
					"internalType": "uint256",
					"name": "_num",
					"type": "uint256"
				}
			],
			"name": "setScriptionLimtation",
			"outputs": [],
			"stateMutability": "nonpayable",
			"type": "function"
		},
		{
			"inputs": [
				{
					"internalType": "uint256",
					"name": "_num",
					"type": "uint256"
				}
			],
			"name": "setScriptionMintLimatation",
			"outputs": [],
			"stateMutability": "nonpayable",
			"type": "function"
		},
		{
			"inputs": [
				{
					"internalType": "address",
					"name": "_account",
					"type": "address"
				},
				{
					"internalType": "bool",
					"name": "_status",
					"type": "bool"
				}
			],
			"name": "setSignerAnthorization",
			"outputs": [],
			"stateMutability": "nonpayable",
			"type": "function"
		},
		{
			"inputs": [],
			"name": "sigRequired",
			"outputs": [
				{
					"internalType": "bool",
					"name": "",
					"type": "bool"
				}
			],
			"stateMutability": "view",
			"type": "function"
		},
		{
			"inputs": [],
			"name": "signatureRequiredSwitch",
			"outputs": [],
			"stateMutability": "nonpayable",
			"type": "function"
		},
		{
			"inputs": [
				{
					"internalType": "address",
					"name": "",
					"type": "address"
				}
			],
			"name": "signerAuthorized",
			"outputs": [
				{
					"internalType": "bool",
					"name": "",
					"type": "bool"
				}
			],
			"stateMutability": "view",
			"type": "function"
		},
		{
			"inputs": [
				{
					"internalType": "address",
					"name": "",
					"type": "address"
				}
			],
			"name": "signerIndexes",
			"outputs": [
				{
					"internalType": "uint256",
					"name": "",
					"type": "uint256"
				}
			],
			"stateMutability": "view",
			"type": "function"
		},
		{
			"inputs": [
				{
					"internalType": "bytes4",
					"name": "interfaceId",
					"type": "bytes4"
				}
			],
			"name": "supportsInterface",
			"outputs": [
				{
					"internalType": "bool",
					"name": "",
					"type": "bool"
				}
			],
			"stateMutability": "view",
			"type": "function"
		},
		{
			"inputs": [],
			"name": "symbol",
			"outputs": [
				{
					"internalType": "string",
					"name": "",
					"type": "string"
				}
			],
			"stateMutability": "view",
			"type": "function"
		},
		{
			"inputs": [
				{
					"internalType": "uint256",
					"name": "",
					"type": "uint256"
				}
			],
			"name": "tokenIndex",
			"outputs": [
				{
					"internalType": "uint256",
					"name": "",
					"type": "uint256"
				}
			],
			"stateMutability": "view",
			"type": "function"
		},
		{
			"inputs": [
				{
					"internalType": "uint256",
					"name": "tokenId",
					"type": "uint256"
				}
			],
			"name": "tokenURI",
			"outputs": [
				{
					"internalType": "string",
					"name": "",
					"type": "string"
				}
			],
			"stateMutability": "view",
			"type": "function"
		},
		{
			"inputs": [
				{
					"internalType": "address",
					"name": "from",
					"type": "address"
				},
				{
					"internalType": "address",
					"name": "to",
					"type": "address"
				},
				{
					"internalType": "uint256",
					"name": "tokenId",
					"type": "uint256"
				}
			],
			"name": "transferFrom",
			"outputs": [],
			"stateMutability": "nonpayable",
			"type": "function"
		},
		{
			"inputs": [
				{
					"internalType": "uint256",
					"name": "",
					"type": "uint256"
				}
			],
			"name": "trustedVerifier",
			"outputs": [
				{
					"internalType": "address",
					"name": "",
					"type": "address"
				}
			],
			"stateMutability": "view",
			"type": "function"
		},
		{
			"inputs": [
				{
					"internalType": "uint256",
					"name": "_number",
					"type": "uint256"
				}
			],
			"name": "updateBlockNumberValidRange",
			"outputs": [],
			"stateMutability": "nonpayable",
			"type": "function"
		},
		{
			"inputs": [
				{
					"internalType": "address",
					"name": "",
					"type": "address"
				}
			],
			"name": "userMintNonce",
			"outputs": [
				{
					"internalType": "uint256",
					"name": "",
					"type": "uint256"
				}
			],
			"stateMutability": "view",
			"type": "function"
		},
		{
			"inputs": [
				{
					"internalType": "address",
					"name": "",
					"type": "address"
				}
			],
			"name": "userMintOnBlockNumber",
			"outputs": [
				{
					"internalType": "uint256",
					"name": "",
					"type": "uint256"
				}
			],
			"stateMutability": "view",
			"type": "function"
		},
		{
			"inputs": [
				{
					"internalType": "address",
					"name": "",
					"type": "address"
				},
				{
					"internalType": "uint256",
					"name": "",
					"type": "uint256"
				}
			],
			"name": "userTokens",
			"outputs": [
				{
					"internalType": "uint256",
					"name": "",
					"type": "uint256"
				}
			],
			"stateMutability": "view",
			"type": "function"
		},
		{
			"stateMutability": "payable",
			"type": "receive"
		}
	]
}