{
	"data": {
		"bytecode": {
			"linkReferences": {},
			"object": "60a0604052346103ae576121286020813803918261001c816103b2565b9384928339810103126103ae57516001600160a01b038116908190036103ae5761004660406103b2565b90600982526814da5b5c1b1953919560ba1b602083015261006760406103b2565b600481526314d3919560e21b602082015282519091906001600160401b0381116102c2575f54600181811c911680156103a4575b60208210146102a457601f8111610342575b506020601f82116001146102e157819293945f926102d6575b50508160011b915f199060031b1c1916175f555b81516001600160401b0381116102c257600154600181811c911680156102b8575b60208210146102a457601f8111610241575b50602092601f82116001146101e057928192935f926101d5575b50508160011b915f199060031b1c1916176001555b33156101c25760068054336001600160a01b0319821681179092556040519291906001600160a01b03167f8be0079c531659141344cd1fd0a4f28419497f9722a3daafe3b4186f6b6457e05f80a36001600755612710600855655af3107a4000600955600a8055608052611d5090816103d8823960805181818161047d0152610a330152f35b631e4fbdf760e01b5f525f60045260245ffd5b015190505f80610127565b601f1982169360015f52805f20915f5b8681106102295750836001959610610211575b505050811b0160015561013c565b01515f1960f88460031b161c191690555f8080610203565b919260206001819286850151815501940192016101f0565b60015f527fb10e2d527612073b26eecdfd717e6a320cf44b4afac2b0732d9fcbe2b7fa0cf6601f830160051c8101916020841061029a575b601f0160051c01905b81811061028f575061010d565b5f8155600101610282565b9091508190610279565b634e487b7160e01b5f52602260045260245ffd5b90607f16906100fb565b634e487b7160e01b5f52604160045260245ffd5b015190505f806100c6565b601f198216905f8052805f20915f5b81811061032a57509583600195969710610312575b505050811b015f556100da565b01515f1960f88460031b161c191690555f8080610305565b9192602060018192868b0151815501940192016102f0565b5f80527f290decd9548b62a8d60345a988386fc84ba6bc95484008f6362f93160ef3e563601f830160051c8101916020841061039a575b601f0160051c01905b81811061038f57506100ad565b5f8155600101610382565b9091508190610379565b90607f169061009b565b5f80fd5b6040519190601f01601f191682016001600160401b038111838210176102c25760405256fe6080806040526004361015610012575f80fd5b5f3560e01c90816301ffc9a7146113205750806306fdde031461127e578063081812fc14611241578063095ea7b3146111555780631249c58b146110e557806318160ddd146110bc5780631e14d44b1461109b57806320e409b414610fc157806323b872dd14610faa5780633ccfd60b14610f215780633eb5a91d14610ee457806342842e0e14610ebb578063484b973c14610e3b57806355f804b314610c74578063572849c414610c575780636352211e14610c285780636817c76c14610c0b5780636f8b44b014610bea57806370a0823114610b99578063715018a614610b475780638da5cb5b14610b2157806395d89b4114610a57578063996c6cc314610a14578063a22cb46514610979578063b88d4fde14610919578063c07de428146108c4578063c87b56dd1461088d578063c968ae0a146105da578063caa0f92a14610870578063d5abeb0114610853578063de0e9a3e14610604578063df91d0b9146105da578063e985e9c514610581578063ea598cb01461042d578063f2fde38b146103af578063f4a0a5281461038e578063fddcb5ea146103565763fea4f170146101be575f80fd5b34610352575f366003190112610352576007545f19810190811161033e575f9060015b8181111561030957506101f382611a90565b916102016040519384611461565b808352610210601f1991611a90565b015f5b8181106102e65750505f60015b8281111561027957836040518091602082016020835281518091526020604084019201905f5b818110610254575050500390f35b8251805185526020908101518186015286955060409094019390920191600101610246565b805f52600d60205260405f2054610299575b610294906115f1565b610220565b906102de61029491835f52600d60205260405f2054604051906102bb82611445565b85825260208201526102cd8288611aa8565b526102d88187611aa8565b506115f1565b91905061028b565b6020906040516102f581611445565b5f81525f8382015282828701015201610213565b805f52600d60205260405f2054610329575b610324906115f1565b6101e1565b91610336610324916115f1565b92905061031b565b634e487b7160e01b5f52601160045260245ffd5b5f80fd5b34610352576020366003190112610352576001600160a01b036103776113af565b165f52600c602052602060405f2054604051908152f35b34610352576020366003190112610352576103a7611bc5565b600435600955005b34610352576020366003190112610352576001600160a01b036103d06113af565b6103d8611bc5565b16801561041a576001600160a01b03600654828219821617600655167f8be0079c531659141344cd1fd0a4f28419497f9722a3daafe3b4186f6b6457e05f80a3005b631e4fbdf760e01b5f525f60045260245ffd5b3461035257602036600319011261035257600435801561053c576104a16040516323b872dd60e01b60208201523360248201523060448201528260648201526064815261047b608482611461565b7f0000000000000000000000000000000000000000000000000000000000000000611cc6565b6007546104ad816115f1565b600755805f52600d6020528160405f20556040516104ca81611445565b81815260208101928352600b5468010000000000000000811015610528578060016104f89201600b55611415565b91909161051557610513936001915183555191015533611aef565b005b634e487b7160e01b5f525f60045260245ffd5b634e487b7160e01b5f52604160045260245ffd5b60405162461bcd60e51b815260206004820152601260248201527f416d6f756e74206d757374206265203e203000000000000000000000000000006044820152606490fd5b346103525760403660031901126103525761059a6113af565b6001600160a01b036105aa6113c5565b91165f5260056020526001600160a01b0360405f2091165f52602052602060ff60405f2054166040519015158152f35b34610352576020366003190112610352576004355f52600d602052602060405f2054604051908152f35b346103525760203660031901126103525760043561062181611abc565b6001600160a01b033391160361082257805f52600d60205260405f205480156107dd57815f52600d6020525f6040812055815f5260026020526001600160a01b0360405f20541680159081156107a6575b835f52600260205260405f206001600160a01b03198154169055835f827fddf252ad1be2c89b69c2b068fc378daa952ba7f163c4a11628f55a4df523b3ef8280a4506107935760405163a9059cbb60e01b60208201523360248201526044808201929092529081526106e99061047b606482611461565b5f5b600b5480821015610513578261070083611415565b50541461071057506001016106eb565b9091505f19810190811161033e5761072a61073191611415565b5091611415565b9190916105155780820361077f575b5050600b54801561076b575f190161075781611415565b610515576001815f8093550155600b555f80f35b634e487b7160e01b5f52603160045260245ffd5b600181819254845501549101558080610740565b50637e27328960e01b5f5260045260245ffd5b6107c5845f52600460205260405f206001600160a01b03198154169055565b805f52600360205260405f205f198154019055610672565b60405162461bcd60e51b815260206004820152600f60248201527f4e6f7468696e67207772617070656400000000000000000000000000000000006044820152606490fd5b60405162461bcd60e51b81526020600482015260096024820152682737ba1037bbb732b960b91b6044820152606490fd5b34610352575f366003190112610352576020600854604051908152f35b34610352575f366003190112610352576020600754604051908152f35b34610352576020366003190112610352576108c06108ac60043561192d565b60405191829160208352602083019061138b565b0390f35b34610352576020366003190112610352576004355f52600e60205260405f2060016001600160a01b03825416910154906108c060405192839283602090939291936001600160a01b0360408201951681520152565b34610352576080366003190112610352576109326113af565b61093a6113c5565b6064359167ffffffffffffffff831161035257366023840112156103525761096f61051393369060248160040135910161149f565b91604435916117f3565b34610352576040366003190112610352576109926113af565b60243590811515809203610352576001600160a01b0316908115610a0157335f52600560205260405f20825f5260205260405f2060ff1981541660ff83161790556040519081527f17307eab39ab6107e8899845ad3d59bd9653f200f220920489ca2b5937696c3160203392a3005b50630b61174360e31b5f5260045260245ffd5b34610352575f3660031901126103525760206040516001600160a01b037f0000000000000000000000000000000000000000000000000000000000000000168152f35b34610352575f366003190112610352576040515f600154610a77816114d5565b8084529060018116908115610afd5750600114610a9f575b6108c0836108ac81850382611461565b91905060015f527fb10e2d527612073b26eecdfd717e6a320cf44b4afac2b0732d9fcbe2b7fa0cf6915f905b808210610ae3575090915081016020016108ac610a8f565b919260018160209254838588010152019101909291610acb565b60ff191660208086019190915291151560051b840190910191506108ac9050610a8f565b34610352575f3660031901126103525760206001600160a01b0360065416604051908152f35b34610352575f36600319011261035257610b5f611bc5565b5f6001600160a01b0360065481198116600655167f8be0079c531659141344cd1fd0a4f28419497f9722a3daafe3b4186f6b6457e08280a3005b34610352576020366003190112610352576001600160a01b03610bba6113af565b168015610bd7575f526003602052602060405f2054604051908152f35b6322718ad960e21b5f525f60045260245ffd5b3461035257602036600319011261035257610c03611bc5565b600435600855005b34610352575f366003190112610352576020600954604051908152f35b34610352576020366003190112610352576020610c46600435611abc565b6001600160a01b0360405191168152f35b34610352575f366003190112610352576020600a54604051908152f35b346103525760203660031901126103525760043567ffffffffffffffff8111610352573660238201121561035257610cb690369060248160040135910161149f565b610cbe611bc5565b805167ffffffffffffffff811161052857610cda600f546114d5565b601f8111610d9a575b50602091601f8211600114610d1f579181925f92610d14575b50505f19600383901b1c191660019190911b17600f55005b015190508280610cfc565b601f19821692600f5f527f8d1108e10bcb7c27dddfc02ed9d693a074039d026cf4ea4240b40f7d581ac802915f5b858110610d8257508360019510610d6a575b505050811b01600f55005b01515f1960f88460031b161c19169055828080610d5f565b91926020600181928685015181550194019201610d4d565b600f5f52601f820160051c7f8d1108e10bcb7c27dddfc02ed9d693a074039d026cf4ea4240b40f7d581ac802019060208310610e13575b601f0160051c7f8d1108e10bcb7c27dddfc02ed9d693a074039d026cf4ea4240b40f7d581ac80201905b818110610e085750610ce3565b5f8155600101610dfb565b7f8d1108e10bcb7c27dddfc02ed9d693a074039d026cf4ea4240b40f7d581ac8029150610dd1565b3461035257604036600319011261035257610e546113af565b602435610e5f611bc5565b610e6a8115156115ff565b610e768160075461164b565b5f19810190811161033e57610e8f90600854101561150d565b5f5b818110610e9a57005b600190610eb5600754610eac816115f1565b60075585611aef565b01610e91565b3461035257610513610ecc366113db565b9060405192610edc602085611461565b5f84526117f3565b3461035257602036600319011261035257600435600b5481101561035257610f0d604091611415565b506001815491015482519182526020820152f35b34610352575f36600319011261035257610f39611bc5565b478015610f65575f808080936001600160a01b036006541682f115610f5a57005b6040513d5f823e3d90fd5b60405162461bcd60e51b815260206004820152601460248201527f4e6f2066756e647320746f2077697468647261770000000000000000000000006044820152606490fd5b3461035257610513610fbb366113db565b91611658565b60203660031901126103525760043580151580611090575b610fe2906115ff565b610fee8160075461164b565b5f19810190811161033e5761100790600854101561150d565b6009548181029080820483149015171561033e5761102790341015611559565b335f52600c60205261104a6110408260405f205461164b565b600a5410156115a5565b5f5b81811061106f5750335f52600c60205261106b60405f2091825461164b565b9055005b60019061108a600754611081816115f1565b60075533611aef565b0161104c565b50600a811115610fd9565b34610352576020366003190112610352576110b4611bc5565b600435600a55005b34610352575f366003190112610352576007545f19810190811161033e57602090604051908152f35b5f3660031901126103525761051360075461110460085482111561150d565b611112600954341015611559565b335f52600c60205261112b60405f2054600a54116115a5565b611134816115f1565b600755335f52600c60205260405f2061114d81546115f1565b905533611aef565b346103525760403660031901126103525761116e6113af565b60243561117a81611abc565b3315158061122e575b806111fb575b6111e85781906001600160a01b0380851691167f8c5be1e5ebec7d5bd14f71427d1e84f3dd0314c0f7b2291e5b200ac8c7c3b9255f80a45f5260046020526001600160a01b0360405f2091166001600160a01b03198254161790555f80f35b63a9fbf51f60e01b5f523360045260245ffd5b506001600160a01b0381165f52600560205260405f206001600160a01b0333165f5260205260ff60405f20541615611189565b50336001600160a01b0382161415611183565b346103525760203660031901126103525760043561125e81611abc565b505f52600460205260206001600160a01b0360405f205416604051908152f35b34610352575f366003190112610352576040515f5f5461129d816114d5565b8084529060018116908115610afd57506001146112c4576108c0836108ac81850382611461565b5f8080527f290decd9548b62a8d60345a988386fc84ba6bc95484008f6362f93160ef3e563939250905b808210611306575090915081016020016108ac610a8f565b9192600181602092548385880101520191019092916112ee565b34610352576020366003190112610352576004359063ffffffff60e01b8216809203610352576020916380ac58cd60e01b811490811561137a575b8115611369575b5015158152f35b6301ffc9a760e01b14905083611362565b635b5e139f60e01b8114915061135b565b805180835260209291819084018484015e5f828201840152601f01601f1916010190565b600435906001600160a01b038216820361035257565b602435906001600160a01b038216820361035257565b6060906003190112610352576004356001600160a01b038116810361035257906024356001600160a01b0381168103610352579060443590565b600b5481101561143157600b5f5260205f209060011b01905f90565b634e487b7160e01b5f52603260045260245ffd5b6040810190811067ffffffffffffffff82111761052857604052565b90601f8019910116810190811067ffffffffffffffff82111761052857604052565b67ffffffffffffffff811161052857601f01601f191660200190565b9291926114ab82611483565b916114b96040519384611461565b829481845281830111610352578281602093845f960137010152565b90600182811c92168015611503575b60208310146114ef57565b634e487b7160e01b5f52602260045260245ffd5b91607f16916114e4565b1561151457565b60405162461bcd60e51b815260206004820152601260248201527f4d617820737570706c79207265616368656400000000000000000000000000006044820152606490fd5b1561156057565b60405162461bcd60e51b815260206004820152601460248201527f496e73756666696369656e74207061796d656e740000000000000000000000006044820152606490fd5b156115ac57565b60405162461bcd60e51b815260206004820152601c60248201527f4d6178206d696e742070657220616464726573732072656163686564000000006044820152606490fd5b5f19811461033e5760010190565b1561160657565b60405162461bcd60e51b815260206004820152600e60248201527f496e76616c696420616d6f756e740000000000000000000000000000000000006044820152606490fd5b9190820180921161033e57565b91906001600160a01b031680156117e057815f5260026020526001600160a01b0360405f20541692823315159283611744575b6001600160a01b0393508561170d575b805f52600360205260405f2060018154019055815f52600260205260405f20818519825416179055857fddf252ad1be2c89b69c2b068fc378daa952ba7f163c4a11628f55a4df523b3ef5f80a4168083036116f557505050565b6364283d7b60e01b5f5260045260245260445260645ffd5b61172c825f52600460205260405f206001600160a01b03198154169055565b855f52600360205260405f205f19815401905561169b565b9192905080611789575b1561175b5782829161168b565b828461177357637e27328960e01b5f5260045260245ffd5b63177e802f60e01b5f523360045260245260445ffd5b5033841480156117b7575b8061174e5750825f526004602052336001600160a01b0360405f2054161461174e565b50835f52600560205260405f206001600160a01b0333165f5260205260ff60405f205416611794565b633250574960e11b5f525f60045260245ffd5b906117ff838284611658565b803b61180c575b50505050565b6020916118526001600160a01b03809316956040519586948594630a85bd0160e11b8652336004870152166024850152604484015260806064840152608483019061138b565b03815f865af15f91816118e8575b506118b557503d156118ae573d61187681611483565b906118846040519283611461565b81523d5f602083013e5b805190816118a95782633250574960e11b5f5260045260245ffd5b602001fd5b606061188e565b6001600160e01b03191663757a42ff60e11b016118d657505f808080611806565b633250574960e11b5f5260045260245ffd5b9091506020813d602011611925575b8161190460209383611461565b8101031261035257516001600160e01b03198116810361035257905f611860565b3d91506118f7565b805f5260026020526001600160a01b0360405f20541615611a4b57600f5490611955826114d5565b15611a355761196390611bec565b60405180925f90611973816114d5565b9060018116908115611a1557506001146119b9575b50906020600592846119b6955192839101825e0164173539b7b760d91b815203601a19810184520182611461565b90565b9050600f5f527f8d1108e10bcb7c27dddfc02ed9d693a074039d026cf4ea4240b40f7d581ac8025f905b8282106119f95750508101602090810190611988565b60209192935080600191548385890101520191018492916119e3565b60ff19166020808601919091528215159092028401820192506119889050565b5050604051611a45602082611461565b5f815290565b60405162461bcd60e51b815260206004820152601460248201527f546f6b656e20646f6573206e6f742065786973740000000000000000000000006044820152606490fd5b67ffffffffffffffff81116105285760051b60200190565b80518210156114315760209160051b010190565b805f5260026020526001600160a01b0360405f205416908115611add575090565b637e27328960e01b5f5260045260245ffd5b6001600160a01b03169081156117e057805f5260026020526001600160a01b0360405f205416908115159283611b8e575b805f52600360205260405f2060018154019055815f52600260205260405f20816001600160a01b0319825416179055827fddf252ad1be2c89b69c2b068fc378daa952ba7f163c4a11628f55a4df523b3ef5f80a450611b7b57565b6339e3563760e11b5f525f60045260245ffd5b611bad825f52600460205260405f206001600160a01b03198154169055565b825f52600360205260405f205f198154019055611b20565b6001600160a01b03600654163303611bd957565b63118cdaa760e01b5f523360045260245ffd5b8015611ca6575f81805b611c925750611c0481611483565b90611c126040519283611461565b808252601f19611c2182611483565b013660208401375b808315611c8b57801561033e575f190192600a8106603001918260301161033e57835185101561143157600a9260f81b7fff00000000000000000000000000000000000000000000000000000000000000165f1a908401601f01530491611c29565b5050905090565b90611c9e600a916115f1565b910480611bf6565b50604051611cb5604082611461565b60018152600360fc1b602082015290565b905f602091828151910182855af115610f5a575f513d611d1157506001600160a01b0381163b155b611cf55750565b6001600160a01b0390635274afe760e01b5f521660045260245ffd5b60011415611cee56fea26469706673582212200db7ab63ea927f75a2afcf10875355b5083e5a279fceeb38a2a6751e3d13de9c64736f6c634300081c0033",
			"opcodes": "PUSH1 0xA0 PUSH1 0x40 MSTORE CALLVALUE PUSH2 0x3AE JUMPI PUSH2 0x2128 PUSH1 0x20 DUP2 CODESIZE SUB SWAP2 DUP3 PUSH2 0x1C DUP2 PUSH2 0x3B2 JUMP JUMPDEST SWAP4 DUP5 SWAP3 DUP4 CODECOPY DUP2 ADD SUB SLT PUSH2 0x3AE JUMPI MLOAD PUSH1 0x1 PUSH1 0x1 PUSH1 0xA0 SHL SUB DUP2 AND SWAP1 DUP2 SWAP1 SUB PUSH2 0x3AE JUMPI PUSH2 0x46 PUSH1 0x40 PUSH2 0x3B2 JUMP JUMPDEST SWAP1 PUSH1 0x9 DUP3 MSTORE PUSH9 0x14DA5B5C1B19539195 PUSH1 0xBA SHL PUSH1 0x20 DUP4 ADD MSTORE PUSH2 0x67 PUSH1 0x40 PUSH2 0x3B2 JUMP JUMPDEST PUSH1 0x4 DUP2 MSTORE PUSH4 0x14D39195 PUSH1 0xE2 SHL PUSH1 0x20 DUP3 ADD MSTORE DUP3 MLOAD SWAP1 SWAP2 SWAP1 PUSH1 0x1 PUSH1 0x1 PUSH1 0x40 SHL SUB DUP2 GT PUSH2 0x2C2 JUMPI PUSH0 SLOAD PUSH1 0x1 DUP2 DUP2 SHR SWAP2 AND DUP1 ISZERO PUSH2 0x3A4 JUMPI JUMPDEST PUSH1 0x20 DUP3 LT EQ PUSH2 0x2A4 JUMPI PUSH1 0x1F DUP2 GT PUSH2 0x342 JUMPI JUMPDEST POP PUSH1 0x20 PUSH1 0x1F DUP3 GT PUSH1 0x1 EQ PUSH2 0x2E1 JUMPI DUP2 SWAP3 SWAP4 SWAP5 PUSH0 SWAP3 PUSH2 0x2D6 JUMPI JUMPDEST POP POP DUP2 PUSH1 0x1 SHL SWAP2 PUSH0 NOT SWAP1 PUSH1 0x3 SHL SHR NOT AND OR PUSH0 SSTORE JUMPDEST DUP2 MLOAD PUSH1 0x1 PUSH1 0x1 PUSH1 0x40 SHL SUB DUP2 GT PUSH2 0x2C2 JUMPI PUSH1 0x1 SLOAD PUSH1 0x1 DUP2 DUP2 SHR SWAP2 AND DUP1 ISZERO PUSH2 0x2B8 JUMPI JUMPDEST PUSH1 0x20 DUP3 LT EQ PUSH2 0x2A4 JUMPI PUSH1 0x1F DUP2 GT PUSH2 0x241 JUMPI JUMPDEST POP PUSH1 0x20 SWAP3 PUSH1 0x1F DUP3 GT PUSH1 0x1 EQ PUSH2 0x1E0 JUMPI SWAP3 DUP2 SWAP3 SWAP4 PUSH0 SWAP3 PUSH2 0x1D5 JUMPI JUMPDEST POP POP DUP2 PUSH1 0x1 SHL SWAP2 PUSH0 NOT SWAP1 PUSH1 0x3 SHL SHR NOT AND OR PUSH1 0x1 SSTORE JUMPDEST CALLER ISZERO PUSH2 0x1C2 JUMPI PUSH1 0x6 DUP1 SLOAD CALLER PUSH1 0x1 PUSH1 0x1 PUSH1 0xA0 SHL SUB NOT DUP3 AND DUP2 OR SWAP1 SWAP3 SSTORE PUSH1 0x40 MLOAD SWAP3 SWAP2 SWAP1 PUSH1 0x1 PUSH1 0x1 PUSH1 0xA0 SHL SUB AND PUSH32 0x8BE0079C531659141344CD1FD0A4F28419497F9722A3DAAFE3B4186F6B6457E0 PUSH0 DUP1 LOG3 PUSH1 0x1 PUSH1 0x7 SSTORE PUSH2 0x2710 PUSH1 0x8 SSTORE PUSH6 0x5AF3107A4000 PUSH1 0x9 SSTORE PUSH1 0xA DUP1 SSTORE PUSH1 0x80 MSTORE PUSH2 0x1D50 SWAP1 DUP2 PUSH2 0x3D8 DUP3 CODECOPY PUSH1 0x80 MLOAD DUP2 DUP2 DUP2 PUSH2 0x47D ADD MSTORE PUSH2 0xA33 ADD MSTORE RETURN JUMPDEST PUSH4 0x1E4FBDF7 PUSH1 0xE0 SHL PUSH0 MSTORE PUSH0 PUSH1 0x4 MSTORE PUSH1 0x24 PUSH0 REVERT JUMPDEST ADD MLOAD SWAP1 POP PUSH0 DUP1 PUSH2 0x127 JUMP JUMPDEST PUSH1 0x1F NOT DUP3 AND SWAP4 PUSH1 0x1 PUSH0 MSTORE DUP1 PUSH0 KECCAK256 SWAP2 PUSH0 JUMPDEST DUP7 DUP2 LT PUSH2 0x229 JUMPI POP DUP4 PUSH1 0x1 SWAP6 SWAP7 LT PUSH2 0x211 JUMPI JUMPDEST POP POP POP DUP2 SHL ADD PUSH1 0x1 SSTORE PUSH2 0x13C JUMP JUMPDEST ADD MLOAD PUSH0 NOT PUSH1 0xF8 DUP5 PUSH1 0x3 SHL AND SHR NOT AND SWAP1 SSTORE PUSH0 DUP1 DUP1 PUSH2 0x203 JUMP JUMPDEST SWAP2 SWAP3 PUSH1 0x20 PUSH1 0x1 DUP2 SWAP3 DUP7 DUP6 ADD MLOAD DUP2 SSTORE ADD SWAP5 ADD SWAP3 ADD PUSH2 0x1F0 JUMP JUMPDEST PUSH1 0x1 PUSH0 MSTORE PUSH32 0xB10E2D527612073B26EECDFD717E6A320CF44B4AFAC2B0732D9FCBE2B7FA0CF6 PUSH1 0x1F DUP4 ADD PUSH1 0x5 SHR DUP2 ADD SWAP2 PUSH1 0x20 DUP5 LT PUSH2 0x29A JUMPI JUMPDEST PUSH1 0x1F ADD PUSH1 0x5 SHR ADD SWAP1 JUMPDEST DUP2 DUP2 LT PUSH2 0x28F JUMPI POP PUSH2 0x10D JUMP JUMPDEST PUSH0 DUP2 SSTORE PUSH1 0x1 ADD PUSH2 0x282 JUMP JUMPDEST SWAP1 SWAP2 POP DUP2 SWAP1 PUSH2 0x279 JUMP JUMPDEST PUSH4 0x4E487B71 PUSH1 0xE0 SHL PUSH0 MSTORE PUSH1 0x22 PUSH1 0x4 MSTORE PUSH1 0x24 PUSH0 REVERT JUMPDEST SWAP1 PUSH1 0x7F AND SWAP1 PUSH2 0xFB JUMP JUMPDEST PUSH4 0x4E487B71 PUSH1 0xE0 SHL PUSH0 MSTORE PUSH1 0x41 PUSH1 0x4 MSTORE PUSH1 0x24 PUSH0 REVERT JUMPDEST ADD MLOAD SWAP1 POP PUSH0 DUP1 PUSH2 0xC6 JUMP JUMPDEST PUSH1 0x1F NOT DUP3 AND SWAP1 PUSH0 DUP1 MSTORE DUP1 PUSH0 KECCAK256 SWAP2 PUSH0 JUMPDEST DUP2 DUP2 LT PUSH2 0x32A JUMPI POP SWAP6 DUP4 PUSH1 0x1 SWAP6 SWAP7 SWAP8 LT PUSH2 0x312 JUMPI JUMPDEST POP POP POP DUP2 SHL ADD PUSH0 SSTORE PUSH2 0xDA JUMP JUMPDEST ADD MLOAD PUSH0 NOT PUSH1 0xF8 DUP5 PUSH1 0x3 SHL AND SHR NOT AND SWAP1 SSTORE PUSH0 DUP1 DUP1 PUSH2 0x305 JUMP JUMPDEST SWAP2 SWAP3 PUSH1 0x20 PUSH1 0x1 DUP2 SWAP3 DUP7 DUP12 ADD MLOAD DUP2 SSTORE ADD SWAP5 ADD SWAP3 ADD PUSH2 0x2F0 JUMP JUMPDEST PUSH0 DUP1 MSTORE PUSH32 0x290DECD9548B62A8D60345A988386FC84BA6BC95484008F6362F93160EF3E563 PUSH1 0x1F DUP4 ADD PUSH1 0x5 SHR DUP2 ADD SWAP2 PUSH1 0x20 DUP5 LT PUSH2 0x39A JUMPI JUMPDEST PUSH1 0x1F ADD PUSH1 0x5 SHR ADD SWAP1 JUMPDEST DUP2 DUP2 LT PUSH2 0x38F JUMPI POP PUSH2 0xAD JUMP JUMPDEST PUSH0 DUP2 SSTORE PUSH1 0x1 ADD PUSH2 0x382 JUMP JUMPDEST SWAP1 SWAP2 POP DUP2 SWAP1 PUSH2 0x379 JUMP JUMPDEST SWAP1 PUSH1 0x7F AND SWAP1 PUSH2 0x9B JUMP JUMPDEST PUSH0 DUP1 REVERT JUMPDEST PUSH1 0x40 MLOAD SWAP2 SWAP1 PUSH1 0x1F ADD PUSH1 0x1F NOT AND DUP3 ADD PUSH1 0x1 PUSH1 0x1 PUSH1 0x40 SHL SUB DUP2 GT DUP4 DUP3 LT OR PUSH2 0x2C2 JUMPI PUSH1 0x40 MSTORE JUMP INVALID PUSH1 0x80 DUP1 PUSH1 0x40 MSTORE PUSH1 0x4 CALLDATASIZE LT ISZERO PUSH2 0x12 JUMPI PUSH0 DUP1 REVERT JUMPDEST PUSH0 CALLDATALOAD PUSH1 0xE0 SHR SWAP1 DUP2 PUSH4 0x1FFC9A7 EQ PUSH2 0x1320 JUMPI POP DUP1 PUSH4 0x6FDDE03 EQ PUSH2 0x127E JUMPI DUP1 PUSH4 0x81812FC EQ PUSH2 0x1241 JUMPI DUP1 PUSH4 0x95EA7B3 EQ PUSH2 0x1155 JUMPI DUP1 PUSH4 0x1249C58B EQ PUSH2 0x10E5 JUMPI DUP1 PUSH4 0x18160DDD EQ PUSH2 0x10BC JUMPI DUP1 PUSH4 0x1E14D44B EQ PUSH2 0x109B JUMPI DUP1 PUSH4 0x20E409B4 EQ PUSH2 0xFC1 JUMPI DUP1 PUSH4 0x23B872DD EQ PUSH2 0xFAA JUMPI DUP1 PUSH4 0x3CCFD60B EQ PUSH2 0xF21 JUMPI DUP1 PUSH4 0x3EB5A91D EQ PUSH2 0xEE4 JUMPI DUP1 PUSH4 0x42842E0E EQ PUSH2 0xEBB JUMPI DUP1 PUSH4 0x484B973C EQ PUSH2 0xE3B JUMPI DUP1 PUSH4 0x55F804B3 EQ PUSH2 0xC74 JUMPI DUP1 PUSH4 0x572849C4 EQ PUSH2 0xC57 JUMPI DUP1 PUSH4 0x6352211E EQ PUSH2 0xC28 JUMPI DUP1 PUSH4 0x6817C76C EQ PUSH2 0xC0B JUMPI DUP1 PUSH4 0x6F8B44B0 EQ PUSH2 0xBEA JUMPI DUP1 PUSH4 0x70A08231 EQ PUSH2 0xB99 JUMPI DUP1 PUSH4 0x715018A6 EQ PUSH2 0xB47 JUMPI DUP1 PUSH4 0x8DA5CB5B EQ PUSH2 0xB21 JUMPI DUP1 PUSH4 0x95D89B41 EQ PUSH2 0xA57 JUMPI DUP1 PUSH4 0x996C6CC3 EQ PUSH2 0xA14 JUMPI DUP1 PUSH4 0xA22CB465 EQ PUSH2 0x979 JUMPI DUP1 PUSH4 0xB88D4FDE EQ PUSH2 0x919 JUMPI DUP1 PUSH4 0xC07DE428 EQ PUSH2 0x8C4 JUMPI DUP1 PUSH4 0xC87B56DD EQ PUSH2 0x88D JUMPI DUP1 PUSH4 0xC968AE0A EQ PUSH2 0x5DA JUMPI DUP1 PUSH4 0xCAA0F92A EQ PUSH2 0x870 JUMPI DUP1 PUSH4 0xD5ABEB01 EQ PUSH2 0x853 JUMPI DUP1 PUSH4 0xDE0E9A3E EQ PUSH2 0x604 JUMPI DUP1 PUSH4 0xDF91D0B9 EQ PUSH2 0x5DA JUMPI DUP1 PUSH4 0xE985E9C5 EQ PUSH2 0x581 JUMPI DUP1 PUSH4 0xEA598CB0 EQ PUSH2 0x42D JUMPI DUP1 PUSH4 0xF2FDE38B EQ PUSH2 0x3AF JUMPI DUP1 PUSH4 0xF4A0A528 EQ PUSH2 0x38E JUMPI DUP1 PUSH4 0xFDDCB5EA EQ PUSH2 0x356 JUMPI PUSH4 0xFEA4F170 EQ PUSH2 0x1BE JUMPI PUSH0 DUP1 REVERT JUMPDEST CALLVALUE PUSH2 0x352 JUMPI PUSH0 CALLDATASIZE PUSH1 0x3 NOT ADD SLT PUSH2 0x352 JUMPI PUSH1 0x7 SLOAD PUSH0 NOT DUP2 ADD SWAP1 DUP2 GT PUSH2 0x33E JUMPI PUSH0 SWAP1 PUSH1 0x1 JUMPDEST DUP2 DUP2 GT ISZERO PUSH2 0x309 JUMPI POP PUSH2 0x1F3 DUP3 PUSH2 0x1A90 JUMP JUMPDEST SWAP2 PUSH2 0x201 PUSH1 0x40 MLOAD SWAP4 DUP5 PUSH2 0x1461 JUMP JUMPDEST DUP1 DUP4 MSTORE PUSH2 0x210 PUSH1 0x1F NOT SWAP2 PUSH2 0x1A90 JUMP JUMPDEST ADD PUSH0 JUMPDEST DUP2 DUP2 LT PUSH2 0x2E6 JUMPI POP POP PUSH0 PUSH1 0x1 JUMPDEST DUP3 DUP2 GT ISZERO PUSH2 0x279 JUMPI DUP4 PUSH1 0x40 MLOAD DUP1 SWAP2 PUSH1 0x20 DUP3 ADD PUSH1 0x20 DUP4 MSTORE DUP2 MLOAD DUP1 SWAP2 MSTORE PUSH1 0x20 PUSH1 0x40 DUP5 ADD SWAP3 ADD SWAP1 PUSH0 JUMPDEST DUP2 DUP2 LT PUSH2 0x254 JUMPI POP POP POP SUB SWAP1 RETURN JUMPDEST DUP3 MLOAD DUP1 MLOAD DUP6 MSTORE PUSH1 0x20 SWAP1 DUP2 ADD MLOAD DUP2 DUP7 ADD MSTORE DUP7 SWAP6 POP PUSH1 0x40 SWAP1 SWAP5 ADD SWAP4 SWAP1 SWAP3 ADD SWAP2 PUSH1 0x1 ADD PUSH2 0x246 JUMP JUMPDEST DUP1 PUSH0 MSTORE PUSH1 0xD PUSH1 0x20 MSTORE PUSH1 0x40 PUSH0 KECCAK256 SLOAD PUSH2 0x299 JUMPI JUMPDEST PUSH2 0x294 SWAP1 PUSH2 0x15F1 JUMP JUMPDEST PUSH2 0x220 JUMP JUMPDEST SWAP1 PUSH2 0x2DE PUSH2 0x294 SWAP2 DUP4 PUSH0 MSTORE PUSH1 0xD PUSH1 0x20 MSTORE PUSH1 0x40 PUSH0 KECCAK256 SLOAD PUSH1 0x40 MLOAD SWAP1 PUSH2 0x2BB DUP3 PUSH2 0x1445 JUMP JUMPDEST DUP6 DUP3 MSTORE PUSH1 0x20 DUP3 ADD MSTORE PUSH2 0x2CD DUP3 DUP9 PUSH2 0x1AA8 JUMP JUMPDEST MSTORE PUSH2 0x2D8 DUP2 DUP8 PUSH2 0x1AA8 JUMP JUMPDEST POP PUSH2 0x15F1 JUMP JUMPDEST SWAP2 SWAP1 POP PUSH2 0x28B JUMP JUMPDEST PUSH1 0x20 SWAP1 PUSH1 0x40 MLOAD PUSH2 0x2F5 DUP2 PUSH2 0x1445 JUMP JUMPDEST PUSH0 DUP2 MSTORE PUSH0 DUP4 DUP3 ADD MSTORE DUP3 DUP3 DUP8 ADD ADD MSTORE ADD PUSH2 0x213 JUMP JUMPDEST DUP1 PUSH0 MSTORE PUSH1 0xD PUSH1 0x20 MSTORE PUSH1 0x40 PUSH0 KECCAK256 SLOAD PUSH2 0x329 JUMPI JUMPDEST PUSH2 0x324 SWAP1 PUSH2 0x15F1 JUMP JUMPDEST PUSH2 0x1E1 JUMP JUMPDEST SWAP2 PUSH2 0x336 PUSH2 0x324 SWAP2 PUSH2 0x15F1 JUMP JUMPDEST SWAP3 SWAP1 POP PUSH2 0x31B JUMP JUMPDEST PUSH4 0x4E487B71 PUSH1 0xE0 SHL PUSH0 MSTORE PUSH1 0x11 PUSH1 0x4 MSTORE PUSH1 0x24 PUSH0 REVERT JUMPDEST PUSH0 DUP1 REVERT JUMPDEST CALLVALUE PUSH2 0x352 JUMPI PUSH1 0x20 CALLDATASIZE PUSH1 0x3 NOT ADD SLT PUSH2 0x352 JUMPI PUSH1 0x1 PUSH1 0x1 PUSH1 0xA0 SHL SUB PUSH2 0x377 PUSH2 0x13AF JUMP JUMPDEST AND PUSH0 MSTORE PUSH1 0xC PUSH1 0x20 MSTORE PUSH1 0x20 PUSH1 0x40 PUSH0 KECCAK256 SLOAD PUSH1 0x40 MLOAD SWAP1 DUP2 MSTORE RETURN JUMPDEST CALLVALUE PUSH2 0x352 JUMPI PUSH1 0x20 CALLDATASIZE PUSH1 0x3 NOT ADD SLT PUSH2 0x352 JUMPI PUSH2 0x3A7 PUSH2 0x1BC5 JUMP JUMPDEST PUSH1 0x4 CALLDATALOAD PUSH1 0x9 SSTORE STOP JUMPDEST CALLVALUE PUSH2 0x352 JUMPI PUSH1 0x20 CALLDATASIZE PUSH1 0x3 NOT ADD SLT PUSH2 0x352 JUMPI PUSH1 0x1 PUSH1 0x1 PUSH1 0xA0 SHL SUB PUSH2 0x3D0 PUSH2 0x13AF JUMP JUMPDEST PUSH2 0x3D8 PUSH2 0x1BC5 JUMP JUMPDEST AND DUP1 ISZERO PUSH2 0x41A JUMPI PUSH1 0x1 PUSH1 0x1 PUSH1 0xA0 SHL SUB PUSH1 0x6 SLOAD DUP3 DUP3 NOT DUP3 AND OR PUSH1 0x6 SSTORE AND PUSH32 0x8BE0079C531659141344CD1FD0A4F28419497F9722A3DAAFE3B4186F6B6457E0 PUSH0 DUP1 LOG3 STOP JUMPDEST PUSH4 0x1E4FBDF7 PUSH1 0xE0 SHL PUSH0 MSTORE PUSH0 PUSH1 0x4 MSTORE PUSH1 0x24 PUSH0 REVERT JUMPDEST CALLVALUE PUSH2 0x352 JUMPI PUSH1 0x20 CALLDATASIZE PUSH1 0x3 NOT ADD SLT PUSH2 0x352 JUMPI PUSH1 0x4 CALLDATALOAD DUP1 ISZERO PUSH2 0x53C JUMPI PUSH2 0x4A1 PUSH1 0x40 MLOAD PUSH4 0x23B872DD PUSH1 0xE0 SHL PUSH1 0x20 DUP3 ADD MSTORE CALLER PUSH1 0x24 DUP3 ADD MSTORE ADDRESS PUSH1 0x44 DUP3 ADD MSTORE DUP3 PUSH1 0x64 DUP3 ADD MSTORE PUSH1 0x64 DUP2 MSTORE PUSH2 0x47B PUSH1 0x84 DUP3 PUSH2 0x1461 JUMP JUMPDEST PUSH32 0x0 PUSH2 0x1CC6 JUMP JUMPDEST PUSH1 0x7 SLOAD PUSH2 0x4AD DUP2 PUSH2 0x15F1 JUMP JUMPDEST PUSH1 0x7 SSTORE DUP1 PUSH0 MSTORE PUSH1 0xD PUSH1 0x20 MSTORE DUP2 PUSH1 0x40 PUSH0 KECCAK256 SSTORE PUSH1 0x40 MLOAD PUSH2 0x4CA DUP2 PUSH2 0x1445 JUMP JUMPDEST DUP2 DUP2 MSTORE PUSH1 0x20 DUP2 ADD SWAP3 DUP4 MSTORE PUSH1 0xB SLOAD PUSH9 0x10000000000000000 DUP2 LT ISZERO PUSH2 0x528 JUMPI DUP1 PUSH1 0x1 PUSH2 0x4F8 SWAP3 ADD PUSH1 0xB SSTORE PUSH2 0x1415 JUMP JUMPDEST SWAP2 SWAP1 SWAP2 PUSH2 0x515 JUMPI PUSH2 0x513 SWAP4 PUSH1 0x1 SWAP2 MLOAD DUP4 SSTORE MLOAD SWAP2 ADD SSTORE CALLER PUSH2 0x1AEF JUMP JUMPDEST STOP JUMPDEST PUSH4 0x4E487B71 PUSH1 0xE0 SHL PUSH0 MSTORE PUSH0 PUSH1 0x4 MSTORE PUSH1 0x24 PUSH0 REVERT JUMPDEST PUSH4 0x4E487B71 PUSH1 0xE0 SHL PUSH0 MSTORE PUSH1 0x41 PUSH1 0x4 MSTORE PUSH1 0x24 PUSH0 REVERT JUMPDEST PUSH1 0x40 MLOAD PUSH3 0x461BCD PUSH1 0xE5 SHL DUP2 MSTORE PUSH1 0x20 PUSH1 0x4 DUP3 ADD MSTORE PUSH1 0x12 PUSH1 0x24 DUP3 ADD MSTORE PUSH32 0x416D6F756E74206D757374206265203E20300000000000000000000000000000 PUSH1 0x44 DUP3 ADD MSTORE PUSH1 0x64 SWAP1 REVERT JUMPDEST CALLVALUE PUSH2 0x352 JUMPI PUSH1 0x40 CALLDATASIZE PUSH1 0x3 NOT ADD SLT PUSH2 0x352 JUMPI PUSH2 0x59A PUSH2 0x13AF JUMP JUMPDEST PUSH1 0x1 PUSH1 0x1 PUSH1 0xA0 SHL SUB PUSH2 0x5AA PUSH2 0x13C5 JUMP JUMPDEST SWAP2 AND PUSH0 MSTORE PUSH1 0x5 PUSH1 0x20 MSTORE PUSH1 0x1 PUSH1 0x1 PUSH1 0xA0 SHL SUB PUSH1 0x40 PUSH0 KECCAK256 SWAP2 AND PUSH0 MSTORE PUSH1 0x20 MSTORE PUSH1 0x20 PUSH1 0xFF PUSH1 0x40 PUSH0 KECCAK256 SLOAD AND PUSH1 0x40 MLOAD SWAP1 ISZERO ISZERO DUP2 MSTORE RETURN JUMPDEST CALLVALUE PUSH2 0x352 JUMPI PUSH1 0x20 CALLDATASIZE PUSH1 0x3 NOT ADD SLT PUSH2 0x352 JUMPI PUSH1 0x4 CALLDATALOAD PUSH0 MSTORE PUSH1 0xD PUSH1 0x20 MSTORE PUSH1 0x20 PUSH1 0x40 PUSH0 KECCAK256 SLOAD PUSH1 0x40 MLOAD SWAP1 DUP2 MSTORE RETURN JUMPDEST CALLVALUE PUSH2 0x352 JUMPI PUSH1 0x20 CALLDATASIZE PUSH1 0x3 NOT ADD SLT PUSH2 0x352 JUMPI PUSH1 0x4 CALLDATALOAD PUSH2 0x621 DUP2 PUSH2 0x1ABC JUMP JUMPDEST PUSH1 0x1 PUSH1 0x1 PUSH1 0xA0 SHL SUB CALLER SWAP2 AND SUB PUSH2 0x822 JUMPI DUP1 PUSH0 MSTORE PUSH1 0xD PUSH1 0x20 MSTORE PUSH1 0x40 PUSH0 KECCAK256 SLOAD DUP1 ISZERO PUSH2 0x7DD JUMPI DUP2 PUSH0 MSTORE PUSH1 0xD PUSH1 0x20 MSTORE PUSH0 PUSH1 0x40 DUP2 KECCAK256 SSTORE DUP2 PUSH0 MSTORE PUSH1 0x2 PUSH1 0x20 MSTORE PUSH1 0x1 PUSH1 0x1 PUSH1 0xA0 SHL SUB PUSH1 0x40 PUSH0 KECCAK256 SLOAD AND DUP1 ISZERO SWAP1 DUP2 ISZERO PUSH2 0x7A6 JUMPI JUMPDEST DUP4 PUSH0 MSTORE PUSH1 0x2 PUSH1 0x20 MSTORE PUSH1 0x40 PUSH0 KECCAK256 PUSH1 0x1 PUSH1 0x1 PUSH1 0xA0 SHL SUB NOT DUP2 SLOAD AND SWAP1 SSTORE DUP4 PUSH0 DUP3 PUSH32 0xDDF252AD1BE2C89B69C2B068FC378DAA952BA7F163C4A11628F55A4DF523B3EF DUP3 DUP1 LOG4 POP PUSH2 0x793 JUMPI PUSH1 0x40 MLOAD PUSH4 0xA9059CBB PUSH1 0xE0 SHL PUSH1 0x20 DUP3 ADD MSTORE CALLER PUSH1 0x24 DUP3 ADD MSTORE PUSH1 0x44 DUP1 DUP3 ADD SWAP3 SWAP1 SWAP3 MSTORE SWAP1 DUP2 MSTORE PUSH2 0x6E9 SWAP1 PUSH2 0x47B PUSH1 0x64 DUP3 PUSH2 0x1461 JUMP JUMPDEST PUSH0 JUMPDEST PUSH1 0xB SLOAD DUP1 DUP3 LT ISZERO PUSH2 0x513 JUMPI DUP3 PUSH2 0x700 DUP4 PUSH2 0x1415 JUMP JUMPDEST POP SLOAD EQ PUSH2 0x710 JUMPI POP PUSH1 0x1 ADD PUSH2 0x6EB JUMP JUMPDEST SWAP1 SWAP2 POP PUSH0 NOT DUP2 ADD SWAP1 DUP2 GT PUSH2 0x33E JUMPI PUSH2 0x72A PUSH2 0x731 SWAP2 PUSH2 0x1415 JUMP JUMPDEST POP SWAP2 PUSH2 0x1415 JUMP JUMPDEST SWAP2 SWAP1 SWAP2 PUSH2 0x515 JUMPI DUP1 DUP3 SUB PUSH2 0x77F JUMPI JUMPDEST POP POP PUSH1 0xB SLOAD DUP1 ISZERO PUSH2 0x76B JUMPI PUSH0 NOT ADD PUSH2 0x757 DUP2 PUSH2 0x1415 JUMP JUMPDEST PUSH2 0x515 JUMPI PUSH1 0x1 DUP2 PUSH0 DUP1 SWAP4 SSTORE ADD SSTORE PUSH1 0xB SSTORE PUSH0 DUP1 RETURN JUMPDEST PUSH4 0x4E487B71 PUSH1 0xE0 SHL PUSH0 MSTORE PUSH1 0x31 PUSH1 0x4 MSTORE PUSH1 0x24 PUSH0 REVERT JUMPDEST PUSH1 0x1 DUP2 DUP2 SWAP3 SLOAD DUP5 SSTORE ADD SLOAD SWAP2 ADD SSTORE DUP1 DUP1 PUSH2 0x740 JUMP JUMPDEST POP PUSH4 0x7E273289 PUSH1 0xE0 SHL PUSH0 MSTORE PUSH1 0x4 MSTORE PUSH1 0x24 PUSH0 REVERT JUMPDEST PUSH2 0x7C5 DUP5 PUSH0 MSTORE PUSH1 0x4 PUSH1 0x20 MSTORE PUSH1 0x40 PUSH0 KECCAK256 PUSH1 0x1 PUSH1 0x1 PUSH1 0xA0 SHL SUB NOT DUP2 SLOAD AND SWAP1 SSTORE JUMP JUMPDEST DUP1 PUSH0 MSTORE PUSH1 0x3 PUSH1 0x20 MSTORE PUSH1 0x40 PUSH0 KECCAK256 PUSH0 NOT DUP2 SLOAD ADD SWAP1 SSTORE PUSH2 0x672 JUMP JUMPDEST PUSH1 0x40 MLOAD PUSH3 0x461BCD PUSH1 0xE5 SHL DUP2 MSTORE PUSH1 0x20 PUSH1 0x4 DUP3 ADD MSTORE PUSH1 0xF PUSH1 0x24 DUP3 ADD MSTORE PUSH32 0x4E6F7468696E6720777261707065640000000000000000000000000000000000 PUSH1 0x44 DUP3 ADD MSTORE PUSH1 0x64 SWAP1 REVERT JUMPDEST PUSH1 0x40 MLOAD PUSH3 0x461BCD PUSH1 0xE5 SHL DUP2 MSTORE PUSH1 0x20 PUSH1 0x4 DUP3 ADD MSTORE PUSH1 0x9 PUSH1 0x24 DUP3 ADD MSTORE PUSH9 0x2737BA1037BBB732B9 PUSH1 0xB9 SHL PUSH1 0x44 DUP3 ADD MSTORE PUSH1 0x64 SWAP1 REVERT JUMPDEST CALLVALUE PUSH2 0x352 JUMPI PUSH0 CALLDATASIZE PUSH1 0x3 NOT ADD SLT PUSH2 0x352 JUMPI PUSH1 0x20 PUSH1 0x8 SLOAD PUSH1 0x40 MLOAD SWAP1 DUP2 MSTORE RETURN JUMPDEST CALLVALUE PUSH2 0x352 JUMPI PUSH0 CALLDATASIZE PUSH1 0x3 NOT ADD SLT PUSH2 0x352 JUMPI PUSH1 0x20 PUSH1 0x7 SLOAD PUSH1 0x40 MLOAD SWAP1 DUP2 MSTORE RETURN JUMPDEST CALLVALUE PUSH2 0x352 JUMPI PUSH1 0x20 CALLDATASIZE PUSH1 0x3 NOT ADD SLT PUSH2 0x352 JUMPI PUSH2 0x8C0 PUSH2 0x8AC PUSH1 0x4 CALLDATALOAD PUSH2 0x192D JUMP JUMPDEST PUSH1 0x40 MLOAD SWAP2 DUP3 SWAP2 PUSH1 0x20 DUP4 MSTORE PUSH1 0x20 DUP4 ADD SWAP1 PUSH2 0x138B JUMP JUMPDEST SUB SWAP1 RETURN JUMPDEST CALLVALUE PUSH2 0x352 JUMPI PUSH1 0x20 CALLDATASIZE PUSH1 0x3 NOT ADD SLT PUSH2 0x352 JUMPI PUSH1 0x4 CALLDATALOAD PUSH0 MSTORE PUSH1 0xE PUSH1 0x20 MSTORE PUSH1 0x40 PUSH0 KECCAK256 PUSH1 0x1 PUSH1 0x1 PUSH1 0x1 PUSH1 0xA0 SHL SUB DUP3 SLOAD AND SWAP2 ADD SLOAD SWAP1 PUSH2 0x8C0 PUSH1 0x40 MLOAD SWAP3 DUP4 SWAP3 DUP4 PUSH1 0x20 SWAP1 SWAP4 SWAP3 SWAP2 SWAP4 PUSH1 0x1 PUSH1 0x1 PUSH1 0xA0 SHL SUB PUSH1 0x40 DUP3 ADD SWAP6 AND DUP2 MSTORE ADD MSTORE JUMP JUMPDEST CALLVALUE PUSH2 0x352 JUMPI PUSH1 0x80 CALLDATASIZE PUSH1 0x3 NOT ADD SLT PUSH2 0x352 JUMPI PUSH2 0x932 PUSH2 0x13AF JUMP JUMPDEST PUSH2 0x93A PUSH2 0x13C5 JUMP JUMPDEST PUSH1 0x64 CALLDATALOAD SWAP2 PUSH8 0xFFFFFFFFFFFFFFFF DUP4 GT PUSH2 0x352 JUMPI CALLDATASIZE PUSH1 0x23 DUP5 ADD SLT ISZERO PUSH2 0x352 JUMPI PUSH2 0x96F PUSH2 0x513 SWAP4 CALLDATASIZE SWAP1 PUSH1 0x24 DUP2 PUSH1 0x4 ADD CALLDATALOAD SWAP2 ADD PUSH2 0x149F JUMP JUMPDEST SWAP2 PUSH1 0x44 CALLDATALOAD SWAP2 PUSH2 0x17F3 JUMP JUMPDEST CALLVALUE PUSH2 0x352 JUMPI PUSH1 0x40 CALLDATASIZE PUSH1 0x3 NOT ADD SLT PUSH2 0x352 JUMPI PUSH2 0x992 PUSH2 0x13AF JUMP JUMPDEST PUSH1 0x24 CALLDATALOAD SWAP1 DUP2 ISZERO ISZERO DUP1 SWAP3 SUB PUSH2 0x352 JUMPI PUSH1 0x1 PUSH1 0x1 PUSH1 0xA0 SHL SUB AND SWAP1 DUP2 ISZERO PUSH2 0xA01 JUMPI CALLER PUSH0 MSTORE PUSH1 0x5 PUSH1 0x20 MSTORE PUSH1 0x40 PUSH0 KECCAK256 DUP3 PUSH0 MSTORE PUSH1 0x20 MSTORE PUSH1 0x40 PUSH0 KECCAK256 PUSH1 0xFF NOT DUP2 SLOAD AND PUSH1 0xFF DUP4 AND OR SWAP1 SSTORE PUSH1 0x40 MLOAD SWAP1 DUP2 MSTORE PUSH32 0x17307EAB39AB6107E8899845AD3D59BD9653F200F220920489CA2B5937696C31 PUSH1 0x20 CALLER SWAP3 LOG3 STOP JUMPDEST POP PUSH4 0xB611743 PUSH1 0xE3 SHL PUSH0 MSTORE PUSH1 0x4 MSTORE PUSH1 0x24 PUSH0 REVERT JUMPDEST CALLVALUE PUSH2 0x352 JUMPI PUSH0 CALLDATASIZE PUSH1 0x3 NOT ADD SLT PUSH2 0x352 JUMPI PUSH1 0x20 PUSH1 0x40 MLOAD PUSH1 0x1 PUSH1 0x1 PUSH1 0xA0 SHL SUB PUSH32 0x0 AND DUP2 MSTORE RETURN JUMPDEST CALLVALUE PUSH2 0x352 JUMPI PUSH0 CALLDATASIZE PUSH1 0x3 NOT ADD SLT PUSH2 0x352 JUMPI PUSH1 0x40 MLOAD PUSH0 PUSH1 0x1 SLOAD PUSH2 0xA77 DUP2 PUSH2 0x14D5 JUMP JUMPDEST DUP1 DUP5 MSTORE SWAP1 PUSH1 0x1 DUP2 AND SWAP1 DUP2 ISZERO PUSH2 0xAFD JUMPI POP PUSH1 0x1 EQ PUSH2 0xA9F JUMPI JUMPDEST PUSH2 0x8C0 DUP4 PUSH2 0x8AC DUP2 DUP6 SUB DUP3 PUSH2 0x1461 JUMP JUMPDEST SWAP2 SWAP1 POP PUSH1 0x1 PUSH0 MSTORE PUSH32 0xB10E2D527612073B26EECDFD717E6A320CF44B4AFAC2B0732D9FCBE2B7FA0CF6 SWAP2 PUSH0 SWAP1 JUMPDEST DUP1 DUP3 LT PUSH2 0xAE3 JUMPI POP SWAP1 SWAP2 POP DUP2 ADD PUSH1 0x20 ADD PUSH2 0x8AC PUSH2 0xA8F JUMP JUMPDEST SWAP2 SWAP3 PUSH1 0x1 DUP2 PUSH1 0x20 SWAP3 SLOAD DUP4 DUP6 DUP9 ADD ADD MSTORE ADD SWAP2 ADD SWAP1 SWAP3 SWAP2 PUSH2 0xACB JUMP JUMPDEST PUSH1 0xFF NOT AND PUSH1 0x20 DUP1 DUP7 ADD SWAP2 SWAP1 SWAP2 MSTORE SWAP2 ISZERO ISZERO PUSH1 0x5 SHL DUP5 ADD SWAP1 SWAP2 ADD SWAP2 POP PUSH2 0x8AC SWAP1 POP PUSH2 0xA8F JUMP JUMPDEST CALLVALUE PUSH2 0x352 JUMPI PUSH0 CALLDATASIZE PUSH1 0x3 NOT ADD SLT PUSH2 0x352 JUMPI PUSH1 0x20 PUSH1 0x1 PUSH1 0x1 PUSH1 0xA0 SHL SUB PUSH1 0x6 SLOAD AND PUSH1 0x40 MLOAD SWAP1 DUP2 MSTORE RETURN JUMPDEST CALLVALUE PUSH2 0x352 JUMPI PUSH0 CALLDATASIZE PUSH1 0x3 NOT ADD SLT PUSH2 0x352 JUMPI PUSH2 0xB5F PUSH2 0x1BC5 JUMP JUMPDEST PUSH0 PUSH1 0x1 PUSH1 0x1 PUSH1 0xA0 SHL SUB PUSH1 0x6 SLOAD DUP2 NOT DUP2 AND PUSH1 0x6 SSTORE AND PUSH32 0x8BE0079C531659141344CD1FD0A4F28419497F9722A3DAAFE3B4186F6B6457E0 DUP3 DUP1 LOG3 STOP JUMPDEST CALLVALUE PUSH2 0x352 JUMPI PUSH1 0x20 CALLDATASIZE PUSH1 0x3 NOT ADD SLT PUSH2 0x352 JUMPI PUSH1 0x1 PUSH1 0x1 PUSH1 0xA0 SHL SUB PUSH2 0xBBA PUSH2 0x13AF JUMP JUMPDEST AND DUP1 ISZERO PUSH2 0xBD7 JUMPI PUSH0 MSTORE PUSH1 0x3 PUSH1 0x20 MSTORE PUSH1 0x20 PUSH1 0x40 PUSH0 KECCAK256 SLOAD PUSH1 0x40 MLOAD SWAP1 DUP2 MSTORE RETURN JUMPDEST PUSH4 0x22718AD9 PUSH1 0xE2 SHL PUSH0 MSTORE PUSH0 PUSH1 0x4 MSTORE PUSH1 0x24 PUSH0 REVERT JUMPDEST CALLVALUE PUSH2 0x352 JUMPI PUSH1 0x20 CALLDATASIZE PUSH1 0x3 NOT ADD SLT PUSH2 0x352 JUMPI PUSH2 0xC03 PUSH2 0x1BC5 JUMP JUMPDEST PUSH1 0x4 CALLDATALOAD PUSH1 0x8 SSTORE STOP JUMPDEST CALLVALUE PUSH2 0x352 JUMPI PUSH0 CALLDATASIZE PUSH1 0x3 NOT ADD SLT PUSH2 0x352 JUMPI PUSH1 0x20 PUSH1 0x9 SLOAD PUSH1 0x40 MLOAD SWAP1 DUP2 MSTORE RETURN JUMPDEST CALLVALUE PUSH2 0x352 JUMPI PUSH1 0x20 CALLDATASIZE PUSH1 0x3 NOT ADD SLT PUSH2 0x352 JUMPI PUSH1 0x20 PUSH2 0xC46 PUSH1 0x4 CALLDATALOAD PUSH2 0x1ABC JUMP JUMPDEST PUSH1 0x1 PUSH1 0x1 PUSH1 0xA0 SHL SUB PUSH1 0x40 MLOAD SWAP2 AND DUP2 MSTORE RETURN JUMPDEST CALLVALUE PUSH2 0x352 JUMPI PUSH0 CALLDATASIZE PUSH1 0x3 NOT ADD SLT PUSH2 0x352 JUMPI PUSH1 0x20 PUSH1 0xA SLOAD PUSH1 0x40 MLOAD SWAP1 DUP2 MSTORE RETURN JUMPDEST CALLVALUE PUSH2 0x352 JUMPI PUSH1 0x20 CALLDATASIZE PUSH1 0x3 NOT ADD SLT PUSH2 0x352 JUMPI PUSH1 0x4 CALLDATALOAD PUSH8 0xFFFFFFFFFFFFFFFF DUP2 GT PUSH2 0x352 JUMPI CALLDATASIZE PUSH1 0x23 DUP3 ADD SLT ISZERO PUSH2 0x352 JUMPI PUSH2 0xCB6 SWAP1 CALLDATASIZE SWAP1 PUSH1 0x24 DUP2 PUSH1 0x4 ADD CALLDATALOAD SWAP2 ADD PUSH2 0x149F JUMP JUMPDEST PUSH2 0xCBE PUSH2 0x1BC5 JUMP JUMPDEST DUP1 MLOAD PUSH8 0xFFFFFFFFFFFFFFFF DUP2 GT PUSH2 0x528 JUMPI PUSH2 0xCDA PUSH1 0xF SLOAD PUSH2 0x14D5 JUMP JUMPDEST PUSH1 0x1F DUP2 GT PUSH2 0xD9A JUMPI JUMPDEST POP PUSH1 0x20 SWAP2 PUSH1 0x1F DUP3 GT PUSH1 0x1 EQ PUSH2 0xD1F JUMPI SWAP2 DUP2 SWAP3 PUSH0 SWAP3 PUSH2 0xD14 JUMPI JUMPDEST POP POP PUSH0 NOT PUSH1 0x3 DUP4 SWAP1 SHL SHR NOT AND PUSH1 0x1 SWAP2 SWAP1 SWAP2 SHL OR PUSH1 0xF SSTORE STOP JUMPDEST ADD MLOAD SWAP1 POP DUP3 DUP1 PUSH2 0xCFC JUMP JUMPDEST PUSH1 0x1F NOT DUP3 AND SWAP3 PUSH1 0xF PUSH0 MSTORE PUSH32 0x8D1108E10BCB7C27DDDFC02ED9D693A074039D026CF4EA4240B40F7D581AC802 SWAP2 PUSH0 JUMPDEST DUP6 DUP2 LT PUSH2 0xD82 JUMPI POP DUP4 PUSH1 0x1 SWAP6 LT PUSH2 0xD6A JUMPI JUMPDEST POP POP POP DUP2 SHL ADD PUSH1 0xF SSTORE STOP JUMPDEST ADD MLOAD PUSH0 NOT PUSH1 0xF8 DUP5 PUSH1 0x3 SHL AND SHR NOT AND SWAP1 SSTORE DUP3 DUP1 DUP1 PUSH2 0xD5F JUMP JUMPDEST SWAP2 SWAP3 PUSH1 0x20 PUSH1 0x1 DUP2 SWAP3 DUP7 DUP6 ADD MLOAD DUP2 SSTORE ADD SWAP5 ADD SWAP3 ADD PUSH2 0xD4D JUMP JUMPDEST PUSH1 0xF PUSH0 MSTORE PUSH1 0x1F DUP3 ADD PUSH1 0x5 SHR PUSH32 0x8D1108E10BCB7C27DDDFC02ED9D693A074039D026CF4EA4240B40F7D581AC802 ADD SWAP1 PUSH1 0x20 DUP4 LT PUSH2 0xE13 JUMPI JUMPDEST PUSH1 0x1F ADD PUSH1 0x5 SHR PUSH32 0x8D1108E10BCB7C27DDDFC02ED9D693A074039D026CF4EA4240B40F7D581AC802 ADD SWAP1 JUMPDEST DUP2 DUP2 LT PUSH2 0xE08 JUMPI POP PUSH2 0xCE3 JUMP JUMPDEST PUSH0 DUP2 SSTORE PUSH1 0x1 ADD PUSH2 0xDFB JUMP JUMPDEST PUSH32 0x8D1108E10BCB7C27DDDFC02ED9D693A074039D026CF4EA4240B40F7D581AC802 SWAP2 POP PUSH2 0xDD1 JUMP JUMPDEST CALLVALUE PUSH2 0x352 JUMPI PUSH1 0x40 CALLDATASIZE PUSH1 0x3 NOT ADD SLT PUSH2 0x352 JUMPI PUSH2 0xE54 PUSH2 0x13AF JUMP JUMPDEST PUSH1 0x24 CALLDATALOAD PUSH2 0xE5F PUSH2 0x1BC5 JUMP JUMPDEST PUSH2 0xE6A DUP2 ISZERO ISZERO PUSH2 0x15FF JUMP JUMPDEST PUSH2 0xE76 DUP2 PUSH1 0x7 SLOAD PUSH2 0x164B JUMP JUMPDEST PUSH0 NOT DUP2 ADD SWAP1 DUP2 GT PUSH2 0x33E JUMPI PUSH2 0xE8F SWAP1 PUSH1 0x8 SLOAD LT ISZERO PUSH2 0x150D JUMP JUMPDEST PUSH0 JUMPDEST DUP2 DUP2 LT PUSH2 0xE9A JUMPI STOP JUMPDEST PUSH1 0x1 SWAP1 PUSH2 0xEB5 PUSH1 0x7 SLOAD PUSH2 0xEAC DUP2 PUSH2 0x15F1 JUMP JUMPDEST PUSH1 0x7 SSTORE DUP6 PUSH2 0x1AEF JUMP JUMPDEST ADD PUSH2 0xE91 JUMP JUMPDEST CALLVALUE PUSH2 0x352 JUMPI PUSH2 0x513 PUSH2 0xECC CALLDATASIZE PUSH2 0x13DB JUMP JUMPDEST SWAP1 PUSH1 0x40 MLOAD SWAP3 PUSH2 0xEDC PUSH1 0x20 DUP6 PUSH2 0x1461 JUMP JUMPDEST PUSH0 DUP5 MSTORE PUSH2 0x17F3 JUMP JUMPDEST CALLVALUE PUSH2 0x352 JUMPI PUSH1 0x20 CALLDATASIZE PUSH1 0x3 NOT ADD SLT PUSH2 0x352 JUMPI PUSH1 0x4 CALLDATALOAD PUSH1 0xB SLOAD DUP2 LT ISZERO PUSH2 0x352 JUMPI PUSH2 0xF0D PUSH1 0x40 SWAP2 PUSH2 0x1415 JUMP JUMPDEST POP PUSH1 0x1 DUP2 SLOAD SWAP2 ADD SLOAD DUP3 MLOAD SWAP2 DUP3 MSTORE PUSH1 0x20 DUP3 ADD MSTORE RETURN JUMPDEST CALLVALUE PUSH2 0x352 JUMPI PUSH0 CALLDATASIZE PUSH1 0x3 NOT ADD SLT PUSH2 0x352 JUMPI PUSH2 0xF39 PUSH2 0x1BC5 JUMP JUMPDEST SELFBALANCE DUP1 ISZERO PUSH2 0xF65 JUMPI PUSH0 DUP1 DUP1 DUP1 SWAP4 PUSH1 0x1 PUSH1 0x1 PUSH1 0xA0 SHL SUB PUSH1 0x6 SLOAD AND DUP3 CALL ISZERO PUSH2 0xF5A JUMPI STOP JUMPDEST PUSH1 0x40 MLOAD RETURNDATASIZE PUSH0 DUP3 RETURNDATACOPY RETURNDATASIZE SWAP1 REVERT JUMPDEST PUSH1 0x40 MLOAD PUSH3 0x461BCD PUSH1 0xE5 SHL DUP2 MSTORE PUSH1 0x20 PUSH1 0x4 DUP3 ADD MSTORE PUSH1 0x14 PUSH1 0x24 DUP3 ADD MSTORE PUSH32 0x4E6F2066756E647320746F207769746864726177000000000000000000000000 PUSH1 0x44 DUP3 ADD MSTORE PUSH1 0x64 SWAP1 REVERT JUMPDEST CALLVALUE PUSH2 0x352 JUMPI PUSH2 0x513 PUSH2 0xFBB CALLDATASIZE PUSH2 0x13DB JUMP JUMPDEST SWAP2 PUSH2 0x1658 JUMP JUMPDEST PUSH1 0x20 CALLDATASIZE PUSH1 0x3 NOT ADD SLT PUSH2 0x352 JUMPI PUSH1 0x4 CALLDATALOAD DUP1 ISZERO ISZERO DUP1 PUSH2 0x1090 JUMPI JUMPDEST PUSH2 0xFE2 SWAP1 PUSH2 0x15FF JUMP JUMPDEST PUSH2 0xFEE DUP2 PUSH1 0x7 SLOAD PUSH2 0x164B JUMP JUMPDEST PUSH0 NOT DUP2 ADD SWAP1 DUP2 GT PUSH2 0x33E JUMPI PUSH2 0x1007 SWAP1 PUSH1 0x8 SLOAD LT ISZERO PUSH2 0x150D JUMP JUMPDEST PUSH1 0x9 SLOAD DUP2 DUP2 MUL SWAP1 DUP1 DUP3 DIV DUP4 EQ SWAP1 ISZERO OR ISZERO PUSH2 0x33E JUMPI PUSH2 0x1027 SWAP1 CALLVALUE LT ISZERO PUSH2 0x1559 JUMP JUMPDEST CALLER PUSH0 MSTORE PUSH1 0xC PUSH1 0x20 MSTORE PUSH2 0x104A PUSH2 0x1040 DUP3 PUSH1 0x40 PUSH0 KECCAK256 SLOAD PUSH2 0x164B JUMP JUMPDEST PUSH1 0xA SLOAD LT ISZERO PUSH2 0x15A5 JUMP JUMPDEST PUSH0 JUMPDEST DUP2 DUP2 LT PUSH2 0x106F JUMPI POP CALLER PUSH0 MSTORE PUSH1 0xC PUSH1 0x20 MSTORE PUSH2 0x106B PUSH1 0x40 PUSH0 KECCAK256 SWAP2 DUP3 SLOAD PUSH2 0x164B JUMP JUMPDEST SWAP1 SSTORE STOP JUMPDEST PUSH1 0x1 SWAP1 PUSH2 0x108A PUSH1 0x7 SLOAD PUSH2 0x1081 DUP2 PUSH2 0x15F1 JUMP JUMPDEST PUSH1 0x7 SSTORE CALLER PUSH2 0x1AEF JUMP JUMPDEST ADD PUSH2 0x104C JUMP JUMPDEST POP PUSH1 0xA DUP2 GT ISZERO PUSH2 0xFD9 JUMP JUMPDEST CALLVALUE PUSH2 0x352 JUMPI PUSH1 0x20 CALLDATASIZE PUSH1 0x3 NOT ADD SLT PUSH2 0x352 JUMPI PUSH2 0x10B4 PUSH2 0x1BC5 JUMP JUMPDEST PUSH1 0x4 CALLDATALOAD PUSH1 0xA SSTORE STOP JUMPDEST CALLVALUE PUSH2 0x352 JUMPI PUSH0 CALLDATASIZE PUSH1 0x3 NOT ADD SLT PUSH2 0x352 JUMPI PUSH1 0x7 SLOAD PUSH0 NOT DUP2 ADD SWAP1 DUP2 GT PUSH2 0x33E JUMPI PUSH1 0x20 SWAP1 PUSH1 0x40 MLOAD SWAP1 DUP2 MSTORE RETURN JUMPDEST PUSH0 CALLDATASIZE PUSH1 0x3 NOT ADD SLT PUSH2 0x352 JUMPI PUSH2 0x513 PUSH1 0x7 SLOAD PUSH2 0x1104 PUSH1 0x8 SLOAD DUP3 GT ISZERO PUSH2 0x150D JUMP JUMPDEST PUSH2 0x1112 PUSH1 0x9 SLOAD CALLVALUE LT ISZERO PUSH2 0x1559 JUMP JUMPDEST CALLER PUSH0 MSTORE PUSH1 0xC PUSH1 0x20 MSTORE PUSH2 0x112B PUSH1 0x40 PUSH0 KECCAK256 SLOAD PUSH1 0xA SLOAD GT PUSH2 0x15A5 JUMP JUMPDEST PUSH2 0x1134 DUP2 PUSH2 0x15F1 JUMP JUMPDEST PUSH1 0x7 SSTORE CALLER PUSH0 MSTORE PUSH1 0xC PUSH1 0x20 MSTORE PUSH1 0x40 PUSH0 KECCAK256 PUSH2 0x114D DUP2 SLOAD PUSH2 0x15F1 JUMP JUMPDEST SWAP1 SSTORE CALLER PUSH2 0x1AEF JUMP JUMPDEST CALLVALUE PUSH2 0x352 JUMPI PUSH1 0x40 CALLDATASIZE PUSH1 0x3 NOT ADD SLT PUSH2 0x352 JUMPI PUSH2 0x116E PUSH2 0x13AF JUMP JUMPDEST PUSH1 0x24 CALLDATALOAD PUSH2 0x117A DUP2 PUSH2 0x1ABC JUMP JUMPDEST CALLER ISZERO ISZERO DUP1 PUSH2 0x122E JUMPI JUMPDEST DUP1 PUSH2 0x11FB JUMPI JUMPDEST PUSH2 0x11E8 JUMPI DUP2 SWAP1 PUSH1 0x1 PUSH1 0x1 PUSH1 0xA0 SHL SUB DUP1 DUP6 AND SWAP2 AND PUSH32 0x8C5BE1E5EBEC7D5BD14F71427D1E84F3DD0314C0F7B2291E5B200AC8C7C3B925 PUSH0 DUP1 LOG4 PUSH0 MSTORE PUSH1 0x4 PUSH1 0x20 MSTORE PUSH1 0x1 PUSH1 0x1 PUSH1 0xA0 SHL SUB PUSH1 0x40 PUSH0 KECCAK256 SWAP2 AND PUSH1 0x1 PUSH1 0x1 PUSH1 0xA0 SHL SUB NOT DUP3 SLOAD AND OR SWAP1 SSTORE PUSH0 DUP1 RETURN JUMPDEST PUSH4 0xA9FBF51F PUSH1 0xE0 SHL PUSH0 MSTORE CALLER PUSH1 0x4 MSTORE PUSH1 0x24 PUSH0 REVERT JUMPDEST POP PUSH1 0x1 PUSH1 0x1 PUSH1 0xA0 SHL SUB DUP2 AND PUSH0 MSTORE PUSH1 0x5 PUSH1 0x20 MSTORE PUSH1 0x40 PUSH0 KECCAK256 PUSH1 0x1 PUSH1 0x1 PUSH1 0xA0 SHL SUB CALLER AND PUSH0 MSTORE PUSH1 0x20 MSTORE PUSH1 0xFF PUSH1 0x40 PUSH0 KECCAK256 SLOAD AND ISZERO PUSH2 0x1189 JUMP JUMPDEST POP CALLER PUSH1 0x1 PUSH1 0x1 PUSH1 0xA0 SHL SUB DUP3 AND EQ ISZERO PUSH2 0x1183 JUMP JUMPDEST CALLVALUE PUSH2 0x352 JUMPI PUSH1 0x20 CALLDATASIZE PUSH1 0x3 NOT ADD SLT PUSH2 0x352 JUMPI PUSH1 0x4 CALLDATALOAD PUSH2 0x125E DUP2 PUSH2 0x1ABC JUMP JUMPDEST POP PUSH0 MSTORE PUSH1 0x4 PUSH1 0x20 MSTORE PUSH1 0x20 PUSH1 0x1 PUSH1 0x1 PUSH1 0xA0 SHL SUB PUSH1 0x40 PUSH0 KECCAK256 SLOAD AND PUSH1 0x40 MLOAD SWAP1 DUP2 MSTORE RETURN JUMPDEST CALLVALUE PUSH2 0x352 JUMPI PUSH0 CALLDATASIZE PUSH1 0x3 NOT ADD SLT PUSH2 0x352 JUMPI PUSH1 0x40 MLOAD PUSH0 PUSH0 SLOAD PUSH2 0x129D DUP2 PUSH2 0x14D5 JUMP JUMPDEST DUP1 DUP5 MSTORE SWAP1 PUSH1 0x1 DUP2 AND SWAP1 DUP2 ISZERO PUSH2 0xAFD JUMPI POP PUSH1 0x1 EQ PUSH2 0x12C4 JUMPI PUSH2 0x8C0 DUP4 PUSH2 0x8AC DUP2 DUP6 SUB DUP3 PUSH2 0x1461 JUMP JUMPDEST PUSH0 DUP1 DUP1 MSTORE PUSH32 0x290DECD9548B62A8D60345A988386FC84BA6BC95484008F6362F93160EF3E563 SWAP4 SWAP3 POP SWAP1 JUMPDEST DUP1 DUP3 LT PUSH2 0x1306 JUMPI POP SWAP1 SWAP2 POP DUP2 ADD PUSH1 0x20 ADD PUSH2 0x8AC PUSH2 0xA8F JUMP JUMPDEST SWAP2 SWAP3 PUSH1 0x1 DUP2 PUSH1 0x20 SWAP3 SLOAD DUP4 DUP6 DUP9 ADD ADD MSTORE ADD SWAP2 ADD SWAP1 SWAP3 SWAP2 PUSH2 0x12EE JUMP JUMPDEST CALLVALUE PUSH2 0x352 JUMPI PUSH1 0x20 CALLDATASIZE PUSH1 0x3 NOT ADD SLT PUSH2 0x352 JUMPI PUSH1 0x4 CALLDATALOAD SWAP1 PUSH4 0xFFFFFFFF PUSH1 0xE0 SHL DUP3 AND DUP1 SWAP3 SUB PUSH2 0x352 JUMPI PUSH1 0x20 SWAP2 PUSH4 0x80AC58CD PUSH1 0xE0 SHL DUP2 EQ SWAP1 DUP2 ISZERO PUSH2 0x137A JUMPI JUMPDEST DUP2 ISZERO PUSH2 0x1369 JUMPI JUMPDEST POP ISZERO ISZERO DUP2 MSTORE RETURN JUMPDEST PUSH4 0x1FFC9A7 PUSH1 0xE0 SHL EQ SWAP1 POP DUP4 PUSH2 0x1362 JUMP JUMPDEST PUSH4 0x5B5E139F PUSH1 0xE0 SHL DUP2 EQ SWAP2 POP PUSH2 0x135B JUMP JUMPDEST DUP1 MLOAD DUP1 DUP4 MSTORE PUSH1 0x20 SWAP3 SWAP2 DUP2 SWAP1 DUP5 ADD DUP5 DUP5 ADD MCOPY PUSH0 DUP3 DUP3 ADD DUP5 ADD MSTORE PUSH1 0x1F ADD PUSH1 0x1F NOT AND ADD ADD SWAP1 JUMP JUMPDEST PUSH1 0x4 CALLDATALOAD SWAP1 PUSH1 0x1 PUSH1 0x1 PUSH1 0xA0 SHL SUB DUP3 AND DUP3 SUB PUSH2 0x352 JUMPI JUMP JUMPDEST PUSH1 0x24 CALLDATALOAD SWAP1 PUSH1 0x1 PUSH1 0x1 PUSH1 0xA0 SHL SUB DUP3 AND DUP3 SUB PUSH2 0x352 JUMPI JUMP JUMPDEST PUSH1 0x60 SWAP1 PUSH1 0x3 NOT ADD SLT PUSH2 0x352 JUMPI PUSH1 0x4 CALLDATALOAD PUSH1 0x1 PUSH1 0x1 PUSH1 0xA0 SHL SUB DUP2 AND DUP2 SUB PUSH2 0x352 JUMPI SWAP1 PUSH1 0x24 CALLDATALOAD PUSH1 0x1 PUSH1 0x1 PUSH1 0xA0 SHL SUB DUP2 AND DUP2 SUB PUSH2 0x352 JUMPI SWAP1 PUSH1 0x44 CALLDATALOAD SWAP1 JUMP JUMPDEST PUSH1 0xB SLOAD DUP2 LT ISZERO PUSH2 0x1431 JUMPI PUSH1 0xB PUSH0 MSTORE PUSH1 0x20 PUSH0 KECCAK256 SWAP1 PUSH1 0x1 SHL ADD SWAP1 PUSH0 SWAP1 JUMP JUMPDEST PUSH4 0x4E487B71 PUSH1 0xE0 SHL PUSH0 MSTORE PUSH1 0x32 PUSH1 0x4 MSTORE PUSH1 0x24 PUSH0 REVERT JUMPDEST PUSH1 0x40 DUP2 ADD SWAP1 DUP2 LT PUSH8 0xFFFFFFFFFFFFFFFF DUP3 GT OR PUSH2 0x528 JUMPI PUSH1 0x40 MSTORE JUMP JUMPDEST SWAP1 PUSH1 0x1F DUP1 NOT SWAP2 ADD AND DUP2 ADD SWAP1 DUP2 LT PUSH8 0xFFFFFFFFFFFFFFFF DUP3 GT OR PUSH2 0x528 JUMPI PUSH1 0x40 MSTORE JUMP JUMPDEST PUSH8 0xFFFFFFFFFFFFFFFF DUP2 GT PUSH2 0x528 JUMPI PUSH1 0x1F ADD PUSH1 0x1F NOT AND PUSH1 0x20 ADD SWAP1 JUMP JUMPDEST SWAP3 SWAP2 SWAP3 PUSH2 0x14AB DUP3 PUSH2 0x1483 JUMP JUMPDEST SWAP2 PUSH2 0x14B9 PUSH1 0x40 MLOAD SWAP4 DUP5 PUSH2 0x1461 JUMP JUMPDEST DUP3 SWAP5 DUP2 DUP5 MSTORE DUP2 DUP4 ADD GT PUSH2 0x352 JUMPI DUP3 DUP2 PUSH1 0x20 SWAP4 DUP5 PUSH0 SWAP7 ADD CALLDATACOPY ADD ADD MSTORE JUMP JUMPDEST SWAP1 PUSH1 0x1 DUP3 DUP2 SHR SWAP3 AND DUP1 ISZERO PUSH2 0x1503 JUMPI JUMPDEST PUSH1 0x20 DUP4 LT EQ PUSH2 0x14EF JUMPI JUMP JUMPDEST PUSH4 0x4E487B71 PUSH1 0xE0 SHL PUSH0 MSTORE PUSH1 0x22 PUSH1 0x4 MSTORE PUSH1 0x24 PUSH0 REVERT JUMPDEST SWAP2 PUSH1 0x7F AND SWAP2 PUSH2 0x14E4 JUMP JUMPDEST ISZERO PUSH2 0x1514 JUMPI JUMP JUMPDEST PUSH1 0x40 MLOAD PUSH3 0x461BCD PUSH1 0xE5 SHL DUP2 MSTORE PUSH1 0x20 PUSH1 0x4 DUP3 ADD MSTORE PUSH1 0x12 PUSH1 0x24 DUP3 ADD MSTORE PUSH32 0x4D617820737570706C7920726561636865640000000000000000000000000000 PUSH1 0x44 DUP3 ADD MSTORE PUSH1 0x64 SWAP1 REVERT JUMPDEST ISZERO PUSH2 0x1560 JUMPI JUMP JUMPDEST PUSH1 0x40 MLOAD PUSH3 0x461BCD PUSH1 0xE5 SHL DUP2 MSTORE PUSH1 0x20 PUSH1 0x4 DUP3 ADD MSTORE PUSH1 0x14 PUSH1 0x24 DUP3 ADD MSTORE PUSH32 0x496E73756666696369656E74207061796D656E74000000000000000000000000 PUSH1 0x44 DUP3 ADD MSTORE PUSH1 0x64 SWAP1 REVERT JUMPDEST ISZERO PUSH2 0x15AC JUMPI JUMP JUMPDEST PUSH1 0x40 MLOAD PUSH3 0x461BCD PUSH1 0xE5 SHL DUP2 MSTORE PUSH1 0x20 PUSH1 0x4 DUP3 ADD MSTORE PUSH1 0x1C PUSH1 0x24 DUP3 ADD MSTORE PUSH32 0x4D6178206D696E74207065722061646472657373207265616368656400000000 PUSH1 0x44 DUP3 ADD MSTORE PUSH1 0x64 SWAP1 REVERT JUMPDEST PUSH0 NOT DUP2 EQ PUSH2 0x33E JUMPI PUSH1 0x1 ADD SWAP1 JUMP JUMPDEST ISZERO PUSH2 0x1606 JUMPI JUMP JUMPDEST PUSH1 0x40 MLOAD PUSH3 0x461BCD PUSH1 0xE5 SHL DUP2 MSTORE PUSH1 0x20 PUSH1 0x4 DUP3 ADD MSTORE PUSH1 0xE PUSH1 0x24 DUP3 ADD MSTORE PUSH32 0x496E76616C696420616D6F756E74000000000000000000000000000000000000 PUSH1 0x44 DUP3 ADD MSTORE PUSH1 0x64 SWAP1 REVERT JUMPDEST SWAP2 SWAP1 DUP3 ADD DUP1 SWAP3 GT PUSH2 0x33E JUMPI JUMP JUMPDEST SWAP2 SWAP1 PUSH1 0x1 PUSH1 0x1 PUSH1 0xA0 SHL SUB AND DUP1 ISZERO PUSH2 0x17E0 JUMPI DUP2 PUSH0 MSTORE PUSH1 0x2 PUSH1 0x20 MSTORE PUSH1 0x1 PUSH1 0x1 PUSH1 0xA0 SHL SUB PUSH1 0x40 PUSH0 KECCAK256 SLOAD AND SWAP3 DUP3 CALLER ISZERO ISZERO SWAP3 DUP4 PUSH2 0x1744 JUMPI JUMPDEST PUSH1 0x1 PUSH1 0x1 PUSH1 0xA0 SHL SUB SWAP4 POP DUP6 PUSH2 0x170D JUMPI JUMPDEST DUP1 PUSH0 MSTORE PUSH1 0x3 PUSH1 0x20 MSTORE PUSH1 0x40 PUSH0 KECCAK256 PUSH1 0x1 DUP2 SLOAD ADD SWAP1 SSTORE DUP2 PUSH0 MSTORE PUSH1 0x2 PUSH1 0x20 MSTORE PUSH1 0x40 PUSH0 KECCAK256 DUP2 DUP6 NOT DUP3 SLOAD AND OR SWAP1 SSTORE DUP6 PUSH32 0xDDF252AD1BE2C89B69C2B068FC378DAA952BA7F163C4A11628F55A4DF523B3EF PUSH0 DUP1 LOG4 AND DUP1 DUP4 SUB PUSH2 0x16F5 JUMPI POP POP POP JUMP JUMPDEST PUSH4 0x64283D7B PUSH1 0xE0 SHL PUSH0 MSTORE PUSH1 0x4 MSTORE PUSH1 0x24 MSTORE PUSH1 0x44 MSTORE PUSH1 0x64 PUSH0 REVERT JUMPDEST PUSH2 0x172C DUP3 PUSH0 MSTORE PUSH1 0x4 PUSH1 0x20 MSTORE PUSH1 0x40 PUSH0 KECCAK256 PUSH1 0x1 PUSH1 0x1 PUSH1 0xA0 SHL SUB NOT DUP2 SLOAD AND SWAP1 SSTORE JUMP JUMPDEST DUP6 PUSH0 MSTORE PUSH1 0x3 PUSH1 0x20 MSTORE PUSH1 0x40 PUSH0 KECCAK256 PUSH0 NOT DUP2 SLOAD ADD SWAP1 SSTORE PUSH2 0x169B JUMP JUMPDEST SWAP2 SWAP3 SWAP1 POP DUP1 PUSH2 0x1789 JUMPI JUMPDEST ISZERO PUSH2 0x175B JUMPI DUP3 DUP3 SWAP2 PUSH2 0x168B JUMP JUMPDEST DUP3 DUP5 PUSH2 0x1773 JUMPI PUSH4 0x7E273289 PUSH1 0xE0 SHL PUSH0 MSTORE PUSH1 0x4 MSTORE PUSH1 0x24 PUSH0 REVERT JUMPDEST PUSH4 0x177E802F PUSH1 0xE0 SHL PUSH0 MSTORE CALLER PUSH1 0x4 MSTORE PUSH1 0x24 MSTORE PUSH1 0x44 PUSH0 REVERT JUMPDEST POP CALLER DUP5 EQ DUP1 ISZERO PUSH2 0x17B7 JUMPI JUMPDEST DUP1 PUSH2 0x174E JUMPI POP DUP3 PUSH0 MSTORE PUSH1 0x4 PUSH1 0x20 MSTORE CALLER PUSH1 0x1 PUSH1 0x1 PUSH1 0xA0 SHL SUB PUSH1 0x40 PUSH0 KECCAK256 SLOAD AND EQ PUSH2 0x174E JUMP JUMPDEST POP DUP4 PUSH0 MSTORE PUSH1 0x5 PUSH1 0x20 MSTORE PUSH1 0x40 PUSH0 KECCAK256 PUSH1 0x1 PUSH1 0x1 PUSH1 0xA0 SHL SUB CALLER AND PUSH0 MSTORE PUSH1 0x20 MSTORE PUSH1 0xFF PUSH1 0x40 PUSH0 KECCAK256 SLOAD AND PUSH2 0x1794 JUMP JUMPDEST PUSH4 0x32505749 PUSH1 0xE1 SHL PUSH0 MSTORE PUSH0 PUSH1 0x4 MSTORE PUSH1 0x24 PUSH0 REVERT JUMPDEST SWAP1 PUSH2 0x17FF DUP4 DUP3 DUP5 PUSH2 0x1658 JUMP JUMPDEST DUP1 EXTCODESIZE PUSH2 0x180C JUMPI JUMPDEST POP POP POP POP JUMP JUMPDEST PUSH1 0x20 SWAP2 PUSH2 0x1852 PUSH1 0x1 PUSH1 0x1 PUSH1 0xA0 SHL SUB DUP1 SWAP4 AND SWAP6 PUSH1 0x40 MLOAD SWAP6 DUP7 SWAP5 DUP6 SWAP5 PUSH4 0xA85BD01 PUSH1 0xE1 SHL DUP7 MSTORE CALLER PUSH1 0x4 DUP8 ADD MSTORE AND PUSH1 0x24 DUP6 ADD MSTORE PUSH1 0x44 DUP5 ADD MSTORE PUSH1 0x80 PUSH1 0x64 DUP5 ADD MSTORE PUSH1 0x84 DUP4 ADD SWAP1 PUSH2 0x138B JUMP JUMPDEST SUB DUP2 PUSH0 DUP7 GAS CALL PUSH0 SWAP2 DUP2 PUSH2 0x18E8 JUMPI JUMPDEST POP PUSH2 0x18B5 JUMPI POP RETURNDATASIZE ISZERO PUSH2 0x18AE JUMPI RETURNDATASIZE PUSH2 0x1876 DUP2 PUSH2 0x1483 JUMP JUMPDEST SWAP1 PUSH2 0x1884 PUSH1 0x40 MLOAD SWAP3 DUP4 PUSH2 0x1461 JUMP JUMPDEST DUP2 MSTORE RETURNDATASIZE PUSH0 PUSH1 0x20 DUP4 ADD RETURNDATACOPY JUMPDEST DUP1 MLOAD SWAP1 DUP2 PUSH2 0x18A9 JUMPI DUP3 PUSH4 0x32505749 PUSH1 0xE1 SHL PUSH0 MSTORE PUSH1 0x4 MSTORE PUSH1 0x24 PUSH0 REVERT JUMPDEST PUSH1 0x20 ADD REVERT JUMPDEST PUSH1 0x60 PUSH2 0x188E JUMP JUMPDEST PUSH1 0x1 PUSH1 0x1 PUSH1 0xE0 SHL SUB NOT AND PUSH4 0x757A42FF PUSH1 0xE1 SHL ADD PUSH2 0x18D6 JUMPI POP PUSH0 DUP1 DUP1 DUP1 PUSH2 0x1806 JUMP JUMPDEST PUSH4 0x32505749 PUSH1 0xE1 SHL PUSH0 MSTORE PUSH1 0x4 MSTORE PUSH1 0x24 PUSH0 REVERT JUMPDEST SWAP1 SWAP2 POP PUSH1 0x20 DUP2 RETURNDATASIZE PUSH1 0x20 GT PUSH2 0x1925 JUMPI JUMPDEST DUP2 PUSH2 0x1904 PUSH1 0x20 SWAP4 DUP4 PUSH2 0x1461 JUMP JUMPDEST DUP2 ADD SUB SLT PUSH2 0x352 JUMPI MLOAD PUSH1 0x1 PUSH1 0x1 PUSH1 0xE0 SHL SUB NOT DUP2 AND DUP2 SUB PUSH2 0x352 JUMPI SWAP1 PUSH0 PUSH2 0x1860 JUMP JUMPDEST RETURNDATASIZE SWAP2 POP PUSH2 0x18F7 JUMP JUMPDEST DUP1 PUSH0 MSTORE PUSH1 0x2 PUSH1 0x20 MSTORE PUSH1 0x1 PUSH1 0x1 PUSH1 0xA0 SHL SUB PUSH1 0x40 PUSH0 KECCAK256 SLOAD AND ISZERO PUSH2 0x1A4B JUMPI PUSH1 0xF SLOAD SWAP1 PUSH2 0x1955 DUP3 PUSH2 0x14D5 JUMP JUMPDEST ISZERO PUSH2 0x1A35 JUMPI PUSH2 0x1963 SWAP1 PUSH2 0x1BEC JUMP JUMPDEST PUSH1 0x40 MLOAD DUP1 SWAP3 PUSH0 SWAP1 PUSH2 0x1973 DUP2 PUSH2 0x14D5 JUMP JUMPDEST SWAP1 PUSH1 0x1 DUP2 AND SWAP1 DUP2 ISZERO PUSH2 0x1A15 JUMPI POP PUSH1 0x1 EQ PUSH2 0x19B9 JUMPI JUMPDEST POP SWAP1 PUSH1 0x20 PUSH1 0x5 SWAP3 DUP5 PUSH2 0x19B6 SWAP6 MLOAD SWAP3 DUP4 SWAP2 ADD DUP3 MCOPY ADD PUSH5 0x173539B7B7 PUSH1 0xD9 SHL DUP2 MSTORE SUB PUSH1 0x1A NOT DUP2 ADD DUP5 MSTORE ADD DUP3 PUSH2 0x1461 JUMP JUMPDEST SWAP1 JUMP JUMPDEST SWAP1 POP PUSH1 0xF PUSH0 MSTORE PUSH32 0x8D1108E10BCB7C27DDDFC02ED9D693A074039D026CF4EA4240B40F7D581AC802 PUSH0 SWAP1 JUMPDEST DUP3 DUP3 LT PUSH2 0x19F9 JUMPI POP POP DUP2 ADD PUSH1 0x20 SWAP1 DUP2 ADD SWAP1 PUSH2 0x1988 JUMP JUMPDEST PUSH1 0x20 SWAP2 SWAP3 SWAP4 POP DUP1 PUSH1 0x1 SWAP2 SLOAD DUP4 DUP6 DUP10 ADD ADD MSTORE ADD SWAP2 ADD DUP5 SWAP3 SWAP2 PUSH2 0x19E3 JUMP JUMPDEST PUSH1 0xFF NOT AND PUSH1 0x20 DUP1 DUP7 ADD SWAP2 SWAP1 SWAP2 MSTORE DUP3 ISZERO ISZERO SWAP1 SWAP3 MUL DUP5 ADD DUP3 ADD SWAP3 POP PUSH2 0x1988 SWAP1 POP JUMP JUMPDEST POP POP PUSH1 0x40 MLOAD PUSH2 0x1A45 PUSH1 0x20 DUP3 PUSH2 0x1461 JUMP JUMPDEST PUSH0 DUP2 MSTORE SWAP1 JUMP JUMPDEST PUSH1 0x40 MLOAD PUSH3 0x461BCD PUSH1 0xE5 SHL DUP2 MSTORE PUSH1 0x20 PUSH1 0x4 DUP3 ADD MSTORE PUSH1 0x14 PUSH1 0x24 DUP3 ADD MSTORE PUSH32 0x546F6B656E20646F6573206E6F74206578697374000000000000000000000000 PUSH1 0x44 DUP3 ADD MSTORE PUSH1 0x64 SWAP1 REVERT JUMPDEST PUSH8 0xFFFFFFFFFFFFFFFF DUP2 GT PUSH2 0x528 JUMPI PUSH1 0x5 SHL PUSH1 0x20 ADD SWAP1 JUMP JUMPDEST DUP1 MLOAD DUP3 LT ISZERO PUSH2 0x1431 JUMPI PUSH1 0x20 SWAP2 PUSH1 0x5 SHL ADD ADD SWAP1 JUMP JUMPDEST DUP1 PUSH0 MSTORE PUSH1 0x2 PUSH1 0x20 MSTORE PUSH1 0x1 PUSH1 0x1 PUSH1 0xA0 SHL SUB PUSH1 0x40 PUSH0 KECCAK256 SLOAD AND SWAP1 DUP2 ISZERO PUSH2 0x1ADD JUMPI POP SWAP1 JUMP JUMPDEST PUSH4 0x7E273289 PUSH1 0xE0 SHL PUSH0 MSTORE PUSH1 0x4 MSTORE PUSH1 0x24 PUSH0 REVERT JUMPDEST PUSH1 0x1 PUSH1 0x1 PUSH1 0xA0 SHL SUB AND SWAP1 DUP2 ISZERO PUSH2 0x17E0 JUMPI DUP1 PUSH0 MSTORE PUSH1 0x2 PUSH1 0x20 MSTORE PUSH1 0x1 PUSH1 0x1 PUSH1 0xA0 SHL SUB PUSH1 0x40 PUSH0 KECCAK256 SLOAD AND SWAP1 DUP2 ISZERO ISZERO SWAP3 DUP4 PUSH2 0x1B8E JUMPI JUMPDEST DUP1 PUSH0 MSTORE PUSH1 0x3 PUSH1 0x20 MSTORE PUSH1 0x40 PUSH0 KECCAK256 PUSH1 0x1 DUP2 SLOAD ADD SWAP1 SSTORE DUP2 PUSH0 MSTORE PUSH1 0x2 PUSH1 0x20 MSTORE PUSH1 0x40 PUSH0 KECCAK256 DUP2 PUSH1 0x1 PUSH1 0x1 PUSH1 0xA0 SHL SUB NOT DUP3 SLOAD AND OR SWAP1 SSTORE DUP3 PUSH32 0xDDF252AD1BE2C89B69C2B068FC378DAA952BA7F163C4A11628F55A4DF523B3EF PUSH0 DUP1 LOG4 POP PUSH2 0x1B7B JUMPI JUMP JUMPDEST PUSH4 0x39E35637 PUSH1 0xE1 SHL PUSH0 MSTORE PUSH0 PUSH1 0x4 MSTORE PUSH1 0x24 PUSH0 REVERT JUMPDEST PUSH2 0x1BAD DUP3 PUSH0 MSTORE PUSH1 0x4 PUSH1 0x20 MSTORE PUSH1 0x40 PUSH0 KECCAK256 PUSH1 0x1 PUSH1 0x1 PUSH1 0xA0 SHL SUB NOT DUP2 SLOAD AND SWAP1 SSTORE JUMP JUMPDEST DUP3 PUSH0 MSTORE PUSH1 0x3 PUSH1 0x20 MSTORE PUSH1 0x40 PUSH0 KECCAK256 PUSH0 NOT DUP2 SLOAD ADD SWAP1 SSTORE PUSH2 0x1B20 JUMP JUMPDEST PUSH1 0x1 PUSH1 0x1 PUSH1 0xA0 SHL SUB PUSH1 0x6 SLOAD AND CALLER SUB PUSH2 0x1BD9 JUMPI JUMP JUMPDEST PUSH4 0x118CDAA7 PUSH1 0xE0 SHL PUSH0 MSTORE CALLER PUSH1 0x4 MSTORE PUSH1 0x24 PUSH0 REVERT JUMPDEST DUP1 ISZERO PUSH2 0x1CA6 JUMPI PUSH0 DUP2 DUP1 JUMPDEST PUSH2 0x1C92 JUMPI POP PUSH2 0x1C04 DUP2 PUSH2 0x1483 JUMP JUMPDEST SWAP1 PUSH2 0x1C12 PUSH1 0x40 MLOAD SWAP3 DUP4 PUSH2 0x1461 JUMP JUMPDEST DUP1 DUP3 MSTORE PUSH1 0x1F NOT PUSH2 0x1C21 DUP3 PUSH2 0x1483 JUMP JUMPDEST ADD CALLDATASIZE PUSH1 0x20 DUP5 ADD CALLDATACOPY JUMPDEST DUP1 DUP4 ISZERO PUSH2 0x1C8B JUMPI DUP1 ISZERO PUSH2 0x33E JUMPI PUSH0 NOT ADD SWAP3 PUSH1 0xA DUP2 MOD PUSH1 0x30 ADD SWAP2 DUP3 PUSH1 0x30 GT PUSH2 0x33E JUMPI DUP4 MLOAD DUP6 LT ISZERO PUSH2 0x1431 JUMPI PUSH1 0xA SWAP3 PUSH1 0xF8 SHL PUSH32 0xFF00000000000000000000000000000000000000000000000000000000000000 AND PUSH0 BYTE SWAP1 DUP5 ADD PUSH1 0x1F ADD MSTORE8 DIV SWAP2 PUSH2 0x1C29 JUMP JUMPDEST POP POP SWAP1 POP SWAP1 JUMP JUMPDEST SWAP1 PUSH2 0x1C9E PUSH1 0xA SWAP2 PUSH2 0x15F1 JUMP JUMPDEST SWAP2 DIV DUP1 PUSH2 0x1BF6 JUMP JUMPDEST POP PUSH1 0x40 MLOAD PUSH2 0x1CB5 PUSH1 0x40 DUP3 PUSH2 0x1461 JUMP JUMPDEST PUSH1 0x1 DUP2 MSTORE PUSH1 0x3 PUSH1 0xFC SHL PUSH1 0x20 DUP3 ADD MSTORE SWAP1 JUMP JUMPDEST SWAP1 PUSH0 PUSH1 0x20 SWAP2 DUP3 DUP2 MLOAD SWAP2 ADD DUP3 DUP6 GAS CALL ISZERO PUSH2 0xF5A JUMPI PUSH0 MLOAD RETURNDATASIZE PUSH2 0x1D11 JUMPI POP PUSH1 0x1 PUSH1 0x1 PUSH1 0xA0 SHL SUB DUP2 AND EXTCODESIZE ISZERO JUMPDEST PUSH2 0x1CF5 JUMPI POP JUMP JUMPDEST PUSH1 0x1 PUSH1 0x1 PUSH1 0xA0 SHL SUB SWAP1 PUSH4 0x5274AFE7 PUSH1 0xE0 SHL PUSH0 MSTORE AND PUSH1 0x4 MSTORE PUSH1 0x24 PUSH0 REVERT JUMPDEST PUSH1 0x1 EQ ISZERO PUSH2 0x1CEE JUMP INVALID LOG2 PUSH5 0x6970667358 0x22 SLT KECCAK256 0xD 0xB7 0xAB PUSH4 0xEA927F75 LOG2 0xAF 0xCF LT DUP8 MSTORE8 SSTORE 0xB5 ADDMOD RETURNDATACOPY GAS 0x27 SWAP16 0xCE 0xEB CODESIZE LOG2 0xA6 PUSH22 0x1E3D13DE9C64736F6C634300081C0033000000000000 "
		},
		"gasEstimates": {
			"creation": {
				"codeDepositCost": "1500800",
				"executionCost": "infinite",
				"totalCost": "infinite"
			},
			"external": {
				"approve(address,uint256)": "31128",
				"balanceOf(address)": "2821",
				"getAllWrappedNFTs()": "infinite",
				"getApproved(uint256)": "4621",
				"getNextTokenId()": "2872",
				"getWrappedAmount(uint256)": "3003",
				"isApprovedForAll(address,address)": "3277",
				"maxMintPerAddress()": "2564",
				"maxSupply()": "2894",
				"mint()": "infinite",
				"mintBatch(uint256)": "infinite",
				"mintPrice()": "2608",
				"mintedCount(address)": "3198",
				"name()": "infinite",
				"owner()": "2714",
				"ownerMint(address,uint256)": "infinite",
				"ownerOf(uint256)": "2741",
				"renounceOwnership()": "28457",
				"safeTransferFrom(address,address,uint256)": "infinite",
				"safeTransferFrom(address,address,uint256,bytes)": "infinite",
				"setApprovalForAll(address,bool)": "26928",
				"setBaseURI(string)": "infinite",
				"setMaxMintPerAddress(uint256)": "24534",
				"setMaxSupply(uint256)": "24776",
				"setMintPrice(uint256)": "25172",
				"supportsInterface(bytes4)": "322",
				"symbol()": "infinite",
				"tokenURI(uint256)": "infinite",
				"totalSupply()": "2404",
				"transferFrom(address,address,uint256)": "106434",
				"transferOwnership(address)": "28901",
				"unwrap(uint256)": "infinite",
				"withdraw()": "infinite",
				"wrap(uint256)": "infinite",
				"wrappedAmount(uint256)": "2915",
				"wrappedAssets(uint256)": "5085",
				"wrappedNFTList(uint256)": "8955",
				"wrappedToken()": "infinite"
			},
			"internal": {
				"_toString(uint256)": "infinite"
			}
		},
		"methodIdentifiers": {
			"approve(address,uint256)": "095ea7b3",
			"balanceOf(address)": "70a08231",
			"getAllWrappedNFTs()": "fea4f170",
			"getApproved(uint256)": "081812fc",
			"getNextTokenId()": "caa0f92a",
			"getWrappedAmount(uint256)": "df91d0b9",
			"isApprovedForAll(address,address)": "e985e9c5",
			"maxMintPerAddress()": "572849c4",
			"maxSupply()": "d5abeb01",
			"mint()": "1249c58b",
			"mintBatch(uint256)": "20e409b4",
			"mintPrice()": "6817c76c",
			"mintedCount(address)": "fddcb5ea",
			"name()": "06fdde03",
			"owner()": "8da5cb5b",
			"ownerMint(address,uint256)": "484b973c",
			"ownerOf(uint256)": "6352211e",
			"renounceOwnership()": "715018a6",
			"safeTransferFrom(address,address,uint256)": "42842e0e",
			"safeTransferFrom(address,address,uint256,bytes)": "b88d4fde",
			"setApprovalForAll(address,bool)": "a22cb465",
			"setBaseURI(string)": "55f804b3",
			"setMaxMintPerAddress(uint256)": "1e14d44b",
			"setMaxSupply(uint256)": "6f8b44b0",
			"setMintPrice(uint256)": "f4a0a528",
			"supportsInterface(bytes4)": "01ffc9a7",
			"symbol()": "95d89b41",
			"tokenURI(uint256)": "c87b56dd",
			"totalSupply()": "18160ddd",
			"transferFrom(address,address,uint256)": "23b872dd",
			"transferOwnership(address)": "f2fde38b",
			"unwrap(uint256)": "de0e9a3e",
			"withdraw()": "3ccfd60b",
			"wrap(uint256)": "ea598cb0",
			"wrappedAmount(uint256)": "c968ae0a",
			"wrappedAssets(uint256)": "c07de428",
			"wrappedNFTList(uint256)": "3eb5a91d",
			"wrappedToken()": "996c6cc3"
		}
	},
	"abi": [
		{
			"inputs": [
				{
					"internalType": "address",
					"name": "_wrappedToken",
					"type": "address"
				}
			],
			"stateMutability": "nonpayable",
			"type": "constructor"
		},
		{
			"inputs": [
				{
					"internalType": "address",
					"name": "sender",
					"type": "address"
				},
				{
					"internalType": "uint256",
					"name": "tokenId",
					"type": "uint256"
				},
				{
					"internalType": "address",
					"name": "owner",
					"type": "address"
				}
			],
			"name": "ERC721IncorrectOwner",
			"type": "error"
		},
		{
			"inputs": [
				{
					"internalType": "address",
					"name": "operator",
					"type": "address"
				},
				{
					"internalType": "uint256",
					"name": "tokenId",
					"type": "uint256"
				}
			],
			"name": "ERC721InsufficientApproval",
			"type": "error"
		},
		{
			"inputs": [
				{
					"internalType": "address",
					"name": "approver",
					"type": "address"
				}
			],
			"name": "ERC721InvalidApprover",
			"type": "error"
		},
		{
			"inputs": [
				{
					"internalType": "address",
					"name": "operator",
					"type": "address"
				}
			],
			"name": "ERC721InvalidOperator",
			"type": "error"
		},
		{
			"inputs": [
				{
					"internalType": "address",
					"name": "owner",
					"type": "address"
				}
			],
			"name": "ERC721InvalidOwner",
			"type": "error"
		},
		{
			"inputs": [
				{
					"internalType": "address",
					"name": "receiver",
					"type": "address"
				}
			],
			"name": "ERC721InvalidReceiver",
			"type": "error"
		},
		{
			"inputs": [
				{
					"internalType": "address",
					"name": "sender",
					"type": "address"
				}
			],
			"name": "ERC721InvalidSender",
			"type": "error"
		},
		{
			"inputs": [
				{
					"internalType": "uint256",
					"name": "tokenId",
					"type": "uint256"
				}
			],
			"name": "ERC721NonexistentToken",
			"type": "error"
		},
		{
			"inputs": [
				{
					"internalType": "address",
					"name": "owner",
					"type": "address"
				}
			],
			"name": "OwnableInvalidOwner",
			"type": "error"
		},
		{
			"inputs": [
				{
					"internalType": "address",
					"name": "account",
					"type": "address"
				}
			],
			"name": "OwnableUnauthorizedAccount",
			"type": "error"
		},
		{
			"inputs": [
				{
					"internalType": "address",
					"name": "token",
					"type": "address"
				}
			],
			"name": "SafeERC20FailedOperation",
			"type": "error"
		},
		{
			"anonymous": false,
			"inputs": [
				{
					"indexed": true,
					"internalType": "address",
					"name": "owner",
					"type": "address"
				},
				{
					"indexed": true,
					"internalType": "address",
					"name": "approved",
					"type": "address"
				},
				{
					"indexed": true,
					"internalType": "uint256",
					"name": "tokenId",
					"type": "uint256"
				}
			],
			"name": "Approval",
			"type": "event"
		},
		{
			"anonymous": false,
			"inputs": [
				{
					"indexed": true,
					"internalType": "address",
					"name": "owner",
					"type": "address"
				},
				{
					"indexed": true,
					"internalType": "address",
					"name": "operator",
					"type": "address"
				},
				{
					"indexed": false,
					"internalType": "bool",
					"name": "approved",
					"type": "bool"
				}
			],
			"name": "ApprovalForAll",
			"type": "event"
		},
		{
			"anonymous": false,
			"inputs": [
				{
					"indexed": true,
					"internalType": "address",
					"name": "previousOwner",
					"type": "address"
				},
				{
					"indexed": true,
					"internalType": "address",
					"name": "newOwner",
					"type": "address"
				}
			],
			"name": "OwnershipTransferred",
			"type": "event"
		},
		{
			"anonymous": false,
			"inputs": [
				{
					"indexed": true,
					"internalType": "address",
					"name": "from",
					"type": "address"
				},
				{
					"indexed": true,
					"internalType": "address",
					"name": "to",
					"type": "address"
				},
				{
					"indexed": true,
					"internalType": "uint256",
					"name": "tokenId",
					"type": "uint256"
				}
			],
			"name": "Transfer",
			"type": "event"
		},
		{
			"inputs": [
				{
					"internalType": "address",
					"name": "to",
					"type": "address"
				},
				{
					"internalType": "uint256",
					"name": "tokenId",
					"type": "uint256"
				}
			],
			"name": "approve",
			"outputs": [],
			"stateMutability": "nonpayable",
			"type": "function"
		},
		{
			"inputs": [
				{
					"internalType": "address",
					"name": "owner",
					"type": "address"
				}
			],
			"name": "balanceOf",
			"outputs": [
				{
					"internalType": "uint256",
					"name": "",
					"type": "uint256"
				}
			],
			"stateMutability": "view",
			"type": "function"
		},
		{
			"inputs": [],
			"name": "getAllWrappedNFTs",
			"outputs": [
				{
					"components": [
						{
							"internalType": "uint256",
							"name": "tokenId",
							"type": "uint256"
						},
						{
							"internalType": "uint256",
							"name": "amount",
							"type": "uint256"
						}
					],
					"internalType": "struct SimpleNFT.WrappedNFTInfo[]",
					"name": "",
					"type": "tuple[]"
				}
			],
			"stateMutability": "view",
			"type": "function"
		},
		{
			"inputs": [
				{
					"internalType": "uint256",
					"name": "tokenId",
					"type": "uint256"
				}
			],
			"name": "getApproved",
			"outputs": [
				{
					"internalType": "address",
					"name": "",
					"type": "address"
				}
			],
			"stateMutability": "view",
			"type": "function"
		},
		{
			"inputs": [],
			"name": "getNextTokenId",
			"outputs": [
				{
					"internalType": "uint256",
					"name": "",
					"type": "uint256"
				}
			],
			"stateMutability": "view",
			"type": "function"
		},
		{
			"inputs": [
				{
					"internalType": "uint256",
					"name": "tokenId",
					"type": "uint256"
				}
			],
			"name": "getWrappedAmount",
			"outputs": [
				{
					"internalType": "uint256",
					"name": "",
					"type": "uint256"
				}
			],
			"stateMutability": "view",
			"type": "function"
		},
		{
			"inputs": [
				{
					"internalType": "address",
					"name": "owner",
					"type": "address"
				},
				{
					"internalType": "address",
					"name": "operator",
					"type": "address"
				}
			],
			"name": "isApprovedForAll",
			"outputs": [
				{
					"internalType": "bool",
					"name": "",
					"type": "bool"
				}
			],
			"stateMutability": "view",
			"type": "function"
		},
		{
			"inputs": [],
			"name": "maxMintPerAddress",
			"outputs": [
				{
					"internalType": "uint256",
					"name": "",
					"type": "uint256"
				}
			],
			"stateMutability": "view",
			"type": "function"
		},
		{
			"inputs": [],
			"name": "maxSupply",
			"outputs": [
				{
					"internalType": "uint256",
					"name": "",
					"type": "uint256"
				}
			],
			"stateMutability": "view",
			"type": "function"
		},
		{
			"inputs": [],
			"name": "mint",
			"outputs": [],
			"stateMutability": "payable",
			"type": "function"
		},
		{
			"inputs": [
				{
					"internalType": "uint256",
					"name": "amount",
					"type": "uint256"
				}
			],
			"name": "mintBatch",
			"outputs": [],
			"stateMutability": "payable",
			"type": "function"
		},
		{
			"inputs": [],
			"name": "mintPrice",
			"outputs": [
				{
					"internalType": "uint256",
					"name": "",
					"type": "uint256"
				}
			],
			"stateMutability": "view",
			"type": "function"
		},
		{
			"inputs": [
				{
					"internalType": "address",
					"name": "",
					"type": "address"
				}
			],
			"name": "mintedCount",
			"outputs": [
				{
					"internalType": "uint256",
					"name": "",
					"type": "uint256"
				}
			],
			"stateMutability": "view",
			"type": "function"
		},
		{
			"inputs": [],
			"name": "name",
			"outputs": [
				{
					"internalType": "string",
					"name": "",
					"type": "string"
				}
			],
			"stateMutability": "view",
			"type": "function"
		},
		{
			"inputs": [],
			"name": "owner",
			"outputs": [
				{
					"internalType": "address",
					"name": "",
					"type": "address"
				}
			],
			"stateMutability": "view",
			"type": "function"
		},
		{
			"inputs": [
				{
					"internalType": "address",
					"name": "to",
					"type": "address"
				},
				{
					"internalType": "uint256",
					"name": "amount",
					"type": "uint256"
				}
			],
			"name": "ownerMint",
			"outputs": [],
			"stateMutability": "nonpayable",
			"type": "function"
		},
		{
			"inputs": [
				{
					"internalType": "uint256",
					"name": "tokenId",
					"type": "uint256"
				}
			],
			"name": "ownerOf",
			"outputs": [
				{
					"internalType": "address",
					"name": "",
					"type": "address"
				}
			],
			"stateMutability": "view",
			"type": "function"
		},
		{
			"inputs": [],
			"name": "renounceOwnership",
			"outputs": [],
			"stateMutability": "nonpayable",
			"type": "function"
		},
		{
			"inputs": [
				{
					"internalType": "address",
					"name": "from",
					"type": "address"
				},
				{
					"internalType": "address",
					"name": "to",
					"type": "address"
				},
				{
					"internalType": "uint256",
					"name": "tokenId",
					"type": "uint256"
				}
			],
			"name": "safeTransferFrom",
			"outputs": [],
			"stateMutability": "nonpayable",
			"type": "function"
		},
		{
			"inputs": [
				{
					"internalType": "address",
					"name": "from",
					"type": "address"
				},
				{
					"internalType": "address",
					"name": "to",
					"type": "address"
				},
				{
					"internalType": "uint256",
					"name": "tokenId",
					"type": "uint256"
				},
				{
					"internalType": "bytes",
					"name": "data",
					"type": "bytes"
				}
			],
			"name": "safeTransferFrom",
			"outputs": [],
			"stateMutability": "nonpayable",
			"type": "function"
		},
		{
			"inputs": [
				{
					"internalType": "address",
					"name": "operator",
					"type": "address"
				},
				{
					"internalType": "bool",
					"name": "approved",
					"type": "bool"
				}
			],
			"name": "setApprovalForAll",
			"outputs": [],
			"stateMutability": "nonpayable",
			"type": "function"
		},
		{
			"inputs": [
				{
					"internalType": "string",
					"name": "_baseTokenURI",
					"type": "string"
				}
			],
			"name": "setBaseURI",
			"outputs": [],
			"stateMutability": "nonpayable",
			"type": "function"
		},
		{
			"inputs": [
				{
					"internalType": "uint256",
					"name": "_maxMint",
					"type": "uint256"
				}
			],
			"name": "setMaxMintPerAddress",
			"outputs": [],
			"stateMutability": "nonpayable",
			"type": "function"
		},
		{
			"inputs": [
				{
					"internalType": "uint256",
					"name": "_maxSupply",
					"type": "uint256"
				}
			],
			"name": "setMaxSupply",
			"outputs": [],
			"stateMutability": "nonpayable",
			"type": "function"
		},
		{
			"inputs": [
				{
					"internalType": "uint256",
					"name": "_price",
					"type": "uint256"
				}
			],
			"name": "setMintPrice",
			"outputs": [],
			"stateMutability": "nonpayable",
			"type": "function"
		},
		{
			"inputs": [
				{
					"internalType": "bytes4",
					"name": "interfaceId",
					"type": "bytes4"
				}
			],
			"name": "supportsInterface",
			"outputs": [
				{
					"internalType": "bool",
					"name": "",
					"type": "bool"
				}
			],
			"stateMutability": "view",
			"type": "function"
		},
		{
			"inputs": [],
			"name": "symbol",
			"outputs": [
				{
					"internalType": "string",
					"name": "",
					"type": "string"
				}
			],
			"stateMutability": "view",
			"type": "function"
		},
		{
			"inputs": [
				{
					"internalType": "uint256",
					"name": "tokenId",
					"type": "uint256"
				}
			],
			"name": "tokenURI",
			"outputs": [
				{
					"internalType": "string",
					"name": "",
					"type": "string"
				}
			],
			"stateMutability": "view",
			"type": "function"
		},
		{
			"inputs": [],
			"name": "totalSupply",
			"outputs": [
				{
					"internalType": "uint256",
					"name": "",
					"type": "uint256"
				}
			],
			"stateMutability": "view",
			"type": "function"
		},
		{
			"inputs": [
				{
					"internalType": "address",
					"name": "from",
					"type": "address"
				},
				{
					"internalType": "address",
					"name": "to",
					"type": "address"
				},
				{
					"internalType": "uint256",
					"name": "tokenId",
					"type": "uint256"
				}
			],
			"name": "transferFrom",
			"outputs": [],
			"stateMutability": "nonpayable",
			"type": "function"
		},
		{
			"inputs": [
				{
					"internalType": "address",
					"name": "newOwner",
					"type": "address"
				}
			],
			"name": "transferOwnership",
			"outputs": [],
			"stateMutability": "nonpayable",
			"type": "function"
		},
		{
			"inputs": [
				{
					"internalType": "uint256",
					"name": "tokenId",
					"type": "uint256"
				}
			],
			"name": "unwrap",
			"outputs": [],
			"stateMutability": "nonpayable",
			"type": "function"
		},
		{
			"inputs": [],
			"name": "withdraw",
			"outputs": [],
			"stateMutability": "nonpayable",
			"type": "function"
		},
		{
			"inputs": [
				{
					"internalType": "uint256",
					"name": "amount",
					"type": "uint256"
				}
			],
			"name": "wrap",
			"outputs": [],
			"stateMutability": "nonpayable",
			"type": "function"
		},
		{
			"inputs": [
				{
					"internalType": "uint256",
					"name": "",
					"type": "uint256"
				}
			],
			"name": "wrappedAmount",
			"outputs": [
				{
					"internalType": "uint256",
					"name": "",
					"type": "uint256"
				}
			],
			"stateMutability": "view",
			"type": "function"
		},
		{
			"inputs": [
				{
					"internalType": "uint256",
					"name": "",
					"type": "uint256"
				}
			],
			"name": "wrappedAssets",
			"outputs": [
				{
					"internalType": "address",
					"name": "token",
					"type": "address"
				},
				{
					"internalType": "uint256",
					"name": "amount",
					"type": "uint256"
				}
			],
			"stateMutability": "view",
			"type": "function"
		},
		{
			"inputs": [
				{
					"internalType": "uint256",
					"name": "",
					"type": "uint256"
				}
			],
			"name": "wrappedNFTList",
			"outputs": [
				{
					"internalType": "uint256",
					"name": "tokenId",
					"type": "uint256"
				},
				{
					"internalType": "uint256",
					"name": "amount",
					"type": "uint256"
				}
			],
			"stateMutability": "view",
			"type": "function"
		},
		{
			"inputs": [],
			"name": "wrappedToken",
			"outputs": [
				{
					"internalType": "contract IERC20",
					"name": "",
					"type": "address"
				}
			],
			"stateMutability": "view",
			"type": "function"
		}
	]
}